{
  "contractName": "CowlToken",
  "abi": [
    {
      "anonymous": false,
      "inputs": [
        {
          "indexed": true,
          "internalType": "address",
          "name": "owner",
          "type": "address"
        },
        {
          "indexed": true,
          "internalType": "address",
          "name": "spender",
          "type": "address"
        },
        {
          "indexed": false,
          "internalType": "uint256",
          "name": "value",
          "type": "uint256"
        }
      ],
      "name": "Approval",
      "type": "event"
    },
    {
      "anonymous": false,
      "inputs": [
        {
          "indexed": false,
          "internalType": "uint8",
          "name": "version",
          "type": "uint8"
        }
      ],
      "name": "Initialized",
      "type": "event"
    },
    {
      "anonymous": false,
      "inputs": [
        {
          "indexed": true,
          "internalType": "bytes32",
          "name": "role",
          "type": "bytes32"
        },
        {
          "indexed": true,
          "internalType": "bytes32",
          "name": "previousAdminRole",
          "type": "bytes32"
        },
        {
          "indexed": true,
          "internalType": "bytes32",
          "name": "newAdminRole",
          "type": "bytes32"
        }
      ],
      "name": "RoleAdminChanged",
      "type": "event"
    },
    {
      "anonymous": false,
      "inputs": [
        {
          "indexed": true,
          "internalType": "bytes32",
          "name": "role",
          "type": "bytes32"
        },
        {
          "indexed": true,
          "internalType": "address",
          "name": "account",
          "type": "address"
        },
        {
          "indexed": true,
          "internalType": "address",
          "name": "sender",
          "type": "address"
        }
      ],
      "name": "RoleGranted",
      "type": "event"
    },
    {
      "anonymous": false,
      "inputs": [
        {
          "indexed": true,
          "internalType": "bytes32",
          "name": "role",
          "type": "bytes32"
        },
        {
          "indexed": true,
          "internalType": "address",
          "name": "account",
          "type": "address"
        },
        {
          "indexed": true,
          "internalType": "address",
          "name": "sender",
          "type": "address"
        }
      ],
      "name": "RoleRevoked",
      "type": "event"
    },
    {
      "anonymous": false,
      "inputs": [
        {
          "indexed": true,
          "internalType": "address",
          "name": "staker",
          "type": "address"
        },
        {
          "indexed": false,
          "internalType": "uint256",
          "name": "amount",
          "type": "uint256"
        }
      ],
      "name": "Staked",
      "type": "event"
    },
    {
      "anonymous": false,
      "inputs": [
        {
          "indexed": true,
          "internalType": "address",
          "name": "from",
          "type": "address"
        },
        {
          "indexed": true,
          "internalType": "address",
          "name": "to",
          "type": "address"
        },
        {
          "indexed": false,
          "internalType": "uint256",
          "name": "value",
          "type": "uint256"
        }
      ],
      "name": "Transfer",
      "type": "event"
    },
    {
      "anonymous": false,
      "inputs": [
        {
          "indexed": true,
          "internalType": "address",
          "name": "staker",
          "type": "address"
        },
        {
          "indexed": false,
          "internalType": "uint256",
          "name": "amount",
          "type": "uint256"
        },
        {
          "indexed": false,
          "internalType": "uint256",
          "name": "reward",
          "type": "uint256"
        }
      ],
      "name": "Unstaked",
      "type": "event"
    },
    {
      "inputs": [],
      "name": "ADMIN_ROLE",
      "outputs": [
        {
          "internalType": "bytes32",
          "name": "",
          "type": "bytes32"
        }
      ],
      "stateMutability": "view",
      "type": "function",
      "constant": true
    },
    {
      "inputs": [],
      "name": "BURNER_ROLE",
      "outputs": [
        {
          "internalType": "bytes32",
          "name": "",
          "type": "bytes32"
        }
      ],
      "stateMutability": "view",
      "type": "function",
      "constant": true
    },
    {
      "inputs": [],
      "name": "DEFAULT_ADMIN_ROLE",
      "outputs": [
        {
          "internalType": "bytes32",
          "name": "",
          "type": "bytes32"
        }
      ],
      "stateMutability": "view",
      "type": "function",
      "constant": true
    },
    {
      "inputs": [],
      "name": "MINTER_ROLE",
      "outputs": [
        {
          "internalType": "bytes32",
          "name": "",
          "type": "bytes32"
        }
      ],
      "stateMutability": "view",
      "type": "function",
      "constant": true
    },
    {
      "inputs": [],
      "name": "STAKER_ROLE",
      "outputs": [
        {
          "internalType": "bytes32",
          "name": "",
          "type": "bytes32"
        }
      ],
      "stateMutability": "view",
      "type": "function",
      "constant": true
    },
    {
      "inputs": [
        {
          "internalType": "address",
          "name": "owner",
          "type": "address"
        },
        {
          "internalType": "address",
          "name": "spender",
          "type": "address"
        }
      ],
      "name": "allowance",
      "outputs": [
        {
          "internalType": "uint256",
          "name": "",
          "type": "uint256"
        }
      ],
      "stateMutability": "view",
      "type": "function",
      "constant": true
    },
    {
      "inputs": [
        {
          "internalType": "address",
          "name": "spender",
          "type": "address"
        },
        {
          "internalType": "uint256",
          "name": "amount",
          "type": "uint256"
        }
      ],
      "name": "approve",
      "outputs": [
        {
          "internalType": "bool",
          "name": "",
          "type": "bool"
        }
      ],
      "stateMutability": "nonpayable",
      "type": "function"
    },
    {
      "inputs": [
        {
          "internalType": "address",
          "name": "account",
          "type": "address"
        }
      ],
      "name": "balanceOf",
      "outputs": [
        {
          "internalType": "uint256",
          "name": "",
          "type": "uint256"
        }
      ],
      "stateMutability": "view",
      "type": "function",
      "constant": true
    },
    {
      "inputs": [],
      "name": "decayFactor",
      "outputs": [
        {
          "internalType": "uint256",
          "name": "",
          "type": "uint256"
        }
      ],
      "stateMutability": "view",
      "type": "function",
      "constant": true
    },
    {
      "inputs": [
        {
          "internalType": "address",
          "name": "spender",
          "type": "address"
        },
        {
          "internalType": "uint256",
          "name": "subtractedValue",
          "type": "uint256"
        }
      ],
      "name": "decreaseAllowance",
      "outputs": [
        {
          "internalType": "bool",
          "name": "",
          "type": "bool"
        }
      ],
      "stateMutability": "nonpayable",
      "type": "function"
    },
    {
      "inputs": [
        {
          "internalType": "bytes32",
          "name": "role",
          "type": "bytes32"
        }
      ],
      "name": "getRoleAdmin",
      "outputs": [
        {
          "internalType": "bytes32",
          "name": "",
          "type": "bytes32"
        }
      ],
      "stateMutability": "view",
      "type": "function",
      "constant": true
    },
    {
      "inputs": [
        {
          "internalType": "bytes32",
          "name": "role",
          "type": "bytes32"
        },
        {
          "internalType": "address",
          "name": "account",
          "type": "address"
        }
      ],
      "name": "grantRole",
      "outputs": [],
      "stateMutability": "nonpayable",
      "type": "function"
    },
    {
      "inputs": [
        {
          "internalType": "bytes32",
          "name": "role",
          "type": "bytes32"
        },
        {
          "internalType": "address",
          "name": "account",
          "type": "address"
        }
      ],
      "name": "hasRole",
      "outputs": [
        {
          "internalType": "bool",
          "name": "",
          "type": "bool"
        }
      ],
      "stateMutability": "view",
      "type": "function",
      "constant": true
    },
    {
      "inputs": [
        {
          "internalType": "address",
          "name": "spender",
          "type": "address"
        },
        {
          "internalType": "uint256",
          "name": "addedValue",
          "type": "uint256"
        }
      ],
      "name": "increaseAllowance",
      "outputs": [
        {
          "internalType": "bool",
          "name": "",
          "type": "bool"
        }
      ],
      "stateMutability": "nonpayable",
      "type": "function"
    },
    {
      "inputs": [],
      "name": "name",
      "outputs": [
        {
          "internalType": "string",
          "name": "",
          "type": "string"
        }
      ],
      "stateMutability": "view",
      "type": "function",
      "constant": true
    },
    {
      "inputs": [],
      "name": "normalizationValue",
      "outputs": [
        {
          "internalType": "uint256",
          "name": "",
          "type": "uint256"
        }
      ],
      "stateMutability": "view",
      "type": "function",
      "constant": true
    },
    {
      "inputs": [
        {
          "internalType": "bytes32",
          "name": "role",
          "type": "bytes32"
        },
        {
          "internalType": "address",
          "name": "account",
          "type": "address"
        }
      ],
      "name": "renounceRole",
      "outputs": [],
      "stateMutability": "nonpayable",
      "type": "function"
    },
    {
      "inputs": [
        {
          "internalType": "bytes32",
          "name": "role",
          "type": "bytes32"
        },
        {
          "internalType": "address",
          "name": "account",
          "type": "address"
        }
      ],
      "name": "revokeRole",
      "outputs": [],
      "stateMutability": "nonpayable",
      "type": "function"
    },
    {
      "inputs": [
        {
          "internalType": "address",
          "name": "",
          "type": "address"
        }
      ],
      "name": "stakingData",
      "outputs": [
        {
          "internalType": "uint256",
          "name": "stakedAmount",
          "type": "uint256"
        },
        {
          "internalType": "uint256",
          "name": "stakingStartTime",
          "type": "uint256"
        }
      ],
      "stateMutability": "view",
      "type": "function",
      "constant": true
    },
    {
      "inputs": [],
      "name": "stakingDuration",
      "outputs": [
        {
          "internalType": "uint256",
          "name": "",
          "type": "uint256"
        }
      ],
      "stateMutability": "view",
      "type": "function",
      "constant": true
    },
    {
      "inputs": [],
      "name": "stakingRewardRate",
      "outputs": [
        {
          "internalType": "uint256",
          "name": "",
          "type": "uint256"
        }
      ],
      "stateMutability": "view",
      "type": "function",
      "constant": true
    },
    {
      "inputs": [
        {
          "internalType": "bytes4",
          "name": "interfaceId",
          "type": "bytes4"
        }
      ],
      "name": "supportsInterface",
      "outputs": [
        {
          "internalType": "bool",
          "name": "",
          "type": "bool"
        }
      ],
      "stateMutability": "view",
      "type": "function",
      "constant": true
    },
    {
      "inputs": [],
      "name": "symbol",
      "outputs": [
        {
          "internalType": "string",
          "name": "",
          "type": "string"
        }
      ],
      "stateMutability": "view",
      "type": "function",
      "constant": true
    },
    {
      "inputs": [],
      "name": "totalSupply",
      "outputs": [
        {
          "internalType": "uint256",
          "name": "",
          "type": "uint256"
        }
      ],
      "stateMutability": "view",
      "type": "function",
      "constant": true
    },
    {
      "inputs": [
        {
          "internalType": "address",
          "name": "to",
          "type": "address"
        },
        {
          "internalType": "uint256",
          "name": "amount",
          "type": "uint256"
        }
      ],
      "name": "transfer",
      "outputs": [
        {
          "internalType": "bool",
          "name": "",
          "type": "bool"
        }
      ],
      "stateMutability": "nonpayable",
      "type": "function"
    },
    {
      "inputs": [
        {
          "internalType": "address",
          "name": "from",
          "type": "address"
        },
        {
          "internalType": "address",
          "name": "to",
          "type": "address"
        },
        {
          "internalType": "uint256",
          "name": "amount",
          "type": "uint256"
        }
      ],
      "name": "transferFrom",
      "outputs": [
        {
          "internalType": "bool",
          "name": "",
          "type": "bool"
        }
      ],
      "stateMutability": "nonpayable",
      "type": "function"
    },
    {
      "inputs": [
        {
          "internalType": "string",
          "name": "_name",
          "type": "string"
        },
        {
          "internalType": "string",
          "name": "_symbol",
          "type": "string"
        },
        {
          "internalType": "uint8",
          "name": "_decimals",
          "type": "uint8"
        },
        {
          "internalType": "uint256",
          "name": "_initialSupply",
          "type": "uint256"
        },
        {
          "internalType": "address",
          "name": "admin",
          "type": "address"
        }
      ],
      "name": "initialize",
      "outputs": [],
      "stateMutability": "nonpayable",
      "type": "function"
    },
    {
      "inputs": [],
      "name": "decimals",
      "outputs": [
        {
          "internalType": "uint8",
          "name": "",
          "type": "uint8"
        }
      ],
      "stateMutability": "view",
      "type": "function",
      "constant": true
    },
    {
      "inputs": [
        {
          "internalType": "uint256",
          "name": "_amount",
          "type": "uint256"
        }
      ],
      "name": "stake",
      "outputs": [],
      "stateMutability": "nonpayable",
      "type": "function"
    },
    {
      "inputs": [
        {
          "internalType": "uint256",
          "name": "_decayFactor",
          "type": "uint256"
        }
      ],
      "name": "setDecayFactor",
      "outputs": [],
      "stateMutability": "nonpayable",
      "type": "function"
    },
    {
      "inputs": [
        {
          "internalType": "uint256",
          "name": "_normalizationValue",
          "type": "uint256"
        }
      ],
      "name": "setNormalizationValue",
      "outputs": [],
      "stateMutability": "nonpayable",
      "type": "function"
    },
    {
      "inputs": [],
      "name": "calculateRewardRate",
      "outputs": [
        {
          "internalType": "uint256",
          "name": "",
          "type": "uint256"
        }
      ],
      "stateMutability": "view",
      "type": "function",
      "constant": true
    },
    {
      "inputs": [],
      "name": "unstake",
      "outputs": [],
      "stateMutability": "nonpayable",
      "type": "function"
    },
    {
      "inputs": [
        {
          "internalType": "uint256",
          "name": "amount",
          "type": "uint256"
        }
      ],
      "name": "burn",
      "outputs": [],
      "stateMutability": "nonpayable",
      "type": "function"
    },
    {
      "inputs": [
        {
          "internalType": "address",
          "name": "account",
          "type": "address"
        },
        {
          "internalType": "bytes32",
          "name": "role",
          "type": "bytes32"
        }
      ],
      "name": "addRole",
      "outputs": [],
      "stateMutability": "nonpayable",
      "type": "function"
    },
    {
      "inputs": [
        {
          "internalType": "address",
          "name": "account",
          "type": "address"
        },
        {
          "internalType": "bytes32",
          "name": "role",
          "type": "bytes32"
        }
      ],
      "name": "removeRole",
      "outputs": [],
      "stateMutability": "nonpayable",
      "type": "function"
    },
    {
      "inputs": [
        {
          "internalType": "uint256",
          "name": "newRate",
          "type": "uint256"
        },
        {
          "internalType": "uint256",
          "name": "newDuration",
          "type": "uint256"
        }
      ],
      "name": "setStakingParameters",
      "outputs": [],
      "stateMutability": "nonpayable",
      "type": "function"
    }
  ],
  "bytecode": "0x608060405234801561001057600080fd5b50613c1a806100206000396000f3fe608060405234801561001057600080fd5b50600436106102275760003560e01c80636853920e11610130578063a457c2d7116100b8578063d53913931161007c578063d539139314610668578063d547741f14610686578063dd62ed3e146106a2578063eca51139146106d2578063f35718191461070357610227565b8063a457c2d7146105b4578063a694fc3a146105e4578063a73f7f8a14610600578063a9059cbb1461061c578063b8c9059d1461064c57610227565b80637a9abfa2116100ff5780637a9abfa21461050c5780638005a7de1461052a57806391d148541461054857806395d89b4114610578578063a217fddf1461059657610227565b80636853920e1461048657806370a08231146104a257806371f55f94146104d257806375b238fc146104ee57610227565b80632f2ff15d116101b3578063395093511161018257806339509351146103e257806342966c68146104125780634bc72e2d1461042e5780634f3fc2df1461044a57806367202c901461046857610227565b80632f2ff15d1461036e578063313ce5671461038a57806336568abe146103a85780633780b3ed146103c457610227565b806320fb3016116101fa57806320fb3016146102c857806323b872dd146102e6578063248a9ca314610316578063282c51f3146103465780632def66201461036457610227565b806301ffc9a71461022c57806306fdde031461025c578063095ea7b31461027a57806318160ddd146102aa575b600080fd5b610246600480360381019061024191906123f4565b61071f565b604051610253919061243c565b60405180910390f35b610264610799565b60405161027191906124e7565b60405180910390f35b610294600480360381019061028f919061259d565b61082b565b6040516102a1919061243c565b60405180910390f35b6102b261084e565b6040516102bf91906125ec565b60405180910390f35b6102d0610858565b6040516102dd91906125ec565b60405180910390f35b61030060048036038101906102fb9190612607565b61085e565b60405161030d919061243c565b60405180910390f35b610330600480360381019061032b9190612690565b61088d565b60405161033d91906126cc565b60405180910390f35b61034e6108ad565b60405161035b91906126cc565b60405180910390f35b61036c6108d1565b005b610388600480360381019061038391906126e7565b610adb565b005b610392610afc565b60405161039f9190612743565b60405180910390f35b6103c260048036038101906103bd91906126e7565b610b13565b005b6103cc610b96565b6040516103d991906126cc565b60405180910390f35b6103fc60048036038101906103f7919061259d565b610bba565b604051610409919061243c565b60405180910390f35b61042c6004803603810190610427919061275e565b610bf1565b005b6104486004803603810190610443919061278b565b610c6e565b005b610452610cab565b60405161045f91906125ec565b60405180910390f35b610470610cb1565b60405161047d91906125ec565b60405180910390f35b6104a0600480360381019061049b91906127cb565b610cd5565b005b6104bc60048036038101906104b7919061280b565b610d0e565b6040516104c991906125ec565b60405180910390f35b6104ec60048036038101906104e7919061275e565b610d57565b005b6104f6610d8c565b60405161050391906126cc565b60405180910390f35b610514610db0565b60405161052191906125ec565b60405180910390f35b610532610db6565b60405161053f91906125ec565b60405180910390f35b610562600480360381019061055d91906126e7565b610dbc565b60405161056f919061243c565b60405180910390f35b610580610e27565b60405161058d91906124e7565b60405180910390f35b61059e610eb9565b6040516105ab91906126cc565b60405180910390f35b6105ce60048036038101906105c9919061259d565b610ec0565b6040516105db919061243c565b60405180910390f35b6105fe60048036038101906105f9919061275e565b610f37565b005b61061a600480360381019061061591906127cb565b611104565b005b6106366004803603810190610631919061259d565b61113d565b604051610643919061243c565b60405180910390f35b6106666004803603810190610661919061275e565b611160565b005b6106706111d9565b60405161067d91906126cc565b60405180910390f35b6106a0600480360381019061069b91906126e7565b6111fd565b005b6106bc60048036038101906106b79190612838565b61121e565b6040516106c991906125ec565b60405180910390f35b6106ec60048036038101906106e7919061280b565b6112a5565b6040516106fa929190612878565b60405180910390f35b61071d60048036038101906107189190612a02565b6112c9565b005b60007f7965db0b000000000000000000000000000000000000000000000000000000007bffffffffffffffffffffffffffffffffffffffffffffffffffffffff1916827bffffffffffffffffffffffffffffffffffffffffffffffffffffffff1916148061079257506107918261150f565b5b9050919050565b6060603680546107a890612ae4565b80601f01602080910402602001604051908101604052809291908181526020018280546107d490612ae4565b80156108215780601f106107f657610100808354040283529160200191610821565b820191906000526020600020905b81548152906001019060200180831161080457829003601f168201915b5050505050905090565b600080610836611579565b9050610843818585611581565b600191505092915050565b6000603554905090565b60cc5481565b600080610869611579565b905061087685828561174a565b6108818585856117d6565b60019150509392505050565b600060976000838152602001908152602001600020600101549050919050565b7f3c11d16cbaffd01df69ce1c404f6340ee057498f5f00246190ea54220576a84881565b7fb9e206fa2af7ee1331b72ce58b6d938ac810ce9b5cdb65d35ab723fd67badf9e6108fb81611a4f565b600060ce60003373ffffffffffffffffffffffffffffffffffffffff1673ffffffffffffffffffffffffffffffffffffffff16815260200190815260200160002090504260cb5482600101546109519190612b44565b1115610992576040517f08c379a000000000000000000000000000000000000000000000000000000000815260040161098990612bc4565b60405180910390fd5b60008160000154116109d9576040517f08c379a00000000000000000000000000000000000000000000000000000000081526004016109d090612c30565b60405180910390fd5b60006109e3610cb1565b9050600060648284600001546109f99190612c50565b610a039190612cc1565b90506000818460000154610a179190612b44565b9050610a233083611a63565b610a2d338261113d565b5060ce60003373ffffffffffffffffffffffffffffffffffffffff1673ffffffffffffffffffffffffffffffffffffffff168152602001908152602001600020600080820160009055600182016000905550503373ffffffffffffffffffffffffffffffffffffffff167f7fc4727e062e336010f2c282598ef5f14facb3de68cf8195c2f23e1454b2b74e856000015484604051610acc929190612878565b60405180910390a25050505050565b610ae48261088d565b610aed81611a4f565b610af78383611bba565b505050565b600060c960009054906101000a900460ff16905090565b610b1b611579565b73ffffffffffffffffffffffffffffffffffffffff168173ffffffffffffffffffffffffffffffffffffffff1614610b88576040517f08c379a0000000000000000000000000000000000000000000000000000000008152600401610b7f90612d64565b60405180910390fd5b610b928282611c9b565b5050565b7fb9e206fa2af7ee1331b72ce58b6d938ac810ce9b5cdb65d35ab723fd67badf9e81565b600080610bc5611579565b9050610be6818585610bd7858961121e565b610be19190612b44565b611581565b600191505092915050565b610c1b7f3c11d16cbaffd01df69ce1c404f6340ee057498f5f00246190ea54220576a84833610dbc565b610c5a576040517f08c379a0000000000000000000000000000000000000000000000000000000008152600401610c5190612dd0565b60405180910390fd5b610c6b610c65611579565b82611d7d565b50565b7fa49807205ce4d355092ef5a8a18f56e8913cf4a201fbe287825b095693c21775610c9881611a4f565b8260ca819055508160cb81905550505050565b60ca5481565b600060cd5460cc5460ca54610cc69190612c50565b610cd09190612cc1565b905090565b7fa49807205ce4d355092ef5a8a18f56e8913cf4a201fbe287825b095693c21775610cff81611a4f565b610d0982846111fd565b505050565b6000603360008373ffffffffffffffffffffffffffffffffffffffff1673ffffffffffffffffffffffffffffffffffffffff168152602001908152602001600020549050919050565b7fa49807205ce4d355092ef5a8a18f56e8913cf4a201fbe287825b095693c21775610d8181611a4f565b8160cd819055505050565b7fa49807205ce4d355092ef5a8a18f56e8913cf4a201fbe287825b095693c2177581565b60cd5481565b60cb5481565b60006097600084815260200190815260200160002060000160008373ffffffffffffffffffffffffffffffffffffffff1673ffffffffffffffffffffffffffffffffffffffff16815260200190815260200160002060009054906101000a900460ff16905092915050565b606060378054610e3690612ae4565b80601f0160208091040260200160405190810160405280929190818152602001828054610e6290612ae4565b8015610eaf5780601f10610e8457610100808354040283529160200191610eaf565b820191906000526020600020905b815481529060010190602001808311610e9257829003601f168201915b5050505050905090565b6000801b81565b600080610ecb611579565b90506000610ed9828661121e565b905083811015610f1e576040517f08c379a0000000000000000000000000000000000000000000000000000000008152600401610f1590612e62565b60405180910390fd5b610f2b8286868403611581565b60019250505092915050565b7fb9e206fa2af7ee1331b72ce58b6d938ac810ce9b5cdb65d35ab723fd67badf9e610f6181611a4f565b60008211610fa4576040517f08c379a0000000000000000000000000000000000000000000000000000000008152600401610f9b90612ece565b60405180910390fd5b81610fae33610d0e565b1015610fef576040517f08c379a0000000000000000000000000000000000000000000000000000000008152600401610fe690612f3a565b60405180910390fd5b610ff9308361113d565b5060405180604001604052808360ce60003373ffffffffffffffffffffffffffffffffffffffff1673ffffffffffffffffffffffffffffffffffffffff168152602001908152602001600020600001546110539190612b44565b81526020014281525060ce60003373ffffffffffffffffffffffffffffffffffffffff1673ffffffffffffffffffffffffffffffffffffffff16815260200190815260200160002060008201518160000155602082015181600101559050503373ffffffffffffffffffffffffffffffffffffffff167f9e71bc8eea02a63969f509818f2dafb9254532904319f9dbda79b67bd34a5f3d836040516110f891906125ec565b60405180910390a25050565b7fa49807205ce4d355092ef5a8a18f56e8913cf4a201fbe287825b095693c2177561112e81611a4f565b6111388284610adb565b505050565b600080611148611579565b90506111558185856117d6565b600191505092915050565b7fa49807205ce4d355092ef5a8a18f56e8913cf4a201fbe287825b095693c2177561118a81611a4f565b60648211156111ce576040517f08c379a00000000000000000000000000000000000000000000000000000000081526004016111c590612fa6565b60405180910390fd5b8160cc819055505050565b7f9f2df0fed2c77648de5860a4cc508cd0818c85b8b8a1ab4ceeef8d981c8956a681565b6112068261088d565b61120f81611a4f565b6112198383611c9b565b505050565b6000603460008473ffffffffffffffffffffffffffffffffffffffff1673ffffffffffffffffffffffffffffffffffffffff16815260200190815260200160002060008373ffffffffffffffffffffffffffffffffffffffff1673ffffffffffffffffffffffffffffffffffffffff16815260200190815260200160002054905092915050565b60ce6020528060005260406000206000915090508060000154908060010154905082565b60008060019054906101000a900460ff161590508080156112fa5750600160008054906101000a900460ff1660ff16105b80611327575061130930611f4c565b1580156113265750600160008054906101000a900460ff1660ff16145b5b611366576040517f08c379a000000000000000000000000000000000000000000000000000000000815260040161135d90613038565b60405180910390fd5b60016000806101000a81548160ff021916908360ff16021790555080156113a3576001600060016101000a81548160ff0219169083151502179055505b6113ad8686611f6f565b6113b5611fcc565b8360c960006101000a81548160ff021916908360ff1602179055506113f4828560ff16600a6113e4919061318b565b856113ef9190612c50565b611a63565b61141e7fa49807205ce4d355092ef5a8a18f56e8913cf4a201fbe287825b095693c2177583611bba565b6114487f9f2df0fed2c77648de5860a4cc508cd0818c85b8b8a1ab4ceeef8d981c8956a683611bba565b6114727fb9e206fa2af7ee1331b72ce58b6d938ac810ce9b5cdb65d35ab723fd67badf9e83611bba565b61149c7f3c11d16cbaffd01df69ce1c404f6340ee057498f5f00246190ea54220576a84883611bba565b606460ca8190555062278d0060cb8190555080156115075760008060016101000a81548160ff0219169083151502179055507f7f26b83ff96e1f2b6a682f133852f6798a09c465da95921460cefb384740249860016040516114fe919061321b565b60405180910390a15b505050505050565b60007f01ffc9a7000000000000000000000000000000000000000000000000000000007bffffffffffffffffffffffffffffffffffffffffffffffffffffffff1916827bffffffffffffffffffffffffffffffffffffffffffffffffffffffff1916149050919050565b600033905090565b600073ffffffffffffffffffffffffffffffffffffffff168373ffffffffffffffffffffffffffffffffffffffff16036115f0576040517f08c379a00000000000000000000000000000000000000000000000000000000081526004016115e7906132a8565b60405180910390fd5b600073ffffffffffffffffffffffffffffffffffffffff168273ffffffffffffffffffffffffffffffffffffffff160361165f576040517f08c379a00000000000000000000000000000000000000000000000000000000081526004016116569061333a565b60405180910390fd5b80603460008573ffffffffffffffffffffffffffffffffffffffff1673ffffffffffffffffffffffffffffffffffffffff16815260200190815260200160002060008473ffffffffffffffffffffffffffffffffffffffff1673ffffffffffffffffffffffffffffffffffffffff168152602001908152602001600020819055508173ffffffffffffffffffffffffffffffffffffffff168373ffffffffffffffffffffffffffffffffffffffff167f8c5be1e5ebec7d5bd14f71427d1e84f3dd0314c0f7b2291e5b200ac8c7c3b9258360405161173d91906125ec565b60405180910390a3505050565b6000611756848461121e565b90507fffffffffffffffffffffffffffffffffffffffffffffffffffffffffffffffff81146117d057818110156117c2576040517f08c379a00000000000000000000000000000000000000000000000000000000081526004016117b9906133a6565b60405180910390fd5b6117cf8484848403611581565b5b50505050565b600073ffffffffffffffffffffffffffffffffffffffff168373ffffffffffffffffffffffffffffffffffffffff1603611845576040517f08c379a000000000000000000000000000000000000000000000000000000000815260040161183c90613438565b60405180910390fd5b600073ffffffffffffffffffffffffffffffffffffffff168273ffffffffffffffffffffffffffffffffffffffff16036118b4576040517f08c379a00000000000000000000000000000000000000000000000000000000081526004016118ab906134ca565b60405180910390fd5b6118bf83838361201d565b6000603360008573ffffffffffffffffffffffffffffffffffffffff1673ffffffffffffffffffffffffffffffffffffffff16815260200190815260200160002054905081811015611946576040517f08c379a000000000000000000000000000000000000000000000000000000000815260040161193d9061355c565b60405180910390fd5b818103603360008673ffffffffffffffffffffffffffffffffffffffff1673ffffffffffffffffffffffffffffffffffffffff1681526020019081526020016000208190555081603360008573ffffffffffffffffffffffffffffffffffffffff1673ffffffffffffffffffffffffffffffffffffffff168152602001908152602001600020600082825401925050819055508273ffffffffffffffffffffffffffffffffffffffff168473ffffffffffffffffffffffffffffffffffffffff167fddf252ad1be2c89b69c2b068fc378daa952ba7f163c4a11628f55a4df523b3ef84604051611a3691906125ec565b60405180910390a3611a49848484612022565b50505050565b611a6081611a5b611579565b612027565b50565b600073ffffffffffffffffffffffffffffffffffffffff168273ffffffffffffffffffffffffffffffffffffffff1603611ad2576040517f08c379a0000000000000000000000000000000000000000000000000000000008152600401611ac9906135c8565b60405180910390fd5b611ade6000838361201d565b8060356000828254611af09190612b44565b9250508190555080603360008473ffffffffffffffffffffffffffffffffffffffff1673ffffffffffffffffffffffffffffffffffffffff168152602001908152602001600020600082825401925050819055508173ffffffffffffffffffffffffffffffffffffffff16600073ffffffffffffffffffffffffffffffffffffffff167fddf252ad1be2c89b69c2b068fc378daa952ba7f163c4a11628f55a4df523b3ef83604051611ba291906125ec565b60405180910390a3611bb660008383612022565b5050565b611bc48282610dbc565b611c975760016097600084815260200190815260200160002060000160008373ffffffffffffffffffffffffffffffffffffffff1673ffffffffffffffffffffffffffffffffffffffff16815260200190815260200160002060006101000a81548160ff021916908315150217905550611c3c611579565b73ffffffffffffffffffffffffffffffffffffffff168173ffffffffffffffffffffffffffffffffffffffff16837f2f8788117e7eff1d82e926ec794901d17c78024a50270940304540a733656f0d60405160405180910390a45b5050565b611ca58282610dbc565b15611d795760006097600084815260200190815260200160002060000160008373ffffffffffffffffffffffffffffffffffffffff1673ffffffffffffffffffffffffffffffffffffffff16815260200190815260200160002060006101000a81548160ff021916908315150217905550611d1e611579565b73ffffffffffffffffffffffffffffffffffffffff168173ffffffffffffffffffffffffffffffffffffffff16837ff6391f5c32d9c69d2a47ea670b442974b53935d1edc7fd64eb21e047a839171b60405160405180910390a45b5050565b600073ffffffffffffffffffffffffffffffffffffffff168273ffffffffffffffffffffffffffffffffffffffff1603611dec576040517f08c379a0000000000000000000000000000000000000000000000000000000008152600401611de39061365a565b60405180910390fd5b611df88260008361201d565b6000603360008473ffffffffffffffffffffffffffffffffffffffff1673ffffffffffffffffffffffffffffffffffffffff16815260200190815260200160002054905081811015611e7f576040517f08c379a0000000000000000000000000000000000000000000000000000000008152600401611e76906136ec565b60405180910390fd5b818103603360008573ffffffffffffffffffffffffffffffffffffffff1673ffffffffffffffffffffffffffffffffffffffff1681526020019081526020016000208190555081603560008282540392505081905550600073ffffffffffffffffffffffffffffffffffffffff168373ffffffffffffffffffffffffffffffffffffffff167fddf252ad1be2c89b69c2b068fc378daa952ba7f163c4a11628f55a4df523b3ef84604051611f3391906125ec565b60405180910390a3611f4783600084612022565b505050565b6000808273ffffffffffffffffffffffffffffffffffffffff163b119050919050565b600060019054906101000a900460ff16611fbe576040517f08c379a0000000000000000000000000000000000000000000000000000000008152600401611fb59061377e565b60405180910390fd5b611fc882826120ac565b5050565b600060019054906101000a900460ff1661201b576040517f08c379a00000000000000000000000000000000000000000000000000000000081526004016120129061377e565b60405180910390fd5b565b505050565b505050565b6120318282610dbc565b6120a85761203e8161211f565b61204c8360001c602061214c565b60405160200161205d929190613872565b6040516020818303038152906040526040517f08c379a000000000000000000000000000000000000000000000000000000000815260040161209f91906124e7565b60405180910390fd5b5050565b600060019054906101000a900460ff166120fb576040517f08c379a00000000000000000000000000000000000000000000000000000000081526004016120f29061377e565b60405180910390fd5b816036908161210a9190613a4e565b50806037908161211a9190613a4e565b505050565b60606121458273ffffffffffffffffffffffffffffffffffffffff16601460ff1661214c565b9050919050565b60606000600283600261215f9190612c50565b6121699190612b44565b67ffffffffffffffff811115612182576121816128ab565b5b6040519080825280601f01601f1916602001820160405280156121b45781602001600182028036833780820191505090505b5090507f3000000000000000000000000000000000000000000000000000000000000000816000815181106121ec576121eb613b20565b5b60200101907effffffffffffffffffffffffffffffffffffffffffffffffffffffffffffff1916908160001a9053507f7800000000000000000000000000000000000000000000000000000000000000816001815181106122505761224f613b20565b5b60200101907effffffffffffffffffffffffffffffffffffffffffffffffffffffffffffff1916908160001a905350600060018460026122909190612c50565b61229a9190612b44565b90505b600181111561233a577f3031323334353637383961626364656600000000000000000000000000000000600f8616601081106122dc576122db613b20565b5b1a60f81b8282815181106122f3576122f2613b20565b5b60200101907effffffffffffffffffffffffffffffffffffffffffffffffffffffffffffff1916908160001a905350600485901c94508061233390613b4f565b905061229d565b506000841461237e576040517f08c379a000000000000000000000000000000000000000000000000000000000815260040161237590613bc4565b60405180910390fd5b8091505092915050565b6000604051905090565b600080fd5b600080fd5b60007fffffffff0000000000000000000000000000000000000000000000000000000082169050919050565b6123d18161239c565b81146123dc57600080fd5b50565b6000813590506123ee816123c8565b92915050565b60006020828403121561240a57612409612392565b5b6000612418848285016123df565b91505092915050565b60008115159050919050565b61243681612421565b82525050565b6000602082019050612451600083018461242d565b92915050565b600081519050919050565b600082825260208201905092915050565b60005b83811015612491578082015181840152602081019050612476565b60008484015250505050565b6000601f19601f8301169050919050565b60006124b982612457565b6124c38185612462565b93506124d3818560208601612473565b6124dc8161249d565b840191505092915050565b6000602082019050818103600083015261250181846124ae565b905092915050565b600073ffffffffffffffffffffffffffffffffffffffff82169050919050565b600061253482612509565b9050919050565b61254481612529565b811461254f57600080fd5b50565b6000813590506125618161253b565b92915050565b6000819050919050565b61257a81612567565b811461258557600080fd5b50565b60008135905061259781612571565b92915050565b600080604083850312156125b4576125b3612392565b5b60006125c285828601612552565b92505060206125d385828601612588565b9150509250929050565b6125e681612567565b82525050565b600060208201905061260160008301846125dd565b92915050565b6000806000606084860312156126205761261f612392565b5b600061262e86828701612552565b935050602061263f86828701612552565b925050604061265086828701612588565b9150509250925092565b6000819050919050565b61266d8161265a565b811461267857600080fd5b50565b60008135905061268a81612664565b92915050565b6000602082840312156126a6576126a5612392565b5b60006126b48482850161267b565b91505092915050565b6126c68161265a565b82525050565b60006020820190506126e160008301846126bd565b92915050565b600080604083850312156126fe576126fd612392565b5b600061270c8582860161267b565b925050602061271d85828601612552565b9150509250929050565b600060ff82169050919050565b61273d81612727565b82525050565b60006020820190506127586000830184612734565b92915050565b60006020828403121561277457612773612392565b5b600061278284828501612588565b91505092915050565b600080604083850312156127a2576127a1612392565b5b60006127b085828601612588565b92505060206127c185828601612588565b9150509250929050565b600080604083850312156127e2576127e1612392565b5b60006127f085828601612552565b92505060206128018582860161267b565b9150509250929050565b60006020828403121561282157612820612392565b5b600061282f84828501612552565b91505092915050565b6000806040838503121561284f5761284e612392565b5b600061285d85828601612552565b925050602061286e85828601612552565b9150509250929050565b600060408201905061288d60008301856125dd565b61289a60208301846125dd565b9392505050565b600080fd5b600080fd5b7f4e487b7100000000000000000000000000000000000000000000000000000000600052604160045260246000fd5b6128e38261249d565b810181811067ffffffffffffffff82111715612902576129016128ab565b5b80604052505050565b6000612915612388565b905061292182826128da565b919050565b600067ffffffffffffffff821115612941576129406128ab565b5b61294a8261249d565b9050602081019050919050565b82818337600083830152505050565b600061297961297484612926565b61290b565b905082815260208101848484011115612995576129946128a6565b5b6129a0848285612957565b509392505050565b600082601f8301126129bd576129bc6128a1565b5b81356129cd848260208601612966565b91505092915050565b6129df81612727565b81146129ea57600080fd5b50565b6000813590506129fc816129d6565b92915050565b600080600080600060a08688031215612a1e57612a1d612392565b5b600086013567ffffffffffffffff811115612a3c57612a3b612397565b5b612a48888289016129a8565b955050602086013567ffffffffffffffff811115612a6957612a68612397565b5b612a75888289016129a8565b9450506040612a86888289016129ed565b9350506060612a9788828901612588565b9250506080612aa888828901612552565b9150509295509295909350565b7f4e487b7100000000000000000000000000000000000000000000000000000000600052602260045260246000fd5b60006002820490506001821680612afc57607f821691505b602082108103612b0f57612b0e612ab5565b5b50919050565b7f4e487b7100000000000000000000000000000000000000000000000000000000600052601160045260246000fd5b6000612b4f82612567565b9150612b5a83612567565b9250828201905080821115612b7257612b71612b15565b5b92915050565b7f5374616b696e67206475726174696f6e206e6f74206d65740000000000000000600082015250565b6000612bae601883612462565b9150612bb982612b78565b602082019050919050565b60006020820190508181036000830152612bdd81612ba1565b9050919050565b7f4e6f207374616b656420616d6f756e7420666f756e6400000000000000000000600082015250565b6000612c1a601683612462565b9150612c2582612be4565b602082019050919050565b60006020820190508181036000830152612c4981612c0d565b9050919050565b6000612c5b82612567565b9150612c6683612567565b9250828202612c7481612567565b91508282048414831517612c8b57612c8a612b15565b5b5092915050565b7f4e487b7100000000000000000000000000000000000000000000000000000000600052601260045260246000fd5b6000612ccc82612567565b9150612cd783612567565b925082612ce757612ce6612c92565b5b828204905092915050565b7f416363657373436f6e74726f6c3a2063616e206f6e6c792072656e6f756e636560008201527f20726f6c657320666f722073656c660000000000000000000000000000000000602082015250565b6000612d4e602f83612462565b9150612d5982612cf2565b604082019050919050565b60006020820190508181036000830152612d7d81612d41565b9050919050565b7f4d7573742068617665206275726e657220726f6c6520746f206275726e000000600082015250565b6000612dba601d83612462565b9150612dc582612d84565b602082019050919050565b60006020820190508181036000830152612de981612dad565b9050919050565b7f45524332303a2064656372656173656420616c6c6f77616e63652062656c6f7760008201527f207a65726f000000000000000000000000000000000000000000000000000000602082015250565b6000612e4c602583612462565b9150612e5782612df0565b604082019050919050565b60006020820190508181036000830152612e7b81612e3f565b9050919050565b7f416d6f756e74206d7573742062652067726561746572207468616e2030000000600082015250565b6000612eb8601d83612462565b9150612ec382612e82565b602082019050919050565b60006020820190508181036000830152612ee781612eab565b9050919050565b7f496e73756666696369656e742062616c616e636520746f207374616b65000000600082015250565b6000612f24601d83612462565b9150612f2f82612eee565b602082019050919050565b60006020820190508181036000830152612f5381612f17565b9050919050565b7f446563617920666163746f722063616e6e6f7420657863656564203130302500600082015250565b6000612f90601f83612462565b9150612f9b82612f5a565b602082019050919050565b60006020820190508181036000830152612fbf81612f83565b9050919050565b7f496e697469616c697a61626c653a20636f6e747261637420697320616c72656160008201527f647920696e697469616c697a6564000000000000000000000000000000000000602082015250565b6000613022602e83612462565b915061302d82612fc6565b604082019050919050565b6000602082019050818103600083015261305181613015565b9050919050565b60008160011c9050919050565b6000808291508390505b60018511156130af5780860481111561308b5761308a612b15565b5b600185161561309a5780820291505b80810290506130a885613058565b945061306f565b94509492505050565b6000826130c85760019050613184565b816130d65760009050613184565b81600181146130ec57600281146130f657613125565b6001915050613184565b60ff84111561310857613107612b15565b5b8360020a91508482111561311f5761311e612b15565b5b50613184565b5060208310610133831016604e8410600b841016171561315a5782820a90508381111561315557613154612b15565b5b613184565b6131678484846001613065565b9250905081840481111561317e5761317d612b15565b5b81810290505b9392505050565b600061319682612567565b91506131a183612567565b92506131ce7fffffffffffffffffffffffffffffffffffffffffffffffffffffffffffffffff84846130b8565b905092915050565b6000819050919050565b6000819050919050565b60006132056132006131fb846131d6565b6131e0565b612727565b9050919050565b613215816131ea565b82525050565b6000602082019050613230600083018461320c565b92915050565b7f45524332303a20617070726f76652066726f6d20746865207a65726f2061646460008201527f7265737300000000000000000000000000000000000000000000000000000000602082015250565b6000613292602483612462565b915061329d82613236565b604082019050919050565b600060208201905081810360008301526132c181613285565b9050919050565b7f45524332303a20617070726f766520746f20746865207a65726f20616464726560008201527f7373000000000000000000000000000000000000000000000000000000000000602082015250565b6000613324602283612462565b915061332f826132c8565b604082019050919050565b6000602082019050818103600083015261335381613317565b9050919050565b7f45524332303a20696e73756666696369656e7420616c6c6f77616e6365000000600082015250565b6000613390601d83612462565b915061339b8261335a565b602082019050919050565b600060208201905081810360008301526133bf81613383565b9050919050565b7f45524332303a207472616e736665722066726f6d20746865207a65726f20616460008201527f6472657373000000000000000000000000000000000000000000000000000000602082015250565b6000613422602583612462565b915061342d826133c6565b604082019050919050565b6000602082019050818103600083015261345181613415565b9050919050565b7f45524332303a207472616e7366657220746f20746865207a65726f206164647260008201527f6573730000000000000000000000000000000000000000000000000000000000602082015250565b60006134b4602383612462565b91506134bf82613458565b604082019050919050565b600060208201905081810360008301526134e3816134a7565b9050919050565b7f45524332303a207472616e7366657220616d6f756e742065786365656473206260008201527f616c616e63650000000000000000000000000000000000000000000000000000602082015250565b6000613546602683612462565b9150613551826134ea565b604082019050919050565b6000602082019050818103600083015261357581613539565b9050919050565b7f45524332303a206d696e7420746f20746865207a65726f206164647265737300600082015250565b60006135b2601f83612462565b91506135bd8261357c565b602082019050919050565b600060208201905081810360008301526135e1816135a5565b9050919050565b7f45524332303a206275726e2066726f6d20746865207a65726f2061646472657360008201527f7300000000000000000000000000000000000000000000000000000000000000602082015250565b6000613644602183612462565b915061364f826135e8565b604082019050919050565b6000602082019050818103600083015261367381613637565b9050919050565b7f45524332303a206275726e20616d6f756e7420657863656564732062616c616e60008201527f6365000000000000000000000000000000000000000000000000000000000000602082015250565b60006136d6602283612462565b91506136e18261367a565b604082019050919050565b60006020820190508181036000830152613705816136c9565b9050919050565b7f496e697469616c697a61626c653a20636f6e7472616374206973206e6f74206960008201527f6e697469616c697a696e67000000000000000000000000000000000000000000602082015250565b6000613768602b83612462565b91506137738261370c565b604082019050919050565b600060208201905081810360008301526137978161375b565b9050919050565b600081905092915050565b7f416363657373436f6e74726f6c3a206163636f756e7420000000000000000000600082015250565b60006137df60178361379e565b91506137ea826137a9565b601782019050919050565b600061380082612457565b61380a818561379e565b935061381a818560208601612473565b80840191505092915050565b7f206973206d697373696e6720726f6c6520000000000000000000000000000000600082015250565b600061385c60118361379e565b915061386782613826565b601182019050919050565b600061387d826137d2565b915061388982856137f5565b91506138948261384f565b91506138a082846137f5565b91508190509392505050565b60008190508160005260206000209050919050565b60006020601f8301049050919050565b600082821b905092915050565b60006008830261390e7fffffffffffffffffffffffffffffffffffffffffffffffffffffffffffffffff826138d1565b61391886836138d1565b95508019841693508086168417925050509392505050565b600061394b61394661394184612567565b6131e0565b612567565b9050919050565b6000819050919050565b61396583613930565b61397961397182613952565b8484546138de565b825550505050565b600090565b61398e613981565b61399981848461395c565b505050565b5b818110156139bd576139b2600082613986565b60018101905061399f565b5050565b601f821115613a02576139d3816138ac565b6139dc846138c1565b810160208510156139eb578190505b6139ff6139f7856138c1565b83018261399e565b50505b505050565b600082821c905092915050565b6000613a2560001984600802613a07565b1980831691505092915050565b6000613a3e8383613a14565b9150826002028217905092915050565b613a5782612457565b67ffffffffffffffff811115613a7057613a6f6128ab565b5b613a7a8254612ae4565b613a858282856139c1565b600060209050601f831160018114613ab85760008415613aa6578287015190505b613ab08582613a32565b865550613b18565b601f198416613ac6866138ac565b60005b82811015613aee57848901518255600182019150602085019450602081019050613ac9565b86831015613b0b5784890151613b07601f891682613a14565b8355505b6001600288020188555050505b505050505050565b7f4e487b7100000000000000000000000000000000000000000000000000000000600052603260045260246000fd5b6000613b5a82612567565b915060008203613b6d57613b6c612b15565b5b600182039050919050565b7f537472696e67733a20686578206c656e67746820696e73756666696369656e74600082015250565b6000613bae602083612462565b9150613bb982613b78565b602082019050919050565b60006020820190508181036000830152613bdd81613ba1565b905091905056fea2646970667358221220076e34993cd7a0781d5f2efc99fe7659948bd26ca7c2d1c7180302408c91348464736f6c63430008110033",
  "immutableReferences": {},
  "source": "// SPDX-License-Identifier: MIT\npragma solidity ^0.8.17;\n\nimport \"@openzeppelin/contracts-upgradeable/token/ERC20/ERC20Upgradeable.sol\";\nimport \"@openzeppelin/contracts-upgradeable/access/AccessControlUpgradeable.sol\";\nimport \"@openzeppelin/contracts-upgradeable/proxy/utils/Initializable.sol\";\nimport \"@openzeppelin/contracts-upgradeable/utils/math/SafeMathUpgradeable.sol\";\n\ncontract CowlToken is\n    Initializable,\n    ERC20Upgradeable,\n    AccessControlUpgradeable\n{\n    bytes32 public constant MINTER_ROLE = keccak256(\"MINTER_ROLE\");\n    bytes32 public constant STAKER_ROLE = keccak256(\"STAKER_ROLE\");\n    bytes32 public constant ADMIN_ROLE = keccak256(\"ADMIN_ROLE\");\n    bytes32 public constant BURNER_ROLE = keccak256(\"BURNER_ROLE\");\n\n    uint8 private tokenDecimals;\n\n    uint256 public stakingRewardRate;\n    uint256 public stakingDuration;\n    uint256 public decayFactor;\n    uint256 public normalizationValue;\n\n    struct StakingInfo {\n        uint256 stakedAmount;\n        uint256 stakingStartTime;\n    }\n\n    mapping(address => StakingInfo) public stakingData;\n\n    event Staked(address indexed staker, uint256 amount);\n    event Unstaked(address indexed staker, uint256 amount, uint256 reward);\n\n    function initialize(\n        string memory _name,\n        string memory _symbol,\n        uint8 _decimals,\n        uint256 _initialSupply,\n        address admin\n    ) public initializer {\n        __ERC20_init(_name, _symbol);\n        __AccessControl_init();\n\n        tokenDecimals = _decimals; // set your private _decimals variable\n        _mint(admin, _initialSupply * (10 ** uint256(_decimals)));\n\n        _grantRole(ADMIN_ROLE, admin);\n        _grantRole(MINTER_ROLE, admin);\n        _grantRole(STAKER_ROLE, admin);\n        _grantRole(BURNER_ROLE, admin);\n\n        /**\n         * @dev Currently, the reward rate is set as a percentage (with stakingRewardRate = 100 representing a 100% reward).\n         * This might lead to high inflation if not controlled. Depending on what we decide later,\n         * we might want to tweak or introduce a decaying function for rewards over time.\n         */\n        stakingRewardRate = 100; // example rate, can be adjusted as per the need.\n        stakingDuration = 30 days; // example duration, can be adjusted as per the need.\n    }\n\n    function decimals() public view virtual override returns (uint8) {\n        return tokenDecimals;\n    }\n\n    function stake(uint256 _amount) external onlyRole(STAKER_ROLE) {\n        require(_amount > 0, \"Amount must be greater than 0\");\n        require(\n            balanceOf(msg.sender) >= _amount,\n            \"Insufficient balance to stake\"\n        );\n\n        // Transfer tokens to the contract's address instead of burning\n        transfer(address(this), _amount);\n\n        stakingData[msg.sender] = StakingInfo({\n            stakedAmount: stakingData[msg.sender].stakedAmount + _amount,\n            stakingStartTime: block.timestamp\n        });\n\n        emit Staked(msg.sender, _amount);\n    }\n\n    // Setter function for decayFactor\n    function setDecayFactor(\n        uint256 _decayFactor\n    ) external onlyRole(ADMIN_ROLE) {\n        require(_decayFactor <= 100, \"Decay factor cannot exceed 100%\"); // Ensuring the decay factor isn't over 100%\n        decayFactor = _decayFactor;\n    }\n\n    // Setter function for normalizationValue\n    function setNormalizationValue(\n        uint256 _normalizationValue\n    ) external onlyRole(ADMIN_ROLE) {\n        normalizationValue = _normalizationValue;\n    }\n\n    function calculateRewardRate() public view returns (uint256) {\n        return (stakingRewardRate * decayFactor) / normalizationValue;\n    }\n\n    function unstake() external onlyRole(STAKER_ROLE) {\n        StakingInfo storage info = stakingData[msg.sender];\n        require(\n            info.stakingStartTime + stakingDuration <= block.timestamp,\n            \"Staking duration not met\"\n        );\n        require(info.stakedAmount > 0, \"No staked amount found\");\n\n        uint256 currentRewardRate = calculateRewardRate(); // Use the dynamic rate\n        uint256 reward = (info.stakedAmount * currentRewardRate) / 100;\n        uint256 totalAmount = info.stakedAmount + reward;\n\n        // Transfer staked amount and reward to the user\n        _mint(address(this), reward); // Minting only the reward\n        transfer(msg.sender, totalAmount);\n\n        delete stakingData[msg.sender];\n\n        emit Unstaked(msg.sender, info.stakedAmount, reward);\n    }\n\n    function burn(uint256 amount) external {\n        require(\n            hasRole(BURNER_ROLE, msg.sender),\n            \"Must have burner role to burn\"\n        );\n        _burn(_msgSender(), amount);\n    }\n\n    function addRole(\n        address account,\n        bytes32 role\n    ) external onlyRole(ADMIN_ROLE) {\n        grantRole(role, account);\n    }\n\n    function removeRole(\n        address account,\n        bytes32 role\n    ) external onlyRole(ADMIN_ROLE) {\n        revokeRole(role, account);\n    }\n\n    function setStakingParameters(\n        uint256 newRate,\n        uint256 newDuration\n    ) external onlyRole(ADMIN_ROLE) {\n        stakingRewardRate = newRate;\n        stakingDuration = newDuration;\n    }\n}\n",
  "sourcePath": "D:\\DevTools\\flkm-project\\contracts\\Core\\CowlToken.sol",
  "compiler": {
    "name": "solc",
    "version": "0.8.17+commit.8df45f5f.Emscripten.clang"
  },
  "schemaVersion": "3.4.16",
  "updatedAt": "2023-10-16T02:23:54.453Z",
  "networkType": "ethereum",
  "devdoc": {
    "kind": "dev",
    "methods": {
      "allowance(address,address)": {
        "details": "See {IERC20-allowance}."
      },
      "approve(address,uint256)": {
        "details": "See {IERC20-approve}. NOTE: If `amount` is the maximum `uint256`, the allowance is not updated on `transferFrom`. This is semantically equivalent to an infinite approval. Requirements: - `spender` cannot be the zero address."
      },
      "balanceOf(address)": {
        "details": "See {IERC20-balanceOf}."
      },
      "decimals()": {
        "details": "Returns the number of decimals used to get its user representation. For example, if `decimals` equals `2`, a balance of `505` tokens should be displayed to a user as `5.05` (`505 / 10 ** 2`). Tokens usually opt for a value of 18, imitating the relationship between Ether and Wei. This is the default value returned by this function, unless it's overridden. NOTE: This information is only used for _display_ purposes: it in no way affects any of the arithmetic of the contract, including {IERC20-balanceOf} and {IERC20-transfer}."
      },
      "decreaseAllowance(address,uint256)": {
        "details": "Atomically decreases the allowance granted to `spender` by the caller. This is an alternative to {approve} that can be used as a mitigation for problems described in {IERC20-approve}. Emits an {Approval} event indicating the updated allowance. Requirements: - `spender` cannot be the zero address. - `spender` must have allowance for the caller of at least `subtractedValue`."
      },
      "getRoleAdmin(bytes32)": {
        "details": "Returns the admin role that controls `role`. See {grantRole} and {revokeRole}. To change a role's admin, use {_setRoleAdmin}."
      },
      "grantRole(bytes32,address)": {
        "details": "Grants `role` to `account`. If `account` had not been already granted `role`, emits a {RoleGranted} event. Requirements: - the caller must have ``role``'s admin role. May emit a {RoleGranted} event."
      },
      "hasRole(bytes32,address)": {
        "details": "Returns `true` if `account` has been granted `role`."
      },
      "increaseAllowance(address,uint256)": {
        "details": "Atomically increases the allowance granted to `spender` by the caller. This is an alternative to {approve} that can be used as a mitigation for problems described in {IERC20-approve}. Emits an {Approval} event indicating the updated allowance. Requirements: - `spender` cannot be the zero address."
      },
      "name()": {
        "details": "Returns the name of the token."
      },
      "renounceRole(bytes32,address)": {
        "details": "Revokes `role` from the calling account. Roles are often managed via {grantRole} and {revokeRole}: this function's purpose is to provide a mechanism for accounts to lose their privileges if they are compromised (such as when a trusted device is misplaced). If the calling account had been revoked `role`, emits a {RoleRevoked} event. Requirements: - the caller must be `account`. May emit a {RoleRevoked} event."
      },
      "revokeRole(bytes32,address)": {
        "details": "Revokes `role` from `account`. If `account` had been granted `role`, emits a {RoleRevoked} event. Requirements: - the caller must have ``role``'s admin role. May emit a {RoleRevoked} event."
      },
      "supportsInterface(bytes4)": {
        "details": "See {IERC165-supportsInterface}."
      },
      "symbol()": {
        "details": "Returns the symbol of the token, usually a shorter version of the name."
      },
      "totalSupply()": {
        "details": "See {IERC20-totalSupply}."
      },
      "transfer(address,uint256)": {
        "details": "See {IERC20-transfer}. Requirements: - `to` cannot be the zero address. - the caller must have a balance of at least `amount`."
      },
      "transferFrom(address,address,uint256)": {
        "details": "See {IERC20-transferFrom}. Emits an {Approval} event indicating the updated allowance. This is not required by the EIP. See the note at the beginning of {ERC20}. NOTE: Does not update the allowance if the current allowance is the maximum `uint256`. Requirements: - `from` and `to` cannot be the zero address. - `from` must have a balance of at least `amount`. - the caller must have allowance for ``from``'s tokens of at least `amount`."
      }
    },
    "version": 1
  },
  "userdoc": {
    "kind": "user",
    "methods": {},
    "version": 1
  }
}