{
  "contractName": "CowlToken",
  "abi": [
    {
      "anonymous": false,
      "inputs": [
        {
          "indexed": true,
          "internalType": "address",
          "name": "owner",
          "type": "address"
        },
        {
          "indexed": true,
          "internalType": "address",
          "name": "spender",
          "type": "address"
        },
        {
          "indexed": false,
          "internalType": "uint256",
          "name": "value",
          "type": "uint256"
        }
      ],
      "name": "Approval",
      "type": "event"
    },
    {
      "anonymous": false,
      "inputs": [
        {
          "indexed": false,
          "internalType": "uint8",
          "name": "version",
          "type": "uint8"
        }
      ],
      "name": "Initialized",
      "type": "event"
    },
    {
      "anonymous": false,
      "inputs": [
        {
          "indexed": true,
          "internalType": "bytes32",
          "name": "role",
          "type": "bytes32"
        },
        {
          "indexed": true,
          "internalType": "bytes32",
          "name": "previousAdminRole",
          "type": "bytes32"
        },
        {
          "indexed": true,
          "internalType": "bytes32",
          "name": "newAdminRole",
          "type": "bytes32"
        }
      ],
      "name": "RoleAdminChanged",
      "type": "event"
    },
    {
      "anonymous": false,
      "inputs": [
        {
          "indexed": true,
          "internalType": "bytes32",
          "name": "role",
          "type": "bytes32"
        },
        {
          "indexed": true,
          "internalType": "address",
          "name": "account",
          "type": "address"
        },
        {
          "indexed": true,
          "internalType": "address",
          "name": "sender",
          "type": "address"
        }
      ],
      "name": "RoleGranted",
      "type": "event"
    },
    {
      "anonymous": false,
      "inputs": [
        {
          "indexed": true,
          "internalType": "bytes32",
          "name": "role",
          "type": "bytes32"
        },
        {
          "indexed": true,
          "internalType": "address",
          "name": "account",
          "type": "address"
        },
        {
          "indexed": true,
          "internalType": "address",
          "name": "sender",
          "type": "address"
        }
      ],
      "name": "RoleRevoked",
      "type": "event"
    },
    {
      "anonymous": false,
      "inputs": [
        {
          "indexed": true,
          "internalType": "address",
          "name": "staker",
          "type": "address"
        },
        {
          "indexed": false,
          "internalType": "uint256",
          "name": "amount",
          "type": "uint256"
        }
      ],
      "name": "Staked",
      "type": "event"
    },
    {
      "anonymous": false,
      "inputs": [
        {
          "indexed": true,
          "internalType": "address",
          "name": "from",
          "type": "address"
        },
        {
          "indexed": true,
          "internalType": "address",
          "name": "to",
          "type": "address"
        },
        {
          "indexed": false,
          "internalType": "uint256",
          "name": "value",
          "type": "uint256"
        }
      ],
      "name": "Transfer",
      "type": "event"
    },
    {
      "anonymous": false,
      "inputs": [
        {
          "indexed": true,
          "internalType": "address",
          "name": "staker",
          "type": "address"
        },
        {
          "indexed": false,
          "internalType": "uint256",
          "name": "amount",
          "type": "uint256"
        },
        {
          "indexed": false,
          "internalType": "uint256",
          "name": "reward",
          "type": "uint256"
        }
      ],
      "name": "Unstaked",
      "type": "event"
    },
    {
      "inputs": [],
      "name": "ADMIN_ROLE",
      "outputs": [
        {
          "internalType": "bytes32",
          "name": "",
          "type": "bytes32"
        }
      ],
      "stateMutability": "view",
      "type": "function",
      "constant": true
    },
    {
      "inputs": [],
      "name": "BURNER_ROLE",
      "outputs": [
        {
          "internalType": "bytes32",
          "name": "",
          "type": "bytes32"
        }
      ],
      "stateMutability": "view",
      "type": "function",
      "constant": true
    },
    {
      "inputs": [],
      "name": "DEFAULT_ADMIN_ROLE",
      "outputs": [
        {
          "internalType": "bytes32",
          "name": "",
          "type": "bytes32"
        }
      ],
      "stateMutability": "view",
      "type": "function",
      "constant": true
    },
    {
      "inputs": [],
      "name": "MINTER_ROLE",
      "outputs": [
        {
          "internalType": "bytes32",
          "name": "",
          "type": "bytes32"
        }
      ],
      "stateMutability": "view",
      "type": "function",
      "constant": true
    },
    {
      "inputs": [],
      "name": "STAKER_ROLE",
      "outputs": [
        {
          "internalType": "bytes32",
          "name": "",
          "type": "bytes32"
        }
      ],
      "stateMutability": "view",
      "type": "function",
      "constant": true
    },
    {
      "inputs": [
        {
          "internalType": "address",
          "name": "owner",
          "type": "address"
        },
        {
          "internalType": "address",
          "name": "spender",
          "type": "address"
        }
      ],
      "name": "allowance",
      "outputs": [
        {
          "internalType": "uint256",
          "name": "",
          "type": "uint256"
        }
      ],
      "stateMutability": "view",
      "type": "function",
      "constant": true
    },
    {
      "inputs": [
        {
          "internalType": "address",
          "name": "spender",
          "type": "address"
        },
        {
          "internalType": "uint256",
          "name": "amount",
          "type": "uint256"
        }
      ],
      "name": "approve",
      "outputs": [
        {
          "internalType": "bool",
          "name": "",
          "type": "bool"
        }
      ],
      "stateMutability": "nonpayable",
      "type": "function"
    },
    {
      "inputs": [
        {
          "internalType": "address",
          "name": "account",
          "type": "address"
        }
      ],
      "name": "balanceOf",
      "outputs": [
        {
          "internalType": "uint256",
          "name": "",
          "type": "uint256"
        }
      ],
      "stateMutability": "view",
      "type": "function",
      "constant": true
    },
    {
      "inputs": [],
      "name": "decayFactor",
      "outputs": [
        {
          "internalType": "uint256",
          "name": "",
          "type": "uint256"
        }
      ],
      "stateMutability": "view",
      "type": "function",
      "constant": true
    },
    {
      "inputs": [
        {
          "internalType": "address",
          "name": "spender",
          "type": "address"
        },
        {
          "internalType": "uint256",
          "name": "subtractedValue",
          "type": "uint256"
        }
      ],
      "name": "decreaseAllowance",
      "outputs": [
        {
          "internalType": "bool",
          "name": "",
          "type": "bool"
        }
      ],
      "stateMutability": "nonpayable",
      "type": "function"
    },
    {
      "inputs": [
        {
          "internalType": "bytes32",
          "name": "role",
          "type": "bytes32"
        }
      ],
      "name": "getRoleAdmin",
      "outputs": [
        {
          "internalType": "bytes32",
          "name": "",
          "type": "bytes32"
        }
      ],
      "stateMutability": "view",
      "type": "function",
      "constant": true
    },
    {
      "inputs": [
        {
          "internalType": "bytes32",
          "name": "role",
          "type": "bytes32"
        },
        {
          "internalType": "address",
          "name": "account",
          "type": "address"
        }
      ],
      "name": "grantRole",
      "outputs": [],
      "stateMutability": "nonpayable",
      "type": "function"
    },
    {
      "inputs": [
        {
          "internalType": "bytes32",
          "name": "role",
          "type": "bytes32"
        },
        {
          "internalType": "address",
          "name": "account",
          "type": "address"
        }
      ],
      "name": "hasRole",
      "outputs": [
        {
          "internalType": "bool",
          "name": "",
          "type": "bool"
        }
      ],
      "stateMutability": "view",
      "type": "function",
      "constant": true
    },
    {
      "inputs": [
        {
          "internalType": "address",
          "name": "spender",
          "type": "address"
        },
        {
          "internalType": "uint256",
          "name": "addedValue",
          "type": "uint256"
        }
      ],
      "name": "increaseAllowance",
      "outputs": [
        {
          "internalType": "bool",
          "name": "",
          "type": "bool"
        }
      ],
      "stateMutability": "nonpayable",
      "type": "function"
    },
    {
      "inputs": [],
      "name": "name",
      "outputs": [
        {
          "internalType": "string",
          "name": "",
          "type": "string"
        }
      ],
      "stateMutability": "view",
      "type": "function",
      "constant": true
    },
    {
      "inputs": [],
      "name": "normalizationValue",
      "outputs": [
        {
          "internalType": "uint256",
          "name": "",
          "type": "uint256"
        }
      ],
      "stateMutability": "view",
      "type": "function",
      "constant": true
    },
    {
      "inputs": [
        {
          "internalType": "bytes32",
          "name": "role",
          "type": "bytes32"
        },
        {
          "internalType": "address",
          "name": "account",
          "type": "address"
        }
      ],
      "name": "renounceRole",
      "outputs": [],
      "stateMutability": "nonpayable",
      "type": "function"
    },
    {
      "inputs": [
        {
          "internalType": "bytes32",
          "name": "role",
          "type": "bytes32"
        },
        {
          "internalType": "address",
          "name": "account",
          "type": "address"
        }
      ],
      "name": "revokeRole",
      "outputs": [],
      "stateMutability": "nonpayable",
      "type": "function"
    },
    {
      "inputs": [
        {
          "internalType": "address",
          "name": "",
          "type": "address"
        }
      ],
      "name": "stakingData",
      "outputs": [
        {
          "internalType": "uint256",
          "name": "stakedAmount",
          "type": "uint256"
        },
        {
          "internalType": "uint256",
          "name": "stakingStartTime",
          "type": "uint256"
        }
      ],
      "stateMutability": "view",
      "type": "function",
      "constant": true
    },
    {
      "inputs": [],
      "name": "stakingDuration",
      "outputs": [
        {
          "internalType": "uint256",
          "name": "",
          "type": "uint256"
        }
      ],
      "stateMutability": "view",
      "type": "function",
      "constant": true
    },
    {
      "inputs": [],
      "name": "stakingRewardRate",
      "outputs": [
        {
          "internalType": "uint256",
          "name": "",
          "type": "uint256"
        }
      ],
      "stateMutability": "view",
      "type": "function",
      "constant": true
    },
    {
      "inputs": [
        {
          "internalType": "bytes4",
          "name": "interfaceId",
          "type": "bytes4"
        }
      ],
      "name": "supportsInterface",
      "outputs": [
        {
          "internalType": "bool",
          "name": "",
          "type": "bool"
        }
      ],
      "stateMutability": "view",
      "type": "function",
      "constant": true
    },
    {
      "inputs": [],
      "name": "symbol",
      "outputs": [
        {
          "internalType": "string",
          "name": "",
          "type": "string"
        }
      ],
      "stateMutability": "view",
      "type": "function",
      "constant": true
    },
    {
      "inputs": [],
      "name": "totalSupply",
      "outputs": [
        {
          "internalType": "uint256",
          "name": "",
          "type": "uint256"
        }
      ],
      "stateMutability": "view",
      "type": "function",
      "constant": true
    },
    {
      "inputs": [
        {
          "internalType": "address",
          "name": "to",
          "type": "address"
        },
        {
          "internalType": "uint256",
          "name": "amount",
          "type": "uint256"
        }
      ],
      "name": "transfer",
      "outputs": [
        {
          "internalType": "bool",
          "name": "",
          "type": "bool"
        }
      ],
      "stateMutability": "nonpayable",
      "type": "function"
    },
    {
      "inputs": [
        {
          "internalType": "address",
          "name": "from",
          "type": "address"
        },
        {
          "internalType": "address",
          "name": "to",
          "type": "address"
        },
        {
          "internalType": "uint256",
          "name": "amount",
          "type": "uint256"
        }
      ],
      "name": "transferFrom",
      "outputs": [
        {
          "internalType": "bool",
          "name": "",
          "type": "bool"
        }
      ],
      "stateMutability": "nonpayable",
      "type": "function"
    },
    {
      "inputs": [
        {
          "internalType": "string",
          "name": "_name",
          "type": "string"
        },
        {
          "internalType": "string",
          "name": "_symbol",
          "type": "string"
        },
        {
          "internalType": "uint8",
          "name": "_decimals",
          "type": "uint8"
        },
        {
          "internalType": "uint256",
          "name": "_initialSupply",
          "type": "uint256"
        },
        {
          "internalType": "address",
          "name": "admin",
          "type": "address"
        }
      ],
      "name": "initialize",
      "outputs": [],
      "stateMutability": "nonpayable",
      "type": "function"
    },
    {
      "inputs": [],
      "name": "decimals",
      "outputs": [
        {
          "internalType": "uint8",
          "name": "",
          "type": "uint8"
        }
      ],
      "stateMutability": "view",
      "type": "function",
      "constant": true
    },
    {
      "inputs": [
        {
          "internalType": "uint256",
          "name": "_amount",
          "type": "uint256"
        }
      ],
      "name": "stake",
      "outputs": [],
      "stateMutability": "nonpayable",
      "type": "function"
    },
    {
      "inputs": [
        {
          "internalType": "uint256",
          "name": "_decayFactor",
          "type": "uint256"
        }
      ],
      "name": "setDecayFactor",
      "outputs": [],
      "stateMutability": "nonpayable",
      "type": "function"
    },
    {
      "inputs": [
        {
          "internalType": "uint256",
          "name": "_normalizationValue",
          "type": "uint256"
        }
      ],
      "name": "setNormalizationValue",
      "outputs": [],
      "stateMutability": "nonpayable",
      "type": "function"
    },
    {
      "inputs": [],
      "name": "calculateRewardRate",
      "outputs": [
        {
          "internalType": "uint256",
          "name": "",
          "type": "uint256"
        }
      ],
      "stateMutability": "view",
      "type": "function",
      "constant": true
    },
    {
      "inputs": [],
      "name": "unstake",
      "outputs": [],
      "stateMutability": "nonpayable",
      "type": "function"
    },
    {
      "inputs": [
        {
          "internalType": "uint256",
          "name": "amount",
          "type": "uint256"
        }
      ],
      "name": "burn",
      "outputs": [],
      "stateMutability": "nonpayable",
      "type": "function"
    },
    {
      "inputs": [
        {
          "internalType": "address",
          "name": "account",
          "type": "address"
        },
        {
          "internalType": "bytes32",
          "name": "role",
          "type": "bytes32"
        }
      ],
      "name": "addRole",
      "outputs": [],
      "stateMutability": "nonpayable",
      "type": "function"
    },
    {
      "inputs": [
        {
          "internalType": "address",
          "name": "account",
          "type": "address"
        },
        {
          "internalType": "bytes32",
          "name": "role",
          "type": "bytes32"
        }
      ],
      "name": "removeRole",
      "outputs": [],
      "stateMutability": "nonpayable",
      "type": "function"
    },
    {
      "inputs": [
        {
          "internalType": "uint256",
          "name": "newRate",
          "type": "uint256"
        },
        {
          "internalType": "uint256",
          "name": "newDuration",
          "type": "uint256"
        }
      ],
      "name": "setStakingParameters",
      "outputs": [],
      "stateMutability": "nonpayable",
      "type": "function"
    }
  ],
  "bytecode": "0x608060405234801561001057600080fd5b50611e21806100206000396000f3fe608060405234801561001057600080fd5b50600436106102275760003560e01c80636853920e11610130578063a457c2d7116100b8578063d53913931161007c578063d539139314610490578063d547741f146104b7578063dd62ed3e146104ca578063eca51139146104dd578063f35718191461051957600080fd5b8063a457c2d714610431578063a694fc3a14610444578063a73f7f8a14610457578063a9059cbb1461046a578063b8c9059d1461047d57600080fd5b80637a9abfa2116100ff5780637a9abfa2146103fc5780638005a7de1461040557806391d148541461040e57806395d89b4114610421578063a217fddf1461042957600080fd5b80636853920e1461039857806370a08231146103ab57806371f55f94146103d457806375b238fc146103e757600080fd5b80632f2ff15d116101b35780633950935111610182578063395093511461034e57806342966c68146103615780634bc72e2d146103745780634f3fc2df1461038757806367202c901461039057600080fd5b80632f2ff15d146102fe578063313ce5671461031157806336568abe146103265780633780b3ed1461033957600080fd5b806320fb3016116101fa57806320fb30161461028e57806323b872dd14610297578063248a9ca3146102aa578063282c51f3146102cd5780632def6620146102f457600080fd5b806301ffc9a71461022c57806306fdde0314610254578063095ea7b31461026957806318160ddd1461027c575b600080fd5b61023f61023a366004611743565b61052c565b60405190151581526020015b60405180910390f35b61025c610563565b60405161024b9190611791565b61023f6102773660046117e0565b6105f5565b6035545b60405190815260200161024b565b61028060cc5481565b61023f6102a536600461180a565b61060d565b6102806102b8366004611846565b60009081526097602052604090206001015490565b6102807f3c11d16cbaffd01df69ce1c404f6340ee057498f5f00246190ea54220576a84881565b6102fc610631565b005b6102fc61030c36600461185f565b6107b5565b60c95460405160ff909116815260200161024b565b6102fc61033436600461185f565b6107df565b610280600080516020611dac83398151915281565b61023f61035c3660046117e0565b61085d565b6102fc61036f366004611846565b61087f565b6102fc61038236600461188b565b610902565b61028060ca5481565b610280610926565b6102fc6103a63660046117e0565b61094a565b6102806103b93660046118ad565b6001600160a01b031660009081526033602052604090205490565b6102fc6103e2366004611846565b61096c565b610280600080516020611dcc83398151915281565b61028060cd5481565b61028060cb5481565b61023f61041c36600461185f565b61098a565b61025c6109b5565b610280600081565b61023f61043f3660046117e0565b6109c4565b6102fc610452366004611846565b610a3f565b6102fc6104653660046117e0565b610b95565b61023f6104783660046117e0565b610bb7565b6102fc61048b366004611846565b610bc5565b6102807f9f2df0fed2c77648de5860a4cc508cd0818c85b8b8a1ab4ceeef8d981c8956a681565b6102fc6104c536600461185f565b610c34565b6102806104d83660046118c8565b610c59565b6105046104eb3660046118ad565b60ce602052600090815260409020805460019091015482565b6040805192835260208301919091520161024b565b6102fc610527366004611995565b610c84565b60006001600160e01b03198216637965db0b60e01b148061055d57506301ffc9a760e01b6001600160e01b03198316145b92915050565b60606036805461057290611a2c565b80601f016020809104026020016040519081016040528092919081815260200182805461059e90611a2c565b80156105eb5780601f106105c0576101008083540402835291602001916105eb565b820191906000526020600020905b8154815290600101906020018083116105ce57829003601f168201915b5050505050905090565b600033610603818585610e66565b5060019392505050565b60003361061b858285610f8a565b610626858585611004565b506001949350505050565b600080516020611dac833981519152610649816111af565b33600090815260ce6020526040902060cb546001820154429161066b91611a7c565b11156106be5760405162461bcd60e51b815260206004820152601860248201527f5374616b696e67206475726174696f6e206e6f74206d6574000000000000000060448201526064015b60405180910390fd5b80546107055760405162461bcd60e51b8152602060048201526016602482015275139bc81cdd185ad95908185b5bdd5b9d08199bdd5b9960521b60448201526064016106b5565b600061070f610926565b9050600060648284600001546107259190611a8f565b61072f9190611aa6565b905060008184600001546107439190611a7c565b905061074f30836111b9565b6107593382610bb7565b5033600081815260ce6020908152604080832083815560010192909255865482519081529081018590527f7fc4727e062e336010f2c282598ef5f14facb3de68cf8195c2f23e1454b2b74e910160405180910390a25050505050565b6000828152609760205260409020600101546107d0816111af565b6107da838361127a565b505050565b6001600160a01b038116331461084f5760405162461bcd60e51b815260206004820152602f60248201527f416363657373436f6e74726f6c3a2063616e206f6e6c792072656e6f756e636560448201526e103937b632b9903337b91039b2b63360891b60648201526084016106b5565b6108598282611300565b5050565b6000336106038185856108708383610c59565b61087a9190611a7c565b610e66565b6108a97f3c11d16cbaffd01df69ce1c404f6340ee057498f5f00246190ea54220576a8483361098a565b6108f55760405162461bcd60e51b815260206004820152601d60248201527f4d7573742068617665206275726e657220726f6c6520746f206275726e00000060448201526064016106b5565b6108ff3382611367565b50565b600080516020611dcc83398151915261091a816111af565b5060ca9190915560cb55565b600060cd5460cc5460ca5461093b9190611a8f565b6109459190611aa6565b905090565b600080516020611dcc833981519152610962816111af565b6107da8284610c34565b600080516020611dcc833981519152610984816111af565b5060cd55565b60009182526097602090815260408084206001600160a01b0393909316845291905290205460ff1690565b60606037805461057290611a2c565b600033816109d28286610c59565b905083811015610a325760405162461bcd60e51b815260206004820152602560248201527f45524332303a2064656372656173656420616c6c6f77616e63652062656c6f77604482015264207a65726f60d81b60648201526084016106b5565b6106268286868403610e66565b600080516020611dac833981519152610a57816111af565b60008211610aa75760405162461bcd60e51b815260206004820152601d60248201527f416d6f756e74206d7573742062652067726561746572207468616e203000000060448201526064016106b5565b33600090815260336020526040902054821115610b065760405162461bcd60e51b815260206004820152601d60248201527f496e73756666696369656e742062616c616e636520746f207374616b6500000060448201526064016106b5565b610b103083610bb7565b5060408051808201825233600090815260ce60205291909120548190610b37908590611a7c565b81524260209182015233600081815260ce8352604090819020845181559383015160019094019390935591518481527f9e71bc8eea02a63969f509818f2dafb9254532904319f9dbda79b67bd34a5f3d910160405180910390a25050565b600080516020611dcc833981519152610bad816111af565b6107da82846107b5565b600033610603818585611004565b600080516020611dcc833981519152610bdd816111af565b6064821115610c2e5760405162461bcd60e51b815260206004820152601f60248201527f446563617920666163746f722063616e6e6f742065786365656420313030250060448201526064016106b5565b5060cc55565b600082815260976020526040902060010154610c4f816111af565b6107da8383611300565b6001600160a01b03918216600090815260346020908152604080832093909416825291909152205490565b600054610100900460ff1615808015610ca45750600054600160ff909116105b80610cbe5750303b158015610cbe575060005460ff166001145b610d215760405162461bcd60e51b815260206004820152602e60248201527f496e697469616c697a61626c653a20636f6e747261637420697320616c72656160448201526d191e481a5b9a5d1a585b1a5e995960921b60648201526084016106b5565b6000805460ff191660011790558015610d44576000805461ff0019166101001790555b610d4e868661149b565b610d566114cc565b60c9805460ff191660ff8616908117909155610d88908390610d7990600a611bac565b610d839086611a8f565b6111b9565b610da0600080516020611dcc8339815191528361127a565b610dca7f9f2df0fed2c77648de5860a4cc508cd0818c85b8b8a1ab4ceeef8d981c8956a68361127a565b610de2600080516020611dac8339815191528361127a565b610e0c7f3c11d16cbaffd01df69ce1c404f6340ee057498f5f00246190ea54220576a8488361127a565b606460ca5562278d0060cb558015610e5e576000805461ff0019169055604051600181527f7f26b83ff96e1f2b6a682f133852f6798a09c465da95921460cefb38474024989060200160405180910390a15b505050505050565b6001600160a01b038316610ec85760405162461bcd60e51b8152602060048201526024808201527f45524332303a20617070726f76652066726f6d20746865207a65726f206164646044820152637265737360e01b60648201526084016106b5565b6001600160a01b038216610f295760405162461bcd60e51b815260206004820152602260248201527f45524332303a20617070726f766520746f20746865207a65726f206164647265604482015261737360f01b60648201526084016106b5565b6001600160a01b0383811660008181526034602090815260408083209487168084529482529182902085905590518481527f8c5be1e5ebec7d5bd14f71427d1e84f3dd0314c0f7b2291e5b200ac8c7c3b925910160405180910390a3505050565b6000610f968484610c59565b90506000198114610ffe5781811015610ff15760405162461bcd60e51b815260206004820152601d60248201527f45524332303a20696e73756666696369656e7420616c6c6f77616e636500000060448201526064016106b5565b610ffe8484848403610e66565b50505050565b6001600160a01b0383166110685760405162461bcd60e51b815260206004820152602560248201527f45524332303a207472616e736665722066726f6d20746865207a65726f206164604482015264647265737360d81b60648201526084016106b5565b6001600160a01b0382166110ca5760405162461bcd60e51b815260206004820152602360248201527f45524332303a207472616e7366657220746f20746865207a65726f206164647260448201526265737360e81b60648201526084016106b5565b6001600160a01b038316600090815260336020526040902054818110156111425760405162461bcd60e51b815260206004820152602660248201527f45524332303a207472616e7366657220616d6f756e7420657863656564732062604482015265616c616e636560d01b60648201526084016106b5565b6001600160a01b0380851660008181526033602052604080822086860390559286168082529083902080548601905591517fddf252ad1be2c89b69c2b068fc378daa952ba7f163c4a11628f55a4df523b3ef906111a29086815260200190565b60405180910390a3610ffe565b6108ff81336114f5565b6001600160a01b03821661120f5760405162461bcd60e51b815260206004820152601f60248201527f45524332303a206d696e7420746f20746865207a65726f20616464726573730060448201526064016106b5565b80603560008282546112219190611a7c565b90915550506001600160a01b0382166000818152603360209081526040808320805486019055518481527fddf252ad1be2c89b69c2b068fc378daa952ba7f163c4a11628f55a4df523b3ef910160405180910390a35050565b611284828261098a565b6108595760008281526097602090815260408083206001600160a01b03851684529091529020805460ff191660011790556112bc3390565b6001600160a01b0316816001600160a01b0316837f2f8788117e7eff1d82e926ec794901d17c78024a50270940304540a733656f0d60405160405180910390a45050565b61130a828261098a565b156108595760008281526097602090815260408083206001600160a01b0385168085529252808320805460ff1916905551339285917ff6391f5c32d9c69d2a47ea670b442974b53935d1edc7fd64eb21e047a839171b9190a45050565b6001600160a01b0382166113c75760405162461bcd60e51b815260206004820152602160248201527f45524332303a206275726e2066726f6d20746865207a65726f206164647265736044820152607360f81b60648201526084016106b5565b6001600160a01b0382166000908152603360205260409020548181101561143b5760405162461bcd60e51b815260206004820152602260248201527f45524332303a206275726e20616d6f756e7420657863656564732062616c616e604482015261636560f01b60648201526084016106b5565b6001600160a01b03831660008181526033602090815260408083208686039055603580548790039055518581529192917fddf252ad1be2c89b69c2b068fc378daa952ba7f163c4a11628f55a4df523b3ef910160405180910390a3505050565b600054610100900460ff166114c25760405162461bcd60e51b81526004016106b590611bb8565b610859828261154e565b600054610100900460ff166114f35760405162461bcd60e51b81526004016106b590611bb8565b565b6114ff828261098a565b6108595761150c8161158e565b6115178360206115a0565b604051602001611528929190611c03565b60408051601f198184030181529082905262461bcd60e51b82526106b591600401611791565b600054610100900460ff166115755760405162461bcd60e51b81526004016106b590611bb8565b60366115818382611cbe565b5060376107da8282611cbe565b606061055d6001600160a01b03831660145b606060006115af836002611a8f565b6115ba906002611a7c565b67ffffffffffffffff8111156115d2576115d26118f2565b6040519080825280601f01601f1916602001820160405280156115fc576020820181803683370190505b509050600360fc1b8160008151811061161757611617611d7e565b60200101906001600160f81b031916908160001a905350600f60fb1b8160018151811061164657611646611d7e565b60200101906001600160f81b031916908160001a905350600061166a846002611a8f565b611675906001611a7c565b90505b60018111156116ed576f181899199a1a9b1b9c1cb0b131b232b360811b85600f16601081106116a9576116a9611d7e565b1a60f81b8282815181106116bf576116bf611d7e565b60200101906001600160f81b031916908160001a90535060049490941c936116e681611d94565b9050611678565b50831561173c5760405162461bcd60e51b815260206004820181905260248201527f537472696e67733a20686578206c656e67746820696e73756666696369656e7460448201526064016106b5565b9392505050565b60006020828403121561175557600080fd5b81356001600160e01b03198116811461173c57600080fd5b60005b83811015611788578181015183820152602001611770565b50506000910152565b60208152600082518060208401526117b081604085016020870161176d565b601f01601f19169190910160400192915050565b80356001600160a01b03811681146117db57600080fd5b919050565b600080604083850312156117f357600080fd5b6117fc836117c4565b946020939093013593505050565b60008060006060848603121561181f57600080fd5b611828846117c4565b9250611836602085016117c4565b9150604084013590509250925092565b60006020828403121561185857600080fd5b5035919050565b6000806040838503121561187257600080fd5b82359150611882602084016117c4565b90509250929050565b6000806040838503121561189e57600080fd5b50508035926020909101359150565b6000602082840312156118bf57600080fd5b61173c826117c4565b600080604083850312156118db57600080fd5b6118e4836117c4565b9150611882602084016117c4565b634e487b7160e01b600052604160045260246000fd5b600082601f83011261191957600080fd5b813567ffffffffffffffff80821115611934576119346118f2565b604051601f8301601f19908116603f0116810190828211818310171561195c5761195c6118f2565b8160405283815286602085880101111561197557600080fd5b836020870160208301376000602085830101528094505050505092915050565b600080600080600060a086880312156119ad57600080fd5b853567ffffffffffffffff808211156119c557600080fd5b6119d189838a01611908565b965060208801359150808211156119e757600080fd5b506119f488828901611908565b945050604086013560ff81168114611a0b57600080fd5b925060608601359150611a20608087016117c4565b90509295509295909350565b600181811c90821680611a4057607f821691505b602082108103611a6057634e487b7160e01b600052602260045260246000fd5b50919050565b634e487b7160e01b600052601160045260246000fd5b8082018082111561055d5761055d611a66565b808202811582820484141761055d5761055d611a66565b600082611ac357634e487b7160e01b600052601260045260246000fd5b500490565b600181815b80851115611b03578160001904821115611ae957611ae9611a66565b80851615611af657918102915b93841c9390800290611acd565b509250929050565b600082611b1a5750600161055d565b81611b275750600061055d565b8160018114611b3d5760028114611b4757611b63565b600191505061055d565b60ff841115611b5857611b58611a66565b50506001821b61055d565b5060208310610133831016604e8410600b8410161715611b86575081810a61055d565b611b908383611ac8565b8060001904821115611ba457611ba4611a66565b029392505050565b600061173c8383611b0b565b6020808252602b908201527f496e697469616c697a61626c653a20636f6e7472616374206973206e6f74206960408201526a6e697469616c697a696e6760a81b606082015260800190565b7f416363657373436f6e74726f6c3a206163636f756e7420000000000000000000815260008351611c3b81601785016020880161176d565b7001034b99036b4b9b9b4b733903937b6329607d1b6017918401918201528351611c6c81602884016020880161176d565b01602801949350505050565b601f8211156107da57600081815260208120601f850160051c81016020861015611c9f5750805b601f850160051c820191505b81811015610e5e57828155600101611cab565b815167ffffffffffffffff811115611cd857611cd86118f2565b611cec81611ce68454611a2c565b84611c78565b602080601f831160018114611d215760008415611d095750858301515b600019600386901b1c1916600185901b178555610e5e565b600085815260208120601f198616915b82811015611d5057888601518255948401946001909101908401611d31565b5085821015611d6e5787850151600019600388901b60f8161c191681555b5050505050600190811b01905550565b634e487b7160e01b600052603260045260246000fd5b600081611da357611da3611a66565b50600019019056feb9e206fa2af7ee1331b72ce58b6d938ac810ce9b5cdb65d35ab723fd67badf9ea49807205ce4d355092ef5a8a18f56e8913cf4a201fbe287825b095693c21775a2646970667358221220881be291b068807d37876c542454881d6a87899cccdcae97a830e3b89e17cf4664736f6c63430008110033",
  "immutableReferences": {},
  "source": "// SPDX-License-Identifier: MIT\npragma solidity ^0.8.17;\n\nimport \"@openzeppelin/contracts-upgradeable/token/ERC20/ERC20Upgradeable.sol\";\nimport \"@openzeppelin/contracts-upgradeable/access/AccessControlUpgradeable.sol\";\nimport \"@openzeppelin/contracts-upgradeable/proxy/utils/Initializable.sol\";\nimport \"@openzeppelin/contracts-upgradeable/utils/math/SafeMathUpgradeable.sol\";\n\ncontract CowlToken is\n    Initializable,\n    ERC20Upgradeable,\n    AccessControlUpgradeable\n{\n    bytes32 public constant MINTER_ROLE = keccak256(\"MINTER_ROLE\");\n    bytes32 public constant STAKER_ROLE = keccak256(\"STAKER_ROLE\");\n    bytes32 public constant ADMIN_ROLE = keccak256(\"ADMIN_ROLE\");\n    bytes32 public constant BURNER_ROLE = keccak256(\"BURNER_ROLE\");\n\n    uint8 private tokenDecimals;\n\n    uint256 public stakingRewardRate;\n    uint256 public stakingDuration;\n    uint256 public decayFactor;\n    uint256 public normalizationValue;\n\n    struct StakingInfo {\n        uint256 stakedAmount;\n        uint256 stakingStartTime;\n    }\n\n    mapping(address => StakingInfo) public stakingData;\n\n    event Staked(address indexed staker, uint256 amount);\n    event Unstaked(address indexed staker, uint256 amount, uint256 reward);\n\n    function initialize(\n        string memory _name,\n        string memory _symbol,\n        uint8 _decimals,\n        uint256 _initialSupply,\n        address admin\n    ) public initializer {\n        __ERC20_init(_name, _symbol);\n        __AccessControl_init();\n\n        tokenDecimals = _decimals; // set your private _decimals variable\n        _mint(admin, _initialSupply * (10 ** uint256(_decimals)));\n\n        _grantRole(ADMIN_ROLE, admin);\n        _grantRole(MINTER_ROLE, admin);\n        _grantRole(STAKER_ROLE, admin);\n        _grantRole(BURNER_ROLE, admin);\n\n        /**\n         * @dev Currently, the reward rate is set as a percentage (with stakingRewardRate = 100 representing a 100% reward).\n         * This might lead to high inflation if not controlled. Depending on what we decide later,\n         * we might want to tweak or introduce a decaying function for rewards over time.\n         */\n        stakingRewardRate = 100; // example rate, can be adjusted as per the need.\n        stakingDuration = 30 days; // example duration, can be adjusted as per the need.\n    }\n\n    function decimals() public view virtual override returns (uint8) {\n        return tokenDecimals;\n    }\n\n    function stake(uint256 _amount) external onlyRole(STAKER_ROLE) {\n        require(_amount > 0, \"Amount must be greater than 0\");\n        require(\n            balanceOf(msg.sender) >= _amount,\n            \"Insufficient balance to stake\"\n        );\n\n        // Transfer tokens to the contract's address instead of burning\n        transfer(address(this), _amount);\n\n        stakingData[msg.sender] = StakingInfo({\n            stakedAmount: stakingData[msg.sender].stakedAmount + _amount,\n            stakingStartTime: block.timestamp\n        });\n\n        emit Staked(msg.sender, _amount);\n    }\n\n    // Setter function for decayFactor\n    function setDecayFactor(\n        uint256 _decayFactor\n    ) external onlyRole(ADMIN_ROLE) {\n        require(_decayFactor <= 100, \"Decay factor cannot exceed 100%\"); // Ensuring the decay factor isn't over 100%\n        decayFactor = _decayFactor;\n    }\n\n    // Setter function for normalizationValue\n    function setNormalizationValue(\n        uint256 _normalizationValue\n    ) external onlyRole(ADMIN_ROLE) {\n        normalizationValue = _normalizationValue;\n    }\n\n    function calculateRewardRate() public view returns (uint256) {\n        return (stakingRewardRate * decayFactor) / normalizationValue;\n    }\n\n    function unstake() external onlyRole(STAKER_ROLE) {\n        StakingInfo storage info = stakingData[msg.sender];\n        require(\n            info.stakingStartTime + stakingDuration <= block.timestamp,\n            \"Staking duration not met\"\n        );\n        require(info.stakedAmount > 0, \"No staked amount found\");\n\n        uint256 currentRewardRate = calculateRewardRate(); // Use the dynamic rate\n        uint256 reward = (info.stakedAmount * currentRewardRate) / 100;\n        uint256 totalAmount = info.stakedAmount + reward;\n\n        // Transfer staked amount and reward to the user\n        _mint(address(this), reward); // Minting only the reward\n        transfer(msg.sender, totalAmount);\n\n        delete stakingData[msg.sender];\n\n        emit Unstaked(msg.sender, info.stakedAmount, reward);\n    }\n\n    function burn(uint256 amount) external {\n        require(\n            hasRole(BURNER_ROLE, msg.sender),\n            \"Must have burner role to burn\"\n        );\n        _burn(_msgSender(), amount);\n    }\n\n    function addRole(\n        address account,\n        bytes32 role\n    ) external onlyRole(ADMIN_ROLE) {\n        grantRole(role, account);\n    }\n\n    function removeRole(\n        address account,\n        bytes32 role\n    ) external onlyRole(ADMIN_ROLE) {\n        revokeRole(role, account);\n    }\n\n    function setStakingParameters(\n        uint256 newRate,\n        uint256 newDuration\n    ) external onlyRole(ADMIN_ROLE) {\n        stakingRewardRate = newRate;\n        stakingDuration = newDuration;\n    }\n}\n",
  "sourcePath": "D:\\DevTools\\flkm-project\\contracts\\Core\\CowlToken.sol",
  "compiler": {
    "name": "solc",
    "version": "0.8.17+commit.8df45f5f.Emscripten.clang"
  },
  "schemaVersion": "3.4.16",
  "updatedAt": "2023-10-26T23:43:34.270Z",
  "networkType": "ethereum",
  "devdoc": {
    "kind": "dev",
    "methods": {
      "allowance(address,address)": {
        "details": "See {IERC20-allowance}."
      },
      "approve(address,uint256)": {
        "details": "See {IERC20-approve}. NOTE: If `amount` is the maximum `uint256`, the allowance is not updated on `transferFrom`. This is semantically equivalent to an infinite approval. Requirements: - `spender` cannot be the zero address."
      },
      "balanceOf(address)": {
        "details": "See {IERC20-balanceOf}."
      },
      "decimals()": {
        "details": "Returns the number of decimals used to get its user representation. For example, if `decimals` equals `2`, a balance of `505` tokens should be displayed to a user as `5.05` (`505 / 10 ** 2`). Tokens usually opt for a value of 18, imitating the relationship between Ether and Wei. This is the default value returned by this function, unless it's overridden. NOTE: This information is only used for _display_ purposes: it in no way affects any of the arithmetic of the contract, including {IERC20-balanceOf} and {IERC20-transfer}."
      },
      "decreaseAllowance(address,uint256)": {
        "details": "Atomically decreases the allowance granted to `spender` by the caller. This is an alternative to {approve} that can be used as a mitigation for problems described in {IERC20-approve}. Emits an {Approval} event indicating the updated allowance. Requirements: - `spender` cannot be the zero address. - `spender` must have allowance for the caller of at least `subtractedValue`."
      },
      "getRoleAdmin(bytes32)": {
        "details": "Returns the admin role that controls `role`. See {grantRole} and {revokeRole}. To change a role's admin, use {_setRoleAdmin}."
      },
      "grantRole(bytes32,address)": {
        "details": "Grants `role` to `account`. If `account` had not been already granted `role`, emits a {RoleGranted} event. Requirements: - the caller must have ``role``'s admin role. May emit a {RoleGranted} event."
      },
      "hasRole(bytes32,address)": {
        "details": "Returns `true` if `account` has been granted `role`."
      },
      "increaseAllowance(address,uint256)": {
        "details": "Atomically increases the allowance granted to `spender` by the caller. This is an alternative to {approve} that can be used as a mitigation for problems described in {IERC20-approve}. Emits an {Approval} event indicating the updated allowance. Requirements: - `spender` cannot be the zero address."
      },
      "name()": {
        "details": "Returns the name of the token."
      },
      "renounceRole(bytes32,address)": {
        "details": "Revokes `role` from the calling account. Roles are often managed via {grantRole} and {revokeRole}: this function's purpose is to provide a mechanism for accounts to lose their privileges if they are compromised (such as when a trusted device is misplaced). If the calling account had been revoked `role`, emits a {RoleRevoked} event. Requirements: - the caller must be `account`. May emit a {RoleRevoked} event."
      },
      "revokeRole(bytes32,address)": {
        "details": "Revokes `role` from `account`. If `account` had been granted `role`, emits a {RoleRevoked} event. Requirements: - the caller must have ``role``'s admin role. May emit a {RoleRevoked} event."
      },
      "supportsInterface(bytes4)": {
        "details": "See {IERC165-supportsInterface}."
      },
      "symbol()": {
        "details": "Returns the symbol of the token, usually a shorter version of the name."
      },
      "totalSupply()": {
        "details": "See {IERC20-totalSupply}."
      },
      "transfer(address,uint256)": {
        "details": "See {IERC20-transfer}. Requirements: - `to` cannot be the zero address. - the caller must have a balance of at least `amount`."
      },
      "transferFrom(address,address,uint256)": {
        "details": "See {IERC20-transferFrom}. Emits an {Approval} event indicating the updated allowance. This is not required by the EIP. See the note at the beginning of {ERC20}. NOTE: Does not update the allowance if the current allowance is the maximum `uint256`. Requirements: - `from` and `to` cannot be the zero address. - `from` must have a balance of at least `amount`. - the caller must have allowance for ``from``'s tokens of at least `amount`."
      }
    },
    "version": 1
  },
  "userdoc": {
    "kind": "user",
    "methods": {},
    "version": 1
  }
}