{
  "contractName": "CowlToken",
  "abi": [
    {
      "anonymous": false,
      "inputs": [
        {
          "indexed": true,
          "internalType": "address",
          "name": "owner",
          "type": "address"
        },
        {
          "indexed": true,
          "internalType": "address",
          "name": "spender",
          "type": "address"
        },
        {
          "indexed": false,
          "internalType": "uint256",
          "name": "value",
          "type": "uint256"
        }
      ],
      "name": "Approval",
      "type": "event"
    },
    {
      "anonymous": false,
      "inputs": [
        {
          "indexed": false,
          "internalType": "uint8",
          "name": "version",
          "type": "uint8"
        }
      ],
      "name": "Initialized",
      "type": "event"
    },
    {
      "anonymous": false,
      "inputs": [
        {
          "indexed": true,
          "internalType": "bytes32",
          "name": "role",
          "type": "bytes32"
        },
        {
          "indexed": true,
          "internalType": "bytes32",
          "name": "previousAdminRole",
          "type": "bytes32"
        },
        {
          "indexed": true,
          "internalType": "bytes32",
          "name": "newAdminRole",
          "type": "bytes32"
        }
      ],
      "name": "RoleAdminChanged",
      "type": "event"
    },
    {
      "anonymous": false,
      "inputs": [
        {
          "indexed": true,
          "internalType": "bytes32",
          "name": "role",
          "type": "bytes32"
        },
        {
          "indexed": true,
          "internalType": "address",
          "name": "account",
          "type": "address"
        },
        {
          "indexed": true,
          "internalType": "address",
          "name": "sender",
          "type": "address"
        }
      ],
      "name": "RoleGranted",
      "type": "event"
    },
    {
      "anonymous": false,
      "inputs": [
        {
          "indexed": true,
          "internalType": "bytes32",
          "name": "role",
          "type": "bytes32"
        },
        {
          "indexed": true,
          "internalType": "address",
          "name": "account",
          "type": "address"
        },
        {
          "indexed": true,
          "internalType": "address",
          "name": "sender",
          "type": "address"
        }
      ],
      "name": "RoleRevoked",
      "type": "event"
    },
    {
      "anonymous": false,
      "inputs": [
        {
          "indexed": true,
          "internalType": "address",
          "name": "staker",
          "type": "address"
        },
        {
          "indexed": false,
          "internalType": "uint256",
          "name": "amount",
          "type": "uint256"
        }
      ],
      "name": "Staked",
      "type": "event"
    },
    {
      "anonymous": false,
      "inputs": [
        {
          "indexed": true,
          "internalType": "address",
          "name": "from",
          "type": "address"
        },
        {
          "indexed": true,
          "internalType": "address",
          "name": "to",
          "type": "address"
        },
        {
          "indexed": false,
          "internalType": "uint256",
          "name": "value",
          "type": "uint256"
        }
      ],
      "name": "Transfer",
      "type": "event"
    },
    {
      "anonymous": false,
      "inputs": [
        {
          "indexed": true,
          "internalType": "address",
          "name": "staker",
          "type": "address"
        },
        {
          "indexed": false,
          "internalType": "uint256",
          "name": "amount",
          "type": "uint256"
        },
        {
          "indexed": false,
          "internalType": "uint256",
          "name": "reward",
          "type": "uint256"
        }
      ],
      "name": "Unstaked",
      "type": "event"
    },
    {
      "inputs": [],
      "name": "ADMIN_ROLE",
      "outputs": [
        {
          "internalType": "bytes32",
          "name": "",
          "type": "bytes32"
        }
      ],
      "stateMutability": "view",
      "type": "function",
      "constant": true
    },
    {
      "inputs": [],
      "name": "BURNER_ROLE",
      "outputs": [
        {
          "internalType": "bytes32",
          "name": "",
          "type": "bytes32"
        }
      ],
      "stateMutability": "view",
      "type": "function",
      "constant": true
    },
    {
      "inputs": [],
      "name": "DEFAULT_ADMIN_ROLE",
      "outputs": [
        {
          "internalType": "bytes32",
          "name": "",
          "type": "bytes32"
        }
      ],
      "stateMutability": "view",
      "type": "function",
      "constant": true
    },
    {
      "inputs": [],
      "name": "MINTER_ROLE",
      "outputs": [
        {
          "internalType": "bytes32",
          "name": "",
          "type": "bytes32"
        }
      ],
      "stateMutability": "view",
      "type": "function",
      "constant": true
    },
    {
      "inputs": [],
      "name": "STAKER_ROLE",
      "outputs": [
        {
          "internalType": "bytes32",
          "name": "",
          "type": "bytes32"
        }
      ],
      "stateMutability": "view",
      "type": "function",
      "constant": true
    },
    {
      "inputs": [
        {
          "internalType": "address",
          "name": "owner",
          "type": "address"
        },
        {
          "internalType": "address",
          "name": "spender",
          "type": "address"
        }
      ],
      "name": "allowance",
      "outputs": [
        {
          "internalType": "uint256",
          "name": "",
          "type": "uint256"
        }
      ],
      "stateMutability": "view",
      "type": "function",
      "constant": true
    },
    {
      "inputs": [
        {
          "internalType": "address",
          "name": "spender",
          "type": "address"
        },
        {
          "internalType": "uint256",
          "name": "amount",
          "type": "uint256"
        }
      ],
      "name": "approve",
      "outputs": [
        {
          "internalType": "bool",
          "name": "",
          "type": "bool"
        }
      ],
      "stateMutability": "nonpayable",
      "type": "function"
    },
    {
      "inputs": [
        {
          "internalType": "address",
          "name": "account",
          "type": "address"
        }
      ],
      "name": "balanceOf",
      "outputs": [
        {
          "internalType": "uint256",
          "name": "",
          "type": "uint256"
        }
      ],
      "stateMutability": "view",
      "type": "function",
      "constant": true
    },
    {
      "inputs": [],
      "name": "decayFactor",
      "outputs": [
        {
          "internalType": "uint256",
          "name": "",
          "type": "uint256"
        }
      ],
      "stateMutability": "view",
      "type": "function",
      "constant": true
    },
    {
      "inputs": [
        {
          "internalType": "address",
          "name": "spender",
          "type": "address"
        },
        {
          "internalType": "uint256",
          "name": "subtractedValue",
          "type": "uint256"
        }
      ],
      "name": "decreaseAllowance",
      "outputs": [
        {
          "internalType": "bool",
          "name": "",
          "type": "bool"
        }
      ],
      "stateMutability": "nonpayable",
      "type": "function"
    },
    {
      "inputs": [
        {
          "internalType": "bytes32",
          "name": "role",
          "type": "bytes32"
        }
      ],
      "name": "getRoleAdmin",
      "outputs": [
        {
          "internalType": "bytes32",
          "name": "",
          "type": "bytes32"
        }
      ],
      "stateMutability": "view",
      "type": "function",
      "constant": true
    },
    {
      "inputs": [
        {
          "internalType": "bytes32",
          "name": "role",
          "type": "bytes32"
        },
        {
          "internalType": "address",
          "name": "account",
          "type": "address"
        }
      ],
      "name": "grantRole",
      "outputs": [],
      "stateMutability": "nonpayable",
      "type": "function"
    },
    {
      "inputs": [
        {
          "internalType": "bytes32",
          "name": "role",
          "type": "bytes32"
        },
        {
          "internalType": "address",
          "name": "account",
          "type": "address"
        }
      ],
      "name": "hasRole",
      "outputs": [
        {
          "internalType": "bool",
          "name": "",
          "type": "bool"
        }
      ],
      "stateMutability": "view",
      "type": "function",
      "constant": true
    },
    {
      "inputs": [
        {
          "internalType": "address",
          "name": "spender",
          "type": "address"
        },
        {
          "internalType": "uint256",
          "name": "addedValue",
          "type": "uint256"
        }
      ],
      "name": "increaseAllowance",
      "outputs": [
        {
          "internalType": "bool",
          "name": "",
          "type": "bool"
        }
      ],
      "stateMutability": "nonpayable",
      "type": "function"
    },
    {
      "inputs": [],
      "name": "name",
      "outputs": [
        {
          "internalType": "string",
          "name": "",
          "type": "string"
        }
      ],
      "stateMutability": "view",
      "type": "function",
      "constant": true
    },
    {
      "inputs": [],
      "name": "normalizationValue",
      "outputs": [
        {
          "internalType": "uint256",
          "name": "",
          "type": "uint256"
        }
      ],
      "stateMutability": "view",
      "type": "function",
      "constant": true
    },
    {
      "inputs": [
        {
          "internalType": "bytes32",
          "name": "role",
          "type": "bytes32"
        },
        {
          "internalType": "address",
          "name": "account",
          "type": "address"
        }
      ],
      "name": "renounceRole",
      "outputs": [],
      "stateMutability": "nonpayable",
      "type": "function"
    },
    {
      "inputs": [
        {
          "internalType": "bytes32",
          "name": "role",
          "type": "bytes32"
        },
        {
          "internalType": "address",
          "name": "account",
          "type": "address"
        }
      ],
      "name": "revokeRole",
      "outputs": [],
      "stateMutability": "nonpayable",
      "type": "function"
    },
    {
      "inputs": [
        {
          "internalType": "address",
          "name": "",
          "type": "address"
        }
      ],
      "name": "stakingData",
      "outputs": [
        {
          "internalType": "uint256",
          "name": "stakedAmount",
          "type": "uint256"
        },
        {
          "internalType": "uint256",
          "name": "stakingStartTime",
          "type": "uint256"
        }
      ],
      "stateMutability": "view",
      "type": "function",
      "constant": true
    },
    {
      "inputs": [],
      "name": "stakingDuration",
      "outputs": [
        {
          "internalType": "uint256",
          "name": "",
          "type": "uint256"
        }
      ],
      "stateMutability": "view",
      "type": "function",
      "constant": true
    },
    {
      "inputs": [],
      "name": "stakingRewardRate",
      "outputs": [
        {
          "internalType": "uint256",
          "name": "",
          "type": "uint256"
        }
      ],
      "stateMutability": "view",
      "type": "function",
      "constant": true
    },
    {
      "inputs": [
        {
          "internalType": "bytes4",
          "name": "interfaceId",
          "type": "bytes4"
        }
      ],
      "name": "supportsInterface",
      "outputs": [
        {
          "internalType": "bool",
          "name": "",
          "type": "bool"
        }
      ],
      "stateMutability": "view",
      "type": "function",
      "constant": true
    },
    {
      "inputs": [],
      "name": "symbol",
      "outputs": [
        {
          "internalType": "string",
          "name": "",
          "type": "string"
        }
      ],
      "stateMutability": "view",
      "type": "function",
      "constant": true
    },
    {
      "inputs": [],
      "name": "totalSupply",
      "outputs": [
        {
          "internalType": "uint256",
          "name": "",
          "type": "uint256"
        }
      ],
      "stateMutability": "view",
      "type": "function",
      "constant": true
    },
    {
      "inputs": [
        {
          "internalType": "address",
          "name": "to",
          "type": "address"
        },
        {
          "internalType": "uint256",
          "name": "amount",
          "type": "uint256"
        }
      ],
      "name": "transfer",
      "outputs": [
        {
          "internalType": "bool",
          "name": "",
          "type": "bool"
        }
      ],
      "stateMutability": "nonpayable",
      "type": "function"
    },
    {
      "inputs": [
        {
          "internalType": "address",
          "name": "from",
          "type": "address"
        },
        {
          "internalType": "address",
          "name": "to",
          "type": "address"
        },
        {
          "internalType": "uint256",
          "name": "amount",
          "type": "uint256"
        }
      ],
      "name": "transferFrom",
      "outputs": [
        {
          "internalType": "bool",
          "name": "",
          "type": "bool"
        }
      ],
      "stateMutability": "nonpayable",
      "type": "function"
    },
    {
      "inputs": [
        {
          "internalType": "string",
          "name": "_name",
          "type": "string"
        },
        {
          "internalType": "string",
          "name": "_symbol",
          "type": "string"
        },
        {
          "internalType": "uint8",
          "name": "_decimals",
          "type": "uint8"
        },
        {
          "internalType": "uint256",
          "name": "_initialSupply",
          "type": "uint256"
        },
        {
          "internalType": "address",
          "name": "admin",
          "type": "address"
        }
      ],
      "name": "initialize",
      "outputs": [],
      "stateMutability": "nonpayable",
      "type": "function"
    },
    {
      "inputs": [],
      "name": "decimals",
      "outputs": [
        {
          "internalType": "uint8",
          "name": "",
          "type": "uint8"
        }
      ],
      "stateMutability": "view",
      "type": "function",
      "constant": true
    },
    {
      "inputs": [
        {
          "internalType": "uint256",
          "name": "_amount",
          "type": "uint256"
        }
      ],
      "name": "stake",
      "outputs": [],
      "stateMutability": "nonpayable",
      "type": "function"
    },
    {
      "inputs": [
        {
          "internalType": "uint256",
          "name": "_decayFactor",
          "type": "uint256"
        }
      ],
      "name": "setDecayFactor",
      "outputs": [],
      "stateMutability": "nonpayable",
      "type": "function"
    },
    {
      "inputs": [
        {
          "internalType": "uint256",
          "name": "_normalizationValue",
          "type": "uint256"
        }
      ],
      "name": "setNormalizationValue",
      "outputs": [],
      "stateMutability": "nonpayable",
      "type": "function"
    },
    {
      "inputs": [],
      "name": "calculateRewardRate",
      "outputs": [
        {
          "internalType": "uint256",
          "name": "",
          "type": "uint256"
        }
      ],
      "stateMutability": "view",
      "type": "function",
      "constant": true
    },
    {
      "inputs": [],
      "name": "unstake",
      "outputs": [],
      "stateMutability": "nonpayable",
      "type": "function"
    },
    {
      "inputs": [
        {
          "internalType": "uint256",
          "name": "amount",
          "type": "uint256"
        }
      ],
      "name": "burn",
      "outputs": [],
      "stateMutability": "nonpayable",
      "type": "function"
    },
    {
      "inputs": [
        {
          "internalType": "address",
          "name": "account",
          "type": "address"
        },
        {
          "internalType": "bytes32",
          "name": "role",
          "type": "bytes32"
        }
      ],
      "name": "addRole",
      "outputs": [],
      "stateMutability": "nonpayable",
      "type": "function"
    },
    {
      "inputs": [
        {
          "internalType": "address",
          "name": "account",
          "type": "address"
        },
        {
          "internalType": "bytes32",
          "name": "role",
          "type": "bytes32"
        }
      ],
      "name": "removeRole",
      "outputs": [],
      "stateMutability": "nonpayable",
      "type": "function"
    },
    {
      "inputs": [
        {
          "internalType": "uint256",
          "name": "newRate",
          "type": "uint256"
        },
        {
          "internalType": "uint256",
          "name": "newDuration",
          "type": "uint256"
        }
      ],
      "name": "setStakingParameters",
      "outputs": [],
      "stateMutability": "nonpayable",
      "type": "function"
    },
    {
      "inputs": [
        {
          "internalType": "address",
          "name": "to",
          "type": "address"
        },
        {
          "internalType": "uint256",
          "name": "amount",
          "type": "uint256"
        }
      ],
      "name": "mintTokens",
      "outputs": [],
      "stateMutability": "nonpayable",
      "type": "function"
    }
  ],
  "bytecode": "0x608060405234801561001057600080fd5b50611e73806100206000396000f3fe608060405234801561001057600080fd5b50600436106102325760003560e01c806370a0823111610130578063a694fc3a116100b8578063d547741f1161007c578063d547741f146104c2578063dd62ed3e146104d5578063eca51139146104e8578063f0dda65c14610524578063f35718191461053757600080fd5b8063a694fc3a1461044f578063a73f7f8a14610462578063a9059cbb14610475578063b8c9059d14610488578063d53913931461049b57600080fd5b80638005a7de116100ff5780638005a7de1461041057806391d148541461041957806395d89b411461042c578063a217fddf14610434578063a457c2d71461043c57600080fd5b806370a08231146103b657806371f55f94146103df57806375b238fc146103f25780637a9abfa21461040757600080fd5b80632f2ff15d116101be57806342966c681161018257806342966c681461036c5780634bc72e2d1461037f5780634f3fc2df1461039257806367202c901461039b5780636853920e146103a357600080fd5b80632f2ff15d14610309578063313ce5671461031c57806336568abe146103315780633780b3ed14610344578063395093511461035957600080fd5b806320fb30161161020557806320fb30161461029957806323b872dd146102a2578063248a9ca3146102b5578063282c51f3146102d85780632def6620146102ff57600080fd5b806301ffc9a71461023757806306fdde031461025f578063095ea7b31461027457806318160ddd14610287575b600080fd5b61024a610245366004611795565b61054a565b60405190151581526020015b60405180910390f35b610267610581565b60405161025691906117e3565b61024a610282366004611832565b610613565b6035545b604051908152602001610256565b61028b60cc5481565b61024a6102b036600461185c565b61062b565b61028b6102c3366004611898565b60009081526097602052604090206001015490565b61028b7f3c11d16cbaffd01df69ce1c404f6340ee057498f5f00246190ea54220576a84881565b61030761064f565b005b6103076103173660046118b1565b6107d3565b60c95460405160ff9091168152602001610256565b61030761033f3660046118b1565b6107fd565b61028b600080516020611dfe83398151915281565b61024a610367366004611832565b61087b565b61030761037a366004611898565b61089d565b61030761038d3660046118dd565b610920565b61028b60ca5481565b61028b610944565b6103076103b1366004611832565b610968565b61028b6103c43660046118ff565b6001600160a01b031660009081526033602052604090205490565b6103076103ed366004611898565b61098a565b61028b600080516020611e1e83398151915281565b61028b60cd5481565b61028b60cb5481565b61024a6104273660046118b1565b6109a8565b6102676109d3565b61028b600081565b61024a61044a366004611832565b6109e2565b61030761045d366004611898565b610a5d565b610307610470366004611832565b610bb3565b61024a610483366004611832565b610bd5565b610307610496366004611898565b610be3565b61028b7f9f2df0fed2c77648de5860a4cc508cd0818c85b8b8a1ab4ceeef8d981c8956a681565b6103076104d03660046118b1565b610c52565b61028b6104e336600461191a565b610c77565b61050f6104f63660046118ff565b60ce602052600090815260409020805460019091015482565b60408051928352602083019190915201610256565b610307610532366004611832565b610ca2565b6103076105453660046119e7565b610cd6565b60006001600160e01b03198216637965db0b60e01b148061057b57506301ffc9a760e01b6001600160e01b03198316145b92915050565b60606036805461059090611a7e565b80601f01602080910402602001604051908101604052809291908181526020018280546105bc90611a7e565b80156106095780601f106105de57610100808354040283529160200191610609565b820191906000526020600020905b8154815290600101906020018083116105ec57829003601f168201915b5050505050905090565b600033610621818585610eb8565b5060019392505050565b600033610639858285610fdc565b610644858585611056565b506001949350505050565b600080516020611dfe83398151915261066781611201565b33600090815260ce6020526040902060cb546001820154429161068991611ace565b11156106dc5760405162461bcd60e51b815260206004820152601860248201527f5374616b696e67206475726174696f6e206e6f74206d6574000000000000000060448201526064015b60405180910390fd5b80546107235760405162461bcd60e51b8152602060048201526016602482015275139bc81cdd185ad95908185b5bdd5b9d08199bdd5b9960521b60448201526064016106d3565b600061072d610944565b9050600060648284600001546107439190611ae1565b61074d9190611af8565b905060008184600001546107619190611ace565b905061076d308361120b565b6107773382610bd5565b5033600081815260ce6020908152604080832083815560010192909255865482519081529081018590527f7fc4727e062e336010f2c282598ef5f14facb3de68cf8195c2f23e1454b2b74e910160405180910390a25050505050565b6000828152609760205260409020600101546107ee81611201565b6107f883836112cc565b505050565b6001600160a01b038116331461086d5760405162461bcd60e51b815260206004820152602f60248201527f416363657373436f6e74726f6c3a2063616e206f6e6c792072656e6f756e636560448201526e103937b632b9903337b91039b2b63360891b60648201526084016106d3565b6108778282611352565b5050565b60003361062181858561088e8383610c77565b6108989190611ace565b610eb8565b6108c77f3c11d16cbaffd01df69ce1c404f6340ee057498f5f00246190ea54220576a848336109a8565b6109135760405162461bcd60e51b815260206004820152601d60248201527f4d7573742068617665206275726e657220726f6c6520746f206275726e00000060448201526064016106d3565b61091d33826113b9565b50565b600080516020611e1e83398151915261093881611201565b5060ca9190915560cb55565b600060cd5460cc5460ca546109599190611ae1565b6109639190611af8565b905090565b600080516020611e1e83398151915261098081611201565b6107f88284610c52565b600080516020611e1e8339815191526109a281611201565b5060cd55565b60009182526097602090815260408084206001600160a01b0393909316845291905290205460ff1690565b60606037805461059090611a7e565b600033816109f08286610c77565b905083811015610a505760405162461bcd60e51b815260206004820152602560248201527f45524332303a2064656372656173656420616c6c6f77616e63652062656c6f77604482015264207a65726f60d81b60648201526084016106d3565b6106448286868403610eb8565b600080516020611dfe833981519152610a7581611201565b60008211610ac55760405162461bcd60e51b815260206004820152601d60248201527f416d6f756e74206d7573742062652067726561746572207468616e203000000060448201526064016106d3565b33600090815260336020526040902054821115610b245760405162461bcd60e51b815260206004820152601d60248201527f496e73756666696369656e742062616c616e636520746f207374616b6500000060448201526064016106d3565b610b2e3083610bd5565b5060408051808201825233600090815260ce60205291909120548190610b55908590611ace565b81524260209182015233600081815260ce8352604090819020845181559383015160019094019390935591518481527f9e71bc8eea02a63969f509818f2dafb9254532904319f9dbda79b67bd34a5f3d910160405180910390a25050565b600080516020611e1e833981519152610bcb81611201565b6107f882846107d3565b600033610621818585611056565b600080516020611e1e833981519152610bfb81611201565b6064821115610c4c5760405162461bcd60e51b815260206004820152601f60248201527f446563617920666163746f722063616e6e6f742065786365656420313030250060448201526064016106d3565b5060cc55565b600082815260976020526040902060010154610c6d81611201565b6107f88383611352565b6001600160a01b03918216600090815260346020908152604080832093909416825291909152205490565b7f9f2df0fed2c77648de5860a4cc508cd0818c85b8b8a1ab4ceeef8d981c8956a6610ccc81611201565b6107f8838361120b565b600054610100900460ff1615808015610cf65750600054600160ff909116105b80610d105750303b158015610d10575060005460ff166001145b610d735760405162461bcd60e51b815260206004820152602e60248201527f496e697469616c697a61626c653a20636f6e747261637420697320616c72656160448201526d191e481a5b9a5d1a585b1a5e995960921b60648201526084016106d3565b6000805460ff191660011790558015610d96576000805461ff0019166101001790555b610da086866114ed565b610da861151e565b60c9805460ff191660ff8616908117909155610dda908390610dcb90600a611bfe565b610dd59086611ae1565b61120b565b610df2600080516020611e1e833981519152836112cc565b610e1c7f9f2df0fed2c77648de5860a4cc508cd0818c85b8b8a1ab4ceeef8d981c8956a6836112cc565b610e34600080516020611dfe833981519152836112cc565b610e5e7f3c11d16cbaffd01df69ce1c404f6340ee057498f5f00246190ea54220576a848836112cc565b606460ca5562278d0060cb558015610eb0576000805461ff0019169055604051600181527f7f26b83ff96e1f2b6a682f133852f6798a09c465da95921460cefb38474024989060200160405180910390a15b505050505050565b6001600160a01b038316610f1a5760405162461bcd60e51b8152602060048201526024808201527f45524332303a20617070726f76652066726f6d20746865207a65726f206164646044820152637265737360e01b60648201526084016106d3565b6001600160a01b038216610f7b5760405162461bcd60e51b815260206004820152602260248201527f45524332303a20617070726f766520746f20746865207a65726f206164647265604482015261737360f01b60648201526084016106d3565b6001600160a01b0383811660008181526034602090815260408083209487168084529482529182902085905590518481527f8c5be1e5ebec7d5bd14f71427d1e84f3dd0314c0f7b2291e5b200ac8c7c3b925910160405180910390a3505050565b6000610fe88484610c77565b9050600019811461105057818110156110435760405162461bcd60e51b815260206004820152601d60248201527f45524332303a20696e73756666696369656e7420616c6c6f77616e636500000060448201526064016106d3565b6110508484848403610eb8565b50505050565b6001600160a01b0383166110ba5760405162461bcd60e51b815260206004820152602560248201527f45524332303a207472616e736665722066726f6d20746865207a65726f206164604482015264647265737360d81b60648201526084016106d3565b6001600160a01b03821661111c5760405162461bcd60e51b815260206004820152602360248201527f45524332303a207472616e7366657220746f20746865207a65726f206164647260448201526265737360e81b60648201526084016106d3565b6001600160a01b038316600090815260336020526040902054818110156111945760405162461bcd60e51b815260206004820152602660248201527f45524332303a207472616e7366657220616d6f756e7420657863656564732062604482015265616c616e636560d01b60648201526084016106d3565b6001600160a01b0380851660008181526033602052604080822086860390559286168082529083902080548601905591517fddf252ad1be2c89b69c2b068fc378daa952ba7f163c4a11628f55a4df523b3ef906111f49086815260200190565b60405180910390a3611050565b61091d8133611547565b6001600160a01b0382166112615760405162461bcd60e51b815260206004820152601f60248201527f45524332303a206d696e7420746f20746865207a65726f20616464726573730060448201526064016106d3565b80603560008282546112739190611ace565b90915550506001600160a01b0382166000818152603360209081526040808320805486019055518481527fddf252ad1be2c89b69c2b068fc378daa952ba7f163c4a11628f55a4df523b3ef910160405180910390a35050565b6112d682826109a8565b6108775760008281526097602090815260408083206001600160a01b03851684529091529020805460ff1916600117905561130e3390565b6001600160a01b0316816001600160a01b0316837f2f8788117e7eff1d82e926ec794901d17c78024a50270940304540a733656f0d60405160405180910390a45050565b61135c82826109a8565b156108775760008281526097602090815260408083206001600160a01b0385168085529252808320805460ff1916905551339285917ff6391f5c32d9c69d2a47ea670b442974b53935d1edc7fd64eb21e047a839171b9190a45050565b6001600160a01b0382166114195760405162461bcd60e51b815260206004820152602160248201527f45524332303a206275726e2066726f6d20746865207a65726f206164647265736044820152607360f81b60648201526084016106d3565b6001600160a01b0382166000908152603360205260409020548181101561148d5760405162461bcd60e51b815260206004820152602260248201527f45524332303a206275726e20616d6f756e7420657863656564732062616c616e604482015261636560f01b60648201526084016106d3565b6001600160a01b03831660008181526033602090815260408083208686039055603580548790039055518581529192917fddf252ad1be2c89b69c2b068fc378daa952ba7f163c4a11628f55a4df523b3ef910160405180910390a3505050565b600054610100900460ff166115145760405162461bcd60e51b81526004016106d390611c0a565b61087782826115a0565b600054610100900460ff166115455760405162461bcd60e51b81526004016106d390611c0a565b565b61155182826109a8565b6108775761155e816115e0565b6115698360206115f2565b60405160200161157a929190611c55565b60408051601f198184030181529082905262461bcd60e51b82526106d3916004016117e3565b600054610100900460ff166115c75760405162461bcd60e51b81526004016106d390611c0a565b60366115d38382611d10565b5060376107f88282611d10565b606061057b6001600160a01b03831660145b60606000611601836002611ae1565b61160c906002611ace565b67ffffffffffffffff81111561162457611624611944565b6040519080825280601f01601f19166020018201604052801561164e576020820181803683370190505b509050600360fc1b8160008151811061166957611669611dd0565b60200101906001600160f81b031916908160001a905350600f60fb1b8160018151811061169857611698611dd0565b60200101906001600160f81b031916908160001a90535060006116bc846002611ae1565b6116c7906001611ace565b90505b600181111561173f576f181899199a1a9b1b9c1cb0b131b232b360811b85600f16601081106116fb576116fb611dd0565b1a60f81b82828151811061171157611711611dd0565b60200101906001600160f81b031916908160001a90535060049490941c9361173881611de6565b90506116ca565b50831561178e5760405162461bcd60e51b815260206004820181905260248201527f537472696e67733a20686578206c656e67746820696e73756666696369656e7460448201526064016106d3565b9392505050565b6000602082840312156117a757600080fd5b81356001600160e01b03198116811461178e57600080fd5b60005b838110156117da5781810151838201526020016117c2565b50506000910152565b60208152600082518060208401526118028160408501602087016117bf565b601f01601f19169190910160400192915050565b80356001600160a01b038116811461182d57600080fd5b919050565b6000806040838503121561184557600080fd5b61184e83611816565b946020939093013593505050565b60008060006060848603121561187157600080fd5b61187a84611816565b925061188860208501611816565b9150604084013590509250925092565b6000602082840312156118aa57600080fd5b5035919050565b600080604083850312156118c457600080fd5b823591506118d460208401611816565b90509250929050565b600080604083850312156118f057600080fd5b50508035926020909101359150565b60006020828403121561191157600080fd5b61178e82611816565b6000806040838503121561192d57600080fd5b61193683611816565b91506118d460208401611816565b634e487b7160e01b600052604160045260246000fd5b600082601f83011261196b57600080fd5b813567ffffffffffffffff8082111561198657611986611944565b604051601f8301601f19908116603f011681019082821181831017156119ae576119ae611944565b816040528381528660208588010111156119c757600080fd5b836020870160208301376000602085830101528094505050505092915050565b600080600080600060a086880312156119ff57600080fd5b853567ffffffffffffffff80821115611a1757600080fd5b611a2389838a0161195a565b96506020880135915080821115611a3957600080fd5b50611a468882890161195a565b945050604086013560ff81168114611a5d57600080fd5b925060608601359150611a7260808701611816565b90509295509295909350565b600181811c90821680611a9257607f821691505b602082108103611ab257634e487b7160e01b600052602260045260246000fd5b50919050565b634e487b7160e01b600052601160045260246000fd5b8082018082111561057b5761057b611ab8565b808202811582820484141761057b5761057b611ab8565b600082611b1557634e487b7160e01b600052601260045260246000fd5b500490565b600181815b80851115611b55578160001904821115611b3b57611b3b611ab8565b80851615611b4857918102915b93841c9390800290611b1f565b509250929050565b600082611b6c5750600161057b565b81611b795750600061057b565b8160018114611b8f5760028114611b9957611bb5565b600191505061057b565b60ff841115611baa57611baa611ab8565b50506001821b61057b565b5060208310610133831016604e8410600b8410161715611bd8575081810a61057b565b611be28383611b1a565b8060001904821115611bf657611bf6611ab8565b029392505050565b600061178e8383611b5d565b6020808252602b908201527f496e697469616c697a61626c653a20636f6e7472616374206973206e6f74206960408201526a6e697469616c697a696e6760a81b606082015260800190565b7f416363657373436f6e74726f6c3a206163636f756e7420000000000000000000815260008351611c8d8160178501602088016117bf565b7001034b99036b4b9b9b4b733903937b6329607d1b6017918401918201528351611cbe8160288401602088016117bf565b01602801949350505050565b601f8211156107f857600081815260208120601f850160051c81016020861015611cf15750805b601f850160051c820191505b81811015610eb057828155600101611cfd565b815167ffffffffffffffff811115611d2a57611d2a611944565b611d3e81611d388454611a7e565b84611cca565b602080601f831160018114611d735760008415611d5b5750858301515b600019600386901b1c1916600185901b178555610eb0565b600085815260208120601f198616915b82811015611da257888601518255948401946001909101908401611d83565b5085821015611dc05787850151600019600388901b60f8161c191681555b5050505050600190811b01905550565b634e487b7160e01b600052603260045260246000fd5b600081611df557611df5611ab8565b50600019019056feb9e206fa2af7ee1331b72ce58b6d938ac810ce9b5cdb65d35ab723fd67badf9ea49807205ce4d355092ef5a8a18f56e8913cf4a201fbe287825b095693c21775a2646970667358221220203cb7d57e0463889b6339864168521bd4bdf2feee7db29fbc37c4bf4a3085bd64736f6c63430008110033",
  "immutableReferences": {},
  "source": "// SPDX-License-Identifier: MIT\npragma solidity ^0.8.17;\n\nimport \"@openzeppelin/contracts-upgradeable/token/ERC20/ERC20Upgradeable.sol\";\nimport \"@openzeppelin/contracts-upgradeable/access/AccessControlUpgradeable.sol\";\nimport \"@openzeppelin/contracts-upgradeable/proxy/utils/Initializable.sol\";\nimport \"@openzeppelin/contracts-upgradeable/utils/math/SafeMathUpgradeable.sol\";\n\ncontract CowlToken is\n    Initializable,\n    ERC20Upgradeable,\n    AccessControlUpgradeable\n{\n    bytes32 public constant MINTER_ROLE = keccak256(\"MINTER_ROLE\");\n    bytes32 public constant STAKER_ROLE = keccak256(\"STAKER_ROLE\");\n    bytes32 public constant ADMIN_ROLE = keccak256(\"ADMIN_ROLE\");\n    bytes32 public constant BURNER_ROLE = keccak256(\"BURNER_ROLE\");\n\n    uint8 private tokenDecimals;\n\n    uint256 public stakingRewardRate;\n    uint256 public stakingDuration;\n    uint256 public decayFactor;\n    uint256 public normalizationValue;\n\n    struct StakingInfo {\n        uint256 stakedAmount;\n        uint256 stakingStartTime;\n    }\n\n    mapping(address => StakingInfo) public stakingData;\n\n    event Staked(address indexed staker, uint256 amount);\n    event Unstaked(address indexed staker, uint256 amount, uint256 reward);\n\n    function initialize(\n        string memory _name,\n        string memory _symbol,\n        uint8 _decimals,\n        uint256 _initialSupply,\n        address admin\n    ) public initializer {\n        // string memory _name = \"Cowl\";\n        // string memory _symbol = \"COWL\";\n        __ERC20_init(_name, _symbol);\n        __AccessControl_init();\n\n        tokenDecimals = _decimals; // set your private _decimals variable\n        _mint(admin, _initialSupply * (10 ** uint256(_decimals)));\n\n        _grantRole(ADMIN_ROLE, admin);\n        _grantRole(MINTER_ROLE, admin);\n        _grantRole(STAKER_ROLE, admin);\n        _grantRole(BURNER_ROLE, admin);\n\n        /**\n         * @dev Currently, the reward rate is set as a percentage (with stakingRewardRate = 100 representing a 100% reward).\n         * This might lead to high inflation if not controlled. Depending on what we decide later,\n         * we might want to tweak or introduce a decaying function for rewards over time.\n         */\n        stakingRewardRate = 100; // example rate, can be adjusted as per the need.\n        stakingDuration = 30 days; // example duration, can be adjusted as per the need.\n    }\n\n    function decimals() public view virtual override returns (uint8) {\n        return tokenDecimals;\n    }\n\n    function stake(uint256 _amount) external onlyRole(STAKER_ROLE) {\n        require(_amount > 0, \"Amount must be greater than 0\");\n        require(\n            balanceOf(msg.sender) >= _amount,\n            \"Insufficient balance to stake\"\n        );\n\n        // Transfer tokens to the contract's address instead of burning\n        transfer(address(this), _amount);\n\n        stakingData[msg.sender] = StakingInfo({\n            stakedAmount: stakingData[msg.sender].stakedAmount + _amount,\n            stakingStartTime: block.timestamp\n        });\n\n        emit Staked(msg.sender, _amount);\n    }\n\n    // Setter function for decayFactor\n    function setDecayFactor(\n        uint256 _decayFactor\n    ) external onlyRole(ADMIN_ROLE) {\n        require(_decayFactor <= 100, \"Decay factor cannot exceed 100%\"); // Ensuring the decay factor isn't over 100%\n        decayFactor = _decayFactor;\n    }\n\n    // Setter function for normalizationValue\n    function setNormalizationValue(\n        uint256 _normalizationValue\n    ) external onlyRole(ADMIN_ROLE) {\n        normalizationValue = _normalizationValue;\n    }\n\n    function calculateRewardRate() public view returns (uint256) {\n        return (stakingRewardRate * decayFactor) / normalizationValue;\n    }\n\n    function unstake() external onlyRole(STAKER_ROLE) {\n        StakingInfo storage info = stakingData[msg.sender];\n        require(\n            info.stakingStartTime + stakingDuration <= block.timestamp,\n            \"Staking duration not met\"\n        );\n        require(info.stakedAmount > 0, \"No staked amount found\");\n\n        uint256 currentRewardRate = calculateRewardRate(); // Use the dynamic rate\n        uint256 reward = (info.stakedAmount * currentRewardRate) / 100;\n        uint256 totalAmount = info.stakedAmount + reward;\n\n        // Transfer staked amount and reward to the user\n        _mint(address(this), reward); // Minting only the reward\n        transfer(msg.sender, totalAmount);\n\n        delete stakingData[msg.sender];\n\n        emit Unstaked(msg.sender, info.stakedAmount, reward);\n    }\n\n    function burn(uint256 amount) external {\n        require(\n            hasRole(BURNER_ROLE, msg.sender),\n            \"Must have burner role to burn\"\n        );\n        _burn(_msgSender(), amount);\n    }\n\n    function addRole(\n        address account,\n        bytes32 role\n    ) external onlyRole(ADMIN_ROLE) {\n        grantRole(role, account);\n    }\n\n    function removeRole(\n        address account,\n        bytes32 role\n    ) external onlyRole(ADMIN_ROLE) {\n        revokeRole(role, account);\n    }\n\n    function setStakingParameters(\n        uint256 newRate,\n        uint256 newDuration\n    ) external onlyRole(ADMIN_ROLE) {\n        stakingRewardRate = newRate;\n        stakingDuration = newDuration;\n    }\n\n    function mintTokens(\n        address to,\n        uint256 amount\n    ) external onlyRole(MINTER_ROLE) {\n        _mint(to, amount);\n    }\n}\n",
  "sourcePath": "D:\\DevTools\\flkm-project\\contracts\\Core\\CowlToken.sol",
  "compiler": {
    "name": "solc",
    "version": "0.8.17+commit.8df45f5f.Emscripten.clang"
  },
  "schemaVersion": "3.4.16",
  "updatedAt": "2023-10-28T01:20:33.815Z",
  "networkType": "ethereum",
  "devdoc": {
    "kind": "dev",
    "methods": {
      "allowance(address,address)": {
        "details": "See {IERC20-allowance}."
      },
      "approve(address,uint256)": {
        "details": "See {IERC20-approve}. NOTE: If `amount` is the maximum `uint256`, the allowance is not updated on `transferFrom`. This is semantically equivalent to an infinite approval. Requirements: - `spender` cannot be the zero address."
      },
      "balanceOf(address)": {
        "details": "See {IERC20-balanceOf}."
      },
      "decimals()": {
        "details": "Returns the number of decimals used to get its user representation. For example, if `decimals` equals `2`, a balance of `505` tokens should be displayed to a user as `5.05` (`505 / 10 ** 2`). Tokens usually opt for a value of 18, imitating the relationship between Ether and Wei. This is the default value returned by this function, unless it's overridden. NOTE: This information is only used for _display_ purposes: it in no way affects any of the arithmetic of the contract, including {IERC20-balanceOf} and {IERC20-transfer}."
      },
      "decreaseAllowance(address,uint256)": {
        "details": "Atomically decreases the allowance granted to `spender` by the caller. This is an alternative to {approve} that can be used as a mitigation for problems described in {IERC20-approve}. Emits an {Approval} event indicating the updated allowance. Requirements: - `spender` cannot be the zero address. - `spender` must have allowance for the caller of at least `subtractedValue`."
      },
      "getRoleAdmin(bytes32)": {
        "details": "Returns the admin role that controls `role`. See {grantRole} and {revokeRole}. To change a role's admin, use {_setRoleAdmin}."
      },
      "grantRole(bytes32,address)": {
        "details": "Grants `role` to `account`. If `account` had not been already granted `role`, emits a {RoleGranted} event. Requirements: - the caller must have ``role``'s admin role. May emit a {RoleGranted} event."
      },
      "hasRole(bytes32,address)": {
        "details": "Returns `true` if `account` has been granted `role`."
      },
      "increaseAllowance(address,uint256)": {
        "details": "Atomically increases the allowance granted to `spender` by the caller. This is an alternative to {approve} that can be used as a mitigation for problems described in {IERC20-approve}. Emits an {Approval} event indicating the updated allowance. Requirements: - `spender` cannot be the zero address."
      },
      "name()": {
        "details": "Returns the name of the token."
      },
      "renounceRole(bytes32,address)": {
        "details": "Revokes `role` from the calling account. Roles are often managed via {grantRole} and {revokeRole}: this function's purpose is to provide a mechanism for accounts to lose their privileges if they are compromised (such as when a trusted device is misplaced). If the calling account had been revoked `role`, emits a {RoleRevoked} event. Requirements: - the caller must be `account`. May emit a {RoleRevoked} event."
      },
      "revokeRole(bytes32,address)": {
        "details": "Revokes `role` from `account`. If `account` had been granted `role`, emits a {RoleRevoked} event. Requirements: - the caller must have ``role``'s admin role. May emit a {RoleRevoked} event."
      },
      "supportsInterface(bytes4)": {
        "details": "See {IERC165-supportsInterface}."
      },
      "symbol()": {
        "details": "Returns the symbol of the token, usually a shorter version of the name."
      },
      "totalSupply()": {
        "details": "See {IERC20-totalSupply}."
      },
      "transfer(address,uint256)": {
        "details": "See {IERC20-transfer}. Requirements: - `to` cannot be the zero address. - the caller must have a balance of at least `amount`."
      },
      "transferFrom(address,address,uint256)": {
        "details": "See {IERC20-transferFrom}. Emits an {Approval} event indicating the updated allowance. This is not required by the EIP. See the note at the beginning of {ERC20}. NOTE: Does not update the allowance if the current allowance is the maximum `uint256`. Requirements: - `from` and `to` cannot be the zero address. - `from` must have a balance of at least `amount`. - the caller must have allowance for ``from``'s tokens of at least `amount`."
      }
    },
    "version": 1
  },
  "userdoc": {
    "kind": "user",
    "methods": {},
    "version": 1
  }
}