{
  "contractName": "CowlDaoGovernance",
  "abi": [
    {
      "anonymous": false,
      "inputs": [
        {
          "indexed": false,
          "internalType": "uint8",
          "name": "version",
          "type": "uint8"
        }
      ],
      "name": "Initialized",
      "type": "event"
    },
    {
      "anonymous": false,
      "inputs": [
        {
          "indexed": true,
          "internalType": "uint256",
          "name": "proposalId",
          "type": "uint256"
        },
        {
          "indexed": false,
          "internalType": "string",
          "name": "description",
          "type": "string"
        },
        {
          "indexed": true,
          "internalType": "address",
          "name": "proposer",
          "type": "address"
        },
        {
          "indexed": false,
          "internalType": "uint256",
          "name": "endTime",
          "type": "uint256"
        }
      ],
      "name": "ProposalCreated",
      "type": "event"
    },
    {
      "anonymous": false,
      "inputs": [
        {
          "indexed": true,
          "internalType": "uint256",
          "name": "proposalId",
          "type": "uint256"
        }
      ],
      "name": "ProposalExecuted",
      "type": "event"
    },
    {
      "anonymous": false,
      "inputs": [
        {
          "indexed": true,
          "internalType": "bytes32",
          "name": "role",
          "type": "bytes32"
        },
        {
          "indexed": true,
          "internalType": "bytes32",
          "name": "previousAdminRole",
          "type": "bytes32"
        },
        {
          "indexed": true,
          "internalType": "bytes32",
          "name": "newAdminRole",
          "type": "bytes32"
        }
      ],
      "name": "RoleAdminChanged",
      "type": "event"
    },
    {
      "anonymous": false,
      "inputs": [
        {
          "indexed": true,
          "internalType": "bytes32",
          "name": "role",
          "type": "bytes32"
        },
        {
          "indexed": true,
          "internalType": "address",
          "name": "account",
          "type": "address"
        },
        {
          "indexed": true,
          "internalType": "address",
          "name": "sender",
          "type": "address"
        }
      ],
      "name": "RoleGranted",
      "type": "event"
    },
    {
      "anonymous": false,
      "inputs": [
        {
          "indexed": true,
          "internalType": "bytes32",
          "name": "role",
          "type": "bytes32"
        },
        {
          "indexed": true,
          "internalType": "address",
          "name": "account",
          "type": "address"
        },
        {
          "indexed": true,
          "internalType": "address",
          "name": "sender",
          "type": "address"
        }
      ],
      "name": "RoleRevoked",
      "type": "event"
    },
    {
      "anonymous": false,
      "inputs": [
        {
          "indexed": true,
          "internalType": "uint256",
          "name": "proposalId",
          "type": "uint256"
        },
        {
          "indexed": true,
          "internalType": "address",
          "name": "voter",
          "type": "address"
        },
        {
          "indexed": false,
          "internalType": "bool",
          "name": "vote",
          "type": "bool"
        },
        {
          "indexed": false,
          "internalType": "uint256",
          "name": "weight",
          "type": "uint256"
        }
      ],
      "name": "Voted",
      "type": "event"
    },
    {
      "inputs": [],
      "name": "DEFAULT_ADMIN_ROLE",
      "outputs": [
        {
          "internalType": "bytes32",
          "name": "",
          "type": "bytes32"
        }
      ],
      "stateMutability": "view",
      "type": "function",
      "constant": true
    },
    {
      "inputs": [],
      "name": "EXECUTOR_ROLE",
      "outputs": [
        {
          "internalType": "bytes32",
          "name": "",
          "type": "bytes32"
        }
      ],
      "stateMutability": "view",
      "type": "function",
      "constant": true
    },
    {
      "inputs": [],
      "name": "PROPOSER_ROLE",
      "outputs": [
        {
          "internalType": "bytes32",
          "name": "",
          "type": "bytes32"
        }
      ],
      "stateMutability": "view",
      "type": "function",
      "constant": true
    },
    {
      "inputs": [],
      "name": "VOTER_ROLE",
      "outputs": [
        {
          "internalType": "bytes32",
          "name": "",
          "type": "bytes32"
        }
      ],
      "stateMutability": "view",
      "type": "function",
      "constant": true
    },
    {
      "inputs": [],
      "name": "VOTING_DURATION",
      "outputs": [
        {
          "internalType": "uint256",
          "name": "",
          "type": "uint256"
        }
      ],
      "stateMutability": "view",
      "type": "function",
      "constant": true
    },
    {
      "inputs": [
        {
          "internalType": "bytes32",
          "name": "role",
          "type": "bytes32"
        }
      ],
      "name": "getRoleAdmin",
      "outputs": [
        {
          "internalType": "bytes32",
          "name": "",
          "type": "bytes32"
        }
      ],
      "stateMutability": "view",
      "type": "function",
      "constant": true
    },
    {
      "inputs": [],
      "name": "governanceToken",
      "outputs": [
        {
          "internalType": "contract IERC20",
          "name": "",
          "type": "address"
        }
      ],
      "stateMutability": "view",
      "type": "function",
      "constant": true
    },
    {
      "inputs": [
        {
          "internalType": "bytes32",
          "name": "role",
          "type": "bytes32"
        },
        {
          "internalType": "address",
          "name": "account",
          "type": "address"
        }
      ],
      "name": "grantRole",
      "outputs": [],
      "stateMutability": "nonpayable",
      "type": "function"
    },
    {
      "inputs": [
        {
          "internalType": "bytes32",
          "name": "role",
          "type": "bytes32"
        },
        {
          "internalType": "address",
          "name": "account",
          "type": "address"
        }
      ],
      "name": "hasRole",
      "outputs": [
        {
          "internalType": "bool",
          "name": "",
          "type": "bool"
        }
      ],
      "stateMutability": "view",
      "type": "function",
      "constant": true
    },
    {
      "inputs": [
        {
          "internalType": "uint256",
          "name": "",
          "type": "uint256"
        }
      ],
      "name": "proposals",
      "outputs": [
        {
          "internalType": "string",
          "name": "description",
          "type": "string"
        },
        {
          "internalType": "address",
          "name": "proposer",
          "type": "address"
        },
        {
          "internalType": "uint256",
          "name": "forVotes",
          "type": "uint256"
        },
        {
          "internalType": "uint256",
          "name": "againstVotes",
          "type": "uint256"
        },
        {
          "internalType": "uint256",
          "name": "endTime",
          "type": "uint256"
        },
        {
          "internalType": "bool",
          "name": "executed",
          "type": "bool"
        }
      ],
      "stateMutability": "view",
      "type": "function",
      "constant": true
    },
    {
      "inputs": [
        {
          "internalType": "bytes32",
          "name": "role",
          "type": "bytes32"
        },
        {
          "internalType": "address",
          "name": "account",
          "type": "address"
        }
      ],
      "name": "renounceRole",
      "outputs": [],
      "stateMutability": "nonpayable",
      "type": "function"
    },
    {
      "inputs": [
        {
          "internalType": "bytes32",
          "name": "role",
          "type": "bytes32"
        },
        {
          "internalType": "address",
          "name": "account",
          "type": "address"
        }
      ],
      "name": "revokeRole",
      "outputs": [],
      "stateMutability": "nonpayable",
      "type": "function"
    },
    {
      "inputs": [
        {
          "internalType": "bytes4",
          "name": "interfaceId",
          "type": "bytes4"
        }
      ],
      "name": "supportsInterface",
      "outputs": [
        {
          "internalType": "bool",
          "name": "",
          "type": "bool"
        }
      ],
      "stateMutability": "view",
      "type": "function",
      "constant": true
    },
    {
      "inputs": [
        {
          "internalType": "uint256",
          "name": "",
          "type": "uint256"
        },
        {
          "internalType": "address",
          "name": "",
          "type": "address"
        }
      ],
      "name": "votes",
      "outputs": [
        {
          "internalType": "bool",
          "name": "",
          "type": "bool"
        }
      ],
      "stateMutability": "view",
      "type": "function",
      "constant": true
    },
    {
      "inputs": [
        {
          "internalType": "address",
          "name": "_governanceToken",
          "type": "address"
        }
      ],
      "name": "initialize",
      "outputs": [],
      "stateMutability": "nonpayable",
      "type": "function"
    },
    {
      "inputs": [
        {
          "internalType": "string",
          "name": "_description",
          "type": "string"
        }
      ],
      "name": "propose",
      "outputs": [],
      "stateMutability": "nonpayable",
      "type": "function"
    },
    {
      "inputs": [
        {
          "internalType": "uint256",
          "name": "_proposalId",
          "type": "uint256"
        },
        {
          "internalType": "bool",
          "name": "_vote",
          "type": "bool"
        }
      ],
      "name": "vote",
      "outputs": [],
      "stateMutability": "nonpayable",
      "type": "function"
    },
    {
      "inputs": [
        {
          "internalType": "uint256",
          "name": "_proposalId",
          "type": "uint256"
        }
      ],
      "name": "execute",
      "outputs": [],
      "stateMutability": "nonpayable",
      "type": "function"
    }
  ],
  "bytecode": "0x608060405234801561001057600080fd5b506001609755611608806100256000396000f3fe608060405234801561001057600080fd5b50600436106101165760003560e01c8063a438d208116100a2578063c9d27afe11610071578063c9d27afe14610285578063d23254b414610298578063d547741f146102c6578063f96dae0a146102d9578063fe0d94c11461030457600080fd5b8063a438d2081461022e578063a94015c814610238578063aa98df391461025f578063c4d66de81461027257600080fd5b80632f2ff15d116100e95780632f2ff15d146101c457806336568abe146101d95780638f61f4f5146101ec57806391d1485414610213578063a217fddf1461022657600080fd5b8063013cf08b1461011b57806301ffc9a71461014957806307bd02651461016c578063248a9ca3146101a1575b600080fd5b61012e61012936600461110e565b610317565b60405161014096959493929190611177565b60405180910390f35b61015c6101573660046111be565b6103f9565b6040519015158152602001610140565b6101937fd8aa0f3194971a2a116679f7c2090f6939c8d4e01a2a8d7e41d55e5351469e6381565b604051908152602001610140565b6101936101af36600461110e565b60009081526065602052604090206001015490565b6101d76101d2366004611204565b610430565b005b6101d76101e7366004611204565b61045a565b6101937fb09aa5aeb3702cfd50b6b62bc4532604938f21248a27a1d5ca736082b6819cc181565b61015c610221366004611204565b6104dd565b610193600081565b6101936201518081565b6101937f72c3eec1760bf69946625c2d4fb8e44e2c806345041960b434674fb9ab3976cf81565b6101d761026d366004611246565b610508565b6101d76102803660046112f7565b6106b4565b6101d7610293366004611312565b610861565b61015c6102a6366004611204565b609a60209081526000928352604080842090915290825290205460ff1681565b6101d76102d4366004611204565b610b61565b6098546102ec906001600160a01b031681565b6040516001600160a01b039091168152602001610140565b6101d761031236600461110e565b610b86565b6099818154811061032757600080fd5b906000526020600020906006020160009150905080600001805461034a90611347565b80601f016020809104026020016040519081016040528092919081815260200182805461037690611347565b80156103c35780601f10610398576101008083540402835291602001916103c3565b820191906000526020600020905b8154815290600101906020018083116103a657829003601f168201915b505050600184015460028501546003860154600487015460059097015495966001600160a01b0390931695919450925060ff1686565b60006001600160e01b03198216637965db0b60e01b148061042a57506301ffc9a760e01b6001600160e01b03198316145b92915050565b60008281526065602052604090206001015461044b81610db0565b6104558383610dba565b505050565b6001600160a01b03811633146104cf5760405162461bcd60e51b815260206004820152602f60248201527f416363657373436f6e74726f6c3a2063616e206f6e6c792072656e6f756e636560448201526e103937b632b9903337b91039b2b63360891b60648201526084015b60405180910390fd5b6104d98282610e40565b5050565b60009182526065602090815260408084206001600160a01b0393909316845291905290205460ff1690565b6105327fb09aa5aeb3702cfd50b6b62bc4532604938f21248a27a1d5ca736082b6819cc1336104dd565b61057e5760405162461bcd60e51b815260206004820152601860248201527f43616c6c6572206973206e6f7420612070726f706f736572000000000000000060448201526064016104c6565b6040805160c081018252828152336020820152600091810182905260608101829052608081016105b16201518042611397565b8152600060209091018190526099805460018101825591528151919250829160069091027f72a152ddfb8e864297c917af52ea6c1c68aead0fee1a62673fcc7e0c94979d000190819061060490826113f8565b506020820151600182810180546001600160a01b0319166001600160a01b039093169290921790915560408301516002830155606083015160038301556080830151600483015560a0909201516005909101805460ff19169115159190911790556099543391610673916114b8565b7f9cc3d9dd626042cdefb76484b91708c3207b637214b44f20111c893548d9c85f8484608001516040516106a89291906114cb565b60405180910390a35050565b600054610100900460ff16158080156106d45750600054600160ff909116105b806106ee5750303b1580156106ee575060005460ff166001145b6107515760405162461bcd60e51b815260206004820152602e60248201527f496e697469616c697a61626c653a20636f6e747261637420697320616c72656160448201526d191e481a5b9a5d1a585b1a5e995960921b60648201526084016104c6565b6000805460ff191660011790558015610774576000805461ff0019166101001790555b609880546001600160a01b0319166001600160a01b03841617905561079a600033610dba565b6107c47fb09aa5aeb3702cfd50b6b62bc4532604938f21248a27a1d5ca736082b6819cc133610dba565b6107ee7f72c3eec1760bf69946625c2d4fb8e44e2c806345041960b434674fb9ab3976cf33610dba565b6108187fd8aa0f3194971a2a116679f7c2090f6939c8d4e01a2a8d7e41d55e5351469e6333610dba565b80156104d9576000805461ff0019169055604051600181527f7f26b83ff96e1f2b6a682f133852f6798a09c465da95921460cefb38474024989060200160405180910390a15050565b610869610ea7565b6108937f72c3eec1760bf69946625c2d4fb8e44e2c806345041960b434674fb9ab3976cf336104dd565b6108d75760405162461bcd60e51b815260206004820152601560248201527421b0b63632b91034b9903737ba1030903b37ba32b960591b60448201526064016104c6565b60995482106109225760405162461bcd60e51b8152602060048201526017602482015276141c9bdc1bdcd85b08191bd95cc81b9bdd08195e1a5cdd604a1b60448201526064016104c6565b600060998381548110610937576109376114ed565b906000526020600020906006020190508060040154421061099a5760405162461bcd60e51b815260206004820152601760248201527f566f74696e6720706572696f642068617320656e64656400000000000000000060448201526064016104c6565b6098546040516370a0823160e01b81523360048201526000916001600160a01b0316906370a0823190602401602060405180830381865afa1580156109e3573d6000803e3d6000fd5b505050506040513d601f19601f82011682018060405250810190610a079190611503565b905060008111610a595760405162461bcd60e51b815260206004820152601c60248201527f496e73756666696369656e742062616c616e636520746f20766f74650000000060448201526064016104c6565b6000848152609a6020908152604080832033845290915290205460ff1615610ab35760405162461bcd60e51b815260206004820152600d60248201526c105b1c9958591e481d9bdd1959609a1b60448201526064016104c6565b6000848152609a602090815260408083203384529091529020805460ff191660011790558215610afc5780826002016000828254610af19190611397565b90915550610b169050565b80826003016000828254610b109190611397565b90915550505b60408051841515815260208101839052339186917f7c2de587c00d75474a0c6c6fa96fd3b45dc974cd4e8a75f712bb84c950dce1b5910160405180910390a350506104d96001609755565b600082815260656020526040902060010154610b7c81610db0565b6104558383610e40565b610b8e610ea7565b610bb87fd8aa0f3194971a2a116679f7c2090f6939c8d4e01a2a8d7e41d55e5351469e63336104dd565b610c045760405162461bcd60e51b815260206004820152601960248201527f43616c6c6572206973206e6f7420616e206578656375746f720000000000000060448201526064016104c6565b6099548110610c4f5760405162461bcd60e51b8152602060048201526017602482015276141c9bdc1bdcd85b08191bd95cc81b9bdd08195e1a5cdd604a1b60448201526064016104c6565b600060998281548110610c6457610c646114ed565b906000526020600020906006020190508060040154421015610cc85760405162461bcd60e51b815260206004820152601960248201527f566f74696e6720706572696f64206973206e6f74206f7665720000000000000060448201526064016104c6565b600581015460ff1615610d1d5760405162461bcd60e51b815260206004820152601960248201527f50726f706f73616c20616c72656164792065786563757465640000000000000060448201526064016104c6565b8060030154816002015411610d685760405162461bcd60e51b8152602060048201526011602482015270141c9bdc1bdcd85b081c995a9958dd1959607a1b60448201526064016104c6565b60058101805460ff1916600117905560405182907f712ae1383f79ac853f8d882153778e0260ef8f03b504e2866e0593e04d2b291f90600090a250610dad6001609755565b50565b610dad8133610f00565b610dc482826104dd565b6104d95760008281526065602090815260408083206001600160a01b03851684529091529020805460ff19166001179055610dfc3390565b6001600160a01b0316816001600160a01b0316837f2f8788117e7eff1d82e926ec794901d17c78024a50270940304540a733656f0d60405160405180910390a45050565b610e4a82826104dd565b156104d95760008281526065602090815260408083206001600160a01b0385168085529252808320805460ff1916905551339285917ff6391f5c32d9c69d2a47ea670b442974b53935d1edc7fd64eb21e047a839171b9190a45050565b600260975403610ef95760405162461bcd60e51b815260206004820152601f60248201527f5265656e7472616e637947756172643a207265656e7472616e742063616c6c0060448201526064016104c6565b6002609755565b610f0a82826104dd565b6104d957610f1781610f59565b610f22836020610f6b565b604051602001610f3392919061151c565b60408051601f198184030181529082905262461bcd60e51b82526104c691600401611591565b606061042a6001600160a01b03831660145b60606000610f7a8360026115a4565b610f85906002611397565b67ffffffffffffffff811115610f9d57610f9d611230565b6040519080825280601f01601f191660200182016040528015610fc7576020820181803683370190505b509050600360fc1b81600081518110610fe257610fe26114ed565b60200101906001600160f81b031916908160001a905350600f60fb1b81600181518110611011576110116114ed565b60200101906001600160f81b031916908160001a90535060006110358460026115a4565b611040906001611397565b90505b60018111156110b8576f181899199a1a9b1b9c1cb0b131b232b360811b85600f1660108110611074576110746114ed565b1a60f81b82828151811061108a5761108a6114ed565b60200101906001600160f81b031916908160001a90535060049490941c936110b1816115bb565b9050611043565b5083156111075760405162461bcd60e51b815260206004820181905260248201527f537472696e67733a20686578206c656e67746820696e73756666696369656e7460448201526064016104c6565b9392505050565b60006020828403121561112057600080fd5b5035919050565b60005b8381101561114257818101518382015260200161112a565b50506000910152565b60008151808452611163816020860160208601611127565b601f01601f19169290920160200192915050565b60c08152600061118a60c083018961114b565b6001600160a01b0397909716602083015250604081019490945260608401929092526080830152151560a090910152919050565b6000602082840312156111d057600080fd5b81356001600160e01b03198116811461110757600080fd5b80356001600160a01b03811681146111ff57600080fd5b919050565b6000806040838503121561121757600080fd5b82359150611227602084016111e8565b90509250929050565b634e487b7160e01b600052604160045260246000fd5b60006020828403121561125857600080fd5b813567ffffffffffffffff8082111561127057600080fd5b818401915084601f83011261128457600080fd5b81358181111561129657611296611230565b604051601f8201601f19908116603f011681019083821181831017156112be576112be611230565b816040528281528760208487010111156112d757600080fd5b826020860160208301376000928101602001929092525095945050505050565b60006020828403121561130957600080fd5b611107826111e8565b6000806040838503121561132557600080fd5b823591506020830135801515811461133c57600080fd5b809150509250929050565b600181811c9082168061135b57607f821691505b60208210810361137b57634e487b7160e01b600052602260045260246000fd5b50919050565b634e487b7160e01b600052601160045260246000fd5b8082018082111561042a5761042a611381565b601f82111561045557600081815260208120601f850160051c810160208610156113d15750805b601f850160051c820191505b818110156113f0578281556001016113dd565b505050505050565b815167ffffffffffffffff81111561141257611412611230565b611426816114208454611347565b846113aa565b602080601f83116001811461145b57600084156114435750858301515b600019600386901b1c1916600185901b1785556113f0565b600085815260208120601f198616915b8281101561148a5788860151825594840194600190910190840161146b565b50858210156114a85787850151600019600388901b60f8161c191681555b5050505050600190811b01905550565b8181038181111561042a5761042a611381565b6040815260006114de604083018561114b565b90508260208301529392505050565b634e487b7160e01b600052603260045260246000fd5b60006020828403121561151557600080fd5b5051919050565b7f416363657373436f6e74726f6c3a206163636f756e7420000000000000000000815260008351611554816017850160208801611127565b7001034b99036b4b9b9b4b733903937b6329607d1b6017918401918201528351611585816028840160208801611127565b01602801949350505050565b602081526000611107602083018461114b565b808202811582820484141761042a5761042a611381565b6000816115ca576115ca611381565b50600019019056fea2646970667358221220554ac3ed49320044e0499461f840ef3e0d666a56ff48a1c195a9a338620fa41764736f6c63430008110033",
  "immutableReferences": {},
  "source": "// SPDX-License-Identifier: MIT\r\npragma solidity ^0.8.17;\r\n\r\nimport \"@openzeppelin/contracts/token/ERC20/IERC20.sol\";\r\nimport \"@openzeppelin/contracts-upgradeable/access/AccessControlUpgradeable.sol\";\r\nimport \"@openzeppelin/contracts-upgradeable/proxy/utils/Initializable.sol\";\r\nimport \"@openzeppelin/contracts/security/ReentrancyGuard.sol\";\r\n\r\n// Main contract for the DAO Governance\r\ncontract CowlDaoGovernance is\r\n    Initializable,\r\n    AccessControlUpgradeable,\r\n    ReentrancyGuard\r\n{\r\n    // Reference to the ERC20 token used for voting.\r\n    // It is public so anyone can see which token is used for governance.\r\n    IERC20 public governanceToken;\r\n\r\n    // Add role bytes for clarity and control\r\n    bytes32 public constant PROPOSER_ROLE = keccak256(\"PROPOSER_ROLE\");\r\n    bytes32 public constant VOTER_ROLE = keccak256(\"VOTER_ROLE\");\r\n    bytes32 public constant EXECUTOR_ROLE = keccak256(\"EXECUTOR_ROLE\");\r\n\r\n    // Struct for representing a proposal\r\n    struct Proposal {\r\n        string description; // Description or title of the proposal\r\n        address proposer; // Address of the proposer who created the proposal\r\n        uint256 forVotes; // Total count of votes in favor of the proposal\r\n        uint256 againstVotes; // Total count of votes against the proposal\r\n        uint256 endTime; // Time when the voting period ends for this proposal\r\n        bool executed; // Indicates if the proposal has been executed or not\r\n    }\r\n\r\n    // Array to store all proposals. This enables iteration over all proposals and direct access using an ID.\r\n    Proposal[] public proposals;\r\n\r\n    // Nested mapping to track who has voted on which proposal.\r\n    // The outer key is the proposal ID and the inner key is the voter's address.\r\n    mapping(uint256 => mapping(address => bool)) public votes;\r\n\r\n    // Events to log significant actions for external listeners like frontend interfaces or dApps.\r\n    event ProposalCreated(\r\n        uint256 indexed proposalId,\r\n        string description,\r\n        address indexed proposer,\r\n        uint256 endTime\r\n    );\r\n    event Voted(\r\n        uint256 indexed proposalId,\r\n        address indexed voter,\r\n        bool vote,\r\n        uint256 weight\r\n    );\r\n    event ProposalExecuted(uint256 indexed proposalId);\r\n\r\n    // Constant for the voting duration, set to 1 day for now. This can be changed based on requirements.\r\n    uint256 public constant VOTING_DURATION = 1 days;\r\n\r\n    function initialize(address _governanceToken) public initializer {\r\n        governanceToken = IERC20(_governanceToken);\r\n        _grantRole(DEFAULT_ADMIN_ROLE, msg.sender);\r\n        _grantRole(PROPOSER_ROLE, msg.sender);\r\n        _grantRole(VOTER_ROLE, msg.sender);\r\n        _grantRole(EXECUTOR_ROLE, msg.sender);\r\n    }\r\n\r\n    // External function to allow users to propose a new governance proposal\r\n    function propose(string memory _description) external {\r\n        require(hasRole(PROPOSER_ROLE, msg.sender), \"Caller is not a proposer\");\r\n\r\n        // Constructing a new proposal object\r\n        Proposal memory newProposal = Proposal({\r\n            description: _description,\r\n            proposer: msg.sender, // msg.sender is the address of the user interacting with the contract\r\n            forVotes: 0,\r\n            againstVotes: 0,\r\n            endTime: block.timestamp + VOTING_DURATION, // Setting end time based on current time + defined voting duration\r\n            executed: false\r\n        });\r\n\r\n        // Adding the new proposal to the proposals array\r\n        proposals.push(newProposal);\r\n\r\n        // Emitting an event to indicate a new proposal has been created\r\n        emit ProposalCreated(\r\n            proposals.length - 1,\r\n            _description,\r\n            msg.sender,\r\n            newProposal.endTime\r\n        );\r\n    }\r\n\r\n    // External function to allow users to vote on a given proposal\r\n    function vote(uint256 _proposalId, bool _vote) external nonReentrant {\r\n        require(hasRole(VOTER_ROLE, msg.sender), \"Caller is not a voter\");\r\n\r\n        // nonReentrant ensures no recursive calls\r\n        require(_proposalId < proposals.length, \"Proposal does not exist\"); // Check if proposal exists\r\n        Proposal storage proposal = proposals[_proposalId]; // Retrieving the proposal from storage\r\n        require(block.timestamp < proposal.endTime, \"Voting period has ended\"); // Ensuring voting period is still active\r\n\r\n        uint256 weight = governanceToken.balanceOf(msg.sender); // Retrieving the voter's token balance, which represents their voting power\r\n        require(weight > 0, \"Insufficient balance to vote\"); // Voter must have a positive balance to vote\r\n\r\n        require(!votes[_proposalId][msg.sender], \"Already voted\"); // Ensuring the user hasn't voted on this proposal before\r\n        votes[_proposalId][msg.sender] = true; // Marking this user as having voted for this proposal\r\n\r\n        // Updating the vote count based on user's choice\r\n        if (_vote) {\r\n            proposal.forVotes += weight; // Incrementing 'for' votes\r\n        } else {\r\n            proposal.againstVotes += weight; // Incrementing 'against' votes\r\n        }\r\n\r\n        // Emitting an event to indicate a vote has been cast\r\n        emit Voted(_proposalId, msg.sender, _vote, weight);\r\n    }\r\n\r\n    // Function for the owner to execute a proposal. For simplicity, only the owner can execute.\r\n    // In a more decentralized scenario, this might be changed to a more complex mechanism.\r\n    function execute(uint256 _proposalId) external nonReentrant {\r\n        require(\r\n            hasRole(EXECUTOR_ROLE, msg.sender),\r\n            \"Caller is not an executor\"\r\n        );\r\n\r\n        // onlyOwner ensures only the contract's owner can call\r\n        require(_proposalId < proposals.length, \"Proposal does not exist\"); // Check if proposal exists\r\n        Proposal storage proposal = proposals[_proposalId]; // Retrieving the proposal from storage\r\n        require(\r\n            block.timestamp >= proposal.endTime,\r\n            \"Voting period is not over\"\r\n        ); // Ensuring voting period is over\r\n        require(!proposal.executed, \"Proposal already executed\"); // Ensuring the proposal hasn't been executed already\r\n\r\n        require(proposal.forVotes > proposal.againstVotes, \"Proposal rejected\"); // For a proposal to be executed, it must have more 'for' votes than 'against' votes\r\n\r\n        // Marking the proposal as executed\r\n        proposal.executed = true;\r\n\r\n        // Emitting an event to indicate the proposal has been executed\r\n        emit ProposalExecuted(_proposalId);\r\n    }\r\n\r\n    // function giveRole(bytes32 role, address account) public virtual {\r\n    //     require(\r\n    //         hasRole(DEFAULT_ADMIN_ROLE, msg.sender),\r\n    //         \"Caller is not an admin\"\r\n    //     );\r\n    //     _grantRole(role, account);\r\n    // }\r\n\r\n    // function takeRole(bytes32 role, address account) public virtual {\r\n    //     require(\r\n    //         hasRole(DEFAULT_ADMIN_ROLE, msg.sender),\r\n    //         \"Caller is not an admin\"\r\n    //     );\r\n    //     _revokeRole(role, account);\r\n    // }\r\n\r\n    // function tossRole(bytes32 role, address account) public virtual {\r\n    //     require(account == msg.sender, \"Can only renounce roles for self\");\r\n    //     _revokeRole(role, account);\r\n    // }\r\n}\r\n",
  "sourcePath": "D:\\DevTools\\flkm-project\\contracts\\DAOSupport\\CowlDaoGovernance.sol",
  "compiler": {
    "name": "solc",
    "version": "0.8.17+commit.8df45f5f.Emscripten.clang"
  },
  "schemaVersion": "3.4.16",
  "updatedAt": "2023-10-27T02:44:18.664Z",
  "networkType": "ethereum",
  "devdoc": {
    "kind": "dev",
    "methods": {
      "getRoleAdmin(bytes32)": {
        "details": "Returns the admin role that controls `role`. See {grantRole} and {revokeRole}. To change a role's admin, use {_setRoleAdmin}."
      },
      "grantRole(bytes32,address)": {
        "details": "Grants `role` to `account`. If `account` had not been already granted `role`, emits a {RoleGranted} event. Requirements: - the caller must have ``role``'s admin role. May emit a {RoleGranted} event."
      },
      "hasRole(bytes32,address)": {
        "details": "Returns `true` if `account` has been granted `role`."
      },
      "renounceRole(bytes32,address)": {
        "details": "Revokes `role` from the calling account. Roles are often managed via {grantRole} and {revokeRole}: this function's purpose is to provide a mechanism for accounts to lose their privileges if they are compromised (such as when a trusted device is misplaced). If the calling account had been revoked `role`, emits a {RoleRevoked} event. Requirements: - the caller must be `account`. May emit a {RoleRevoked} event."
      },
      "revokeRole(bytes32,address)": {
        "details": "Revokes `role` from `account`. If `account` had been granted `role`, emits a {RoleRevoked} event. Requirements: - the caller must have ``role``'s admin role. May emit a {RoleRevoked} event."
      },
      "supportsInterface(bytes4)": {
        "details": "See {IERC165-supportsInterface}."
      }
    },
    "version": 1
  },
  "userdoc": {
    "kind": "user",
    "methods": {},
    "version": 1
  }
}