{
  "contractName": "CowlDaoToken",
  "abi": [
    {
      "anonymous": false,
      "inputs": [
        {
          "indexed": true,
          "internalType": "address",
          "name": "owner",
          "type": "address"
        },
        {
          "indexed": true,
          "internalType": "address",
          "name": "spender",
          "type": "address"
        },
        {
          "indexed": false,
          "internalType": "uint256",
          "name": "value",
          "type": "uint256"
        }
      ],
      "name": "Approval",
      "type": "event"
    },
    {
      "anonymous": false,
      "inputs": [
        {
          "indexed": true,
          "internalType": "address",
          "name": "delegator",
          "type": "address"
        },
        {
          "indexed": true,
          "internalType": "address",
          "name": "delegatee",
          "type": "address"
        },
        {
          "indexed": false,
          "internalType": "uint256",
          "name": "balance",
          "type": "uint256"
        }
      ],
      "name": "DelegateChanged",
      "type": "event"
    },
    {
      "anonymous": false,
      "inputs": [
        {
          "indexed": true,
          "internalType": "address",
          "name": "delegator",
          "type": "address"
        },
        {
          "indexed": true,
          "internalType": "address",
          "name": "delegatee",
          "type": "address"
        }
      ],
      "name": "DelegateRequest",
      "type": "event"
    },
    {
      "anonymous": false,
      "inputs": [
        {
          "indexed": true,
          "internalType": "address",
          "name": "holder",
          "type": "address"
        },
        {
          "indexed": false,
          "internalType": "enum CowlDaoToken.GovernanceLevel",
          "name": "newLevel",
          "type": "uint8"
        }
      ],
      "name": "GovernanceLevelChanged",
      "type": "event"
    },
    {
      "anonymous": false,
      "inputs": [
        {
          "indexed": false,
          "internalType": "uint8",
          "name": "version",
          "type": "uint8"
        }
      ],
      "name": "Initialized",
      "type": "event"
    },
    {
      "anonymous": false,
      "inputs": [
        {
          "indexed": false,
          "internalType": "uint256",
          "name": "newMinStake",
          "type": "uint256"
        }
      ],
      "name": "MinStakeToProposeChanged",
      "type": "event"
    },
    {
      "anonymous": false,
      "inputs": [
        {
          "indexed": false,
          "internalType": "address",
          "name": "account",
          "type": "address"
        }
      ],
      "name": "Paused",
      "type": "event"
    },
    {
      "anonymous": false,
      "inputs": [
        {
          "indexed": true,
          "internalType": "uint256",
          "name": "proposalId",
          "type": "uint256"
        },
        {
          "indexed": false,
          "internalType": "address",
          "name": "proposer",
          "type": "address"
        },
        {
          "indexed": false,
          "internalType": "string",
          "name": "description",
          "type": "string"
        }
      ],
      "name": "ProposalCreated",
      "type": "event"
    },
    {
      "anonymous": false,
      "inputs": [
        {
          "indexed": true,
          "internalType": "uint256",
          "name": "proposalId",
          "type": "uint256"
        }
      ],
      "name": "ProposalExecuted",
      "type": "event"
    },
    {
      "anonymous": false,
      "inputs": [
        {
          "indexed": true,
          "internalType": "uint256",
          "name": "proposalId",
          "type": "uint256"
        }
      ],
      "name": "ProposalFailed",
      "type": "event"
    },
    {
      "anonymous": false,
      "inputs": [
        {
          "indexed": true,
          "internalType": "bytes32",
          "name": "role",
          "type": "bytes32"
        },
        {
          "indexed": true,
          "internalType": "bytes32",
          "name": "previousAdminRole",
          "type": "bytes32"
        },
        {
          "indexed": true,
          "internalType": "bytes32",
          "name": "newAdminRole",
          "type": "bytes32"
        }
      ],
      "name": "RoleAdminChanged",
      "type": "event"
    },
    {
      "anonymous": false,
      "inputs": [
        {
          "indexed": true,
          "internalType": "bytes32",
          "name": "role",
          "type": "bytes32"
        },
        {
          "indexed": true,
          "internalType": "address",
          "name": "account",
          "type": "address"
        },
        {
          "indexed": true,
          "internalType": "address",
          "name": "sender",
          "type": "address"
        }
      ],
      "name": "RoleGranted",
      "type": "event"
    },
    {
      "anonymous": false,
      "inputs": [
        {
          "indexed": true,
          "internalType": "bytes32",
          "name": "role",
          "type": "bytes32"
        },
        {
          "indexed": true,
          "internalType": "address",
          "name": "account",
          "type": "address"
        },
        {
          "indexed": true,
          "internalType": "address",
          "name": "sender",
          "type": "address"
        }
      ],
      "name": "RoleRevoked",
      "type": "event"
    },
    {
      "anonymous": false,
      "inputs": [
        {
          "indexed": true,
          "internalType": "address",
          "name": "staker",
          "type": "address"
        },
        {
          "indexed": false,
          "internalType": "uint256",
          "name": "amount",
          "type": "uint256"
        }
      ],
      "name": "Staked",
      "type": "event"
    },
    {
      "anonymous": false,
      "inputs": [
        {
          "indexed": true,
          "internalType": "address",
          "name": "by",
          "type": "address"
        },
        {
          "indexed": false,
          "internalType": "string",
          "name": "change",
          "type": "string"
        }
      ],
      "name": "StateChanged",
      "type": "event"
    },
    {
      "anonymous": false,
      "inputs": [
        {
          "indexed": true,
          "internalType": "address",
          "name": "from",
          "type": "address"
        },
        {
          "indexed": true,
          "internalType": "address",
          "name": "to",
          "type": "address"
        },
        {
          "indexed": false,
          "internalType": "uint256",
          "name": "value",
          "type": "uint256"
        }
      ],
      "name": "Transfer",
      "type": "event"
    },
    {
      "anonymous": false,
      "inputs": [
        {
          "indexed": false,
          "internalType": "address",
          "name": "account",
          "type": "address"
        }
      ],
      "name": "Unpaused",
      "type": "event"
    },
    {
      "anonymous": false,
      "inputs": [
        {
          "indexed": true,
          "internalType": "address",
          "name": "staker",
          "type": "address"
        },
        {
          "indexed": false,
          "internalType": "uint256",
          "name": "amount",
          "type": "uint256"
        }
      ],
      "name": "Unstaked",
      "type": "event"
    },
    {
      "anonymous": false,
      "inputs": [
        {
          "indexed": true,
          "internalType": "address",
          "name": "voter",
          "type": "address"
        },
        {
          "indexed": false,
          "internalType": "uint256",
          "name": "proposalId",
          "type": "uint256"
        },
        {
          "indexed": false,
          "internalType": "bool",
          "name": "support",
          "type": "bool"
        }
      ],
      "name": "Voted",
      "type": "event"
    },
    {
      "inputs": [],
      "name": "ADMIN_ROLE",
      "outputs": [
        {
          "internalType": "bytes32",
          "name": "",
          "type": "bytes32"
        }
      ],
      "stateMutability": "view",
      "type": "function",
      "constant": true
    },
    {
      "inputs": [],
      "name": "DEFAULT_ADMIN_ROLE",
      "outputs": [
        {
          "internalType": "bytes32",
          "name": "",
          "type": "bytes32"
        }
      ],
      "stateMutability": "view",
      "type": "function",
      "constant": true
    },
    {
      "inputs": [
        {
          "internalType": "address",
          "name": "owner",
          "type": "address"
        },
        {
          "internalType": "address",
          "name": "spender",
          "type": "address"
        }
      ],
      "name": "allowance",
      "outputs": [
        {
          "internalType": "uint256",
          "name": "",
          "type": "uint256"
        }
      ],
      "stateMutability": "view",
      "type": "function",
      "constant": true
    },
    {
      "inputs": [
        {
          "internalType": "address",
          "name": "spender",
          "type": "address"
        },
        {
          "internalType": "uint256",
          "name": "amount",
          "type": "uint256"
        }
      ],
      "name": "approve",
      "outputs": [
        {
          "internalType": "bool",
          "name": "",
          "type": "bool"
        }
      ],
      "stateMutability": "nonpayable",
      "type": "function"
    },
    {
      "inputs": [
        {
          "internalType": "address",
          "name": "account",
          "type": "address"
        }
      ],
      "name": "balanceOf",
      "outputs": [
        {
          "internalType": "uint256",
          "name": "",
          "type": "uint256"
        }
      ],
      "stateMutability": "view",
      "type": "function",
      "constant": true
    },
    {
      "inputs": [],
      "name": "decimals",
      "outputs": [
        {
          "internalType": "uint8",
          "name": "",
          "type": "uint8"
        }
      ],
      "stateMutability": "view",
      "type": "function",
      "constant": true
    },
    {
      "inputs": [
        {
          "internalType": "address",
          "name": "spender",
          "type": "address"
        },
        {
          "internalType": "uint256",
          "name": "subtractedValue",
          "type": "uint256"
        }
      ],
      "name": "decreaseAllowance",
      "outputs": [
        {
          "internalType": "bool",
          "name": "",
          "type": "bool"
        }
      ],
      "stateMutability": "nonpayable",
      "type": "function"
    },
    {
      "inputs": [
        {
          "internalType": "address",
          "name": "",
          "type": "address"
        }
      ],
      "name": "delegateRequests",
      "outputs": [
        {
          "internalType": "address",
          "name": "",
          "type": "address"
        }
      ],
      "stateMutability": "view",
      "type": "function",
      "constant": true
    },
    {
      "inputs": [
        {
          "internalType": "address",
          "name": "",
          "type": "address"
        }
      ],
      "name": "delegates",
      "outputs": [
        {
          "internalType": "address",
          "name": "",
          "type": "address"
        }
      ],
      "stateMutability": "view",
      "type": "function",
      "constant": true
    },
    {
      "inputs": [
        {
          "internalType": "bytes32",
          "name": "role",
          "type": "bytes32"
        }
      ],
      "name": "getRoleAdmin",
      "outputs": [
        {
          "internalType": "bytes32",
          "name": "",
          "type": "bytes32"
        }
      ],
      "stateMutability": "view",
      "type": "function",
      "constant": true
    },
    {
      "inputs": [
        {
          "internalType": "address",
          "name": "",
          "type": "address"
        }
      ],
      "name": "governanceLevels",
      "outputs": [
        {
          "internalType": "enum CowlDaoToken.GovernanceLevel",
          "name": "",
          "type": "uint8"
        }
      ],
      "stateMutability": "view",
      "type": "function",
      "constant": true
    },
    {
      "inputs": [
        {
          "internalType": "bytes32",
          "name": "role",
          "type": "bytes32"
        },
        {
          "internalType": "address",
          "name": "account",
          "type": "address"
        }
      ],
      "name": "grantRole",
      "outputs": [],
      "stateMutability": "nonpayable",
      "type": "function"
    },
    {
      "inputs": [
        {
          "internalType": "bytes32",
          "name": "role",
          "type": "bytes32"
        },
        {
          "internalType": "address",
          "name": "account",
          "type": "address"
        }
      ],
      "name": "hasRole",
      "outputs": [
        {
          "internalType": "bool",
          "name": "",
          "type": "bool"
        }
      ],
      "stateMutability": "view",
      "type": "function",
      "constant": true
    },
    {
      "inputs": [
        {
          "internalType": "address",
          "name": "spender",
          "type": "address"
        },
        {
          "internalType": "uint256",
          "name": "addedValue",
          "type": "uint256"
        }
      ],
      "name": "increaseAllowance",
      "outputs": [
        {
          "internalType": "bool",
          "name": "",
          "type": "bool"
        }
      ],
      "stateMutability": "nonpayable",
      "type": "function"
    },
    {
      "inputs": [],
      "name": "lockPeriod",
      "outputs": [
        {
          "internalType": "uint64",
          "name": "",
          "type": "uint64"
        }
      ],
      "stateMutability": "view",
      "type": "function",
      "constant": true
    },
    {
      "inputs": [],
      "name": "minStakeToPropose",
      "outputs": [
        {
          "internalType": "uint256",
          "name": "",
          "type": "uint256"
        }
      ],
      "stateMutability": "view",
      "type": "function",
      "constant": true
    },
    {
      "inputs": [],
      "name": "name",
      "outputs": [
        {
          "internalType": "string",
          "name": "",
          "type": "string"
        }
      ],
      "stateMutability": "view",
      "type": "function",
      "constant": true
    },
    {
      "inputs": [],
      "name": "paused",
      "outputs": [
        {
          "internalType": "bool",
          "name": "",
          "type": "bool"
        }
      ],
      "stateMutability": "view",
      "type": "function",
      "constant": true
    },
    {
      "inputs": [],
      "name": "proposalVotingDuration",
      "outputs": [
        {
          "internalType": "uint64",
          "name": "",
          "type": "uint64"
        }
      ],
      "stateMutability": "view",
      "type": "function",
      "constant": true
    },
    {
      "inputs": [
        {
          "internalType": "uint256",
          "name": "",
          "type": "uint256"
        }
      ],
      "name": "proposals",
      "outputs": [
        {
          "internalType": "address",
          "name": "contractAddress",
          "type": "address"
        },
        {
          "internalType": "bytes",
          "name": "callData",
          "type": "bytes"
        },
        {
          "internalType": "string",
          "name": "description",
          "type": "string"
        },
        {
          "internalType": "uint256",
          "name": "forVotes",
          "type": "uint256"
        },
        {
          "internalType": "uint256",
          "name": "againstVotes",
          "type": "uint256"
        },
        {
          "internalType": "uint256",
          "name": "endTime",
          "type": "uint256"
        },
        {
          "internalType": "bool",
          "name": "executed",
          "type": "bool"
        }
      ],
      "stateMutability": "view",
      "type": "function",
      "constant": true
    },
    {
      "inputs": [
        {
          "internalType": "bytes32",
          "name": "role",
          "type": "bytes32"
        },
        {
          "internalType": "address",
          "name": "account",
          "type": "address"
        }
      ],
      "name": "renounceRole",
      "outputs": [],
      "stateMutability": "nonpayable",
      "type": "function"
    },
    {
      "inputs": [
        {
          "internalType": "bytes32",
          "name": "role",
          "type": "bytes32"
        },
        {
          "internalType": "address",
          "name": "account",
          "type": "address"
        }
      ],
      "name": "revokeRole",
      "outputs": [],
      "stateMutability": "nonpayable",
      "type": "function"
    },
    {
      "inputs": [],
      "name": "rewardPool",
      "outputs": [
        {
          "internalType": "uint256",
          "name": "",
          "type": "uint256"
        }
      ],
      "stateMutability": "view",
      "type": "function",
      "constant": true
    },
    {
      "inputs": [
        {
          "internalType": "address",
          "name": "",
          "type": "address"
        }
      ],
      "name": "stakers",
      "outputs": [
        {
          "internalType": "uint256",
          "name": "amount",
          "type": "uint256"
        },
        {
          "internalType": "uint256",
          "name": "timestamp",
          "type": "uint256"
        }
      ],
      "stateMutability": "view",
      "type": "function",
      "constant": true
    },
    {
      "inputs": [
        {
          "internalType": "bytes4",
          "name": "interfaceId",
          "type": "bytes4"
        }
      ],
      "name": "supportsInterface",
      "outputs": [
        {
          "internalType": "bool",
          "name": "",
          "type": "bool"
        }
      ],
      "stateMutability": "view",
      "type": "function",
      "constant": true
    },
    {
      "inputs": [],
      "name": "symbol",
      "outputs": [
        {
          "internalType": "string",
          "name": "",
          "type": "string"
        }
      ],
      "stateMutability": "view",
      "type": "function",
      "constant": true
    },
    {
      "inputs": [],
      "name": "totalSupply",
      "outputs": [
        {
          "internalType": "uint256",
          "name": "",
          "type": "uint256"
        }
      ],
      "stateMutability": "view",
      "type": "function",
      "constant": true
    },
    {
      "inputs": [
        {
          "internalType": "address",
          "name": "to",
          "type": "address"
        },
        {
          "internalType": "uint256",
          "name": "amount",
          "type": "uint256"
        }
      ],
      "name": "transfer",
      "outputs": [
        {
          "internalType": "bool",
          "name": "",
          "type": "bool"
        }
      ],
      "stateMutability": "nonpayable",
      "type": "function"
    },
    {
      "inputs": [
        {
          "internalType": "address",
          "name": "from",
          "type": "address"
        },
        {
          "internalType": "address",
          "name": "to",
          "type": "address"
        },
        {
          "internalType": "uint256",
          "name": "amount",
          "type": "uint256"
        }
      ],
      "name": "transferFrom",
      "outputs": [
        {
          "internalType": "bool",
          "name": "",
          "type": "bool"
        }
      ],
      "stateMutability": "nonpayable",
      "type": "function"
    },
    {
      "inputs": [
        {
          "internalType": "uint256",
          "name": "",
          "type": "uint256"
        },
        {
          "internalType": "address",
          "name": "",
          "type": "address"
        }
      ],
      "name": "voters",
      "outputs": [
        {
          "internalType": "bool",
          "name": "",
          "type": "bool"
        }
      ],
      "stateMutability": "view",
      "type": "function",
      "constant": true
    },
    {
      "inputs": [
        {
          "internalType": "address",
          "name": "",
          "type": "address"
        }
      ],
      "name": "votingPower",
      "outputs": [
        {
          "internalType": "uint256",
          "name": "",
          "type": "uint256"
        }
      ],
      "stateMutability": "view",
      "type": "function",
      "constant": true
    },
    {
      "stateMutability": "payable",
      "type": "receive",
      "payable": true
    },
    {
      "inputs": [
        {
          "internalType": "string",
          "name": "name",
          "type": "string"
        },
        {
          "internalType": "string",
          "name": "symbol",
          "type": "string"
        }
      ],
      "name": "initialize",
      "outputs": [],
      "stateMutability": "nonpayable",
      "type": "function"
    },
    {
      "inputs": [
        {
          "internalType": "uint256",
          "name": "_minStakeToPropose",
          "type": "uint256"
        }
      ],
      "name": "setMinStakeToPropose",
      "outputs": [],
      "stateMutability": "nonpayable",
      "type": "function"
    },
    {
      "inputs": [
        {
          "internalType": "address",
          "name": "holder",
          "type": "address"
        },
        {
          "internalType": "enum CowlDaoToken.GovernanceLevel",
          "name": "newLevel",
          "type": "uint8"
        }
      ],
      "name": "setGovernanceLevel",
      "outputs": [],
      "stateMutability": "nonpayable",
      "type": "function"
    },
    {
      "inputs": [],
      "name": "toggleCircuitBreaker",
      "outputs": [],
      "stateMutability": "nonpayable",
      "type": "function"
    },
    {
      "inputs": [
        {
          "internalType": "uint256",
          "name": "amount",
          "type": "uint256"
        }
      ],
      "name": "stake",
      "outputs": [],
      "stateMutability": "nonpayable",
      "type": "function"
    },
    {
      "inputs": [
        {
          "internalType": "uint256",
          "name": "amount",
          "type": "uint256"
        }
      ],
      "name": "unstake",
      "outputs": [],
      "stateMutability": "nonpayable",
      "type": "function"
    },
    {
      "inputs": [
        {
          "internalType": "address",
          "name": "_contractAddress",
          "type": "address"
        },
        {
          "internalType": "bytes",
          "name": "_callData",
          "type": "bytes"
        },
        {
          "internalType": "string",
          "name": "description",
          "type": "string"
        }
      ],
      "name": "propose",
      "outputs": [],
      "stateMutability": "nonpayable",
      "type": "function"
    },
    {
      "inputs": [
        {
          "internalType": "uint256",
          "name": "proposalId",
          "type": "uint256"
        },
        {
          "internalType": "bool",
          "name": "support",
          "type": "bool"
        }
      ],
      "name": "vote",
      "outputs": [],
      "stateMutability": "nonpayable",
      "type": "function"
    },
    {
      "inputs": [
        {
          "internalType": "uint256",
          "name": "proposalId",
          "type": "uint256"
        }
      ],
      "name": "executeProposal",
      "outputs": [],
      "stateMutability": "nonpayable",
      "type": "function"
    },
    {
      "inputs": [
        {
          "internalType": "address",
          "name": "delegatee",
          "type": "address"
        }
      ],
      "name": "delegate",
      "outputs": [],
      "stateMutability": "nonpayable",
      "type": "function"
    },
    {
      "inputs": [
        {
          "internalType": "address",
          "name": "delegatee",
          "type": "address"
        }
      ],
      "name": "delegateRequest",
      "outputs": [],
      "stateMutability": "nonpayable",
      "type": "function"
    },
    {
      "inputs": [
        {
          "internalType": "address",
          "name": "delegator",
          "type": "address"
        }
      ],
      "name": "acceptDelegateRequest",
      "outputs": [],
      "stateMutability": "nonpayable",
      "type": "function"
    },
    {
      "inputs": [
        {
          "internalType": "uint256",
          "name": "proposalId",
          "type": "uint256"
        }
      ],
      "name": "getProposal",
      "outputs": [
        {
          "components": [
            {
              "internalType": "address",
              "name": "contractAddress",
              "type": "address"
            },
            {
              "internalType": "bytes",
              "name": "callData",
              "type": "bytes"
            },
            {
              "internalType": "string",
              "name": "description",
              "type": "string"
            },
            {
              "internalType": "uint256",
              "name": "forVotes",
              "type": "uint256"
            },
            {
              "internalType": "uint256",
              "name": "againstVotes",
              "type": "uint256"
            },
            {
              "internalType": "uint256",
              "name": "endTime",
              "type": "uint256"
            },
            {
              "internalType": "bool",
              "name": "executed",
              "type": "bool"
            }
          ],
          "internalType": "struct CowlDaoToken.Proposal",
          "name": "",
          "type": "tuple"
        }
      ],
      "stateMutability": "view",
      "type": "function",
      "constant": true
    },
    {
      "inputs": [],
      "name": "totalProposals",
      "outputs": [
        {
          "internalType": "uint256",
          "name": "",
          "type": "uint256"
        }
      ],
      "stateMutability": "view",
      "type": "function",
      "constant": true
    },
    {
      "inputs": [
        {
          "internalType": "address",
          "name": "delegator",
          "type": "address"
        },
        {
          "internalType": "address",
          "name": "delegatee",
          "type": "address"
        }
      ],
      "name": "isDelegatee",
      "outputs": [
        {
          "internalType": "bool",
          "name": "",
          "type": "bool"
        }
      ],
      "stateMutability": "view",
      "type": "function",
      "constant": true
    }
  ],
  "bytecode": "0x6080604052633b9aca0061012f55610131805460ff1916905561013380546001600160401b031990811662278d001790915561013580549091166201518017905562000049601290565b6200005690600a62000190565b62000063906064620001a8565b610136553480156200007457600080fd5b50620001c2565b634e487b7160e01b600052601160045260246000fd5b600181815b80851115620000d2578160001904821115620000b657620000b66200007b565b80851615620000c457918102915b93841c939080029062000096565b509250929050565b600082620000eb575060016200018a565b81620000fa575060006200018a565b81600181146200011357600281146200011e576200013e565b60019150506200018a565b60ff8411156200013257620001326200007b565b50506001821b6200018a565b5060208310610133831016604e8410600b841016171562000163575081810a6200018a565b6200016f838362000091565b80600019048211156200018657620001866200007b565b0290505b92915050565b6000620001a160ff841683620000da565b9392505050565b80820281158282048414176200018a576200018a6200007b565b61320280620001d26000396000f3fe6080604052600436106102815760003560e01c80635c19a95c1161014f5780639e319063116100c1578063c07473f61161007a578063c07473f614610869578063c7f758a814610897578063c9d27afe146108c4578063d547741f146108e4578063d5eb63cc14610904578063dd62ed3e1461091957600080fd5b80639e319063146107a2578063a217fddf146107de578063a457c2d7146107f3578063a694fc3a14610813578063a78d80fc14610833578063a9059cbb1461084957600080fd5b806375b238fc1161011357806375b238fc146106aa5780638b35d906146106cc5780638dea7bca146106ec5780639168ae721461072357806391d148541461076d57806395d89b411461078d57600080fd5b80635c19a95c1461060e5780635c975abb1461062e57806366666aa91461064657806370a082311461065d57806373c0b5cb1461069357600080fd5b80632e17de78116101f3578063390fa960116101ac578063390fa9601461051d578063395093511461053d5780633fd8b02f1461055d5780634a5ae77a1461057f5780634cd88b761461059f578063587cde1e146105bf57600080fd5b80632e17de78146104615780632e7fae31146104815780632f2ff15d146104a1578063313ce567146104c15780633153fedb146104dd57806336568abe146104fd57600080fd5b80630d61b519116102455780630d61b51914610357578063129145951461037957806312caf288146103b757806318160ddd146103f257806323b872dd14610411578063248a9ca31461043157600080fd5b806301127cfd1461028d578063013cf08b146102c257806301ffc9a7146102f557806306fdde0314610315578063095ea7b31461033757600080fd5b3661028857005b600080fd5b34801561029957600080fd5b506102ad6102a8366004612861565b610939565b60405190151581526020015b60405180910390f35b3480156102ce57600080fd5b506102e26102dd366004612894565b610961565b6040516102b997969594939291906128fd565b34801561030157600080fd5b506102ad61031036600461295c565b610ace565b34801561032157600080fd5b5061032a610b03565b6040516102b99190612986565b34801561034357600080fd5b506102ad610352366004612999565b610b95565b34801561036357600080fd5b50610377610372366004612894565b610bad565b005b34801561038557600080fd5b506103aa6103943660046129c3565b6101326020526000908152604090205460ff1681565b6040516102b991906129f4565b3480156103c357600080fd5b50610135546103d99067ffffffffffffffff1681565b60405167ffffffffffffffff90911681526020016102b9565b3480156103fe57600080fd5b506035545b6040519081526020016102b9565b34801561041d57600080fd5b506102ad61042c366004612a1c565b610dc6565b34801561043d57600080fd5b5061040361044c366004612894565b60009081526097602052604090206001015490565b34801561046d57600080fd5b5061037761047c366004612894565b610dea565b34801561048d57600080fd5b5061037761049c366004612a58565b610f30565b3480156104ad57600080fd5b506103776104bc366004612a93565b610fe4565b3480156104cd57600080fd5b50604051601281526020016102b9565b3480156104e957600080fd5b506103776104f8366004612b62565b61100e565b34801561050957600080fd5b50610377610518366004612a93565b6111f1565b34801561052957600080fd5b506103776105383660046129c3565b61126f565b34801561054957600080fd5b506102ad610558366004612999565b61137f565b34801561056957600080fd5b50610133546103d99067ffffffffffffffff1681565b34801561058b57600080fd5b5061037761059a366004612894565b6113a1565b3480156105ab57600080fd5b506103776105ba366004612bed565b611411565b3480156105cb57600080fd5b506105f66105da3660046129c3565b610138602052600090815260409020546001600160a01b031681565b6040516001600160a01b0390911681526020016102b9565b34801561061a57600080fd5b506103776106293660046129c3565b6115c0565b34801561063a57600080fd5b5060fb5460ff166102ad565b34801561065257600080fd5b506104036101305481565b34801561066957600080fd5b506104036106783660046129c3565b6001600160a01b031660009081526033602052604090205490565b34801561069f57600080fd5b506104036101365481565b3480156106b657600080fd5b506104036000805160206131ad83398151915281565b3480156106d857600080fd5b506103776106e73660046129c3565b6116df565b3480156106f857600080fd5b506105f66107073660046129c3565b61013a602052600090815260409020546001600160a01b031681565b34801561072f57600080fd5b5061075861073e3660046129c3565b610137602052600090815260409020805460019091015482565b604080519283526020830191909152016102b9565b34801561077957600080fd5b506102ad610788366004612a93565b6117a8565b34801561079957600080fd5b5061032a6117d3565b3480156107ae57600080fd5b506102ad6107bd366004612a93565b61013960209081526000928352604080842090915290825290205460ff1681565b3480156107ea57600080fd5b50610403600081565b3480156107ff57600080fd5b506102ad61080e366004612999565b6117e2565b34801561081f57600080fd5b5061037761082e366004612894565b61185d565b34801561083f57600080fd5b5061013454610403565b34801561085557600080fd5b506102ad610864366004612999565b61193d565b34801561087557600080fd5b506104036108843660046129c3565b61013b6020526000908152604090205481565b3480156108a357600080fd5b506108b76108b2366004612894565b61194b565b6040516102b99190612c51565b3480156108d057600080fd5b506103776108df366004612cd4565b611b32565b3480156108f057600080fd5b506103776108ff366004612a93565b611ccd565b34801561091057600080fd5b50610377611cf2565b34801561092557600080fd5b50610403610934366004612861565b611dc2565b6001600160a01b03828116600090815261013860205260409020548116908216145b92915050565b610134818154811061097257600080fd5b6000918252602090912060079091020180546001820180546001600160a01b039092169350906109a190612cfe565b80601f01602080910402602001604051908101604052809291908181526020018280546109cd90612cfe565b8015610a1a5780601f106109ef57610100808354040283529160200191610a1a565b820191906000526020600020905b8154815290600101906020018083116109fd57829003601f168201915b505050505090806002018054610a2f90612cfe565b80601f0160208091040260200160405190810160405280929190818152602001828054610a5b90612cfe565b8015610aa85780601f10610a7d57610100808354040283529160200191610aa8565b820191906000526020600020905b815481529060010190602001808311610a8b57829003601f168201915b505050506003830154600484015460058501546006909501549394919390925060ff1687565b60006001600160e01b03198216637965db0b60e01b148061095b57506301ffc9a760e01b6001600160e01b031983161461095b565b606060368054610b1290612cfe565b80601f0160208091040260200160405190810160405280929190818152602001828054610b3e90612cfe565b8015610b8b5780601f10610b6057610100808354040283529160200191610b8b565b820191906000526020600020905b815481529060010190602001808311610b6e57829003601f168201915b5050505050905090565b600033610ba3818585611ded565b5060019392505050565b6101315460ff1615610bda5760405162461bcd60e51b8152600401610bd190612d38565b60405180910390fd5b60006101348281548110610bf057610bf0612d7f565b906000526020600020906007020190508060050154421015610c4d5760405162461bcd60e51b81526020600482015260166024820152752b37ba34b733903832b934b7b2103737ba1037bb32b960511b6044820152606401610bd1565b600681015460ff1615610c965760405162461bcd60e51b815260206004820152601160248201527050726f7020616c7265616479206578656360781b6044820152606401610bd1565b8060040154816003015411610ce15760405162461bcd60e51b815260206004820152601160248201527050726f7020646964206e6f74207061737360781b6044820152606401610bd1565b80546040516000916001600160a01b031690610d01906001850190612d95565b6000604051808303816000865af19150503d8060008114610d3e576040519150601f19603f3d011682016040523d82523d6000602084013e610d43565b606091505b5050905080610d875760405162461bcd60e51b815260206004820152601060248201526f115e1958dd5d1a5bdb8819985a5b195960821b6044820152606401610bd1565b60068201805460ff1916600117905560405183907f712ae1383f79ac853f8d882153778e0260ef8f03b504e2866e0593e04d2b291f90600090a2505050565b600033610dd4858285611f11565b610ddf858585611f8b565b506001949350505050565b610df2612136565b6101315460ff1615610e165760405162461bcd60e51b8152600401610bd190612d38565b3360009081526101376020526040902054811115610e6a5760405162461bcd60e51b8152602060048201526011602482015270139bdd08195b9bdd59da081cdd185ad959607a1b6044820152606401610bd1565b6101335433600090815261013760205260408120600101549091610e9a9167ffffffffffffffff90911690612e21565b421015610eaf57610eac600a83612e34565b90505b6000610ebb8284612e56565b9050610ec7338261218f565b336000908152610137602052604081208054859290610ee7908490612e56565b909155505060405181815233907f0f5bb82176feb1b5e747e28471aa92156a04d9f3ab9f45f28e2d704232b93f759060200160405180910390a25050610f2d600160c955565b50565b610f486000805160206131ad833981519152336117a8565b610f645760405162461bcd60e51b8152600401610bd190612e69565b6001600160a01b038216600090815261013260205260409020805482919060ff19166001836002811115610f9a57610f9a6129de565b0217905550816001600160a01b03167f02a0e6692d336d47f7e0ebfe1ffff206e4a2e7bfdc68b416c92525f2c6eac4c282604051610fd891906129f4565b60405180910390a25050565b600082815260976020526040902060010154610fff81612257565b6110098383612261565b505050565b61013654336000908152610137602052604090205410156110685760405162461bcd60e51b8152602060048201526014602482015273125b9cdd5999881cdd185ad95908185b5bdd5b9d60621b6044820152606401610bd1565b6040805160e0810182526001600160a01b038516815260208101849052908101829052600060608201819052608082018190526101355490919060a08201906110bb9067ffffffffffffffff1642612e21565b8152600060209182018190526101348054600181018255915282517fe1c588fe1269da19c317f679b04e226f5e48296f9b2c8351127eb010907c472f600790920291820180546001600160a01b0319166001600160a01b039092169190911781559183015192935083927fe1c588fe1269da19c317f679b04e226f5e48296f9b2c8351127eb010907c4730909101906111549082612ee7565b50604082015160028201906111699082612ee7565b50606082015160038201556080820151600482015560a0820151600582015560c0909101516006909101805460ff1916911515919091179055610134546111b290600190612e56565b7f7585f467599d0f008985f231af99293be388626ac16ca59505c2f8f88969cd6333846040516111e3929190612fa7565b60405180910390a250505050565b6001600160a01b03811633146112615760405162461bcd60e51b815260206004820152602f60248201527f416363657373436f6e74726f6c3a2063616e206f6e6c792072656e6f756e636560448201526e103937b632b9903337b91039b2b63360891b6064820152608401610bd1565b61126b82826122e7565b5050565b6101315460ff16156112935760405162461bcd60e51b8152600401610bd190612d38565b6001600160a01b03818116600090815261013a60205260409020541633146112fd5760405162461bcd60e51b815260206004820152601960248201527f4e6f2064656c207265712066726f6d20746869732061646472000000000000006044820152606401610bd1565b6001600160a01b0381166000818152610138602090815260408083208054336001600160a01b0319918216811790925561013a8452828520805490911690556033909252909120549091907f207b6f0645271bb37aa1924037603b5d8c31d32b6dd6b0e4f5f1c2d039c25348905b60405190815260200160405180910390a350565b600033610ba38185856113928383611dc2565b61139c9190612e21565b611ded565b6113b96000805160206131ad833981519152336117a8565b6113d55760405162461bcd60e51b8152600401610bd190612e69565b6101368190556040518181527fb74c57e984f8a46c4105bda219ddfe53efa3f1cd74d6035e3f884e5574e9b71c9060200160405180910390a150565b600054610100900460ff16158080156114315750600054600160ff909116105b8061144b5750303b15801561144b575060005460ff166001145b6114ae5760405162461bcd60e51b815260206004820152602e60248201527f496e697469616c697a61626c653a20636f6e747261637420697320616c72656160448201526d191e481a5b9a5d1a585b1a5e995960921b6064820152608401610bd1565b6000805460ff1916600117905580156114d1576000805461ff0019166101001790555b6114db838361234e565b6114e361237f565b6114eb6123a8565b6114f36123d7565b61012d6115008482612ee7565b5061012e61150e8382612ee7565b506115323361151f6012600a6130af565b61012f5461152d91906130be565b61218f565b61154a6000805160206131ad83398151915233612261565b6115566012600a6130af565b6115619060646130be565b61013655600061013055610131805460ff191690558015611009576000805461ff0019169055604051600181527f7f26b83ff96e1f2b6a682f133852f6798a09c465da95921460cefb38474024989060200160405180910390a1505050565b6101315460ff16156115e45760405162461bcd60e51b8152600401610bd190612d38565b6001600160a01b03811633036116315760405162461bcd60e51b815260206004820152601260248201527121b0b73737ba103232b6103a379039b2b63360711b6044820152606401610bd1565b33600090815261013860205260409020546001600160a01b0380831691160361169c5760405162461bcd60e51b815260206004820152601860248201527f416c72656164792064656c20746f2074686973206164647200000000000000006044820152606401610bd1565b336000818152603360205260409020546001600160a01b03831691907f207b6f0645271bb37aa1924037603b5d8c31d32b6dd6b0e4f5f1c2d039c253489061136b565b6101315460ff16156117035760405162461bcd60e51b8152600401610bd190612d38565b6001600160a01b03811633036117505760405162461bcd60e51b815260206004820152601260248201527121b0b73737ba103232b6103a379039b2b63360711b6044820152606401610bd1565b33600081815261013a602052604080822080546001600160a01b0319166001600160a01b03861690811790915590519092917f8b65e7b9bffde093910e1f0b3639946305cb67556633552b3c69a029b7810b6991a350565b60009182526097602090815260408084206001600160a01b0393909316845291905290205460ff1690565b606060378054610b1290612cfe565b600033816117f08286611dc2565b9050838110156118505760405162461bcd60e51b815260206004820152602560248201527f45524332303a2064656372656173656420616c6c6f77616e63652062656c6f77604482015264207a65726f60d81b6064820152608401610bd1565b610ddf8286868403611ded565b611865612136565b6101315460ff16156118895760405162461bcd60e51b8152600401610bd190612d38565b6118933382612406565b3360009081526101376020526040812080548392906118b3908490612e21565b90915550503360008181526101376020526040812042600190910155906118d99061253a565b90506118e5338261218f565b8061013060008282546118f89190612e56565b909155505060405182815233907f9e71bc8eea02a63969f509818f2dafb9254532904319f9dbda79b67bd34a5f3d9060200160405180910390a250610f2d600160c955565b600033610ba3818585611f8b565b6119966040518060e0016040528060006001600160a01b0316815260200160608152602001606081526020016000815260200160008152602001600081526020016000151581525090565b61013482815481106119aa576119aa612d7f565b60009182526020918290206040805160e0810190915260079092020180546001600160a01b0316825260018101805492939192918401916119ea90612cfe565b80601f0160208091040260200160405190810160405280929190818152602001828054611a1690612cfe565b8015611a635780601f10611a3857610100808354040283529160200191611a63565b820191906000526020600020905b815481529060010190602001808311611a4657829003601f168201915b50505050508152602001600282018054611a7c90612cfe565b80601f0160208091040260200160405190810160405280929190818152602001828054611aa890612cfe565b8015611af55780601f10611aca57610100808354040283529160200191611af5565b820191906000526020600020905b815481529060010190602001808311611ad857829003601f168201915b505050918352505060038201546020820152600482015460408201526005820154606082015260069091015460ff16151560809091015292915050565b6101315460ff1615611b565760405162461bcd60e51b8152600401610bd190612d38565b60008281526101396020908152604080832033845290915290205460ff1615611bb15760405162461bcd60e51b815260206004820152600d60248201526c105b1c9958591e481d9bdd1959609a1b6044820152606401610bd1565b6000828152610139602090815260408083203384529091528120805460ff19166001179055610134805484908110611beb57611beb612d7f565b9060005260206000209060070201905080600501544210611c445760405162461bcd60e51b8152602060048201526013602482015272159bdd1a5b99c81c195c9a5bd908195b991959606a1b6044820152606401610bd1565b33600090815261013b60205260409020548215611c7a5780826003016000828254611c6f9190612e21565b90915550611c949050565b80826004016000828254611c8e9190612e21565b90915550505b60408051858152841515602082015233917f749addf8eadeff63c43be59c27331be5c6d4fc9e82bbfbcf162321c9b35a95b491016111e3565b600082815260976020526040902060010154611ce881612257565b61100983836122e7565b611d0a6000805160206131ad833981519152336117a8565b611d265760405162461bcd60e51b8152600401610bd190612e69565b610131805460ff19811660ff9182161590811790925533917f30e46bbfdd40a96f3d6768677b111b8fe78fbe50cad41bf9c9d1fcba51a5e3779116611d8a57604051806040016040528060078152602001661cdd185c9d195960ca1b815250611dab565b604051806040016040528060078152602001661cdd1bdc1c195960ca1b8152505b604051611db89190612986565b60405180910390a2565b6001600160a01b03918216600090815260346020908152604080832093909416825291909152205490565b6001600160a01b038316611e4f5760405162461bcd60e51b8152602060048201526024808201527f45524332303a20617070726f76652066726f6d20746865207a65726f206164646044820152637265737360e01b6064820152608401610bd1565b6001600160a01b038216611eb05760405162461bcd60e51b815260206004820152602260248201527f45524332303a20617070726f766520746f20746865207a65726f206164647265604482015261737360f01b6064820152608401610bd1565b6001600160a01b0383811660008181526034602090815260408083209487168084529482529182902085905590518481527f8c5be1e5ebec7d5bd14f71427d1e84f3dd0314c0f7b2291e5b200ac8c7c3b925910160405180910390a3505050565b6000611f1d8484611dc2565b90506000198114611f855781811015611f785760405162461bcd60e51b815260206004820152601d60248201527f45524332303a20696e73756666696369656e7420616c6c6f77616e63650000006044820152606401610bd1565b611f858484848403611ded565b50505050565b6001600160a01b038316611fef5760405162461bcd60e51b815260206004820152602560248201527f45524332303a207472616e736665722066726f6d20746865207a65726f206164604482015264647265737360d81b6064820152608401610bd1565b6001600160a01b0382166120515760405162461bcd60e51b815260206004820152602360248201527f45524332303a207472616e7366657220746f20746865207a65726f206164647260448201526265737360e81b6064820152608401610bd1565b6001600160a01b038316600090815260336020526040902054818110156120c95760405162461bcd60e51b815260206004820152602660248201527f45524332303a207472616e7366657220616d6f756e7420657863656564732062604482015265616c616e636560d01b6064820152608401610bd1565b6001600160a01b0380851660008181526033602052604080822086860390559286168082529083902080548601905591517fddf252ad1be2c89b69c2b068fc378daa952ba7f163c4a11628f55a4df523b3ef906121299086815260200190565b60405180910390a3611f85565b600260c954036121885760405162461bcd60e51b815260206004820152601f60248201527f5265656e7472616e637947756172643a207265656e7472616e742063616c6c006044820152606401610bd1565b600260c955565b6001600160a01b0382166121e55760405162461bcd60e51b815260206004820152601f60248201527f45524332303a206d696e7420746f20746865207a65726f2061646472657373006044820152606401610bd1565b80603560008282546121f79190612e21565b90915550506001600160a01b0382166000818152603360209081526040808320805486019055518481527fddf252ad1be2c89b69c2b068fc378daa952ba7f163c4a11628f55a4df523b3ef910160405180910390a35050565b600160c955565b610f2d813361259d565b61226b82826117a8565b61126b5760008281526097602090815260408083206001600160a01b03851684529091529020805460ff191660011790556122a33390565b6001600160a01b0316816001600160a01b0316837f2f8788117e7eff1d82e926ec794901d17c78024a50270940304540a733656f0d60405160405180910390a45050565b6122f182826117a8565b1561126b5760008281526097602090815260408083206001600160a01b0385168085529252808320805460ff1916905551339285917ff6391f5c32d9c69d2a47ea670b442974b53935d1edc7fd64eb21e047a839171b9190a45050565b600054610100900460ff166123755760405162461bcd60e51b8152600401610bd1906130d5565b61126b82826125f6565b600054610100900460ff166123a65760405162461bcd60e51b8152600401610bd1906130d5565b565b600054610100900460ff166123cf5760405162461bcd60e51b8152600401610bd1906130d5565b6123a6612636565b600054610100900460ff166123fe5760405162461bcd60e51b8152600401610bd1906130d5565b6123a661265d565b6001600160a01b0382166124665760405162461bcd60e51b815260206004820152602160248201527f45524332303a206275726e2066726f6d20746865207a65726f206164647265736044820152607360f81b6064820152608401610bd1565b6001600160a01b038216600090815260336020526040902054818110156124da5760405162461bcd60e51b815260206004820152602260248201527f45524332303a206275726e20616d6f756e7420657863656564732062616c616e604482015261636560f01b6064820152608401610bd1565b6001600160a01b03831660008181526033602090815260408083208686039055603580548790039055518581529192917fddf252ad1be2c89b69c2b068fc378daa952ba7f163c4a11628f55a4df523b3ef910160405180910390a3505050565b6001600160a01b038116600090815261013760209081526040808320815180830190925280548252600101549181018290529082906301e133809061257f9042612e56565b835161258b91906130be565b6125959190612e34565b949350505050565b6125a782826117a8565b61126b576125b481612690565b6125bf8360206126a2565b6040516020016125d0929190613120565b60408051601f198184030181529082905262461bcd60e51b8252610bd191600401612986565b600054610100900460ff1661261d5760405162461bcd60e51b8152600401610bd1906130d5565b60366126298382612ee7565b5060376110098282612ee7565b600054610100900460ff166122505760405162461bcd60e51b8152600401610bd1906130d5565b600054610100900460ff166126845760405162461bcd60e51b8152600401610bd1906130d5565b60fb805460ff19169055565b606061095b6001600160a01b03831660145b606060006126b18360026130be565b6126bc906002612e21565b67ffffffffffffffff8111156126d4576126d4612ab6565b6040519080825280601f01601f1916602001820160405280156126fe576020820181803683370190505b509050600360fc1b8160008151811061271957612719612d7f565b60200101906001600160f81b031916908160001a905350600f60fb1b8160018151811061274857612748612d7f565b60200101906001600160f81b031916908160001a905350600061276c8460026130be565b612777906001612e21565b90505b60018111156127ef576f181899199a1a9b1b9c1cb0b131b232b360811b85600f16601081106127ab576127ab612d7f565b1a60f81b8282815181106127c1576127c1612d7f565b60200101906001600160f81b031916908160001a90535060049490941c936127e881613195565b905061277a565b50831561283e5760405162461bcd60e51b815260206004820181905260248201527f537472696e67733a20686578206c656e67746820696e73756666696369656e746044820152606401610bd1565b9392505050565b80356001600160a01b038116811461285c57600080fd5b919050565b6000806040838503121561287457600080fd5b61287d83612845565b915061288b60208401612845565b90509250929050565b6000602082840312156128a657600080fd5b5035919050565b60005b838110156128c85781810151838201526020016128b0565b50506000910152565b600081518084526128e98160208601602086016128ad565b601f01601f19169290920160200192915050565b6001600160a01b038816815260e060208201819052600090612921908301896128d1565b828103604084015261293381896128d1565b9150508560608301528460808301528360a083015282151560c083015298975050505050505050565b60006020828403121561296e57600080fd5b81356001600160e01b03198116811461283e57600080fd5b60208152600061283e60208301846128d1565b600080604083850312156129ac57600080fd5b6129b583612845565b946020939093013593505050565b6000602082840312156129d557600080fd5b61283e82612845565b634e487b7160e01b600052602160045260246000fd5b6020810160038310612a1657634e487b7160e01b600052602160045260246000fd5b91905290565b600080600060608486031215612a3157600080fd5b612a3a84612845565b9250612a4860208501612845565b9150604084013590509250925092565b60008060408385031215612a6b57600080fd5b612a7483612845565b9150602083013560038110612a8857600080fd5b809150509250929050565b60008060408385031215612aa657600080fd5b8235915061288b60208401612845565b634e487b7160e01b600052604160045260246000fd5b600067ffffffffffffffff80841115612ae757612ae7612ab6565b604051601f8501601f19908116603f01168101908282118183101715612b0f57612b0f612ab6565b81604052809350858152868686011115612b2857600080fd5b858560208301376000602087830101525050509392505050565b600082601f830112612b5357600080fd5b61283e83833560208501612acc565b600080600060608486031215612b7757600080fd5b612b8084612845565b9250602084013567ffffffffffffffff80821115612b9d57600080fd5b818601915086601f830112612bb157600080fd5b612bc087833560208501612acc565b93506040860135915080821115612bd657600080fd5b50612be386828701612b42565b9150509250925092565b60008060408385031215612c0057600080fd5b823567ffffffffffffffff80821115612c1857600080fd5b612c2486838701612b42565b93506020850135915080821115612c3a57600080fd5b50612c4785828601612b42565b9150509250929050565b602080825282516001600160a01b03168282015282015160e06040830152600090612c806101008401826128d1565b90506040840151601f19848303016060850152612c9d82826128d1565b91505060608401516080840152608084015160a084015260a084015160c084015260c0840151151560e08401528091505092915050565b60008060408385031215612ce757600080fd5b8235915060208301358015158114612a8857600080fd5b600181811c90821680612d1257607f821691505b602082108103612d3257634e487b7160e01b600052602260045260246000fd5b50919050565b60208082526027908201527f436f6e74726163742069732073746f707065642064756520746f20616e20656d604082015266657267656e637960c81b606082015260800190565b634e487b7160e01b600052603260045260246000fd5b6000808354612da381612cfe565b60018281168015612dbb5760018114612dd057612dff565b60ff1984168752821515830287019450612dff565b8760005260208060002060005b85811015612df65781548a820152908401908201612ddd565b50505082870194505b50929695505050505050565b634e487b7160e01b600052601160045260246000fd5b8082018082111561095b5761095b612e0b565b600082612e5157634e487b7160e01b600052601260045260246000fd5b500490565b8181038181111561095b5761095b612e0b565b60208082526016908201527521b0b63632b91034b9903737ba1030b71030b236b4b760511b604082015260600190565b601f82111561100957600081815260208120601f850160051c81016020861015612ec05750805b601f850160051c820191505b81811015612edf57828155600101612ecc565b505050505050565b815167ffffffffffffffff811115612f0157612f01612ab6565b612f1581612f0f8454612cfe565b84612e99565b602080601f831160018114612f4a5760008415612f325750858301515b600019600386901b1c1916600185901b178555612edf565b600085815260208120601f198616915b82811015612f7957888601518255948401946001909101908401612f5a565b5085821015612f975787850151600019600388901b60f8161c191681555b5050505050600190811b01905550565b6001600160a01b0383168152604060208201819052600090612595908301846128d1565b600181815b80851115613006578160001904821115612fec57612fec612e0b565b80851615612ff957918102915b93841c9390800290612fd0565b509250929050565b60008261301d5750600161095b565b8161302a5750600061095b565b8160018114613040576002811461304a57613066565b600191505061095b565b60ff84111561305b5761305b612e0b565b50506001821b61095b565b5060208310610133831016604e8410600b8410161715613089575081810a61095b565b6130938383612fcb565b80600019048211156130a7576130a7612e0b565b029392505050565b600061283e60ff84168361300e565b808202811582820484141761095b5761095b612e0b565b6020808252602b908201527f496e697469616c697a61626c653a20636f6e7472616374206973206e6f74206960408201526a6e697469616c697a696e6760a81b606082015260800190565b7f416363657373436f6e74726f6c3a206163636f756e74200000000000000000008152600083516131588160178501602088016128ad565b7001034b99036b4b9b9b4b733903937b6329607d1b60179184019182015283516131898160288401602088016128ad565b01602801949350505050565b6000816131a4576131a4612e0b565b50600019019056fea49807205ce4d355092ef5a8a18f56e8913cf4a201fbe287825b095693c21775a264697066735822122050c9c792d50656516644a756d7fee0d26c6800e9c5f0d38ab0c79e74201bd5e564736f6c63430008110033",
  "immutableReferences": {},
  "source": "// SPDX-License-Identifier: MIT\r\npragma solidity ^0.8.17;\r\n\r\nimport \"@openzeppelin/contracts-upgradeable/token/ERC20/ERC20Upgradeable.sol\";\r\nimport \"@openzeppelin/contracts-upgradeable/token/ERC20/extensions/IERC20MetadataUpgradeable.sol\";\r\nimport \"@openzeppelin/contracts-upgradeable/security/ReentrancyGuardUpgradeable.sol\";\r\nimport \"@openzeppelin/contracts-upgradeable/security/PausableUpgradeable.sol\";\r\nimport \"@openzeppelin/contracts-upgradeable/access/AccessControlUpgradeable.sol\";\r\n\r\n/**\r\n * @title CowlDaoToken\r\n * @dev This contract manages the staking, proposals, delegations, and governance levels of the token holders.\r\n */\r\ncontract CowlDaoToken is\r\n    Initializable,\r\n    ERC20Upgradeable,\r\n    AccessControlUpgradeable,\r\n    ReentrancyGuardUpgradeable,\r\n    PausableUpgradeable\r\n{\r\n    function initialize(\r\n        string memory name,\r\n        string memory symbol\r\n    ) public initializer {\r\n        __ERC20_init(name, symbol);\r\n        __AccessControl_init();\r\n        __ReentrancyGuard_init();\r\n        __Pausable_init();\r\n\r\n        daoName = name;\r\n        daoSymbol = symbol;\r\n\r\n        _mint(_msgSender(), INITIAL_SUPPLY * (10 ** decimals()));\r\n\r\n        _grantRole(ADMIN_ROLE, _msgSender());\r\n\r\n        minStakeToPropose = 100 * (10 ** decimals()); // Initial minimum stake to propose\r\n        rewardPool = 0;\r\n        _stopped = false;\r\n    }\r\n\r\n    string private daoName;\r\n    string private daoSymbol;\r\n    uint256 private INITIAL_SUPPLY = 1000000000;\r\n    uint256 public rewardPool;\r\n\r\n    bool private _stopped = false;\r\n\r\n    bytes32 public constant ADMIN_ROLE = keccak256(\"ADMIN_ROLE\");\r\n\r\n    enum GovernanceLevel {\r\n        Member,\r\n        Contributor,\r\n        Council\r\n    }\r\n\r\n    mapping(address => GovernanceLevel) public governanceLevels;\r\n\r\n    uint64 public lockPeriod = 30 days;\r\n    Proposal[] public proposals;\r\n    uint64 public proposalVotingDuration = 1 days;\r\n    uint256 public minStakeToPropose = 100 * (10 ** decimals()); // Minimum tokens to stake to be able to propose\r\n\r\n    struct StakeInfo {\r\n        uint256 amount;\r\n        uint256 timestamp;\r\n    }\r\n    mapping(address => StakeInfo) public stakers;\r\n\r\n    struct Proposal {\r\n        address contractAddress;\r\n        bytes callData;\r\n        string description;\r\n        uint256 forVotes;\r\n        uint256 againstVotes;\r\n        uint256 endTime;\r\n        bool executed;\r\n    }\r\n\r\n    mapping(address => address) public delegates;\r\n    mapping(uint256 => mapping(address => bool)) public voters;\r\n    mapping(address => address) public delegateRequests;\r\n\r\n    mapping(address => uint256) public votingPower;\r\n\r\n    event GovernanceLevelChanged(\r\n        address indexed holder,\r\n        GovernanceLevel newLevel\r\n    );\r\n    event MinStakeToProposeChanged(uint256 newMinStake);\r\n    event Staked(address indexed staker, uint256 amount);\r\n    event Unstaked(address indexed staker, uint256 amount);\r\n    event ProposalCreated(\r\n        uint256 indexed proposalId,\r\n        address proposer,\r\n        string description\r\n    );\r\n    event Voted(address indexed voter, uint256 proposalId, bool support);\r\n    event DelegateChanged(\r\n        address indexed delegator,\r\n        address indexed delegatee,\r\n        uint256 balance\r\n    );\r\n    event StateChanged(address indexed by, string change);\r\n    event ProposalFailed(uint256 indexed proposalId);\r\n    event ProposalExecuted(uint256 indexed proposalId);\r\n    event DelegateRequest(address indexed delegator, address indexed delegatee);\r\n\r\n    modifier stopInEmergency() {\r\n        require(!_stopped, \"Contract is stopped due to an emergency\");\r\n        _;\r\n    }\r\n\r\n    modifier onlyInEmergency() {\r\n        require(_stopped, \"Can only be accessed during an emergency\");\r\n        _;\r\n    }\r\n\r\n    modifier onlyAdmin() {\r\n        require(hasRole(ADMIN_ROLE, msg.sender), \"Caller is not an admin\");\r\n        _;\r\n    }\r\n\r\n    // ** Administrative Functions **\r\n    function setMinStakeToPropose(\r\n        uint256 _minStakeToPropose\r\n    ) external onlyAdmin {\r\n        minStakeToPropose = _minStakeToPropose;\r\n        emit MinStakeToProposeChanged(_minStakeToPropose);\r\n    }\r\n\r\n    function setGovernanceLevel(\r\n        address holder,\r\n        GovernanceLevel newLevel\r\n    ) external onlyAdmin {\r\n        governanceLevels[holder] = newLevel;\r\n        emit GovernanceLevelChanged(holder, newLevel);\r\n    }\r\n\r\n    function toggleCircuitBreaker() external onlyAdmin {\r\n        _stopped = !_stopped;\r\n        emit StateChanged(msg.sender, _stopped ? \"stopped\" : \"started\");\r\n    }\r\n\r\n    // ** Staking and Reward Distribution Functions **\r\n\r\n    function stake(uint256 amount) external nonReentrant stopInEmergency {\r\n        _burn(msg.sender, amount); // Remove the staked tokens from circulation\r\n        stakers[msg.sender].amount += amount;\r\n        stakers[msg.sender].timestamp = block.timestamp;\r\n\r\n        // Reward users based on stake amount and duration\r\n        uint256 reward = calculateReward(msg.sender);\r\n        _mint(msg.sender, reward); // Mint new tokens as rewards\r\n        rewardPool -= reward; // Reduce the rewardPool balance\r\n\r\n        emit Staked(msg.sender, amount);\r\n    }\r\n\r\n    function unstake(uint256 amount) external nonReentrant stopInEmergency {\r\n        require(stakers[msg.sender].amount >= amount, \"Not enough staked\");\r\n\r\n        uint256 penalty = 0;\r\n        if (block.timestamp < stakers[msg.sender].timestamp + lockPeriod) {\r\n            penalty = amount / 10; // 10% penalty if within lock period\r\n        }\r\n\r\n        uint256 amountAfterPenalty = amount - penalty;\r\n        _mint(msg.sender, amountAfterPenalty); // Return the unstaked tokens to circulation\r\n        stakers[msg.sender].amount -= amount;\r\n\r\n        emit Unstaked(msg.sender, amountAfterPenalty);\r\n    }\r\n\r\n    function calculateReward(address staker) internal view returns (uint256) {\r\n        StakeInfo memory info = stakers[staker];\r\n        uint256 reward = (info.amount * (block.timestamp - info.timestamp)) /\r\n            (365 days);\r\n        return reward;\r\n    }\r\n\r\n    // ** Proposal Creation and Execution Functions **\r\n    function propose(\r\n        address _contractAddress,\r\n        bytes memory _callData,\r\n        string memory description\r\n    ) external {\r\n        require(\r\n            stakers[msg.sender].amount >= minStakeToPropose,\r\n            \"Insuff staked amount\"\r\n        );\r\n\r\n        Proposal memory newProposal = Proposal({\r\n            contractAddress: _contractAddress,\r\n            callData: _callData,\r\n            description: description,\r\n            forVotes: 0,\r\n            againstVotes: 0,\r\n            endTime: block.timestamp + proposalVotingDuration,\r\n            executed: false\r\n        });\r\n\r\n        proposals.push(newProposal);\r\n        emit ProposalCreated(proposals.length - 1, msg.sender, description);\r\n    }\r\n\r\n    function vote(uint256 proposalId, bool support) external stopInEmergency {\r\n        require(!voters[proposalId][msg.sender], \"Already voted\");\r\n        voters[proposalId][msg.sender] = true;\r\n\r\n        Proposal storage proposal = proposals[proposalId];\r\n        require(block.timestamp < proposal.endTime, \"Voting period ended\");\r\n\r\n        uint256 weight = votingPower[msg.sender];\r\n        if (support) proposal.forVotes += weight;\r\n        else proposal.againstVotes += weight;\r\n\r\n        emit Voted(msg.sender, proposalId, support);\r\n    }\r\n\r\n    function executeProposal(uint256 proposalId) external stopInEmergency {\r\n        Proposal storage proposal = proposals[proposalId];\r\n        require(block.timestamp >= proposal.endTime, \"Voting period not over\");\r\n        require(!proposal.executed, \"Prop already exec\");\r\n        require(proposal.forVotes > proposal.againstVotes, \"Prop did not pass\");\r\n\r\n        (bool success, ) = proposal.contractAddress.call(proposal.callData);\r\n        require(success, \"Execution failed\");\r\n\r\n        proposal.executed = true;\r\n        emit ProposalExecuted(proposalId);\r\n    }\r\n\r\n    // ** Delegation and Governance Level Functions **\r\n\r\n    function delegate(address delegatee) external stopInEmergency {\r\n        require(msg.sender != delegatee, \"Cannot del to self\");\r\n        require(delegates[msg.sender] != delegatee, \"Already del to this addr\");\r\n\r\n        // Delegation logic here (updating delegatee's voting power etc.)\r\n\r\n        emit DelegateChanged(msg.sender, delegatee, balanceOf(msg.sender));\r\n    }\r\n\r\n    function delegateRequest(address delegatee) external stopInEmergency {\r\n        require(msg.sender != delegatee, \"Cannot del to self\");\r\n        delegateRequests[msg.sender] = delegatee;\r\n        emit DelegateRequest(msg.sender, delegatee);\r\n    }\r\n\r\n    function acceptDelegateRequest(address delegator) external stopInEmergency {\r\n        require(\r\n            delegateRequests[delegator] == msg.sender,\r\n            \"No del req from this addr\"\r\n        );\r\n\r\n        delegates[delegator] = msg.sender;\r\n        delete delegateRequests[delegator];\r\n\r\n        emit DelegateChanged(delegator, msg.sender, balanceOf(delegator));\r\n    }\r\n\r\n    function getProposal(\r\n        uint256 proposalId\r\n    ) external view returns (Proposal memory) {\r\n        return proposals[proposalId];\r\n    }\r\n\r\n    function totalProposals() external view returns (uint256) {\r\n        return proposals.length;\r\n    }\r\n\r\n    function isDelegatee(\r\n        address delegator,\r\n        address delegatee\r\n    ) external view returns (bool) {\r\n        return delegates[delegator] == delegatee;\r\n    }\r\n\r\n    receive() external payable {}\r\n}\r\n",
  "sourcePath": "D:\\DevTools\\flkm-project\\contracts\\DAOCore\\CowlDaoToken.sol",
  "compiler": {
    "name": "solc",
    "version": "0.8.17+commit.8df45f5f.Emscripten.clang"
  },
  "schemaVersion": "3.4.16",
  "updatedAt": "2023-10-31T03:12:03.779Z",
  "networkType": "ethereum",
  "devdoc": {
    "details": "This contract manages the staking, proposals, delegations, and governance levels of the token holders.",
    "kind": "dev",
    "methods": {
      "allowance(address,address)": {
        "details": "See {IERC20-allowance}."
      },
      "approve(address,uint256)": {
        "details": "See {IERC20-approve}. NOTE: If `amount` is the maximum `uint256`, the allowance is not updated on `transferFrom`. This is semantically equivalent to an infinite approval. Requirements: - `spender` cannot be the zero address."
      },
      "balanceOf(address)": {
        "details": "See {IERC20-balanceOf}."
      },
      "decimals()": {
        "details": "Returns the number of decimals used to get its user representation. For example, if `decimals` equals `2`, a balance of `505` tokens should be displayed to a user as `5.05` (`505 / 10 ** 2`). Tokens usually opt for a value of 18, imitating the relationship between Ether and Wei. This is the default value returned by this function, unless it's overridden. NOTE: This information is only used for _display_ purposes: it in no way affects any of the arithmetic of the contract, including {IERC20-balanceOf} and {IERC20-transfer}."
      },
      "decreaseAllowance(address,uint256)": {
        "details": "Atomically decreases the allowance granted to `spender` by the caller. This is an alternative to {approve} that can be used as a mitigation for problems described in {IERC20-approve}. Emits an {Approval} event indicating the updated allowance. Requirements: - `spender` cannot be the zero address. - `spender` must have allowance for the caller of at least `subtractedValue`."
      },
      "getRoleAdmin(bytes32)": {
        "details": "Returns the admin role that controls `role`. See {grantRole} and {revokeRole}. To change a role's admin, use {_setRoleAdmin}."
      },
      "grantRole(bytes32,address)": {
        "details": "Grants `role` to `account`. If `account` had not been already granted `role`, emits a {RoleGranted} event. Requirements: - the caller must have ``role``'s admin role. May emit a {RoleGranted} event."
      },
      "hasRole(bytes32,address)": {
        "details": "Returns `true` if `account` has been granted `role`."
      },
      "increaseAllowance(address,uint256)": {
        "details": "Atomically increases the allowance granted to `spender` by the caller. This is an alternative to {approve} that can be used as a mitigation for problems described in {IERC20-approve}. Emits an {Approval} event indicating the updated allowance. Requirements: - `spender` cannot be the zero address."
      },
      "name()": {
        "details": "Returns the name of the token."
      },
      "paused()": {
        "details": "Returns true if the contract is paused, and false otherwise."
      },
      "renounceRole(bytes32,address)": {
        "details": "Revokes `role` from the calling account. Roles are often managed via {grantRole} and {revokeRole}: this function's purpose is to provide a mechanism for accounts to lose their privileges if they are compromised (such as when a trusted device is misplaced). If the calling account had been revoked `role`, emits a {RoleRevoked} event. Requirements: - the caller must be `account`. May emit a {RoleRevoked} event."
      },
      "revokeRole(bytes32,address)": {
        "details": "Revokes `role` from `account`. If `account` had been granted `role`, emits a {RoleRevoked} event. Requirements: - the caller must have ``role``'s admin role. May emit a {RoleRevoked} event."
      },
      "supportsInterface(bytes4)": {
        "details": "See {IERC165-supportsInterface}."
      },
      "symbol()": {
        "details": "Returns the symbol of the token, usually a shorter version of the name."
      },
      "totalSupply()": {
        "details": "See {IERC20-totalSupply}."
      },
      "transfer(address,uint256)": {
        "details": "See {IERC20-transfer}. Requirements: - `to` cannot be the zero address. - the caller must have a balance of at least `amount`."
      },
      "transferFrom(address,address,uint256)": {
        "details": "See {IERC20-transferFrom}. Emits an {Approval} event indicating the updated allowance. This is not required by the EIP. See the note at the beginning of {ERC20}. NOTE: Does not update the allowance if the current allowance is the maximum `uint256`. Requirements: - `from` and `to` cannot be the zero address. - `from` must have a balance of at least `amount`. - the caller must have allowance for ``from``'s tokens of at least `amount`."
      }
    },
    "title": "CowlDaoToken",
    "version": 1
  },
  "userdoc": {
    "kind": "user",
    "methods": {},
    "version": 1
  }
}