{
  "contractName": "CowlMarketplaceBase",
  "abi": [
    {
      "anonymous": false,
      "inputs": [
        {
          "indexed": true,
          "internalType": "address",
          "name": "sender",
          "type": "address"
        },
        {
          "indexed": false,
          "internalType": "uint256",
          "name": "amount",
          "type": "uint256"
        }
      ],
      "name": "FundsReceived",
      "type": "event"
    },
    {
      "anonymous": false,
      "inputs": [
        {
          "indexed": false,
          "internalType": "uint8",
          "name": "version",
          "type": "uint8"
        }
      ],
      "name": "Initialized",
      "type": "event"
    },
    {
      "anonymous": false,
      "inputs": [
        {
          "indexed": true,
          "internalType": "uint256",
          "name": "resourceID",
          "type": "uint256"
        },
        {
          "indexed": true,
          "internalType": "address",
          "name": "user",
          "type": "address"
        }
      ],
      "name": "ResourceAccessed",
      "type": "event"
    },
    {
      "anonymous": false,
      "inputs": [
        {
          "indexed": true,
          "internalType": "uint256",
          "name": "resourceID",
          "type": "uint256"
        },
        {
          "indexed": true,
          "internalType": "address",
          "name": "creator",
          "type": "address"
        },
        {
          "indexed": false,
          "internalType": "string",
          "name": "title",
          "type": "string"
        },
        {
          "indexed": false,
          "internalType": "string",
          "name": "description",
          "type": "string"
        }
      ],
      "name": "ResourceUploaded",
      "type": "event"
    },
    {
      "anonymous": false,
      "inputs": [
        {
          "indexed": true,
          "internalType": "bytes32",
          "name": "role",
          "type": "bytes32"
        },
        {
          "indexed": true,
          "internalType": "bytes32",
          "name": "previousAdminRole",
          "type": "bytes32"
        },
        {
          "indexed": true,
          "internalType": "bytes32",
          "name": "newAdminRole",
          "type": "bytes32"
        }
      ],
      "name": "RoleAdminChanged",
      "type": "event"
    },
    {
      "anonymous": false,
      "inputs": [
        {
          "indexed": true,
          "internalType": "bytes32",
          "name": "role",
          "type": "bytes32"
        },
        {
          "indexed": true,
          "internalType": "address",
          "name": "account",
          "type": "address"
        },
        {
          "indexed": true,
          "internalType": "address",
          "name": "sender",
          "type": "address"
        }
      ],
      "name": "RoleGranted",
      "type": "event"
    },
    {
      "anonymous": false,
      "inputs": [
        {
          "indexed": true,
          "internalType": "bytes32",
          "name": "role",
          "type": "bytes32"
        },
        {
          "indexed": true,
          "internalType": "address",
          "name": "account",
          "type": "address"
        },
        {
          "indexed": true,
          "internalType": "address",
          "name": "sender",
          "type": "address"
        }
      ],
      "name": "RoleRevoked",
      "type": "event"
    },
    {
      "anonymous": false,
      "inputs": [
        {
          "indexed": true,
          "internalType": "uint256",
          "name": "voteID",
          "type": "uint256"
        },
        {
          "indexed": true,
          "internalType": "address",
          "name": "nominated",
          "type": "address"
        },
        {
          "indexed": false,
          "internalType": "enum CowlMarketplaceBase.ReputationLevel",
          "name": "proposedLevel",
          "type": "uint8"
        }
      ],
      "name": "VoteStarted",
      "type": "event"
    },
    {
      "anonymous": false,
      "inputs": [
        {
          "indexed": true,
          "internalType": "uint256",
          "name": "voteID",
          "type": "uint256"
        },
        {
          "indexed": true,
          "internalType": "address",
          "name": "voter",
          "type": "address"
        },
        {
          "indexed": false,
          "internalType": "bool",
          "name": "support",
          "type": "bool"
        }
      ],
      "name": "Voted",
      "type": "event"
    },
    {
      "inputs": [],
      "name": "ADMIN_ROLE",
      "outputs": [
        {
          "internalType": "bytes32",
          "name": "",
          "type": "bytes32"
        }
      ],
      "stateMutability": "view",
      "type": "function",
      "constant": true
    },
    {
      "inputs": [],
      "name": "DEFAULT_ADMIN_ROLE",
      "outputs": [
        {
          "internalType": "bytes32",
          "name": "",
          "type": "bytes32"
        }
      ],
      "stateMutability": "view",
      "type": "function",
      "constant": true
    },
    {
      "inputs": [],
      "name": "contractName",
      "outputs": [
        {
          "internalType": "string",
          "name": "",
          "type": "string"
        }
      ],
      "stateMutability": "view",
      "type": "function",
      "constant": true
    },
    {
      "inputs": [],
      "name": "cowlToken",
      "outputs": [
        {
          "internalType": "contract IERC20Upgradeable",
          "name": "",
          "type": "address"
        }
      ],
      "stateMutability": "view",
      "type": "function",
      "constant": true
    },
    {
      "inputs": [],
      "name": "decayDuration",
      "outputs": [
        {
          "internalType": "uint256",
          "name": "",
          "type": "uint256"
        }
      ],
      "stateMutability": "view",
      "type": "function",
      "constant": true
    },
    {
      "inputs": [
        {
          "internalType": "bytes32",
          "name": "role",
          "type": "bytes32"
        }
      ],
      "name": "getRoleAdmin",
      "outputs": [
        {
          "internalType": "bytes32",
          "name": "",
          "type": "bytes32"
        }
      ],
      "stateMutability": "view",
      "type": "function",
      "constant": true
    },
    {
      "inputs": [
        {
          "internalType": "bytes32",
          "name": "role",
          "type": "bytes32"
        },
        {
          "internalType": "address",
          "name": "account",
          "type": "address"
        }
      ],
      "name": "grantRole",
      "outputs": [],
      "stateMutability": "nonpayable",
      "type": "function"
    },
    {
      "inputs": [
        {
          "internalType": "bytes32",
          "name": "role",
          "type": "bytes32"
        },
        {
          "internalType": "address",
          "name": "account",
          "type": "address"
        }
      ],
      "name": "hasRole",
      "outputs": [
        {
          "internalType": "bool",
          "name": "",
          "type": "bool"
        }
      ],
      "stateMutability": "view",
      "type": "function",
      "constant": true
    },
    {
      "inputs": [],
      "name": "initialBlock",
      "outputs": [
        {
          "internalType": "uint256",
          "name": "",
          "type": "uint256"
        }
      ],
      "stateMutability": "view",
      "type": "function",
      "constant": true
    },
    {
      "inputs": [],
      "name": "initialRewardRate",
      "outputs": [
        {
          "internalType": "uint256",
          "name": "",
          "type": "uint256"
        }
      ],
      "stateMutability": "view",
      "type": "function",
      "constant": true
    },
    {
      "inputs": [
        {
          "internalType": "uint256",
          "name": "",
          "type": "uint256"
        }
      ],
      "name": "knowledgeResources",
      "outputs": [
        {
          "internalType": "address",
          "name": "creator",
          "type": "address"
        },
        {
          "internalType": "string",
          "name": "title",
          "type": "string"
        },
        {
          "internalType": "string",
          "name": "description",
          "type": "string"
        },
        {
          "internalType": "uint256",
          "name": "demand",
          "type": "uint256"
        },
        {
          "internalType": "bool",
          "name": "exists",
          "type": "bool"
        }
      ],
      "stateMutability": "view",
      "type": "function",
      "constant": true
    },
    {
      "inputs": [],
      "name": "nextResourceID",
      "outputs": [
        {
          "internalType": "uint256",
          "name": "",
          "type": "uint256"
        }
      ],
      "stateMutability": "view",
      "type": "function",
      "constant": true
    },
    {
      "inputs": [],
      "name": "nextVoteID",
      "outputs": [
        {
          "internalType": "uint256",
          "name": "",
          "type": "uint256"
        }
      ],
      "stateMutability": "view",
      "type": "function",
      "constant": true
    },
    {
      "inputs": [
        {
          "internalType": "bytes32",
          "name": "role",
          "type": "bytes32"
        },
        {
          "internalType": "address",
          "name": "account",
          "type": "address"
        }
      ],
      "name": "renounceRole",
      "outputs": [],
      "stateMutability": "nonpayable",
      "type": "function"
    },
    {
      "inputs": [
        {
          "internalType": "enum CowlMarketplaceBase.ReputationLevel",
          "name": "",
          "type": "uint8"
        }
      ],
      "name": "reputationBonusValues",
      "outputs": [
        {
          "internalType": "uint256",
          "name": "",
          "type": "uint256"
        }
      ],
      "stateMutability": "view",
      "type": "function",
      "constant": true
    },
    {
      "inputs": [
        {
          "internalType": "bytes32",
          "name": "role",
          "type": "bytes32"
        },
        {
          "internalType": "address",
          "name": "account",
          "type": "address"
        }
      ],
      "name": "revokeRole",
      "outputs": [],
      "stateMutability": "nonpayable",
      "type": "function"
    },
    {
      "inputs": [
        {
          "internalType": "bytes4",
          "name": "interfaceId",
          "type": "bytes4"
        }
      ],
      "name": "supportsInterface",
      "outputs": [
        {
          "internalType": "bool",
          "name": "",
          "type": "bool"
        }
      ],
      "stateMutability": "view",
      "type": "function",
      "constant": true
    },
    {
      "inputs": [
        {
          "internalType": "address",
          "name": "",
          "type": "address"
        }
      ],
      "name": "userReputation",
      "outputs": [
        {
          "internalType": "enum CowlMarketplaceBase.ReputationLevel",
          "name": "",
          "type": "uint8"
        }
      ],
      "stateMutability": "view",
      "type": "function",
      "constant": true
    },
    {
      "inputs": [
        {
          "internalType": "address",
          "name": "",
          "type": "address"
        }
      ],
      "name": "userResourceCount",
      "outputs": [
        {
          "internalType": "uint256",
          "name": "",
          "type": "uint256"
        }
      ],
      "stateMutability": "view",
      "type": "function",
      "constant": true
    },
    {
      "inputs": [
        {
          "internalType": "address",
          "name": "",
          "type": "address"
        }
      ],
      "name": "userTotalDemand",
      "outputs": [
        {
          "internalType": "uint256",
          "name": "",
          "type": "uint256"
        }
      ],
      "stateMutability": "view",
      "type": "function",
      "constant": true
    },
    {
      "inputs": [
        {
          "internalType": "uint256",
          "name": "",
          "type": "uint256"
        },
        {
          "internalType": "address",
          "name": "",
          "type": "address"
        }
      ],
      "name": "voteTrackers",
      "outputs": [
        {
          "internalType": "bool",
          "name": "",
          "type": "bool"
        }
      ],
      "stateMutability": "view",
      "type": "function",
      "constant": true
    },
    {
      "inputs": [
        {
          "internalType": "uint256",
          "name": "",
          "type": "uint256"
        }
      ],
      "name": "votes",
      "outputs": [
        {
          "internalType": "address",
          "name": "nominated",
          "type": "address"
        },
        {
          "internalType": "enum CowlMarketplaceBase.ReputationLevel",
          "name": "proposedLevel",
          "type": "uint8"
        },
        {
          "internalType": "uint256",
          "name": "forVotes",
          "type": "uint256"
        },
        {
          "internalType": "uint256",
          "name": "againstVotes",
          "type": "uint256"
        }
      ],
      "stateMutability": "view",
      "type": "function",
      "constant": true
    },
    {
      "stateMutability": "payable",
      "type": "receive",
      "payable": true
    },
    {
      "inputs": [
        {
          "internalType": "string",
          "name": "_contractName",
          "type": "string"
        },
        {
          "internalType": "address",
          "name": "_cowlTokenAddress",
          "type": "address"
        }
      ],
      "name": "initialize",
      "outputs": [],
      "stateMutability": "nonpayable",
      "type": "function"
    },
    {
      "inputs": [
        {
          "internalType": "string",
          "name": "_title",
          "type": "string"
        },
        {
          "internalType": "string",
          "name": "_description",
          "type": "string"
        }
      ],
      "name": "uploadResource",
      "outputs": [],
      "stateMutability": "nonpayable",
      "type": "function"
    },
    {
      "inputs": [
        {
          "internalType": "uint256",
          "name": "_resourceID",
          "type": "uint256"
        }
      ],
      "name": "accessResource",
      "outputs": [],
      "stateMutability": "nonpayable",
      "type": "function"
    },
    {
      "inputs": [
        {
          "internalType": "address",
          "name": "_user",
          "type": "address"
        },
        {
          "internalType": "enum CowlMarketplaceBase.ReputationLevel",
          "name": "_newLevel",
          "type": "uint8"
        }
      ],
      "name": "updateUserReputation",
      "outputs": [],
      "stateMutability": "nonpayable",
      "type": "function"
    },
    {
      "inputs": [
        {
          "internalType": "enum CowlMarketplaceBase.ReputationLevel",
          "name": "_level",
          "type": "uint8"
        },
        {
          "internalType": "uint256",
          "name": "_value",
          "type": "uint256"
        }
      ],
      "name": "updateReputationBonusValue",
      "outputs": [],
      "stateMutability": "nonpayable",
      "type": "function"
    },
    {
      "inputs": [
        {
          "internalType": "address",
          "name": "_user",
          "type": "address"
        },
        {
          "internalType": "enum CowlMarketplaceBase.ReputationLevel",
          "name": "_proposedLevel",
          "type": "uint8"
        }
      ],
      "name": "startVote",
      "outputs": [],
      "stateMutability": "nonpayable",
      "type": "function"
    },
    {
      "inputs": [
        {
          "internalType": "uint256",
          "name": "_voteID",
          "type": "uint256"
        },
        {
          "internalType": "bool",
          "name": "_support",
          "type": "bool"
        }
      ],
      "name": "castVote",
      "outputs": [],
      "stateMutability": "nonpayable",
      "type": "function"
    },
    {
      "inputs": [
        {
          "internalType": "uint256",
          "name": "_voteID",
          "type": "uint256"
        }
      ],
      "name": "endVote",
      "outputs": [],
      "stateMutability": "nonpayable",
      "type": "function"
    },
    {
      "inputs": [
        {
          "internalType": "uint256",
          "name": "_initialRewardRate",
          "type": "uint256"
        }
      ],
      "name": "setInitialRewardRate",
      "outputs": [],
      "stateMutability": "nonpayable",
      "type": "function"
    },
    {
      "inputs": [
        {
          "internalType": "uint256",
          "name": "_decayDuration",
          "type": "uint256"
        }
      ],
      "name": "setDecayDuration",
      "outputs": [],
      "stateMutability": "nonpayable",
      "type": "function"
    },
    {
      "inputs": [],
      "name": "getCurrentRewardRate",
      "outputs": [
        {
          "internalType": "uint256",
          "name": "",
          "type": "uint256"
        }
      ],
      "stateMutability": "view",
      "type": "function",
      "constant": true
    },
    {
      "inputs": [
        {
          "internalType": "string",
          "name": "_newName",
          "type": "string"
        }
      ],
      "name": "updateContractName",
      "outputs": [],
      "stateMutability": "nonpayable",
      "type": "function"
    }
  ],
  "bytecode": "0x6080604052600160d255600160d65534801561001a57600080fd5b5061207e8061002a6000396000f3fe6080604052600436106101fd5760003560e01c80638bc385ab1161010d578063be7fded0116100a0578063d74458d31161006f578063d74458d31461066e578063e503bb05146106a6578063e6a4a8b5146106e3578063eaa940e7146106f8578063f67af2da1461071857600080fd5b8063be7fded0146105e1578063c5b9f65514610601578063ce50ac761461062e578063d547741f1461064e57600080fd5b8063a217fddf116100dc578063a217fddf14610580578063ab2f963114610595578063b834c35f146105ab578063ba35736e146105cb57600080fd5b80638bc385ab146104ef5780638bf7f7511461050f57806391d14854146105405780639d19612c1461056057600080fd5b806337abbb141161019057806375b238fc1161015f57806375b238fc1461043e57806375d0c0dc14610460578063761553d8146104825780637ab4339d146104af578063865df0ad146104cf57600080fd5b806337abbb1414610384578063497cdb52146103b15780635971aa21146103c75780635df81330146103dd57600080fd5b80632cb15864116101cc5780632cb15864146102f35780632f2ff15d14610309578063308aa9841461032957806336568abe1461036457600080fd5b806301ffc9a71461023e5780630b65b1971461027357806315373e3d14610295578063248a9ca3146102b557600080fd5b366102395760405134815233907f8e47b87b0ef542cdfa1659c551d88bad38aa7f452d2bbb349ab7530dfec8be8f9060200160405180910390a2005b600080fd5b34801561024a57600080fd5b5061025e6102593660046118e2565b610738565b60405190151581526020015b60405180910390f35b34801561027f57600080fd5b5061029361028e36600461190c565b61076f565b005b3480156102a157600080fd5b506102936102b0366004611933565b610903565b3480156102c157600080fd5b506102e56102d036600461190c565b60009081526065602052604090206001015490565b60405190815260200161026a565b3480156102ff57600080fd5b506102e560cd5481565b34801561031557600080fd5b5061029361032436600461197f565b610a17565b34801561033557600080fd5b5061025e61034436600461197f565b60d160209081526000928352604080842090915290825290205460ff1681565b34801561037057600080fd5b5061029361037f36600461197f565b610a41565b34801561039057600080fd5b506102e561039f3660046119ab565b60d36020526000908152604090205481565b3480156103bd57600080fd5b506102e560d65481565b3480156103d357600080fd5b506102e560cb5481565b3480156103e957600080fd5b5061042e6103f836600461190c565b60d0602052600090815260409020805460018201546002909201546001600160a01b03821692600160a01b90920460ff16919084565b60405161026a94939291906119fe565b34801561044a57600080fd5b506102e560008051602061202983398151915281565b34801561046c57600080fd5b50610475610abf565b60405161026a9190611a7d565b34801561048e57600080fd5b506102e561049d366004611a9f565b60cf6020526000908152604090205481565b3480156104bb57600080fd5b506102936104ca366004611b5d565b610b4d565b3480156104db57600080fd5b506102936104ea36600461190c565b610ca7565b3480156104fb57600080fd5b5061029361050a36600461190c565b610d7b565b34801561051b57600080fd5b5061052f61052a36600461190c565b610d99565b60405161026a959493929190611ba2565b34801561054c57600080fd5b5061025e61055b36600461197f565b610ee6565b34801561056c57600080fd5b5061029361057b366004611bf2565b610f11565b34801561058c57600080fd5b506102e5600081565b3480156105a157600080fd5b506102e560d25481565b3480156105b757600080fd5b506102936105c6366004611bf2565b610f83565b3480156105d757600080fd5b506102e560cc5481565b3480156105ed57600080fd5b506102936105fc366004611c1c565b611090565b34801561060d57600080fd5b506102e561061c3660046119ab565b60d46020526000908152604090205481565b34801561063a57600080fd5b50610293610649366004611c80565b611265565b34801561065a57600080fd5b5061029361066936600461197f565b6112a5565b34801561067a57600080fd5b5060ca5461068e906001600160a01b031681565b6040516001600160a01b03909116815260200161026a565b3480156106b257600080fd5b506106d66106c13660046119ab565b60ce6020526000908152604090205460ff1681565b60405161026a9190611cbd565b3480156106ef57600080fd5b506102e56112ca565b34801561070457600080fd5b50610293610713366004611ccb565b61131f565b34801561072457600080fd5b5061029361073336600461190c565b611390565b60006001600160e01b03198216637965db0b60e01b148061076957506301ffc9a760e01b6001600160e01b03198316145b92915050565b6107776113b2565b600081815260d5602052604090206004015460ff166107d75760405162461bcd60e51b815260206004820152601760248201527614995cdbdd5c98d948191bd95cc81b9bdd08195e1a5cdd604a1b60448201526064015b60405180910390fd5b600081815260d5602052604081206003018054916107f483611d0b565b9091555050600081815260d560209081526040808320546001600160a01b0316835260d4909152812080549161082983611d0b565b919050555060006108398261140b565b60ca54600084815260d56020526040908190205490516323b872dd60e01b81523360048201526001600160a01b0391821660248201526044810184905292935016906323b872dd906064016020604051808303816000875af11580156108a3573d6000803e3d6000fd5b505050506040513d601f19601f820116820180604052508101906108c79190611d24565b50604051339083907fa48552a4d862bbb7f9ef438c0890cdeaa7b3724013681e811d96040804ae7b9690600090a3506109006001609755565b50565b600082815260d16020908152604080832033845290915290205460ff16156109665760405162461bcd60e51b8152602060048201526016602482015275155cd95c881a185cc8185b1c9958591e481d9bdd195960521b60448201526064016107ce565b600082815260d1602090815260408083203384529091529020805460ff1916600117905580156109b757600082815260d0602052604081206001018054916109ad83611d0b565b91905055506109da565b600082815260d0602052604081206002018054916109d483611d0b565b91905055505b6040518115158152339083907ff2913dbe661ee2acc4a046d8fbcdc792373bda34c41c6086484b5345e5785e5f9060200160405180910390a35050565b600082815260656020526040902060010154610a328161155e565b610a3c8383611568565b505050565b6001600160a01b0381163314610ab15760405162461bcd60e51b815260206004820152602f60248201527f416363657373436f6e74726f6c3a2063616e206f6e6c792072656e6f756e636560448201526e103937b632b9903337b91039b2b63360891b60648201526084016107ce565b610abb82826115ee565b5050565b60c98054610acc90611d41565b80601f0160208091040260200160405190810160405280929190818152602001828054610af890611d41565b8015610b455780601f10610b1a57610100808354040283529160200191610b45565b820191906000526020600020905b815481529060010190602001808311610b2857829003601f168201915b505050505081565b600054610100900460ff1615808015610b6d5750600054600160ff909116105b80610b875750303b158015610b87575060005460ff166001145b610bea5760405162461bcd60e51b815260206004820152602e60248201527f496e697469616c697a61626c653a20636f6e747261637420697320616c72656160448201526d191e481a5b9a5d1a585b1a5e995960921b60648201526084016107ce565b6000805460ff191660011790558015610c0d576000805461ff0019166101001790555b610c15611655565b610c1d61167e565b610c3560008051602061202983398151915233611568565b60c9610c418482611dc9565b5060ca80546001600160a01b0319166001600160a01b0384161790558015610a3c576000805461ff0019169055604051600181527f7f26b83ff96e1f2b6a682f133852f6798a09c465da95921460cefb38474024989060200160405180910390a1505050565b600081815260d060205260409020600281015460019091015411610d015760405162461bcd60e51b8152602060048201526011602482015270566f746520646964206e6f74207061737360781b60448201526064016107ce565b600081815260d060209081526040808320546001600160a01b038116845260ce9092529091208054600160a01b90920460ff169160ff19166001836005811115610d4d57610d4d6119c6565b0217905550600090815260d06020526040812080546001600160a81b03191681556001810182905560020155565b600080516020612029833981519152610d938161155e565b5060cc55565b60d560205260009081526040902080546001820180546001600160a01b039092169291610dc590611d41565b80601f0160208091040260200160405190810160405280929190818152602001828054610df190611d41565b8015610e3e5780601f10610e1357610100808354040283529160200191610e3e565b820191906000526020600020905b815481529060010190602001808311610e2157829003601f168201915b505050505090806002018054610e5390611d41565b80601f0160208091040260200160405190810160405280929190818152602001828054610e7f90611d41565b8015610ecc5780601f10610ea157610100808354040283529160200191610ecc565b820191906000526020600020905b815481529060010190602001808311610eaf57829003601f168201915b50505050600383015460049093015491929160ff16905085565b60009182526065602090815260408084206001600160a01b0393909316845291905290205460ff1690565b610f2960008051602061202983398151915233610ee6565b610f455760405162461bcd60e51b81526004016107ce90611e89565b6001600160a01b038216600090815260ce60205260409020805482919060ff19166001836005811115610f7a57610f7a6119c6565b02179055505050565b6040518060800160405280836001600160a01b03168152602001826005811115610faf57610faf6119c6565b815260006020808301829052604092830182905260d254825260d08152919020825181546001600160a01b039091166001600160a01b031982168117835592840151919283916001600160a81b03191617600160a01b836005811115611017576110176119c6565b02179055506040820151816001015560608201518160020155905050816001600160a01b031660d2547fa2d9d0ea13e30db6b8479ed86049656a47629757188f46aa4d4113b2fdd339d18360405161106f9190611cbd565b60405180910390a360d2805490600061108783611d0b565b91905055505050565b60ca546040516370a0823160e01b81523360048201526064916001600160a01b0316906370a0823190602401602060405180830381865afa1580156110d9573d6000803e3d6000fd5b505050506040513d601f19601f820116820180604052508101906110fd9190611eb7565b101561114b5760405162461bcd60e51b815260206004820152601860248201527f496e73756666696369656e7420636f776c20746f6b656e73000000000000000060448201526064016107ce565b6040805160a081018252338152602080820185815282840185905260006060840181905260016080850181905260d654825260d590935293909320825181546001600160a01b0319166001600160a01b039091161781559251919291908201906111b59082611dc9565b50604082015160028201906111ca9082611dc9565b50606082015160038201556080909101516004909101805460ff191691151591909117905533600090815260d36020526040812080549161120a83611d0b565b9190505550336001600160a01b031660d6547f53a3bf44f6dd10809a519c5b6cf57fc4857dc74d8ad7fd8c0f688248fc6d46dc848460405161124d929190611ed0565b60405180910390a360d6805490600061108783611d0b565b61127d60008051602061202983398151915233610ee6565b6112995760405162461bcd60e51b81526004016107ce90611e89565b60c9610abb8282611dc9565b6000828152606560205260409020600101546112c08161155e565b610a3c83836115ee565b600060cc5460cd54436112dd9190611efe565b11156112e95750600090565b60cc5460cd546112f94383611efe565b6113039190611efe565b60cb546113109190611f11565b61131a9190611f11565b905090565b61133760008051602061202983398151915233610ee6565b6113535760405162461bcd60e51b81526004016107ce90611e89565b8060cf600084600581111561136a5761136a6119c6565b600581111561137b5761137b6119c6565b81526020810191909152604001600020555050565b6000805160206120298339815191526113a88161155e565b5060cb554360cd55565b6002609754036114045760405162461bcd60e51b815260206004820152601f60248201527f5265656e7472616e637947756172643a207265656e7472616e742063616c6c0060448201526064016107ce565b6002609755565b600081815260d5602052604081206004015460ff166114665760405162461bcd60e51b815260206004820152601760248201527614995cdbdd5c98d948191bd95cc81b9bdd08195e1a5cdd604a1b60448201526064016107ce565b600082815260d5602090815260408083206003015433845260ce90925282205490919060cf90829060ff1660058111156114a2576114a26119c6565b60058111156114b3576114b36119c6565b81526020019081526020016000205490506000600a836114d39190611f11565b6114df906103e8611efe565b33600090815260d4602090815260408083205460d3909252822054929350909161150b90600590611f11565b6115159190611f28565b9050600081836115258688611f28565b61152f9190611f28565b6115399190611f28565b9050600a8110611549578061154c565b600a5b979650505050505050565b6001609755565b61090081336116ad565b6115728282610ee6565b610abb5760008281526065602090815260408083206001600160a01b03851684529091529020805460ff191660011790556115aa3390565b6001600160a01b0316816001600160a01b0316837f2f8788117e7eff1d82e926ec794901d17c78024a50270940304540a733656f0d60405160405180910390a45050565b6115f88282610ee6565b15610abb5760008281526065602090815260408083206001600160a01b0385168085529252808320805460ff1916905551339285917ff6391f5c32d9c69d2a47ea670b442974b53935d1edc7fd64eb21e047a839171b9190a45050565b600054610100900460ff1661167c5760405162461bcd60e51b81526004016107ce90611f3b565b565b600054610100900460ff166116a55760405162461bcd60e51b81526004016107ce90611f3b565b61167c611706565b6116b78282610ee6565b610abb576116c48161172d565b6116cf83602061173f565b6040516020016116e0929190611f86565b60408051601f198184030181529082905262461bcd60e51b82526107ce91600401611a7d565b600054610100900460ff166115575760405162461bcd60e51b81526004016107ce90611f3b565b60606107696001600160a01b03831660145b6060600061174e836002611f11565b611759906002611f28565b67ffffffffffffffff81111561177157611771611aba565b6040519080825280601f01601f19166020018201604052801561179b576020820181803683370190505b509050600360fc1b816000815181106117b6576117b6611ffb565b60200101906001600160f81b031916908160001a905350600f60fb1b816001815181106117e5576117e5611ffb565b60200101906001600160f81b031916908160001a9053506000611809846002611f11565b611814906001611f28565b90505b600181111561188c576f181899199a1a9b1b9c1cb0b131b232b360811b85600f166010811061184857611848611ffb565b1a60f81b82828151811061185e5761185e611ffb565b60200101906001600160f81b031916908160001a90535060049490941c9361188581612011565b9050611817565b5083156118db5760405162461bcd60e51b815260206004820181905260248201527f537472696e67733a20686578206c656e67746820696e73756666696369656e7460448201526064016107ce565b9392505050565b6000602082840312156118f457600080fd5b81356001600160e01b0319811681146118db57600080fd5b60006020828403121561191e57600080fd5b5035919050565b801515811461090057600080fd5b6000806040838503121561194657600080fd5b82359150602083013561195881611925565b809150509250929050565b80356001600160a01b038116811461197a57600080fd5b919050565b6000806040838503121561199257600080fd5b823591506119a260208401611963565b90509250929050565b6000602082840312156119bd57600080fd5b6118db82611963565b634e487b7160e01b600052602160045260246000fd5b600681106119fa57634e487b7160e01b600052602160045260246000fd5b9052565b6001600160a01b038516815260808101611a1b60208301866119dc565b60408201939093526060015292915050565b60005b83811015611a48578181015183820152602001611a30565b50506000910152565b60008151808452611a69816020860160208601611a2d565b601f01601f19169290920160200192915050565b6020815260006118db6020830184611a51565b80356006811061197a57600080fd5b600060208284031215611ab157600080fd5b6118db82611a90565b634e487b7160e01b600052604160045260246000fd5b600082601f830112611ae157600080fd5b813567ffffffffffffffff80821115611afc57611afc611aba565b604051601f8301601f19908116603f01168101908282118183101715611b2457611b24611aba565b81604052838152866020858801011115611b3d57600080fd5b836020870160208301376000602085830101528094505050505092915050565b60008060408385031215611b7057600080fd5b823567ffffffffffffffff811115611b8757600080fd5b611b9385828601611ad0565b9250506119a260208401611963565b6001600160a01b038616815260a060208201819052600090611bc690830187611a51565b8281036040840152611bd88187611a51565b606084019590955250509015156080909101529392505050565b60008060408385031215611c0557600080fd5b611c0e83611963565b91506119a260208401611a90565b60008060408385031215611c2f57600080fd5b823567ffffffffffffffff80821115611c4757600080fd5b611c5386838701611ad0565b93506020850135915080821115611c6957600080fd5b50611c7685828601611ad0565b9150509250929050565b600060208284031215611c9257600080fd5b813567ffffffffffffffff811115611ca957600080fd5b611cb584828501611ad0565b949350505050565b6020810161076982846119dc565b60008060408385031215611cde57600080fd5b611ce783611a90565b946020939093013593505050565b634e487b7160e01b600052601160045260246000fd5b600060018201611d1d57611d1d611cf5565b5060010190565b600060208284031215611d3657600080fd5b81516118db81611925565b600181811c90821680611d5557607f821691505b602082108103611d7557634e487b7160e01b600052602260045260246000fd5b50919050565b601f821115610a3c57600081815260208120601f850160051c81016020861015611da25750805b601f850160051c820191505b81811015611dc157828155600101611dae565b505050505050565b815167ffffffffffffffff811115611de357611de3611aba565b611df781611df18454611d41565b84611d7b565b602080601f831160018114611e2c5760008415611e145750858301515b600019600386901b1c1916600185901b178555611dc1565b600085815260208120601f198616915b82811015611e5b57888601518255948401946001909101908401611e3c565b5085821015611e795787850151600019600388901b60f8161c191681555b5050505050600190811b01905550565b6020808252601490820152734d75737420686176652061646d696e20726f6c6560601b604082015260600190565b600060208284031215611ec957600080fd5b5051919050565b604081526000611ee36040830185611a51565b8281036020840152611ef58185611a51565b95945050505050565b8181038181111561076957610769611cf5565b808202811582820484141761076957610769611cf5565b8082018082111561076957610769611cf5565b6020808252602b908201527f496e697469616c697a61626c653a20636f6e7472616374206973206e6f74206960408201526a6e697469616c697a696e6760a81b606082015260800190565b7f416363657373436f6e74726f6c3a206163636f756e7420000000000000000000815260008351611fbe816017850160208801611a2d565b7001034b99036b4b9b9b4b733903937b6329607d1b6017918401918201528351611fef816028840160208801611a2d565b01602801949350505050565b634e487b7160e01b600052603260045260246000fd5b60008161202057612020611cf5565b50600019019056fea49807205ce4d355092ef5a8a18f56e8913cf4a201fbe287825b095693c21775a26469706673582212204ffaf4455fc2ae0697bbe620072585a6fcdf33e70b1669bec6059354b92f0fa764736f6c63430008110033",
  "immutableReferences": {},
  "source": "// SPDX-License-Identifier: MIT\n\npragma solidity ^0.8.17;\n\nimport \"@openzeppelin/contracts-upgradeable/token/ERC20/IERC20Upgradeable.sol\";\nimport \"@openzeppelin/contracts-upgradeable/access/AccessControlUpgradeable.sol\";\nimport \"@openzeppelin/contracts-upgradeable/security/ReentrancyGuardUpgradeable.sol\";\n\ncontract CowlMarketplaceBase is\n    Initializable,\n    AccessControlUpgradeable,\n    ReentrancyGuardUpgradeable\n{\n    string public contractName;\n    IERC20Upgradeable public cowlToken;\n\n    uint256 public initialRewardRate;\n    uint256 public decayDuration; // In blocks ?\n    uint256 public initialBlock;\n\n    // Define the roles\n    bytes32 public constant ADMIN_ROLE = keccak256(\"ADMIN_ROLE\");\n\n    enum ReputationLevel {\n        Supplicant,\n        Initiate,\n        Mystic,\n        Luminary,\n        Oracle,\n        Prophet\n    }\n\n    // enum ReputationLevel {\n    //     Zelator, // Initial level, seekers or students of the wisdom\n    //     Theoricus, // Have acquired theoretical knowledge and understanding\n    //     Practicus, // Those who practice and apply the teachings\n    //     Philosophus, // Have attained deeper understanding and insight into the philosophies and principles\n    //     AdeptusMinor, // Have achieved a level of mastery and understanding of the inner teachings\n    //     AdeptusMajor, // Possess a higher level of mastery and have more responsibilities and roles\n    //     AdeptusExemptus, // Achieved complete mastery and understanding of the teachings, exempt from the usual duties\n    //     Magister, // A master of the order, a guide, and teacher to others\n    //     Magus, // A high master, having profound understanding and wisdom, guides the overall direction\n    //     Ipsissimus // The highest level, symbolic of complete self-realization and unity with the all\n    // }\n\n    mapping(address => ReputationLevel) public userReputation;\n    mapping(ReputationLevel => uint256) public reputationBonusValues;\n\n    struct Vote {\n        address nominated;\n        ReputationLevel proposedLevel;\n        uint256 forVotes;\n        uint256 againstVotes;\n    }\n\n    mapping(uint256 => Vote) public votes;\n    mapping(uint256 => mapping(address => bool)) public voteTrackers; // New mapping to track user votes\n    uint256 public nextVoteID = 1;\n\n    event VoteStarted(\n        uint256 indexed voteID,\n        address indexed nominated,\n        ReputationLevel proposedLevel\n    );\n    event Voted(uint256 indexed voteID, address indexed voter, bool support);\n\n    mapping(address => uint256) public userResourceCount;\n    mapping(address => uint256) public userTotalDemand;\n\n    struct KnowledgeResource {\n        address creator;\n        string title;\n        string description;\n        uint256 demand;\n        bool exists;\n    }\n\n    mapping(uint256 => KnowledgeResource) public knowledgeResources;\n    uint256 public nextResourceID = 1;\n\n    uint256 constant MINIMUM_COMPENSATION = 10;\n    uint256 constant MAX_DEMAND = 1000;\n    uint256 constant UNIQUENESS_SCALING_FACTOR = 10;\n    uint256 constant CONTRIBUTION_SCALING_FACTOR = 5;\n\n    event ResourceUploaded(\n        uint256 indexed resourceID,\n        address indexed creator,\n        string title,\n        string description\n    );\n    event ResourceAccessed(uint256 indexed resourceID, address indexed user);\n\n    function initialize(\n        string memory _contractName,\n        address _cowlTokenAddress\n    ) public initializer {\n        __AccessControl_init(); // Initialize AccessControl\n        __ReentrancyGuard_init(); // Initialize ReentrancyGuard\n\n        // Grant the sender the admin role\n        _grantRole(ADMIN_ROLE, msg.sender);\n\n        contractName = _contractName;\n        cowlToken = IERC20Upgradeable(_cowlTokenAddress);\n    }\n\n    function uploadResource(\n        string memory _title,\n        string memory _description\n    ) external {\n        require(\n            cowlToken.balanceOf(msg.sender) >= 100,\n            \"Insufficient cowl tokens\"\n        );\n\n        knowledgeResources[nextResourceID] = KnowledgeResource({\n            creator: msg.sender,\n            title: _title,\n            description: _description,\n            demand: 0,\n            exists: true\n        });\n\n        userResourceCount[msg.sender]++;\n        emit ResourceUploaded(nextResourceID, msg.sender, _title, _description);\n        nextResourceID++;\n    }\n\n    function accessResource(uint256 _resourceID) external nonReentrant {\n        require(\n            knowledgeResources[_resourceID].exists,\n            \"Resource does not exist\"\n        );\n\n        knowledgeResources[_resourceID].demand++;\n        userTotalDemand[knowledgeResources[_resourceID].creator]++;\n\n        uint256 compensationAmount = calculateCompensation(_resourceID);\n        cowlToken.transferFrom(\n            msg.sender,\n            knowledgeResources[_resourceID].creator,\n            compensationAmount\n        );\n\n        emit ResourceAccessed(_resourceID, msg.sender);\n    }\n\n    function calculateCompensation(\n        uint256 _resourceID\n    ) internal view returns (uint256) {\n        require(\n            knowledgeResources[_resourceID].exists,\n            \"Resource does not exist\"\n        );\n\n        uint256 demand = knowledgeResources[_resourceID].demand;\n        uint256 reputationBonus = reputationBonusValues[\n            userReputation[msg.sender]\n        ];\n        uint256 uniquenessFactor = MAX_DEMAND -\n            demand *\n            UNIQUENESS_SCALING_FACTOR;\n        uint256 contributionBonus = userResourceCount[msg.sender] *\n            CONTRIBUTION_SCALING_FACTOR +\n            userTotalDemand[msg.sender];\n\n        uint256 compensation = demand +\n            reputationBonus +\n            uniquenessFactor +\n            contributionBonus;\n        return\n            (compensation < MINIMUM_COMPENSATION)\n                ? MINIMUM_COMPENSATION\n                : compensation;\n    }\n\n    function updateUserReputation(\n        address _user,\n        ReputationLevel _newLevel\n    ) external {\n        require(hasRole(ADMIN_ROLE, msg.sender), \"Must have admin role\");\n        userReputation[_user] = _newLevel;\n    }\n\n    function updateReputationBonusValue(\n        ReputationLevel _level,\n        uint256 _value\n    ) external {\n        require(hasRole(ADMIN_ROLE, msg.sender), \"Must have admin role\");\n        reputationBonusValues[_level] = _value;\n    }\n\n    // Start a new vote\n    function startVote(address _user, ReputationLevel _proposedLevel) external {\n        votes[nextVoteID] = Vote({\n            nominated: _user,\n            proposedLevel: _proposedLevel,\n            forVotes: 0,\n            againstVotes: 0\n        });\n        emit VoteStarted(nextVoteID, _user, _proposedLevel);\n        nextVoteID++;\n    }\n\n    // Cast vote\n    function castVote(uint256 _voteID, bool _support) external {\n        require(!voteTrackers[_voteID][msg.sender], \"User has already voted\");\n\n        voteTrackers[_voteID][msg.sender] = true; // Mark the user as voted\n        if (_support) {\n            votes[_voteID].forVotes++;\n        } else {\n            votes[_voteID].againstVotes++;\n        }\n        emit Voted(_voteID, msg.sender, _support);\n    }\n\n    // End a vote and update reputation\n    function endVote(uint256 _voteID) external {\n        require(\n            votes[_voteID].forVotes > votes[_voteID].againstVotes,\n            \"Vote did not pass\"\n        );\n\n        // You can also add a requirement for minimum quorum etc.\n\n        userReputation[votes[_voteID].nominated] = votes[_voteID].proposedLevel;\n\n        // Clean up to free storage and gas refund\n        delete votes[_voteID];\n    }\n\n    function setInitialRewardRate(\n        uint256 _initialRewardRate\n    ) external onlyRole(ADMIN_ROLE) {\n        initialRewardRate = _initialRewardRate;\n        initialBlock = block.number;\n    }\n\n    function setDecayDuration(\n        uint256 _decayDuration\n    ) external onlyRole(ADMIN_ROLE) {\n        decayDuration = _decayDuration;\n    }\n\n    function getCurrentRewardRate() public view returns (uint256) {\n        if (block.number - initialBlock > decayDuration) {\n            return 0; // No more rewards after the decay duration\n        }\n        return\n            initialRewardRate *\n            (decayDuration - block.number - initialBlock) *\n            (decayDuration);\n    }\n\n    function updateContractName(string memory _newName) external {\n        require(hasRole(ADMIN_ROLE, msg.sender), \"Must have admin role\");\n        contractName = _newName;\n    }\n\n    // Function to accept Ether. Emit an event to log the received Ether.\n    receive() external payable {\n        emit FundsReceived(msg.sender, msg.value);\n    }\n\n    event FundsReceived(address indexed sender, uint256 amount);\n}\n",
  "sourcePath": "D:\\DevTools\\flkm-project\\contracts\\Core\\CowlMarketplaceBase.sol",
  "compiler": {
    "name": "solc",
    "version": "0.8.17+commit.8df45f5f.Emscripten.clang"
  },
  "schemaVersion": "3.4.16",
  "updatedAt": "2023-10-28T01:20:33.826Z",
  "networkType": "ethereum",
  "devdoc": {
    "kind": "dev",
    "methods": {
      "getRoleAdmin(bytes32)": {
        "details": "Returns the admin role that controls `role`. See {grantRole} and {revokeRole}. To change a role's admin, use {_setRoleAdmin}."
      },
      "grantRole(bytes32,address)": {
        "details": "Grants `role` to `account`. If `account` had not been already granted `role`, emits a {RoleGranted} event. Requirements: - the caller must have ``role``'s admin role. May emit a {RoleGranted} event."
      },
      "hasRole(bytes32,address)": {
        "details": "Returns `true` if `account` has been granted `role`."
      },
      "renounceRole(bytes32,address)": {
        "details": "Revokes `role` from the calling account. Roles are often managed via {grantRole} and {revokeRole}: this function's purpose is to provide a mechanism for accounts to lose their privileges if they are compromised (such as when a trusted device is misplaced). If the calling account had been revoked `role`, emits a {RoleRevoked} event. Requirements: - the caller must be `account`. May emit a {RoleRevoked} event."
      },
      "revokeRole(bytes32,address)": {
        "details": "Revokes `role` from `account`. If `account` had been granted `role`, emits a {RoleRevoked} event. Requirements: - the caller must have ``role``'s admin role. May emit a {RoleRevoked} event."
      },
      "supportsInterface(bytes4)": {
        "details": "See {IERC165-supportsInterface}."
      }
    },
    "version": 1
  },
  "userdoc": {
    "kind": "user",
    "methods": {},
    "version": 1
  }
}