{
  "contractName": "CowlDaoBase",
  "abi": [
    {
      "anonymous": false,
      "inputs": [
        {
          "indexed": false,
          "internalType": "uint256",
          "name": "proposalID",
          "type": "uint256"
        },
        {
          "indexed": false,
          "internalType": "uint256",
          "name": "knowledgeId",
          "type": "uint256"
        },
        {
          "indexed": false,
          "internalType": "string",
          "name": "ethicalConsideration",
          "type": "string"
        }
      ],
      "name": "EthicalProposalAccepted",
      "type": "event"
    },
    {
      "anonymous": false,
      "inputs": [
        {
          "indexed": false,
          "internalType": "uint256",
          "name": "proposalID",
          "type": "uint256"
        },
        {
          "indexed": false,
          "internalType": "uint256",
          "name": "knowledgeId",
          "type": "uint256"
        },
        {
          "indexed": false,
          "internalType": "address",
          "name": "proposer",
          "type": "address"
        },
        {
          "indexed": false,
          "internalType": "string",
          "name": "ethicalConsideration",
          "type": "string"
        }
      ],
      "name": "EthicalProposalCreated",
      "type": "event"
    },
    {
      "anonymous": false,
      "inputs": [
        {
          "indexed": false,
          "internalType": "uint256",
          "name": "ideaID",
          "type": "uint256"
        }
      ],
      "name": "GrowthIdeaEnacted",
      "type": "event"
    },
    {
      "anonymous": false,
      "inputs": [
        {
          "indexed": false,
          "internalType": "uint256",
          "name": "ideaID",
          "type": "uint256"
        },
        {
          "indexed": false,
          "internalType": "address",
          "name": "initiator",
          "type": "address"
        },
        {
          "indexed": false,
          "internalType": "string",
          "name": "idea",
          "type": "string"
        },
        {
          "indexed": false,
          "internalType": "uint64",
          "name": "requiredFunds",
          "type": "uint64"
        },
        {
          "indexed": false,
          "internalType": "uint256",
          "name": "clusterID",
          "type": "uint256"
        }
      ],
      "name": "GrowthIdeaProposed",
      "type": "event"
    },
    {
      "anonymous": false,
      "inputs": [
        {
          "indexed": false,
          "internalType": "uint256",
          "name": "ideaID",
          "type": "uint256"
        },
        {
          "indexed": false,
          "internalType": "address",
          "name": "supporter",
          "type": "address"
        },
        {
          "indexed": false,
          "internalType": "uint64",
          "name": "pledgedAmount",
          "type": "uint64"
        }
      ],
      "name": "GrowthIdeaSupported",
      "type": "event"
    },
    {
      "anonymous": false,
      "inputs": [
        {
          "indexed": false,
          "internalType": "uint8",
          "name": "version",
          "type": "uint8"
        }
      ],
      "name": "Initialized",
      "type": "event"
    },
    {
      "anonymous": false,
      "inputs": [
        {
          "indexed": false,
          "internalType": "uint256",
          "name": "knowledgeID",
          "type": "uint256"
        },
        {
          "indexed": false,
          "internalType": "address",
          "name": "author",
          "type": "address"
        },
        {
          "indexed": false,
          "internalType": "string",
          "name": "content",
          "type": "string"
        },
        {
          "indexed": false,
          "internalType": "uint256",
          "name": "clusterID",
          "type": "uint256"
        }
      ],
      "name": "KnowledgeAdded",
      "type": "event"
    },
    {
      "anonymous": false,
      "inputs": [
        {
          "indexed": false,
          "internalType": "uint256",
          "name": "modificationID",
          "type": "uint256"
        },
        {
          "indexed": false,
          "internalType": "uint256",
          "name": "knowledgeId",
          "type": "uint256"
        },
        {
          "indexed": false,
          "internalType": "address",
          "name": "proposer",
          "type": "address"
        },
        {
          "indexed": false,
          "internalType": "string",
          "name": "newContent",
          "type": "string"
        }
      ],
      "name": "ModificationImplemented",
      "type": "event"
    },
    {
      "anonymous": false,
      "inputs": [
        {
          "indexed": false,
          "internalType": "uint256",
          "name": "modificationID",
          "type": "uint256"
        },
        {
          "indexed": false,
          "internalType": "uint256",
          "name": "knowledgeId",
          "type": "uint256"
        },
        {
          "indexed": false,
          "internalType": "address",
          "name": "proposer",
          "type": "address"
        },
        {
          "indexed": false,
          "internalType": "string",
          "name": "newContent",
          "type": "string"
        }
      ],
      "name": "ModificationProposed",
      "type": "event"
    },
    {
      "anonymous": false,
      "inputs": [
        {
          "indexed": false,
          "internalType": "address",
          "name": "account",
          "type": "address"
        }
      ],
      "name": "Paused",
      "type": "event"
    },
    {
      "anonymous": false,
      "inputs": [
        {
          "indexed": true,
          "internalType": "bytes32",
          "name": "role",
          "type": "bytes32"
        },
        {
          "indexed": true,
          "internalType": "bytes32",
          "name": "previousAdminRole",
          "type": "bytes32"
        },
        {
          "indexed": true,
          "internalType": "bytes32",
          "name": "newAdminRole",
          "type": "bytes32"
        }
      ],
      "name": "RoleAdminChanged",
      "type": "event"
    },
    {
      "anonymous": false,
      "inputs": [
        {
          "indexed": true,
          "internalType": "bytes32",
          "name": "role",
          "type": "bytes32"
        },
        {
          "indexed": true,
          "internalType": "address",
          "name": "account",
          "type": "address"
        },
        {
          "indexed": true,
          "internalType": "address",
          "name": "sender",
          "type": "address"
        }
      ],
      "name": "RoleGranted",
      "type": "event"
    },
    {
      "anonymous": false,
      "inputs": [
        {
          "indexed": true,
          "internalType": "bytes32",
          "name": "role",
          "type": "bytes32"
        },
        {
          "indexed": true,
          "internalType": "address",
          "name": "account",
          "type": "address"
        },
        {
          "indexed": true,
          "internalType": "address",
          "name": "sender",
          "type": "address"
        }
      ],
      "name": "RoleRevoked",
      "type": "event"
    },
    {
      "anonymous": false,
      "inputs": [
        {
          "indexed": false,
          "internalType": "address",
          "name": "account",
          "type": "address"
        }
      ],
      "name": "Unpaused",
      "type": "event"
    },
    {
      "inputs": [],
      "name": "ADMIN_ROLE",
      "outputs": [
        {
          "internalType": "bytes32",
          "name": "",
          "type": "bytes32"
        }
      ],
      "stateMutability": "view",
      "type": "function",
      "constant": true
    },
    {
      "inputs": [],
      "name": "DEFAULT_ADMIN_ROLE",
      "outputs": [
        {
          "internalType": "bytes32",
          "name": "",
          "type": "bytes32"
        }
      ],
      "stateMutability": "view",
      "type": "function",
      "constant": true
    },
    {
      "inputs": [],
      "name": "OWNER_ROLE",
      "outputs": [
        {
          "internalType": "bytes32",
          "name": "",
          "type": "bytes32"
        }
      ],
      "stateMutability": "view",
      "type": "function",
      "constant": true
    },
    {
      "inputs": [],
      "name": "authorRewardAmount",
      "outputs": [
        {
          "internalType": "uint256",
          "name": "",
          "type": "uint256"
        }
      ],
      "stateMutability": "view",
      "type": "function",
      "constant": true
    },
    {
      "inputs": [
        {
          "internalType": "uint256",
          "name": "",
          "type": "uint256"
        },
        {
          "internalType": "address",
          "name": "",
          "type": "address"
        }
      ],
      "name": "ethicalProposalVoters",
      "outputs": [
        {
          "internalType": "bool",
          "name": "",
          "type": "bool"
        }
      ],
      "stateMutability": "view",
      "type": "function",
      "constant": true
    },
    {
      "inputs": [
        {
          "internalType": "uint256",
          "name": "",
          "type": "uint256"
        }
      ],
      "name": "ethicalProposals",
      "outputs": [
        {
          "internalType": "uint256",
          "name": "knowledgeId",
          "type": "uint256"
        },
        {
          "internalType": "address",
          "name": "proposer",
          "type": "address"
        },
        {
          "internalType": "string",
          "name": "ethicalConsideration",
          "type": "string"
        },
        {
          "internalType": "uint64",
          "name": "votes",
          "type": "uint64"
        }
      ],
      "stateMutability": "view",
      "type": "function",
      "constant": true
    },
    {
      "inputs": [],
      "name": "ethicalVoteRequirement",
      "outputs": [
        {
          "internalType": "uint256",
          "name": "",
          "type": "uint256"
        }
      ],
      "stateMutability": "view",
      "type": "function",
      "constant": true
    },
    {
      "inputs": [
        {
          "internalType": "bytes32",
          "name": "role",
          "type": "bytes32"
        }
      ],
      "name": "getRoleAdmin",
      "outputs": [
        {
          "internalType": "bytes32",
          "name": "",
          "type": "bytes32"
        }
      ],
      "stateMutability": "view",
      "type": "function",
      "constant": true
    },
    {
      "inputs": [
        {
          "internalType": "bytes32",
          "name": "role",
          "type": "bytes32"
        },
        {
          "internalType": "address",
          "name": "account",
          "type": "address"
        }
      ],
      "name": "grantRole",
      "outputs": [],
      "stateMutability": "nonpayable",
      "type": "function"
    },
    {
      "inputs": [
        {
          "internalType": "uint256",
          "name": "",
          "type": "uint256"
        }
      ],
      "name": "growthIdeas",
      "outputs": [
        {
          "internalType": "address",
          "name": "initiator",
          "type": "address"
        },
        {
          "internalType": "string",
          "name": "idea",
          "type": "string"
        },
        {
          "internalType": "uint64",
          "name": "requiredFunds",
          "type": "uint64"
        },
        {
          "internalType": "uint64",
          "name": "fundsPledged",
          "type": "uint64"
        },
        {
          "internalType": "uint64",
          "name": "supportVotes",
          "type": "uint64"
        },
        {
          "internalType": "bool",
          "name": "enacted",
          "type": "bool"
        },
        {
          "internalType": "uint256",
          "name": "clusterID",
          "type": "uint256"
        }
      ],
      "stateMutability": "view",
      "type": "function",
      "constant": true
    },
    {
      "inputs": [
        {
          "internalType": "bytes32",
          "name": "role",
          "type": "bytes32"
        },
        {
          "internalType": "address",
          "name": "account",
          "type": "address"
        }
      ],
      "name": "hasRole",
      "outputs": [
        {
          "internalType": "bool",
          "name": "",
          "type": "bool"
        }
      ],
      "stateMutability": "view",
      "type": "function",
      "constant": true
    },
    {
      "inputs": [
        {
          "internalType": "uint256",
          "name": "",
          "type": "uint256"
        }
      ],
      "name": "knowledgeBase",
      "outputs": [
        {
          "internalType": "address",
          "name": "author",
          "type": "address"
        },
        {
          "internalType": "string",
          "name": "content",
          "type": "string"
        },
        {
          "internalType": "uint256",
          "name": "upvotes",
          "type": "uint256"
        },
        {
          "internalType": "uint256",
          "name": "clusterID",
          "type": "uint256"
        }
      ],
      "stateMutability": "view",
      "type": "function",
      "constant": true
    },
    {
      "inputs": [
        {
          "internalType": "uint256",
          "name": "",
          "type": "uint256"
        },
        {
          "internalType": "address",
          "name": "",
          "type": "address"
        }
      ],
      "name": "knowledgeVoters",
      "outputs": [
        {
          "internalType": "bool",
          "name": "",
          "type": "bool"
        }
      ],
      "stateMutability": "view",
      "type": "function",
      "constant": true
    },
    {
      "inputs": [],
      "name": "modificationApprovalThreshold",
      "outputs": [
        {
          "internalType": "uint256",
          "name": "",
          "type": "uint256"
        }
      ],
      "stateMutability": "view",
      "type": "function",
      "constant": true
    },
    {
      "inputs": [
        {
          "internalType": "uint256",
          "name": "",
          "type": "uint256"
        }
      ],
      "name": "modificationProposals",
      "outputs": [
        {
          "internalType": "uint256",
          "name": "knowledgeId",
          "type": "uint256"
        },
        {
          "internalType": "address",
          "name": "proposer",
          "type": "address"
        },
        {
          "internalType": "string",
          "name": "newContent",
          "type": "string"
        },
        {
          "internalType": "uint64",
          "name": "votes",
          "type": "uint64"
        }
      ],
      "stateMutability": "view",
      "type": "function",
      "constant": true
    },
    {
      "inputs": [],
      "name": "modificationVoteRequirement",
      "outputs": [
        {
          "internalType": "uint256",
          "name": "",
          "type": "uint256"
        }
      ],
      "stateMutability": "view",
      "type": "function",
      "constant": true
    },
    {
      "inputs": [],
      "name": "nextClusterID",
      "outputs": [
        {
          "internalType": "uint32",
          "name": "",
          "type": "uint32"
        }
      ],
      "stateMutability": "view",
      "type": "function",
      "constant": true
    },
    {
      "inputs": [],
      "name": "nextEthicalProposalID",
      "outputs": [
        {
          "internalType": "uint32",
          "name": "",
          "type": "uint32"
        }
      ],
      "stateMutability": "view",
      "type": "function",
      "constant": true
    },
    {
      "inputs": [],
      "name": "nextIdeaID",
      "outputs": [
        {
          "internalType": "uint32",
          "name": "",
          "type": "uint32"
        }
      ],
      "stateMutability": "view",
      "type": "function",
      "constant": true
    },
    {
      "inputs": [],
      "name": "nextKnowledgeID",
      "outputs": [
        {
          "internalType": "uint32",
          "name": "",
          "type": "uint32"
        }
      ],
      "stateMutability": "view",
      "type": "function",
      "constant": true
    },
    {
      "inputs": [
        {
          "internalType": "enum CowlDaoBase.ParamType",
          "name": "",
          "type": "uint8"
        }
      ],
      "name": "parameters",
      "outputs": [
        {
          "internalType": "uint256",
          "name": "",
          "type": "uint256"
        }
      ],
      "stateMutability": "view",
      "type": "function",
      "constant": true
    },
    {
      "inputs": [],
      "name": "paused",
      "outputs": [
        {
          "internalType": "bool",
          "name": "",
          "type": "bool"
        }
      ],
      "stateMutability": "view",
      "type": "function",
      "constant": true
    },
    {
      "inputs": [
        {
          "internalType": "uint256",
          "name": "",
          "type": "uint256"
        },
        {
          "internalType": "address",
          "name": "",
          "type": "address"
        }
      ],
      "name": "proposalVoters",
      "outputs": [
        {
          "internalType": "bool",
          "name": "",
          "type": "bool"
        }
      ],
      "stateMutability": "view",
      "type": "function",
      "constant": true
    },
    {
      "inputs": [
        {
          "internalType": "bytes32",
          "name": "role",
          "type": "bytes32"
        },
        {
          "internalType": "address",
          "name": "account",
          "type": "address"
        }
      ],
      "name": "renounceRole",
      "outputs": [],
      "stateMutability": "nonpayable",
      "type": "function"
    },
    {
      "inputs": [
        {
          "internalType": "bytes32",
          "name": "role",
          "type": "bytes32"
        },
        {
          "internalType": "address",
          "name": "account",
          "type": "address"
        }
      ],
      "name": "revokeRole",
      "outputs": [],
      "stateMutability": "nonpayable",
      "type": "function"
    },
    {
      "inputs": [],
      "name": "rewardAmount",
      "outputs": [
        {
          "internalType": "uint256",
          "name": "",
          "type": "uint256"
        }
      ],
      "stateMutability": "view",
      "type": "function",
      "constant": true
    },
    {
      "inputs": [],
      "name": "rewardToken",
      "outputs": [
        {
          "internalType": "contract IERC20Upgradeable",
          "name": "",
          "type": "address"
        }
      ],
      "stateMutability": "view",
      "type": "function",
      "constant": true
    },
    {
      "inputs": [
        {
          "internalType": "address",
          "name": "",
          "type": "address"
        }
      ],
      "name": "rewards",
      "outputs": [
        {
          "internalType": "uint256",
          "name": "",
          "type": "uint256"
        }
      ],
      "stateMutability": "view",
      "type": "function",
      "constant": true
    },
    {
      "inputs": [
        {
          "internalType": "bytes4",
          "name": "interfaceId",
          "type": "bytes4"
        }
      ],
      "name": "supportsInterface",
      "outputs": [
        {
          "internalType": "bool",
          "name": "",
          "type": "bool"
        }
      ],
      "stateMutability": "view",
      "type": "function",
      "constant": true
    },
    {
      "inputs": [
        {
          "internalType": "uint256",
          "name": "",
          "type": "uint256"
        }
      ],
      "name": "totalResourcesPerCluster",
      "outputs": [
        {
          "internalType": "uint256",
          "name": "",
          "type": "uint256"
        }
      ],
      "stateMutability": "view",
      "type": "function",
      "constant": true
    },
    {
      "inputs": [],
      "name": "voterRewardAmount",
      "outputs": [
        {
          "internalType": "uint256",
          "name": "",
          "type": "uint256"
        }
      ],
      "stateMutability": "view",
      "type": "function",
      "constant": true
    },
    {
      "inputs": [],
      "name": "waningLight",
      "outputs": [
        {
          "internalType": "contract IERC721Upgradeable",
          "name": "",
          "type": "address"
        }
      ],
      "stateMutability": "view",
      "type": "function",
      "constant": true
    },
    {
      "inputs": [
        {
          "internalType": "contract IERC20Upgradeable",
          "name": "_rewardToken",
          "type": "address"
        },
        {
          "internalType": "address",
          "name": "_waningLight",
          "type": "address"
        }
      ],
      "name": "initialize",
      "outputs": [],
      "stateMutability": "nonpayable",
      "type": "function"
    },
    {
      "inputs": [],
      "name": "initiateKnowledgeCluster",
      "outputs": [],
      "stateMutability": "nonpayable",
      "type": "function"
    },
    {
      "inputs": [
        {
          "internalType": "string",
          "name": "_content",
          "type": "string"
        },
        {
          "internalType": "uint256",
          "name": "_clusterID",
          "type": "uint256"
        }
      ],
      "name": "contributeKnowledge",
      "outputs": [],
      "stateMutability": "nonpayable",
      "type": "function"
    },
    {
      "inputs": [
        {
          "internalType": "uint256",
          "name": "_knowledgeId",
          "type": "uint256"
        }
      ],
      "name": "upvoteKnowledge",
      "outputs": [],
      "stateMutability": "nonpayable",
      "type": "function"
    },
    {
      "inputs": [
        {
          "internalType": "uint256",
          "name": "_ideaID",
          "type": "uint256"
        },
        {
          "internalType": "uint64",
          "name": "_pledgedAmount",
          "type": "uint64"
        }
      ],
      "name": "supportGrowthIdea",
      "outputs": [],
      "stateMutability": "nonpayable",
      "type": "function"
    },
    {
      "inputs": [
        {
          "internalType": "uint256",
          "name": "_ideaID",
          "type": "uint256"
        }
      ],
      "name": "enactGrowthIdea",
      "outputs": [],
      "stateMutability": "nonpayable",
      "type": "function"
    },
    {
      "inputs": [
        {
          "internalType": "uint256",
          "name": "_knowledgeId",
          "type": "uint256"
        },
        {
          "internalType": "string",
          "name": "_newContent",
          "type": "string"
        }
      ],
      "name": "proposeModification",
      "outputs": [],
      "stateMutability": "nonpayable",
      "type": "function"
    },
    {
      "inputs": [
        {
          "internalType": "uint256",
          "name": "_modificationId",
          "type": "uint256"
        }
      ],
      "name": "voteOnModification",
      "outputs": [],
      "stateMutability": "nonpayable",
      "type": "function"
    },
    {
      "inputs": [
        {
          "internalType": "uint256",
          "name": "_modificationId",
          "type": "uint256"
        }
      ],
      "name": "implementModification",
      "outputs": [],
      "stateMutability": "nonpayable",
      "type": "function"
    },
    {
      "inputs": [
        {
          "internalType": "uint256",
          "name": "_knowledgeId",
          "type": "uint256"
        },
        {
          "internalType": "string",
          "name": "_ethicalConsideration",
          "type": "string"
        }
      ],
      "name": "proposeEthicalConsideration",
      "outputs": [],
      "stateMutability": "nonpayable",
      "type": "function"
    },
    {
      "inputs": [
        {
          "internalType": "uint256",
          "name": "_proposalID",
          "type": "uint256"
        }
      ],
      "name": "voteOnEthicalProposal",
      "outputs": [],
      "stateMutability": "nonpayable",
      "type": "function"
    },
    {
      "inputs": [
        {
          "internalType": "uint256",
          "name": "_proposalID",
          "type": "uint256"
        }
      ],
      "name": "enactEthicalProposal",
      "outputs": [],
      "stateMutability": "nonpayable",
      "type": "function"
    },
    {
      "inputs": [],
      "name": "claimRewards",
      "outputs": [],
      "stateMutability": "nonpayable",
      "type": "function"
    },
    {
      "inputs": [],
      "name": "pause",
      "outputs": [],
      "stateMutability": "nonpayable",
      "type": "function"
    },
    {
      "inputs": [],
      "name": "unpause",
      "outputs": [],
      "stateMutability": "nonpayable",
      "type": "function"
    },
    {
      "inputs": [
        {
          "internalType": "string",
          "name": "_param",
          "type": "string"
        },
        {
          "internalType": "uint256",
          "name": "_value",
          "type": "uint256"
        }
      ],
      "name": "updateParameter",
      "outputs": [],
      "stateMutability": "nonpayable",
      "type": "function"
    }
  ],
  "bytecode": "0x608060405260fe80546001600160881b0319166d01000000010000000100000001001790556103e860ff55600a6101008190556005610101556101f4610102556032610103556101045534801561005557600080fd5b5061356b806100656000396000f3fe608060405234801561001057600080fd5b50600436106102a05760003560e01c80638e0f556811610167578063baae4981116100ce578063e21a846111610087578063e21a846114610693578063e58378bb146106a6578063e5860e1f146106bb578063f7b2a7be146106ce578063f7c618c1146106d7578063f8d6f077146106ea57600080fd5b8063baae498114610627578063c37a535c14610631578063cb4dde351461063b578063cbba5ffa14610652578063d547741f1461066b578063dbdb92b51461067e57600080fd5b8063a217fddf11610120578063a217fddf146105bf578063a21889e9146105c7578063a852ce33146105d1578063ab78ae2e146105e4578063adcae15d146105ee578063ae3ee35f1461061457600080fd5b80638e0f5568146105275780638f269a0014610548578063901f98ef1461055b57806391d148541461056e5780639339e0af14610581578063a0c310f0146105ac57600080fd5b80634c4472161161020b57806375b238fc116101c457806375b238fc1461049b5780637a010bf3146104c2578063812aaef6146104f157806381af95631461050457806383cdb7541461050c5780638456cb591461051f57600080fd5b80634c447216146103e95780634ce3ae74146104185780635836ddea1461042b5780635c975abb1461043e5780635d11943e14610449578063745e70131461046957600080fd5b806336568abe1161025d57806336568abe14610386578063372500ab146103995780633f4ba83a146103a15780634054b7fc146103a957806344480784146103b3578063485cc955146103d657600080fd5b806301ffc9a7146102a557806304f9b13e146102cd5780630700037d146102fc57806316725dd21461032b578063248a9ca31461034e5780632f2ff15d14610371575b600080fd5b6102b86102b3366004612b72565b6106fd565b60405190151581526020015b60405180910390f35b6102b86102db366004612bb1565b61010d60209081526000928352604080842090915290825290205460ff1681565b61031d61030a366004612be1565b6101086020526000908152604090205481565b6040519081526020016102c4565b61033e610339366004612bfe565b610734565b6040516102c49493929190612c67565b61031d61035c366004612bfe565b60009081526065602052604090206001015490565b61038461037f366004612bb1565b61080d565b005b610384610394366004612bb1565b610837565b6103846108ba565b6103846109ea565b61031d6101025481565b6103c66103c1366004612bfe565b610a2e565b6040516102c49493929190612cab565b6103846103e4366004612ce2565b610aea565b6102b86103f7366004612bb1565b61010a60209081526000928352604080842090915290825290205460ff1681565b610384610426366004612db2565b610d71565b610384610439366004612bfe565b610f26565b60c95460ff166102b8565b61031d610457366004612df8565b60fd6020526000908152604090205481565b60fe54610486906901000000000000000000900463ffffffff1681565b60405163ffffffff90911681526020016102c4565b61031d7fa49807205ce4d355092ef5a8a18f56e8913cf4a201fbe287825b095693c2177581565b6102b86104d0366004612bb1565b61010960209081526000928352604080842090915290825290205460ff1681565b6103846104ff366004612bfe565b6110b1565b610384611217565b61038461051a366004612bfe565b6112b4565b610384611522565b61031d610535366004612bfe565b6101076020526000908152604090205481565b610384610556366004612e19565b611566565b610384610569366004612e4a565b6117ad565b6102b861057c366004612bb1565b61196e565b60fc54610594906001600160a01b031681565b6040516001600160a01b0390911681526020016102c4565b6103846105ba366004612bfe565b611999565b61031d600081565b61031d6101015481565b6103846105df366004612bfe565b611b0c565b61031d6101045481565b6106016105fc366004612bfe565b611dc5565b6040516102c49796959493929190612e8e565b610384610622366004612bfe565b611eac565b61031d6101005481565b61031d6101035481565b60fe5461048690600160681b900463ffffffff1681565b60fe546104869065010000000000900463ffffffff1681565b610384610679366004612bb1565b61207e565b60fe5461048690610100900463ffffffff1681565b61033e6106a1366004612bfe565b6120a3565b61031d60008051602061351683398151915281565b6103846106c9366004612db2565b6120d6565b61031d60ff5481565b60fb54610594906001600160a01b031681565b6103846106f8366004612e4a565b6122ae565b60006001600160e01b03198216637965db0b60e01b148061072e57506301ffc9a760e01b6001600160e01b03198316145b92915050565b61010b818154811061074557600080fd5b60009182526020909120600490910201805460018201546002830180549294506001600160a01b03909116929161077b90612ee8565b80601f01602080910402602001604051908101604052809291908181526020018280546107a790612ee8565b80156107f45780601f106107c9576101008083540402835291602001916107f4565b820191906000526020600020905b8154815290600101906020018083116107d757829003601f168201915b505050600390930154919250506001600160401b031684565b60008281526065602052604090206001015461082881612570565b610832838361257d565b505050565b6001600160a01b03811633146108ac5760405162461bcd60e51b815260206004820152602f60248201527f416363657373436f6e74726f6c3a2063616e206f6e6c792072656e6f756e636560448201526e103937b632b9903337b91039b2b63360891b60648201526084015b60405180910390fd5b6108b68282612603565b5050565b6108c261266a565b3360009081526101086020526040902054806109165760405162461bcd60e51b81526020600482015260136024820152724e6f207265776172647320746f20636c61696d60681b60448201526064016108a3565b33600081815261010860205260408082209190915560fb54905163a9059cbb60e01b81526004810192909252602482018390526001600160a01b03169063a9059cbb906044016020604051808303816000875af115801561097b573d6000803e3d6000fd5b505050506040513d601f19601f8201168201806040525081019061099f9190612f22565b6109dd5760405162461bcd60e51b815260206004820152600f60248201526e151c985b9cd9995c8819985a5b1959608a1b60448201526064016108a3565b506109e86001609755565b565b610a026000805160206135168339815191523361196e565b610a1e5760405162461bcd60e51b81526004016108a390612f44565b610a266126ca565b6109e8612713565b61010560205260009081526040902080546001820180546001600160a01b039092169291610a5b90612ee8565b80601f0160208091040260200160405190810160405280929190818152602001828054610a8790612ee8565b8015610ad45780601f10610aa957610100808354040283529160200191610ad4565b820191906000526020600020905b815481529060010190602001808311610ab757829003601f168201915b5050505050908060020154908060030154905084565b600054610100900460ff1615808015610b0a5750600054600160ff909116105b80610b245750303b158015610b24575060005460ff166001145b610b875760405162461bcd60e51b815260206004820152602e60248201527f496e697469616c697a61626c653a20636f6e747261637420697320616c72656160448201526d191e481a5b9a5d1a585b1a5e995960921b60648201526084016108a3565b6000805460ff191660011790558015610baa576000805461ff0019166101001790555b610bb2612765565b610bba61278c565b610bc26127bb565b60fb80546001600160a01b038086166001600160a01b03199283161790925560fc805492851692909116919091179055610c0a6000805160206135168339815191523361257d565b610c427fa49807205ce4d355092ef5a8a18f56e8913cf4a201fbe287825b095693c217756000805160206135168339815191526127ea565b60fd6020526103e87fc34a738ec333e394a3927794cadc6dd0eb7d9eed0999d1e55021ea223ac362cc55600a7f6443157f7701a627e53184b74fce0d403f4bf9bc1aaa0bc17c9ee17e10ec8b8f81905560057fef9a6077cbcbcf7bec11d47569fea4be738d880200c72c7271b993ae0f57e37e8190556101f47fddec8a35231c466760a2fede23c08a34280dd1cd9b2da7e3dd8e38d773292cc35560327f58220911576815c55e58736f63566dabe5be64ae79e725297ace18f225a907c7556000527f04cdf7490a6872be62a8e2929009badfb3bd5a47e329fafbd5f6a6394f31f0b4558015610832576000805461ff0019169055604051600181527f7f26b83ff96e1f2b6a682f133852f6798a09c465da95921460cefb3847402498906020015b60405180910390a1505050565b60fc546040516370a0823160e01b81523360048201526000916001600160a01b0316906370a0823190602401602060405180830381865afa158015610dba573d6000803e3d6000fd5b505050506040513d601f19601f82011682018060405250810190610dde9190612f72565b11610dfb5760405162461bcd60e51b81526004016108a390612f8b565b610e03612835565b6040805160808101825283815233602080830191825282840185815260006060850181905260fe54600160681b900463ffffffff16815261010c9092529390208251815590516001820180546001600160a01b0319166001600160a01b0390921691909117905591519091906002820190610e7e9082613003565b50606091909101516003909101805467ffffffffffffffff19166001600160401b0390921691909117905560fe80547fcabf14243ff5d56445a2d6e5c0c4575b01e402637fbf80d2ead816d1c94315db91600160681b90910463ffffffff1690600d610ee9836130d8565b91906101000a81548163ffffffff021916908363ffffffff160217905550833384604051610f1a94939291906130fb565b60405180910390a15050565b60fc546040516370a0823160e01b81523360048201526000916001600160a01b0316906370a0823190602401602060405180830381865afa158015610f6f573d6000803e3d6000fd5b505050506040513d601f19601f82011682018060405250810190610f939190612f72565b11610fb05760405162461bcd60e51b81526004016108a390612f8b565b610fb8612835565b61010454600082815261010c60205260409020600301546001600160401b031610156110195760405162461bcd60e51b815260206004820152601060248201526f4e6f7420656e6f75676820766f74657360801b60448201526064016108a3565b600081815261010c602052604090819020805491517f5faf97c195aae12acceae3734e975777174cc6e60451f1d55cc79b75737e54879161106391859185916002909101906131b5565b60405180910390a161010254600083815261010c60209081526040808320600101546001600160a01b03168352610108909152812080549091906110a89084906131dd565b90915550505050565b60fc546040516370a0823160e01b81523360048201526000916001600160a01b0316906370a0823190602401602060405180830381865afa1580156110fa573d6000803e3d6000fd5b505050506040513d601f19601f8201168201806040525081019061111e9190612f72565b1161113b5760405162461bcd60e51b81526004016108a390612f8b565b611143612835565b600081815261010d6020908152604080832033845290915290205460ff161561117e5760405162461bcd60e51b81526004016108a3906131f0565b600081815261010c602052604081206003018054600192906111aa9084906001600160401b0316613217565b82546001600160401b039182166101009390930a928302919092021990911617905550600081815261010d602090815260408083203384528252808320805460ff1916600117905561010354610108909252822080549192909161120f9084906131dd565b909155505050565b61122f6000805160206135168339815191523361196e565b61124b5760405162461bcd60e51b81526004016108a390612f44565b611253612835565b6000610107600060fe600181819054906101000a900463ffffffff168092919061127c906130d8565b91906101000a81548163ffffffff021916908363ffffffff16021790555063ffffffff16815260200190815260200160002081905550565b60fc546040516370a0823160e01b81523360048201526000916001600160a01b0316906370a0823190602401602060405180830381865afa1580156112fd573d6000803e3d6000fd5b505050506040513d601f19601f820116820180604052508101906113219190612f72565b1161133e5760405162461bcd60e51b81526004016108a390612f8b565b611346612835565b6101005461010b828154811061135e5761135e61323e565b60009182526020909120600360049092020101546001600160401b031610156113bc5760405162461bcd60e51b815260206004820152601060248201526f4e6f7420656e6f75676820766f74657360801b60448201526064016108a3565b600061010b82815481106113d2576113d261323e565b906000526020600020906004020160000154905061010b82815481106113fa576113fa61323e565b90600052602060002090600402016002016101056000838152602001908152602001600020600101908161142e9190613254565b507f184871a468f1c68e804b94caa7694fdfb1fabd0ca780731dd51199d9403251ff828261010b85815481106114665761146661323e565b906000526020600020906004020160010160009054906101000a90046001600160a01b031661010b868154811061149f5761149f61323e565b90600052602060002090600402016002016040516114c0949392919061332e565b60405180910390a161010254610108600061010b85815481106114e5576114e561323e565b60009182526020808320600160049093020191909101546001600160a01b03168352820192909252604001812080549091906110a89084906131dd565b61153a6000805160206135168339815191523361196e565b6115565760405162461bcd60e51b81526004016108a390612f44565b61155e612835565b6109e861287b565b60fc546040516370a0823160e01b81523360048201526000916001600160a01b0316906370a0823190602401602060405180830381865afa1580156115af573d6000803e3d6000fd5b505050506040513d601f19601f820116820180604052508101906115d39190612f72565b116115f05760405162461bcd60e51b81526004016108a390612f8b565b6115f8612835565b600082815261010660205260409020546001600160a01b031661164f5760405162461bcd60e51b815260206004820152600f60248201526e125b9d985b1a590812591958481251608a1b60448201526064016108a3565b6000828152610106602052604090206002810154600160c01b900460ff16156116b15760405162461bcd60e51b81526020600482015260146024820152731259195848185b1c9958591e48195b9858dd195960621b60448201526064016108a3565b600281018054600160801b90046001600160401b03169060106116d38361335b565b91906101000a8154816001600160401b0302191690836001600160401b0316021790555050818160020160088282829054906101000a90046001600160401b031661171e9190613217565b82546101009290920a6001600160401b0381810219909316918316021790915560408051868152336020820152918516908201527f11978f2cb13a08e7c1713c0412cc78a411fa6781d478bb81bc113bdfc4553bf4915060600160405180910390a160ff543360009081526101086020526040812080549091906117a39084906131dd565b9091555050505050565b60fc546040516370a0823160e01b81523360048201526000916001600160a01b0316906370a0823190602401602060405180830381865afa1580156117f6573d6000803e3d6000fd5b505050506040513d601f19601f8201168201806040525081019061181a9190612f72565b116118375760405162461bcd60e51b81526004016108a390612f8b565b61183f612835565b611848816128b8565b60408051608081018252338152602080820185815260008385018190526060840186905260fe5465010000000000900463ffffffff168152610105909252929020815181546001600160a01b0319166001600160a01b03909116178155915190919060018201906118b99082613003565b506040820151600282015560609091015160039091015560fe80547f81995ca5314bf36d961073ca3c5bcf7d8610cd4a3760f96adc0cbce24c3d938e916501000000000090910463ffffffff16906005611912836130d8565b91906101000a81548163ffffffff021916908363ffffffff1602179055503384846040516119439493929190613377565b60405180910390a160ff543360009081526101086020526040812080549091906110a89084906131dd565b60009182526065602090815260408084206001600160a01b0393909316845291905290205460ff1690565b60fc546040516370a0823160e01b81523360048201526000916001600160a01b0316906370a0823190602401602060405180830381865afa1580156119e2573d6000803e3d6000fd5b505050506040513d601f19601f82011682018060405250810190611a069190612f72565b11611a235760405162461bcd60e51b81526004016108a390612f8b565b611a2b612835565b600081815261010a6020908152604080832033845290915290205460ff1615611a665760405162461bcd60e51b81526004016108a3906131f0565b600161010b8281548110611a7c57611a7c61323e565b6000918252602082206003600490920201018054909190611aa79084906001600160401b0316613217565b82546001600160401b039182166101009390930a928302919092021990911617905550600081815261010a602090815260408083203384528252808320805460ff1916600117905561010354610108909252822080549192909161120f9084906131dd565b60fc546040516370a0823160e01b81523360048201526000916001600160a01b0316906370a0823190602401602060405180830381865afa158015611b55573d6000803e3d6000fd5b505050506040513d601f19601f82011682018060405250810190611b799190612f72565b11611b965760405162461bcd60e51b81526004016108a390612f8b565b611b9e612835565b6000818152610106602052604090206002810154600160c01b900460ff1615611c005760405162461bcd60e51b81526020600482015260146024820152731259195848185b1c9958591e48195b9858dd195960621b60448201526064016108a3565b60028101546001600160401b03808216600160401b909204161015611c775760405162461bcd60e51b815260206004820152602760248201527f4e6f7420656e6f7567682066756e647320706c656467656420666f7220746869604482015266399034b232b09760c91b60648201526084016108a3565b600281018054600160c01b60ff60c01b19909116179081905560038201546000908152610107602052604081208054600160401b9093046001600160401b031692909190611cc69084906131dd565b909155505060fb548154600283015460405163a9059cbb60e01b81526001600160a01b039283166004820152600160401b9091046001600160401b0316602482015291169063a9059cbb906044016020604051808303816000875af1158015611d33573d6000803e3d6000fd5b505050506040513d601f19601f82011682018060405250810190611d579190612f22565b611d955760405162461bcd60e51b815260206004820152600f60248201526e151c985b9cd9995c8819985a5b1959608a1b60448201526064016108a3565b6040518281527fd8a817ea605d7c28501ab33c9d4f293442901aba0e06d03b95209d03a55bb2b490602001610f1a565b61010660205260009081526040902080546001820180546001600160a01b039092169291611df290612ee8565b80601f0160208091040260200160405190810160405280929190818152602001828054611e1e90612ee8565b8015611e6b5780601f10611e4057610100808354040283529160200191611e6b565b820191906000526020600020905b815481529060010190602001808311611e4e57829003601f168201915b50505050600283015460039093015491926001600160401b0380821693600160401b830482169350600160801b830490911691600160c01b900460ff169087565b60fc546040516370a0823160e01b81523360048201526000916001600160a01b0316906370a0823190602401602060405180830381865afa158015611ef5573d6000803e3d6000fd5b505050506040513d601f19601f82011682018060405250810190611f199190612f72565b11611f365760405162461bcd60e51b81526004016108a390612f8b565b611f3e612835565b600081815261010560205260409020546001600160a01b0316611f9a5760405162461bcd60e51b8152602060048201526014602482015273125b9d985b1a590812db9bdddb195919d948125160621b60448201526064016108a3565b60008181526101096020908152604080832033845290915290205460ff1615611fd55760405162461bcd60e51b81526004016108a3906131f0565b600081815261010560205260408120600201805460019290611ff89084906131dd565b90915550506000818152610109602090815260408083203384528252808320805460ff1916600117905561010354610108909252822080549192909161203f9084906131dd565b909155505061010354600082815261010560209081526040808320546001600160a01b031683526101089091528120805490919061120f9084906131dd565b60008281526065602052604090206001015461209981612570565b6108328383612603565b61010c6020526000908152604090208054600182015460028301805492936001600160a01b039092169261077b90612ee8565b60fc546040516370a0823160e01b81523360048201526000916001600160a01b0316906370a0823190602401602060405180830381865afa15801561211f573d6000803e3d6000fd5b505050506040513d601f19601f820116820180604052508101906121439190612f72565b116121605760405162461bcd60e51b81526004016108a390612f8b565b612168612835565b60408051608081018252838152336020820190815291810183815260006060830181905261010b8054600181018255915282517fc4a0eda7235d7f6fd09c1e1f9f82dc3264d0d2f064cb41576c42a996a7be2892600490920291820190815593517fc4a0eda7235d7f6fd09c1e1f9f82dc3264d0d2f064cb41576c42a996a7be2893820180546001600160a01b0319166001600160a01b0390921691909117905590519192839290917fc4a0eda7235d7f6fd09c1e1f9f82dc3264d0d2f064cb41576c42a996a7be2894019061223e9082613003565b50606091909101516003909101805467ffffffffffffffff19166001600160401b0390921691909117905561010b547f397cafc2acc911dca32b259144e4e2b4a22e200f6a28136a78db7c3be85aa94d9061229b906001906133b8565b843385604051610d6494939291906133cb565b6122c66000805160206135168339815191523361196e565b6122e25760405162461bcd60e51b81526004016108a390612f44565b6040516b1c995dd85c99105b5bdd5b9d60a21b6020820152602c01604051602081830303815290604052805190602001208260405160200161232491906133f8565b60405160208183030381529060405280519060200120036123455760ff5550565b6040517f6d6f64696669636174696f6e566f7465526571756972656d656e7400000000006020820152603b01604051602081830303815290604052805190602001208260405160200161239891906133f8565b60405160208183030381529060405280519060200120036123ba576101005550565b6040517f6d6f64696669636174696f6e417070726f76616c5468726573686f6c640000006020820152603d01604051602081830303815290604052805190602001208260405160200161240d91906133f8565b604051602081830303815290604052805190602001200361242f576101015550565b60405171185d5d1a1bdc94995dd85c99105b5bdd5b9d60721b6020820152603201604051602081830303815290604052805190602001208260405160200161247791906133f8565b6040516020818303038152906040528051906020012003612499576101025550565b604051701d9bdd195c94995dd85c99105b5bdd5b9d607a1b602082015260310160405160208183030381529060405280519060200120826040516020016124e091906133f8565b6040516020818303038152906040528051906020012003612502576101035550565b60405175195d1a1a58d85b159bdd1954995c5d5a5c995b595b9d60521b6020820152603601604051602081830303815290604052805190602001208260405160200161254e91906133f8565b60405160208183030381529060405280519060200120036108b6576101045550565b61257a813361290b565b50565b612587828261196e565b6108b65760008281526065602090815260408083206001600160a01b03851684529091529020805460ff191660011790556125bf3390565b6001600160a01b0316816001600160a01b0316837f2f8788117e7eff1d82e926ec794901d17c78024a50270940304540a733656f0d60405160405180910390a45050565b61260d828261196e565b156108b65760008281526065602090815260408083206001600160a01b0385168085529252808320805460ff1916905551339285917ff6391f5c32d9c69d2a47ea670b442974b53935d1edc7fd64eb21e047a839171b9190a45050565b6002609754036126bc5760405162461bcd60e51b815260206004820152601f60248201527f5265656e7472616e637947756172643a207265656e7472616e742063616c6c0060448201526064016108a3565b6002609755565b6001609755565b60c95460ff166109e85760405162461bcd60e51b815260206004820152601460248201527314185d5cd8589b194e881b9bdd081c185d5cd95960621b60448201526064016108a3565b61271b6126ca565b60c9805460ff191690557f5db9ee0a495bf2e6ff9c91a7834c1ba4fdd244a5e8aa4e537bd38aeae4b073aa335b6040516001600160a01b03909116815260200160405180910390a1565b600054610100900460ff166109e85760405162461bcd60e51b81526004016108a390613414565b600054610100900460ff166127b35760405162461bcd60e51b81526004016108a390613414565b6109e8612964565b600054610100900460ff166127e25760405162461bcd60e51b81526004016108a390613414565b6109e8612997565b600082815260656020526040808220600101805490849055905190918391839186917fbd79b86ffe0ab8e8776151514217cd7cacd52c909f66475c3af44e129f0b00ff9190a4505050565b60c95460ff16156109e85760405162461bcd60e51b815260206004820152601060248201526f14185d5cd8589b194e881c185d5cd95960821b60448201526064016108a3565b612883612835565b60c9805460ff191660011790557f62e78cea01bee320cd4e420270b5ea74000d11b0c9f74754ebdbfc544b05a2586127483390565b60008181526101076020526040812054900361257a5760405162461bcd60e51b8152602060048201526012602482015271125b9d985b1a590810db1d5cdd195c88125160721b60448201526064016108a3565b612915828261196e565b6108b657612922816129be565b61292d8360206129d0565b60405160200161293e92919061345f565b60408051601f198184030181529082905262461bcd60e51b82526108a3916004016134d4565b600054610100900460ff1661298b5760405162461bcd60e51b81526004016108a390613414565b60c9805460ff19169055565b600054610100900460ff166126c35760405162461bcd60e51b81526004016108a390613414565b606061072e6001600160a01b03831660145b606060006129df8360026134e7565b6129ea9060026131dd565b6001600160401b03811115612a0157612a01612d10565b6040519080825280601f01601f191660200182016040528015612a2b576020820181803683370190505b509050600360fc1b81600081518110612a4657612a4661323e565b60200101906001600160f81b031916908160001a905350600f60fb1b81600181518110612a7557612a7561323e565b60200101906001600160f81b031916908160001a9053506000612a998460026134e7565b612aa49060016131dd565b90505b6001811115612b1c576f181899199a1a9b1b9c1cb0b131b232b360811b85600f1660108110612ad857612ad861323e565b1a60f81b828281518110612aee57612aee61323e565b60200101906001600160f81b031916908160001a90535060049490941c93612b15816134fe565b9050612aa7565b508315612b6b5760405162461bcd60e51b815260206004820181905260248201527f537472696e67733a20686578206c656e67746820696e73756666696369656e7460448201526064016108a3565b9392505050565b600060208284031215612b8457600080fd5b81356001600160e01b031981168114612b6b57600080fd5b6001600160a01b038116811461257a57600080fd5b60008060408385031215612bc457600080fd5b823591506020830135612bd681612b9c565b809150509250929050565b600060208284031215612bf357600080fd5b8135612b6b81612b9c565b600060208284031215612c1057600080fd5b5035919050565b60005b83811015612c32578181015183820152602001612c1a565b50506000910152565b60008151808452612c53816020860160208601612c17565b601f01601f19169290920160200192915050565b8481526001600160a01b0384166020820152608060408201819052600090612c9190830185612c3b565b90506001600160401b038316606083015295945050505050565b6001600160a01b0385168152608060208201819052600090612ccf90830186612c3b565b6040830194909452506060015292915050565b60008060408385031215612cf557600080fd5b8235612d0081612b9c565b91506020830135612bd681612b9c565b634e487b7160e01b600052604160045260246000fd5b600082601f830112612d3757600080fd5b81356001600160401b0380821115612d5157612d51612d10565b604051601f8301601f19908116603f01168101908282118183101715612d7957612d79612d10565b81604052838152866020858801011115612d9257600080fd5b836020870160208301376000602085830101528094505050505092915050565b60008060408385031215612dc557600080fd5b8235915060208301356001600160401b03811115612de257600080fd5b612dee85828601612d26565b9150509250929050565b600060208284031215612e0a57600080fd5b813560068110612b6b57600080fd5b60008060408385031215612e2c57600080fd5b8235915060208301356001600160401b0381168114612bd657600080fd5b60008060408385031215612e5d57600080fd5b82356001600160401b03811115612e7357600080fd5b612e7f85828601612d26565b95602094909401359450505050565b6001600160a01b038816815260e060208201819052600090612eb290830189612c3b565b6001600160401b039788166040840152958716606083015250929094166080830152151560a082015260c0019190915292915050565b600181811c90821680612efc57607f821691505b602082108103612f1c57634e487b7160e01b600052602260045260246000fd5b50919050565b600060208284031215612f3457600080fd5b81518015158114612b6b57600080fd5b6020808252601490820152734d7573742068617665206f776e657220726f6c6560601b604082015260600190565b600060208284031215612f8457600080fd5b5051919050565b60208082526010908201526f2737ba1030902220a79036b2b6b132b960811b604082015260600190565b601f82111561083257600081815260208120601f850160051c81016020861015612fdc5750805b601f850160051c820191505b81811015612ffb57828155600101612fe8565b505050505050565b81516001600160401b0381111561301c5761301c612d10565b6130308161302a8454612ee8565b84612fb5565b602080601f831160018114613065576000841561304d5750858301515b600019600386901b1c1916600185901b178555612ffb565b600085815260208120601f198616915b8281101561309457888601518255948401946001909101908401613075565b50858210156130b25787850151600019600388901b60f8161c191681555b5050505050600190811b01905550565b634e487b7160e01b600052601160045260246000fd5b600063ffffffff8083168181036130f1576130f16130c2565b6001019392505050565b63ffffffff8516815283602082015260018060a01b038316604082015260806060820152600061312e6080830184612c3b565b9695505050505050565b6000815461314581612ee8565b808552602060018381168015613162576001811461317c576131aa565b60ff1985168884015283151560051b8801830195506131aa565b866000528260002060005b858110156131a25781548a8201860152908301908401613187565b890184019650505b505050505092915050565b8381528260208201526060604082015260006131d46060830184613138565b95945050505050565b8082018082111561072e5761072e6130c2565b6020808252600d908201526c105b1c9958591e481d9bdd1959609a1b604082015260600190565b6001600160401b03818116838216019080821115613237576132376130c2565b5092915050565b634e487b7160e01b600052603260045260246000fd5b81810361325f575050565b6132698254612ee8565b6001600160401b0381111561328057613280612d10565b61328e8161302a8454612ee8565b6000601f8211600181146132c257600083156132aa5750848201545b600019600385901b1c1916600184901b178455613327565b600085815260209020601f19841690600086815260209020845b838110156132fc57828601548255600195860195909101906020016132dc565b508583101561331a5781850154600019600388901b60f8161c191681555b50505060018360011b0184555b5050505050565b84815283602082015260018060a01b038316604082015260806060820152600061312e6080830184613138565b60006001600160401b038083168181036130f1576130f16130c2565b63ffffffff851681526001600160a01b03841660208201526080604082018190526000906133a790830185612c3b565b905082606083015295945050505050565b8181038181111561072e5761072e6130c2565b84815283602082015260018060a01b038316604082015260806060820152600061312e6080830184612c3b565b6000825161340a818460208701612c17565b9190910192915050565b6020808252602b908201527f496e697469616c697a61626c653a20636f6e7472616374206973206e6f74206960408201526a6e697469616c697a696e6760a81b606082015260800190565b7f416363657373436f6e74726f6c3a206163636f756e7420000000000000000000815260008351613497816017850160208801612c17565b7001034b99036b4b9b9b4b733903937b6329607d1b60179184019182015283516134c8816028840160208801612c17565b01602801949350505050565b602081526000612b6b6020830184612c3b565b808202811582820484141761072e5761072e6130c2565b60008161350d5761350d6130c2565b50600019019056feb19546dff01e856fb3f010c267a7b1c60363cf8a4664e21cc89c26224620214ea2646970667358221220bf44a6e8942c93ffd96eb950da5818de78c7c6e9098cb285d8ef2050cab1bf9d64736f6c63430008110033",
  "immutableReferences": {},
  "source": "// SPDX-License-Identifier: MIT\npragma solidity ^0.8.17;\n\nimport \"@openzeppelin/contracts-upgradeable/token/ERC20/IERC20Upgradeable.sol\";\nimport \"@openzeppelin/contracts-upgradeable/token/ERC721/IERC721Upgradeable.sol\";\nimport \"@openzeppelin/contracts-upgradeable/security/ReentrancyGuardUpgradeable.sol\";\nimport \"@openzeppelin/contracts-upgradeable/access/AccessControlUpgradeable.sol\";\nimport \"@openzeppelin/contracts-upgradeable/security/PausableUpgradeable.sol\";\n\n/**\n * @title CowlDAO\n * @dev Contract for decentralized autonomous organization.\n */\ncontract CowlDaoBase is\n    Initializable,\n    AccessControlUpgradeable,\n    ReentrancyGuardUpgradeable,\n    PausableUpgradeable\n{\n    function initialize(\n        IERC20Upgradeable _rewardToken,\n        address _waningLight\n    ) public initializer {\n        __AccessControl_init();\n        __Pausable_init();\n        __ReentrancyGuard_init();\n\n        rewardToken = _rewardToken;\n        waningLight = IERC721Upgradeable(_waningLight);\n\n        _grantRole(OWNER_ROLE, msg.sender);\n        _setRoleAdmin(ADMIN_ROLE, OWNER_ROLE);\n\n        parameters[ParamType.RewardAmount] = 1000;\n        parameters[ParamType.ModificationVoteRequirement] = 10;\n        parameters[ParamType.ModificationApprovalThreshold] = 5;\n        parameters[ParamType.AuthorRewardAmount] = 500;\n        parameters[ParamType.VoterRewardAmount] = 50;\n        parameters[ParamType.EthicalVoteRequirement] = 10;\n    }\n\n    /**\n     * @dev This section declares state variables.\n     * State variables are used to store data on the blockchain.\n     */\n    // Define roles\n    bytes32 public constant OWNER_ROLE = keccak256(\"OWNER_ROLE\");\n    bytes32 public constant ADMIN_ROLE = keccak256(\"ADMIN_ROLE\");\n\n    // Define state variables\n    IERC20Upgradeable public rewardToken;\n    IERC721Upgradeable public waningLight;\n\n    // Enum for Parameter Type\n    enum ParamType {\n        RewardAmount,\n        ModificationVoteRequirement,\n        ModificationApprovalThreshold,\n        AuthorRewardAmount,\n        VoterRewardAmount,\n        EthicalVoteRequirement\n    }\n\n    mapping(ParamType => uint256) public parameters;\n\n    // Define State variable for Circuit Breaker Pattern\n    bool private _stopped = false;\n\n    // ID counters for various entities.\n    uint32 public nextClusterID = 1;\n    uint32 public nextKnowledgeID = 1;\n    uint32 public nextIdeaID = 1;\n    uint32 public nextEthicalProposalID = 1;\n\n    // Reward and vote requirements.\n    uint256 public rewardAmount = 1000;\n    uint256 public modificationVoteRequirement = 10;\n    uint256 public modificationApprovalThreshold = 5;\n    uint256 public authorRewardAmount = 500;\n    uint256 public voterRewardAmount = 50;\n    uint256 public ethicalVoteRequirement = 10; // Required votes to pass an ethical proposal.\n\n    // Modifier to restrict functions to DAO roles\n    modifier onlyMember() {\n        require(waningLight.balanceOf(msg.sender) > 0, \"Not a DAO member\");\n        _;\n    }\n\n    modifier onlyOwner() {\n        require(hasRole(OWNER_ROLE, msg.sender), \"Must have owner role\");\n        _;\n    }\n\n    modifier onlyAdmin() {\n        require(hasRole(ADMIN_ROLE, msg.sender), \"Must have admin role\");\n        _;\n    }\n\n    modifier onlyOwnerOrAdmin() {\n        require(\n            hasRole(OWNER_ROLE, msg.sender) || hasRole(ADMIN_ROLE, msg.sender),\n            \"Must have owner or admin role\"\n        );\n        _;\n    }\n\n    // Knowledge structure\n    struct Knowledge {\n        address author;\n        string content;\n        uint256 upvotes;\n        uint256 clusterID;\n    }\n\n    // Growth idea structure\n    struct GrowthIdea {\n        address initiator;\n        string idea;\n        uint64 requiredFunds;\n        uint64 fundsPledged;\n        uint64 supportVotes;\n        bool enacted;\n        uint256 clusterID;\n    }\n\n    // Modification proposal structure\n    struct ModificationProposal {\n        uint256 knowledgeId;\n        address proposer;\n        string newContent;\n        uint64 votes;\n    }\n\n    // Ethical proposal structure\n    struct EthicalProposal {\n        uint256 knowledgeId;\n        address proposer;\n        string ethicalConsideration;\n        uint64 votes;\n    }\n\n    // Mapping to store knowledge, growth ideas, and resources\n    mapping(uint256 => Knowledge) public knowledgeBase;\n    mapping(uint256 => GrowthIdea) public growthIdeas;\n    mapping(uint256 => uint256) public totalResourcesPerCluster;\n    mapping(address => uint256) public rewards;\n    mapping(uint256 => mapping(address => bool)) public knowledgeVoters;\n    mapping(uint256 => mapping(address => bool)) public proposalVoters;\n    ModificationProposal[] public modificationProposals;\n\n    mapping(uint256 => EthicalProposal) public ethicalProposals;\n    mapping(uint256 => mapping(address => bool)) public ethicalProposalVoters;\n\n    // Event declarations\n    event KnowledgeAdded(\n        uint256 knowledgeID,\n        address author,\n        string content,\n        uint256 clusterID\n    );\n    event GrowthIdeaProposed(\n        uint256 ideaID,\n        address initiator,\n        string idea,\n        uint64 requiredFunds,\n        uint256 clusterID\n    );\n    event GrowthIdeaSupported(\n        uint256 ideaID,\n        address supporter,\n        uint64 pledgedAmount\n    );\n    event GrowthIdeaEnacted(uint256 ideaID);\n    event ModificationProposed(\n        uint256 modificationID,\n        uint256 knowledgeId,\n        address proposer,\n        string newContent\n    );\n    event ModificationImplemented(\n        uint256 modificationID,\n        uint256 knowledgeId,\n        address proposer,\n        string newContent\n    );\n    event EthicalProposalCreated(\n        uint256 proposalID,\n        uint256 knowledgeId,\n        address proposer,\n        string ethicalConsideration\n    );\n    event EthicalProposalAccepted(\n        uint256 proposalID,\n        uint256 knowledgeId,\n        string ethicalConsideration\n    );\n\n    // Function to initiate a knowledge cluster\n    function initiateKnowledgeCluster() external onlyOwner whenNotPaused {\n        totalResourcesPerCluster[nextClusterID++] = 0;\n    }\n\n    function validateClusterID(uint256 _clusterID) internal view {\n        require(\n            totalResourcesPerCluster[_clusterID] != 0,\n            \"Invalid Cluster ID\"\n        );\n    }\n\n    // Function for members to contribute knowledge\n    function contributeKnowledge(\n        string memory _content,\n        uint256 _clusterID\n    ) external onlyMember whenNotPaused {\n        validateClusterID(_clusterID);\n        knowledgeBase[nextKnowledgeID] = Knowledge(\n            msg.sender,\n            _content,\n            0,\n            _clusterID\n        );\n        emit KnowledgeAdded(\n            nextKnowledgeID++,\n            msg.sender,\n            _content,\n            _clusterID\n        );\n        rewards[msg.sender] += rewardAmount;\n    }\n\n    // Function to upvote knowledge\n    function upvoteKnowledge(\n        uint256 _knowledgeId\n    ) external onlyMember whenNotPaused {\n        require(\n            knowledgeBase[_knowledgeId].author != address(0),\n            \"Invalid Knowledge ID\"\n        );\n        require(!knowledgeVoters[_knowledgeId][msg.sender], \"Already voted\");\n        knowledgeBase[_knowledgeId].upvotes += 1;\n        knowledgeVoters[_knowledgeId][msg.sender] = true;\n        rewards[msg.sender] += voterRewardAmount;\n        rewards[knowledgeBase[_knowledgeId].author] += voterRewardAmount;\n    }\n\n    // Function to support growth idea\n    function supportGrowthIdea(\n        uint256 _ideaID,\n        uint64 _pledgedAmount\n    ) external onlyMember whenNotPaused {\n        require(\n            growthIdeas[_ideaID].initiator != address(0),\n            \"Invalid Idea ID\"\n        );\n        GrowthIdea storage idea = growthIdeas[_ideaID];\n        require(!idea.enacted, \"Idea already enacted\");\n        idea.supportVotes++;\n        idea.fundsPledged += _pledgedAmount;\n        emit GrowthIdeaSupported(_ideaID, msg.sender, _pledgedAmount);\n        rewards[msg.sender] += rewardAmount;\n    }\n\n    // Function to enact growth idea\n    function enactGrowthIdea(\n        uint256 _ideaID\n    ) external onlyMember whenNotPaused {\n        GrowthIdea storage idea = growthIdeas[_ideaID];\n        require(!idea.enacted, \"Idea already enacted\");\n        require(\n            idea.fundsPledged >= idea.requiredFunds,\n            \"Not enough funds pledged for this idea.\"\n        );\n\n        idea.enacted = true;\n        totalResourcesPerCluster[idea.clusterID] += idea.fundsPledged;\n\n        require(\n            rewardToken.transfer(idea.initiator, idea.fundsPledged),\n            \"Transfer failed\"\n        );\n        emit GrowthIdeaEnacted(_ideaID);\n    }\n\n    // Function to propose modification\n    function proposeModification(\n        uint256 _knowledgeId,\n        string memory _newContent\n    ) external onlyMember whenNotPaused {\n        ModificationProposal memory newProposal = ModificationProposal(\n            _knowledgeId,\n            msg.sender,\n            _newContent,\n            0\n        );\n        modificationProposals.push(newProposal);\n        emit ModificationProposed(\n            modificationProposals.length - 1,\n            _knowledgeId,\n            msg.sender,\n            _newContent\n        );\n    }\n\n    // Function to vote on modification\n    function voteOnModification(\n        uint256 _modificationId\n    ) external onlyMember whenNotPaused {\n        require(!proposalVoters[_modificationId][msg.sender], \"Already voted\");\n        modificationProposals[_modificationId].votes += 1;\n        proposalVoters[_modificationId][msg.sender] = true;\n        rewards[msg.sender] += voterRewardAmount;\n    }\n\n    // Function to implement modification\n    function implementModification(\n        uint256 _modificationId\n    ) external onlyMember whenNotPaused {\n        require(\n            modificationProposals[_modificationId].votes >=\n                modificationVoteRequirement,\n            \"Not enough votes\"\n        );\n        uint256 knowledgeId = modificationProposals[_modificationId]\n            .knowledgeId;\n        knowledgeBase[knowledgeId].content = modificationProposals[\n            _modificationId\n        ].newContent;\n        emit ModificationImplemented(\n            _modificationId,\n            knowledgeId,\n            modificationProposals[_modificationId].proposer,\n            modificationProposals[_modificationId].newContent\n        );\n        rewards[\n            modificationProposals[_modificationId].proposer\n        ] += authorRewardAmount;\n    }\n\n    // Function to propose ethical consideration\n    function proposeEthicalConsideration(\n        uint256 _knowledgeId,\n        string memory _ethicalConsideration\n    ) external onlyMember whenNotPaused {\n        ethicalProposals[nextEthicalProposalID] = EthicalProposal(\n            _knowledgeId,\n            msg.sender,\n            _ethicalConsideration,\n            0\n        );\n        emit EthicalProposalCreated(\n            nextEthicalProposalID++,\n            _knowledgeId,\n            msg.sender,\n            _ethicalConsideration\n        );\n    }\n\n    // Function to vote on ethical proposal\n    function voteOnEthicalProposal(\n        uint256 _proposalID\n    ) external onlyMember whenNotPaused {\n        require(\n            !ethicalProposalVoters[_proposalID][msg.sender],\n            \"Already voted\"\n        );\n        ethicalProposals[_proposalID].votes += 1;\n        ethicalProposalVoters[_proposalID][msg.sender] = true;\n        rewards[msg.sender] += voterRewardAmount;\n    }\n\n    // Function to enact ethical proposal\n    function enactEthicalProposal(\n        uint256 _proposalID\n    ) external onlyMember whenNotPaused {\n        require(\n            ethicalProposals[_proposalID].votes >= ethicalVoteRequirement,\n            \"Not enough votes\"\n        );\n        uint256 knowledgeId = ethicalProposals[_proposalID].knowledgeId;\n        emit EthicalProposalAccepted(\n            _proposalID,\n            knowledgeId,\n            ethicalProposals[_proposalID].ethicalConsideration\n        );\n        rewards[ethicalProposals[_proposalID].proposer] += authorRewardAmount;\n    }\n\n    // Function to claim rewards\n    function claimRewards() external nonReentrant {\n        uint256 amount = rewards[msg.sender];\n        require(amount > 0, \"No rewards to claim\");\n        rewards[msg.sender] = 0;\n        require(rewardToken.transfer(msg.sender, amount), \"Transfer failed\");\n    }\n\n    // Function to pause contract functionalities.\n    // This function can only be called by the owner of the contract (onlyOwner modifier),\n    // and can only be executed if the contract is not already paused (whenNotPaused modifier).\n    // When executed, it will set the _paused variable to true, effectively pausing all functions\n    // in the contract that have the whenNotPaused modifier.\n    function pause() external onlyOwner whenNotPaused {\n        _pause(); // This function from the Pausable contract sets _paused to true and emits the Paused event.\n    }\n\n    // Function to unpause contract functionalities.\n    // This function can only be called by the owner of the contract (onlyOwner modifier),\n    // and can only be executed if the contract is currently paused (whenPaused modifier).\n    // When executed, it will set the _paused variable to false, effectively unpausing all\n    // functions in the contract that have the whenNotPaused modifier.\n    function unpause() external onlyOwner whenPaused {\n        _unpause(); // This function from the Pausable contract sets _paused to false and emits the Unpaused event.\n    }\n\n    // Function to update DAO parameters\n    function updateParameter(\n        string memory _param,\n        uint256 _value\n    ) external onlyOwner {\n        if (\n            keccak256(abi.encodePacked(_param)) ==\n            keccak256(abi.encodePacked(\"rewardAmount\"))\n        ) rewardAmount = _value;\n        else if (\n            keccak256(abi.encodePacked(_param)) ==\n            keccak256(abi.encodePacked(\"modificationVoteRequirement\"))\n        ) modificationVoteRequirement = _value;\n        else if (\n            keccak256(abi.encodePacked(_param)) ==\n            keccak256(abi.encodePacked(\"modificationApprovalThreshold\"))\n        ) modificationApprovalThreshold = _value;\n        else if (\n            keccak256(abi.encodePacked(_param)) ==\n            keccak256(abi.encodePacked(\"authorRewardAmount\"))\n        ) authorRewardAmount = _value;\n        else if (\n            keccak256(abi.encodePacked(_param)) ==\n            keccak256(abi.encodePacked(\"voterRewardAmount\"))\n        ) voterRewardAmount = _value;\n        else if (\n            keccak256(abi.encodePacked(_param)) ==\n            keccak256(abi.encodePacked(\"ethicalVoteRequirement\"))\n        ) ethicalVoteRequirement = _value;\n    }\n}\n",
  "sourcePath": "D:\\DevTools\\flkm-project\\contracts\\DAOCore\\CowlDaoBase.sol",
  "compiler": {
    "name": "solc",
    "version": "0.8.17+commit.8df45f5f.Emscripten.clang"
  },
  "schemaVersion": "3.4.16",
  "updatedAt": "2023-10-28T01:20:34.899Z",
  "networkType": "ethereum",
  "devdoc": {
    "details": "Contract for decentralized autonomous organization.",
    "kind": "dev",
    "methods": {
      "getRoleAdmin(bytes32)": {
        "details": "Returns the admin role that controls `role`. See {grantRole} and {revokeRole}. To change a role's admin, use {_setRoleAdmin}."
      },
      "grantRole(bytes32,address)": {
        "details": "Grants `role` to `account`. If `account` had not been already granted `role`, emits a {RoleGranted} event. Requirements: - the caller must have ``role``'s admin role. May emit a {RoleGranted} event."
      },
      "hasRole(bytes32,address)": {
        "details": "Returns `true` if `account` has been granted `role`."
      },
      "paused()": {
        "details": "Returns true if the contract is paused, and false otherwise."
      },
      "renounceRole(bytes32,address)": {
        "details": "Revokes `role` from the calling account. Roles are often managed via {grantRole} and {revokeRole}: this function's purpose is to provide a mechanism for accounts to lose their privileges if they are compromised (such as when a trusted device is misplaced). If the calling account had been revoked `role`, emits a {RoleRevoked} event. Requirements: - the caller must be `account`. May emit a {RoleRevoked} event."
      },
      "revokeRole(bytes32,address)": {
        "details": "Revokes `role` from `account`. If `account` had been granted `role`, emits a {RoleRevoked} event. Requirements: - the caller must have ``role``'s admin role. May emit a {RoleRevoked} event."
      },
      "supportsInterface(bytes4)": {
        "details": "See {IERC165-supportsInterface}."
      }
    },
    "stateVariables": {
      "OWNER_ROLE": {
        "details": "This section declares state variables. State variables are used to store data on the blockchain."
      }
    },
    "title": "CowlDAO",
    "version": 1
  },
  "userdoc": {
    "kind": "user",
    "methods": {},
    "version": 1
  }
}