{
  "contractName": "DaoAnalytics",
  "abi": [
    {
      "anonymous": false,
      "inputs": [
        {
          "indexed": false,
          "internalType": "uint8",
          "name": "version",
          "type": "uint8"
        }
      ],
      "name": "Initialized",
      "type": "event"
    },
    {
      "anonymous": false,
      "inputs": [
        {
          "indexed": true,
          "internalType": "uint256",
          "name": "activityType",
          "type": "uint256"
        },
        {
          "indexed": false,
          "internalType": "uint256",
          "name": "timestamp",
          "type": "uint256"
        },
        {
          "indexed": false,
          "internalType": "string",
          "name": "description",
          "type": "string"
        }
      ],
      "name": "NewActivity",
      "type": "event"
    },
    {
      "anonymous": false,
      "inputs": [
        {
          "indexed": true,
          "internalType": "bytes32",
          "name": "role",
          "type": "bytes32"
        },
        {
          "indexed": true,
          "internalType": "bytes32",
          "name": "previousAdminRole",
          "type": "bytes32"
        },
        {
          "indexed": true,
          "internalType": "bytes32",
          "name": "newAdminRole",
          "type": "bytes32"
        }
      ],
      "name": "RoleAdminChanged",
      "type": "event"
    },
    {
      "anonymous": false,
      "inputs": [
        {
          "indexed": true,
          "internalType": "bytes32",
          "name": "role",
          "type": "bytes32"
        },
        {
          "indexed": true,
          "internalType": "address",
          "name": "account",
          "type": "address"
        },
        {
          "indexed": true,
          "internalType": "address",
          "name": "sender",
          "type": "address"
        }
      ],
      "name": "RoleGranted",
      "type": "event"
    },
    {
      "anonymous": false,
      "inputs": [
        {
          "indexed": true,
          "internalType": "bytes32",
          "name": "role",
          "type": "bytes32"
        },
        {
          "indexed": true,
          "internalType": "address",
          "name": "account",
          "type": "address"
        },
        {
          "indexed": true,
          "internalType": "address",
          "name": "sender",
          "type": "address"
        }
      ],
      "name": "RoleRevoked",
      "type": "event"
    },
    {
      "inputs": [],
      "name": "ADMIN_ROLE",
      "outputs": [
        {
          "internalType": "bytes32",
          "name": "",
          "type": "bytes32"
        }
      ],
      "stateMutability": "view",
      "type": "function"
    },
    {
      "inputs": [],
      "name": "DEFAULT_ADMIN_ROLE",
      "outputs": [
        {
          "internalType": "bytes32",
          "name": "",
          "type": "bytes32"
        }
      ],
      "stateMutability": "view",
      "type": "function"
    },
    {
      "inputs": [
        {
          "internalType": "bytes32",
          "name": "role",
          "type": "bytes32"
        }
      ],
      "name": "getRoleAdmin",
      "outputs": [
        {
          "internalType": "bytes32",
          "name": "",
          "type": "bytes32"
        }
      ],
      "stateMutability": "view",
      "type": "function"
    },
    {
      "inputs": [
        {
          "internalType": "bytes32",
          "name": "role",
          "type": "bytes32"
        },
        {
          "internalType": "address",
          "name": "account",
          "type": "address"
        }
      ],
      "name": "grantRole",
      "outputs": [],
      "stateMutability": "nonpayable",
      "type": "function"
    },
    {
      "inputs": [
        {
          "internalType": "bytes32",
          "name": "role",
          "type": "bytes32"
        },
        {
          "internalType": "address",
          "name": "account",
          "type": "address"
        }
      ],
      "name": "hasRole",
      "outputs": [
        {
          "internalType": "bool",
          "name": "",
          "type": "bool"
        }
      ],
      "stateMutability": "view",
      "type": "function"
    },
    {
      "inputs": [
        {
          "internalType": "uint256",
          "name": "",
          "type": "uint256"
        }
      ],
      "name": "membershipChanges",
      "outputs": [
        {
          "internalType": "uint256",
          "name": "timestamp",
          "type": "uint256"
        },
        {
          "internalType": "string",
          "name": "description",
          "type": "string"
        }
      ],
      "stateMutability": "view",
      "type": "function"
    },
    {
      "inputs": [
        {
          "internalType": "uint256",
          "name": "",
          "type": "uint256"
        }
      ],
      "name": "proposals",
      "outputs": [
        {
          "internalType": "uint256",
          "name": "timestamp",
          "type": "uint256"
        },
        {
          "internalType": "string",
          "name": "description",
          "type": "string"
        }
      ],
      "stateMutability": "view",
      "type": "function"
    },
    {
      "inputs": [
        {
          "internalType": "bytes32",
          "name": "role",
          "type": "bytes32"
        },
        {
          "internalType": "address",
          "name": "account",
          "type": "address"
        }
      ],
      "name": "renounceRole",
      "outputs": [],
      "stateMutability": "nonpayable",
      "type": "function"
    },
    {
      "inputs": [
        {
          "internalType": "bytes32",
          "name": "role",
          "type": "bytes32"
        },
        {
          "internalType": "address",
          "name": "account",
          "type": "address"
        }
      ],
      "name": "revokeRole",
      "outputs": [],
      "stateMutability": "nonpayable",
      "type": "function"
    },
    {
      "inputs": [
        {
          "internalType": "bytes4",
          "name": "interfaceId",
          "type": "bytes4"
        }
      ],
      "name": "supportsInterface",
      "outputs": [
        {
          "internalType": "bool",
          "name": "",
          "type": "bool"
        }
      ],
      "stateMutability": "view",
      "type": "function"
    },
    {
      "inputs": [
        {
          "internalType": "uint256",
          "name": "",
          "type": "uint256"
        }
      ],
      "name": "transactions",
      "outputs": [
        {
          "internalType": "uint256",
          "name": "timestamp",
          "type": "uint256"
        },
        {
          "internalType": "string",
          "name": "description",
          "type": "string"
        }
      ],
      "stateMutability": "view",
      "type": "function"
    },
    {
      "inputs": [
        {
          "internalType": "uint256",
          "name": "",
          "type": "uint256"
        }
      ],
      "name": "votes",
      "outputs": [
        {
          "internalType": "uint256",
          "name": "timestamp",
          "type": "uint256"
        },
        {
          "internalType": "string",
          "name": "description",
          "type": "string"
        }
      ],
      "stateMutability": "view",
      "type": "function"
    },
    {
      "inputs": [],
      "name": "initialize",
      "outputs": [],
      "stateMutability": "nonpayable",
      "type": "function"
    },
    {
      "inputs": [
        {
          "internalType": "uint256",
          "name": "activityType",
          "type": "uint256"
        },
        {
          "internalType": "string",
          "name": "description",
          "type": "string"
        }
      ],
      "name": "addActivity",
      "outputs": [],
      "stateMutability": "nonpayable",
      "type": "function"
    },
    {
      "inputs": [],
      "name": "getActivityCounts",
      "outputs": [
        {
          "internalType": "uint256[]",
          "name": "",
          "type": "uint256[]"
        }
      ],
      "stateMutability": "view",
      "type": "function"
    },
    {
      "inputs": [
        {
          "internalType": "uint256",
          "name": "activityType",
          "type": "uint256"
        }
      ],
      "name": "getActivityDetails",
      "outputs": [
        {
          "components": [
            {
              "internalType": "uint256",
              "name": "timestamp",
              "type": "uint256"
            },
            {
              "internalType": "string",
              "name": "description",
              "type": "string"
            }
          ],
          "internalType": "struct DaoAnalytics.Activity[]",
          "name": "",
          "type": "tuple[]"
        }
      ],
      "stateMutability": "view",
      "type": "function"
    }
  ],
  "bytecode": "0x608060405234801561001057600080fd5b50611623806100206000396000f3fe608060405234801561001057600080fd5b50600436106101005760003560e01c806375b238fc11610097578063a217fddf11610066578063a217fddf14610239578063c68588db14610241578063d547741f14610261578063e9ae974e1461027457600080fd5b806375b238fc146101e45780638129fc1c1461020b57806391d14854146102135780639ace38c21461022657600080fd5b80632f2ff15d116100d35780632f2ff15d1461019857806336568abe146101ab57806348a249d6146101be5780635df81330146101d157600080fd5b8063013cf08b1461010557806301ffc9a71461012f5780632143c4a014610152578063248a9ca314610167575b600080fd5b610118610113366004611137565b610289565b6040516101269291906111a0565b60405180910390f35b61014261013d3660046111c1565b610341565b6040519015158152602001610126565b610165610160366004611201565b610378565b005b61018a610175366004611137565b60009081526065602052604090206001015490565b604051908152602001610126565b6101656101a63660046112bc565b610673565b6101656101b93660046112bc565b61069d565b6101186101cc366004611137565b61071b565b6101186101df366004611137565b61072b565b61018a7fa49807205ce4d355092ef5a8a18f56e8913cf4a201fbe287825b095693c2177581565b61016561073b565b6101426102213660046112bc565b610876565b610118610234366004611137565b6108a1565b61018a600081565b61025461024f366004611137565b6108b1565b60405161012691906112f8565b61016561026f3660046112bc565b610ce7565b61027c610d0c565b604051610126919061136c565b6097818154811061029957600080fd5b600091825260209091206002909102018054600182018054919350906102be906113b0565b80601f01602080910402602001604051908101604052809291908181526020018280546102ea906113b0565b80156103375780601f1061030c57610100808354040283529160200191610337565b820191906000526020600020905b81548152906001019060200180831161031a57829003601f168201915b5050505050905082565b60006001600160e01b03198216637965db0b60e01b148061037257506301ffc9a760e01b6001600160e01b03198316145b92915050565b6103a27fa49807205ce4d355092ef5a8a18f56e8913cf4a201fbe287825b095693c2177533610876565b6103ec5760405162461bcd60e51b815260206004820152601660248201527521b0b63632b91034b9903737ba1030b71030b236b4b760511b60448201526064015b60405180910390fd5b6040805180820190915242808252602082018390529060008490036104855760978054600181018255600091909152815160029091027f354a83ed9988f79f6038d4c7a7dadbad8af32f4ad6df893e0e5807a1b1944ff9810191825560208301518392917f354a83ed9988f79f6038d4c7a7dadbad8af32f4ad6df893e0e5807a1b1944ffa019061047d9082611438565b505050610633565b836001036104ff5760988054600181018255600091909152815160029091027f2237a976fa961f5921fd19f2b03c925c725d77b20ce8f790c19709c03de4d814810191825560208301518392917f2237a976fa961f5921fd19f2b03c925c725d77b20ce8f790c19709c03de4d815019061047d9082611438565b836002036105795760998054600181018255600091909152815160029091027f72a152ddfb8e864297c917af52ea6c1c68aead0fee1a62673fcc7e0c94979d00810191825560208301518392917f72a152ddfb8e864297c917af52ea6c1c68aead0fee1a62673fcc7e0c94979d01019061047d9082611438565b836003036105f357609a8054600181018255600091909152815160029091027f44da158ba27f9252712a74ff6a55c5d531f69609f1f6e7f17c4443a8e2089be4810191825560208301518392917f44da158ba27f9252712a74ff6a55c5d531f69609f1f6e7f17c4443a8e2089be5019061047d9082611438565b60405162461bcd60e51b8152602060048201526015602482015274496e76616c6964206163746976697479207479706560581b60448201526064016103e3565b837fe2ca8dc2e11007d3590b0be9ba3210ab24b34a0a98706de1b0bb52a066d6d18a83856040516106659291906111a0565b60405180910390a250505050565b60008281526065602052604090206001015461068e81610dc5565b6106988383610dcf565b505050565b6001600160a01b038116331461070d5760405162461bcd60e51b815260206004820152602f60248201527f416363657373436f6e74726f6c3a2063616e206f6e6c792072656e6f756e636560448201526e103937b632b9903337b91039b2b63360891b60648201526084016103e3565b6107178282610e55565b5050565b609a818154811061029957600080fd5b6098818154811061029957600080fd5b600054610100900460ff161580801561075b5750600054600160ff909116105b806107755750303b158015610775575060005460ff166001145b6107d85760405162461bcd60e51b815260206004820152602e60248201527f496e697469616c697a61626c653a20636f6e747261637420697320616c72656160448201526d191e481a5b9a5d1a585b1a5e995960921b60648201526084016103e3565b6000805460ff1916600117905580156107fb576000805461ff0019166101001790555b610803610ebc565b61082d7fa49807205ce4d355092ef5a8a18f56e8913cf4a201fbe287825b095693c2177533610dcf565b8015610873576000805461ff0019169055604051600181527f7f26b83ff96e1f2b6a682f133852f6798a09c465da95921460cefb38474024989060200160405180910390a15b50565b60009182526065602090815260408084206001600160a01b0393909316845291905290205460ff1690565b6099818154811061029957600080fd5b606060038211156108fc5760405162461bcd60e51b8152602060048201526015602482015274496e76616c6964206163746976697479207479706560581b60448201526064016103e3565b816000036109ff576097805480602002602001604051908101604052809291908181526020016000905b828210156109f4578382906000526020600020906002020160405180604001604052908160008201548152602001600182018054610963906113b0565b80601f016020809104026020016040519081016040528092919081815260200182805461098f906113b0565b80156109dc5780601f106109b1576101008083540402835291602001916109dc565b820191906000526020600020905b8154815290600101906020018083116109bf57829003601f168201915b50505050508152505081526020019060010190610926565b505050509050919050565b81600103610af7576098805480602002602001604051908101604052809291908181526020016000905b828210156109f4578382906000526020600020906002020160405180604001604052908160008201548152602001600182018054610a66906113b0565b80601f0160208091040260200160405190810160405280929190818152602001828054610a92906113b0565b8015610adf5780601f10610ab457610100808354040283529160200191610adf565b820191906000526020600020905b815481529060010190602001808311610ac257829003601f168201915b50505050508152505081526020019060010190610a29565b81600203610bef576099805480602002602001604051908101604052809291908181526020016000905b828210156109f4578382906000526020600020906002020160405180604001604052908160008201548152602001600182018054610b5e906113b0565b80601f0160208091040260200160405190810160405280929190818152602001828054610b8a906113b0565b8015610bd75780601f10610bac57610100808354040283529160200191610bd7565b820191906000526020600020905b815481529060010190602001808311610bba57829003601f168201915b50505050508152505081526020019060010190610b21565b816003036105f357609a805480602002602001604051908101604052809291908181526020016000905b828210156109f4578382906000526020600020906002020160405180604001604052908160008201548152602001600182018054610c56906113b0565b80601f0160208091040260200160405190810160405280929190818152602001828054610c82906113b0565b8015610ccf5780601f10610ca457610100808354040283529160200191610ccf565b820191906000526020600020905b815481529060010190602001808311610cb257829003601f168201915b50505050508152505081526020019060010190610c19565b600082815260656020526040902060010154610d0281610dc5565b6106988383610e55565b60408051600480825260a08201909252606091600091906020820160808036833701905050905060978054905081600081518110610d4c57610d4c6114f8565b6020908102919091010152609854815182906001908110610d6f57610d6f6114f8565b6020908102919091010152609954815182906002908110610d9257610d926114f8565b6020908102919091010152609a54815182906003908110610db557610db56114f8565b6020908102919091010152919050565b6108738133610f29565b610dd98282610876565b6107175760008281526065602090815260408083206001600160a01b03851684529091529020805460ff19166001179055610e113390565b6001600160a01b0316816001600160a01b0316837f2f8788117e7eff1d82e926ec794901d17c78024a50270940304540a733656f0d60405160405180910390a45050565b610e5f8282610876565b156107175760008281526065602090815260408083206001600160a01b0385168085529252808320805460ff1916905551339285917ff6391f5c32d9c69d2a47ea670b442974b53935d1edc7fd64eb21e047a839171b9190a45050565b600054610100900460ff16610f275760405162461bcd60e51b815260206004820152602b60248201527f496e697469616c697a61626c653a20636f6e7472616374206973206e6f74206960448201526a6e697469616c697a696e6760a81b60648201526084016103e3565b565b610f338282610876565b61071757610f4081610f82565b610f4b836020610f94565b604051602001610f5c92919061150e565b60408051601f198184030181529082905262461bcd60e51b82526103e391600401611583565b60606103726001600160a01b03831660145b60606000610fa38360026115ac565b610fae9060026115c3565b67ffffffffffffffff811115610fc657610fc66111eb565b6040519080825280601f01601f191660200182016040528015610ff0576020820181803683370190505b509050600360fc1b8160008151811061100b5761100b6114f8565b60200101906001600160f81b031916908160001a905350600f60fb1b8160018151811061103a5761103a6114f8565b60200101906001600160f81b031916908160001a905350600061105e8460026115ac565b6110699060016115c3565b90505b60018111156110e1576f181899199a1a9b1b9c1cb0b131b232b360811b85600f166010811061109d5761109d6114f8565b1a60f81b8282815181106110b3576110b36114f8565b60200101906001600160f81b031916908160001a90535060049490941c936110da816115d6565b905061106c565b5083156111305760405162461bcd60e51b815260206004820181905260248201527f537472696e67733a20686578206c656e67746820696e73756666696369656e7460448201526064016103e3565b9392505050565b60006020828403121561114957600080fd5b5035919050565b60005b8381101561116b578181015183820152602001611153565b50506000910152565b6000815180845261118c816020860160208601611150565b601f01601f19169290920160200192915050565b8281526040602082015260006111b96040830184611174565b949350505050565b6000602082840312156111d357600080fd5b81356001600160e01b03198116811461113057600080fd5b634e487b7160e01b600052604160045260246000fd5b6000806040838503121561121457600080fd5b82359150602083013567ffffffffffffffff8082111561123357600080fd5b818501915085601f83011261124757600080fd5b813581811115611259576112596111eb565b604051601f8201601f19908116603f01168101908382118183101715611281576112816111eb565b8160405282815288602084870101111561129a57600080fd5b8260208601602083013760006020848301015280955050505050509250929050565b600080604083850312156112cf57600080fd5b8235915060208301356001600160a01b03811681146112ed57600080fd5b809150509250929050565b60006020808301818452808551808352604092508286019150828160051b87010184880160005b8381101561135e57888303603f1901855281518051845287015187840187905261134b87850182611174565b958801959350509086019060010161131f565b509098975050505050505050565b6020808252825182820181905260009190848201906040850190845b818110156113a457835183529284019291840191600101611388565b50909695505050505050565b600181811c908216806113c457607f821691505b6020821081036113e457634e487b7160e01b600052602260045260246000fd5b50919050565b601f82111561069857600081815260208120601f850160051c810160208610156114115750805b601f850160051c820191505b818110156114305782815560010161141d565b505050505050565b815167ffffffffffffffff811115611452576114526111eb565b6114668161146084546113b0565b846113ea565b602080601f83116001811461149b57600084156114835750858301515b600019600386901b1c1916600185901b178555611430565b600085815260208120601f198616915b828110156114ca578886015182559484019460019091019084016114ab565b50858210156114e85787850151600019600388901b60f8161c191681555b5050505050600190811b01905550565b634e487b7160e01b600052603260045260246000fd5b7f416363657373436f6e74726f6c3a206163636f756e7420000000000000000000815260008351611546816017850160208801611150565b7001034b99036b4b9b9b4b733903937b6329607d1b6017918401918201528351611577816028840160208801611150565b01602801949350505050565b6020815260006111306020830184611174565b634e487b7160e01b600052601160045260246000fd5b808202811582820484141761037257610372611596565b8082018082111561037257610372611596565b6000816115e5576115e5611596565b50600019019056fea2646970667358221220d9b0b6569fc78ffb62c9da71e455f6e2def3766ddbac009f1ab68e885ba25e1964736f6c63430008110033",
  "immutableReferences": {},
  "source": "// SPDX-License-Identifier: MIT\r\npragma solidity ^0.8.17;\r\n\r\nimport \"@openzeppelin/contracts-upgradeable/access/AccessControlUpgradeable.sol\";\r\n\r\n// Define the DAO Analytics contract\r\ncontract DaoAnalytics is AccessControlUpgradeable {\r\n    bytes32 public constant ADMIN_ROLE = keccak256(\"ADMIN_ROLE\");\r\n\r\n    // Structure to store DAO activity data\r\n    struct Activity {\r\n        uint256 timestamp;\r\n        string description;\r\n    }\r\n\r\n    // Arrays to store different types of activities\r\n    Activity[] public proposals;\r\n    Activity[] public votes;\r\n    Activity[] public transactions;\r\n    Activity[] public membershipChanges;\r\n\r\n    // Event to log new activity\r\n    event NewActivity(\r\n        uint256 indexed activityType,\r\n        uint256 timestamp,\r\n        string description\r\n    );\r\n\r\n    function initialize() public initializer {\r\n        __AccessControl_init();\r\n\r\n        _grantRole(ADMIN_ROLE, msg.sender);\r\n    }\r\n\r\n    // Function to add a new activity\r\n    function addActivity(\r\n        uint256 activityType,\r\n        string memory description\r\n    ) external {\r\n        require(hasRole(ADMIN_ROLE, msg.sender), \"Caller is not an admin\");\r\n        uint256 timestamp = block.timestamp;\r\n        Activity memory newActivity = Activity(timestamp, description);\r\n\r\n        if (activityType == 0) {\r\n            proposals.push(newActivity);\r\n        } else if (activityType == 1) {\r\n            votes.push(newActivity);\r\n        } else if (activityType == 2) {\r\n            transactions.push(newActivity);\r\n        } else if (activityType == 3) {\r\n            membershipChanges.push(newActivity);\r\n        } else {\r\n            revert(\"Invalid activity type\");\r\n        }\r\n\r\n        emit NewActivity(activityType, timestamp, description);\r\n    }\r\n\r\n    // Function to get the total number of activities for each type\r\n    function getActivityCounts() external view returns (uint256[] memory) {\r\n        uint256[] memory counts = new uint256[](4);\r\n        counts[0] = proposals.length;\r\n        counts[1] = votes.length;\r\n        counts[2] = transactions.length;\r\n        counts[3] = membershipChanges.length;\r\n        return counts;\r\n    }\r\n\r\n    // Function to get the details of a specific activity type\r\n    function getActivityDetails(\r\n        uint256 activityType\r\n    ) external view returns (Activity[] memory) {\r\n        require(\r\n            activityType >= 0 && activityType <= 3,\r\n            \"Invalid activity type\"\r\n        );\r\n\r\n        if (activityType == 0) {\r\n            return proposals;\r\n        } else if (activityType == 1) {\r\n            return votes;\r\n        } else if (activityType == 2) {\r\n            return transactions;\r\n        } else if (activityType == 3) {\r\n            return membershipChanges;\r\n        }\r\n        // Just in case, though the require statement should handle invalid types\r\n        revert(\"Invalid activity type\");\r\n    }\r\n}\r\n",
  "sourcePath": "D:\\DevTools\\flkm-project\\contracts\\DAOSupport\\CowlDaoAnalytics.sol",
  "compiler": {
    "name": "solc",
    "version": "0.8.17+commit.8df45f5f.Emscripten.clang"
  },
  "schemaVersion": "3.4.16",
  "updatedAt": "2023-10-22T01:35:14.070Z",
  "devdoc": {
    "kind": "dev",
    "methods": {
      "getRoleAdmin(bytes32)": {
        "details": "Returns the admin role that controls `role`. See {grantRole} and {revokeRole}. To change a role's admin, use {_setRoleAdmin}."
      },
      "grantRole(bytes32,address)": {
        "details": "Grants `role` to `account`. If `account` had not been already granted `role`, emits a {RoleGranted} event. Requirements: - the caller must have ``role``'s admin role. May emit a {RoleGranted} event."
      },
      "hasRole(bytes32,address)": {
        "details": "Returns `true` if `account` has been granted `role`."
      },
      "renounceRole(bytes32,address)": {
        "details": "Revokes `role` from the calling account. Roles are often managed via {grantRole} and {revokeRole}: this function's purpose is to provide a mechanism for accounts to lose their privileges if they are compromised (such as when a trusted device is misplaced). If the calling account had been revoked `role`, emits a {RoleRevoked} event. Requirements: - the caller must be `account`. May emit a {RoleRevoked} event."
      },
      "revokeRole(bytes32,address)": {
        "details": "Revokes `role` from `account`. If `account` had been granted `role`, emits a {RoleRevoked} event. Requirements: - the caller must have ``role``'s admin role. May emit a {RoleRevoked} event."
      },
      "supportsInterface(bytes4)": {
        "details": "See {IERC165-supportsInterface}."
      }
    },
    "version": 1
  },
  "userdoc": {
    "kind": "user",
    "methods": {},
    "version": 1
  }
}