{
  "contractName": "HelloWorld",
  "abi": [
    {
      "anonymous": false,
      "inputs": [
        {
          "indexed": false,
          "internalType": "uint8",
          "name": "version",
          "type": "uint8"
        }
      ],
      "name": "Initialized",
      "type": "event"
    },
    {
      "inputs": [],
      "name": "message",
      "outputs": [
        {
          "internalType": "string",
          "name": "",
          "type": "string"
        }
      ],
      "stateMutability": "view",
      "type": "function",
      "constant": true
    },
    {
      "inputs": [
        {
          "internalType": "string",
          "name": "initialMessage",
          "type": "string"
        }
      ],
      "name": "initialize",
      "outputs": [],
      "stateMutability": "nonpayable",
      "type": "function"
    },
    {
      "inputs": [
        {
          "internalType": "string",
          "name": "newMessage",
          "type": "string"
        }
      ],
      "name": "updateMessage",
      "outputs": [],
      "stateMutability": "nonpayable",
      "type": "function"
    }
  ],
  "bytecode": "0x608060405234801561001057600080fd5b506104d8806100206000396000f3fe608060405234801561001057600080fd5b50600436106100415760003560e01c80631923be2414610046578063e21f37ce1461005b578063f62d188814610079575b600080fd5b61005961005436600461025a565b61008c565b005b61006361009c565b604051610070919061030b565b60405180910390f35b61005961008736600461025a565b61012a565b600161009882826103e2565b5050565b600180546100a990610359565b80601f01602080910402602001604051908101604052809291908181526020018280546100d590610359565b80156101225780601f106100f757610100808354040283529160200191610122565b820191906000526020600020905b81548152906001019060200180831161010557829003601f168201915b505050505081565b600054610100900460ff161580801561014a5750600054600160ff909116105b806101645750303b158015610164575060005460ff166001145b6101cb5760405162461bcd60e51b815260206004820152602e60248201527f496e697469616c697a61626c653a20636f6e747261637420697320616c72656160448201526d191e481a5b9a5d1a585b1a5e995960921b606482015260840160405180910390fd5b6000805460ff1916600117905580156101ee576000805461ff0019166101001790555b60016101fa83826103e2565b508015610098576000805461ff0019169055604051600181527f7f26b83ff96e1f2b6a682f133852f6798a09c465da95921460cefb38474024989060200160405180910390a15050565b634e487b7160e01b600052604160045260246000fd5b60006020828403121561026c57600080fd5b813567ffffffffffffffff8082111561028457600080fd5b818401915084601f83011261029857600080fd5b8135818111156102aa576102aa610244565b604051601f8201601f19908116603f011681019083821181831017156102d2576102d2610244565b816040528281528760208487010111156102eb57600080fd5b826020860160208301376000928101602001929092525095945050505050565b600060208083528351808285015260005b818110156103385785810183015185820160400152820161031c565b506000604082860101526040601f19601f8301168501019250505092915050565b600181811c9082168061036d57607f821691505b60208210810361038d57634e487b7160e01b600052602260045260246000fd5b50919050565b601f8211156103dd57600081815260208120601f850160051c810160208610156103ba5750805b601f850160051c820191505b818110156103d9578281556001016103c6565b5050505b505050565b815167ffffffffffffffff8111156103fc576103fc610244565b6104108161040a8454610359565b84610393565b602080601f831160018114610445576000841561042d5750858301515b600019600386901b1c1916600185901b1785556103d9565b600085815260208120601f198616915b8281101561047457888601518255948401946001909101908401610455565b50858210156104925787850151600019600388901b60f8161c191681555b5050505050600190811b0190555056fea2646970667358221220186f1a0c86a008981526b29f9195e1b42fdbbcd821ec679921a732a895faf94964736f6c63430008110033",
  "immutableReferences": {},
  "source": "// SPDX-License-Identifier: MIT\r\npragma solidity ^0.8.9;\r\n\r\nimport \"@openzeppelin/contracts-upgradeable/proxy/utils/Initializable.sol\";\r\n\r\ncontract HelloWorld is Initializable {\r\n    string public message;\r\n\r\n    function initialize(string memory initialMessage) public initializer {\r\n        message = initialMessage;\r\n    }\r\n\r\n    function updateMessage(string memory newMessage) public {\r\n        message = newMessage;\r\n    }\r\n}\r\n",
  "sourcePath": "D:\\DevTools\\flkm-project\\contracts\\HelloWorld.sol",
  "compiler": {
    "name": "solc",
    "version": "0.8.17+commit.8df45f5f.Emscripten.clang"
  },
  "schemaVersion": "3.4.16",
  "updatedAt": "2023-10-21T23:09:18.767Z",
  "networkType": "ethereum",
  "devdoc": {
    "kind": "dev",
    "methods": {},
    "version": 1
  },
  "userdoc": {
    "kind": "user",
    "methods": {},
    "version": 1
  }
}