{
  "contractName": "HelloWorld",
  "abi": [
    {
      "anonymous": false,
      "inputs": [
        {
          "indexed": false,
          "internalType": "uint8",
          "name": "version",
          "type": "uint8"
        }
      ],
      "name": "Initialized",
      "type": "event"
    },
    {
      "inputs": [],
      "name": "message",
      "outputs": [
        {
          "internalType": "string",
          "name": "",
          "type": "string"
        }
      ],
      "stateMutability": "view",
      "type": "function",
      "constant": true
    },
    {
      "inputs": [
        {
          "internalType": "string",
          "name": "initialMessage",
          "type": "string"
        }
      ],
      "name": "initialize",
      "outputs": [],
      "stateMutability": "nonpayable",
      "type": "function"
    },
    {
      "inputs": [
        {
          "internalType": "string",
          "name": "newMessage",
          "type": "string"
        }
      ],
      "name": "updateMessage",
      "outputs": [],
      "stateMutability": "nonpayable",
      "type": "function"
    }
  ],
  "bytecode": "0x608060405234801561001057600080fd5b506108fe806100206000396000f3fe608060405234801561001057600080fd5b50600436106100415760003560e01c80631923be2414610046578063e21f37ce14610062578063f62d188814610080575b600080fd5b610060600480360381019061005b9190610401565b61009c565b005b61006a6100af565b60405161007791906104c9565b60405180910390f35b61009a60048036038101906100959190610401565b61013d565b005b80600190816100ab9190610701565b5050565b600180546100bc9061051a565b80601f01602080910402602001604051908101604052809291908181526020018280546100e89061051a565b80156101355780601f1061010a57610100808354040283529160200191610135565b820191906000526020600020905b81548152906001019060200180831161011857829003601f168201915b505050505081565b60008060019054906101000a900460ff1615905080801561016e5750600160008054906101000a900460ff1660ff16105b8061019b575061017d30610284565b15801561019a5750600160008054906101000a900460ff1660ff16145b5b6101da576040517f08c379a00000000000000000000000000000000000000000000000000000000081526004016101d190610845565b60405180910390fd5b60016000806101000a81548160ff021916908360ff1602179055508015610217576001600060016101000a81548160ff0219169083151502179055505b81600190816102269190610701565b5080156102805760008060016101000a81548160ff0219169083151502179055507f7f26b83ff96e1f2b6a682f133852f6798a09c465da95921460cefb3847402498600160405161027791906108ad565b60405180910390a15b5050565b6000808273ffffffffffffffffffffffffffffffffffffffff163b119050919050565b6000604051905090565b600080fd5b600080fd5b600080fd5b600080fd5b6000601f19601f8301169050919050565b7f4e487b7100000000000000000000000000000000000000000000000000000000600052604160045260246000fd5b61030e826102c5565b810181811067ffffffffffffffff8211171561032d5761032c6102d6565b5b80604052505050565b60006103406102a7565b905061034c8282610305565b919050565b600067ffffffffffffffff82111561036c5761036b6102d6565b5b610375826102c5565b9050602081019050919050565b82818337600083830152505050565b60006103a461039f84610351565b610336565b9050828152602081018484840111156103c0576103bf6102c0565b5b6103cb848285610382565b509392505050565b600082601f8301126103e8576103e76102bb565b5b81356103f8848260208601610391565b91505092915050565b600060208284031215610417576104166102b1565b5b600082013567ffffffffffffffff811115610435576104346102b6565b5b610441848285016103d3565b91505092915050565b600081519050919050565b600082825260208201905092915050565b60005b83811015610484578082015181840152602081019050610469565b60008484015250505050565b600061049b8261044a565b6104a58185610455565b93506104b5818560208601610466565b6104be816102c5565b840191505092915050565b600060208201905081810360008301526104e38184610490565b905092915050565b7f4e487b7100000000000000000000000000000000000000000000000000000000600052602260045260246000fd5b6000600282049050600182168061053257607f821691505b602082108103610545576105446104eb565b5b50919050565b60008190508160005260206000209050919050565b60006020601f8301049050919050565b600082821b905092915050565b6000600883026105ad7fffffffffffffffffffffffffffffffffffffffffffffffffffffffffffffffff82610570565b6105b78683610570565b95508019841693508086168417925050509392505050565b6000819050919050565b6000819050919050565b60006105fe6105f96105f4846105cf565b6105d9565b6105cf565b9050919050565b6000819050919050565b610618836105e3565b61062c61062482610605565b84845461057d565b825550505050565b600090565b610641610634565b61064c81848461060f565b505050565b5b8181101561067057610665600082610639565b600181019050610652565b5050565b601f8211156106b5576106868161054b565b61068f84610560565b8101602085101561069e578190505b6106b26106aa85610560565b830182610651565b50505b505050565b600082821c905092915050565b60006106d8600019846008026106ba565b1980831691505092915050565b60006106f183836106c7565b9150826002028217905092915050565b61070a8261044a565b67ffffffffffffffff811115610723576107226102d6565b5b61072d825461051a565b610738828285610674565b600060209050601f83116001811461076b5760008415610759578287015190505b61076385826106e5565b8655506107cb565b601f1984166107798661054b565b60005b828110156107a15784890151825560018201915060208501945060208101905061077c565b868310156107be57848901516107ba601f8916826106c7565b8355505b6001600288020188555050505b505050505050565b7f496e697469616c697a61626c653a20636f6e747261637420697320616c72656160008201527f647920696e697469616c697a6564000000000000000000000000000000000000602082015250565b600061082f602e83610455565b915061083a826107d3565b604082019050919050565b6000602082019050818103600083015261085e81610822565b9050919050565b6000819050919050565b600060ff82169050919050565b600061089761089261088d84610865565b6105d9565b61086f565b9050919050565b6108a78161087c565b82525050565b60006020820190506108c2600083018461089e565b9291505056fea264697066735822122033369367ed2fdd4740f576a6d274034bf7874adbff8e9359119652399b9c2aff64736f6c63430008110033",
  "immutableReferences": {},
  "source": "// SPDX-License-Identifier: MIT\r\npragma solidity ^0.8.9;\r\n\r\nimport \"@openzeppelin/contracts-upgradeable/proxy/utils/Initializable.sol\";\r\n\r\ncontract HelloWorld is Initializable {\r\n    string public message;\r\n\r\n    function initialize(string memory initialMessage) public initializer {\r\n        message = initialMessage;\r\n    }\r\n\r\n    function updateMessage(string memory newMessage) public {\r\n        message = newMessage;\r\n    }\r\n}\r\n",
  "sourcePath": "D:\\DevTools\\flkm-project\\contracts\\HelloWorld.sol",
  "compiler": {
    "name": "solc",
    "version": "0.8.17+commit.8df45f5f.Emscripten.clang"
  },
  "schemaVersion": "3.4.16",
  "updatedAt": "2023-10-16T02:23:54.145Z",
  "networkType": "ethereum",
  "devdoc": {
    "kind": "dev",
    "methods": {},
    "version": 1
  },
  "userdoc": {
    "kind": "user",
    "methods": {},
    "version": 1
  }
}