{
  "contractName": "LiquidityPool",
  "abi": [
    {
      "anonymous": false,
      "inputs": [
        {
          "indexed": true,
          "internalType": "address",
          "name": "owner",
          "type": "address"
        },
        {
          "indexed": true,
          "internalType": "address",
          "name": "spender",
          "type": "address"
        },
        {
          "indexed": false,
          "internalType": "uint256",
          "name": "value",
          "type": "uint256"
        }
      ],
      "name": "Approval",
      "type": "event"
    },
    {
      "anonymous": false,
      "inputs": [
        {
          "indexed": false,
          "internalType": "uint8",
          "name": "version",
          "type": "uint8"
        }
      ],
      "name": "Initialized",
      "type": "event"
    },
    {
      "anonymous": false,
      "inputs": [
        {
          "indexed": true,
          "internalType": "address",
          "name": "provider",
          "type": "address"
        },
        {
          "indexed": false,
          "internalType": "uint256",
          "name": "amountA",
          "type": "uint256"
        },
        {
          "indexed": false,
          "internalType": "uint256",
          "name": "amountB",
          "type": "uint256"
        },
        {
          "indexed": false,
          "internalType": "uint256",
          "name": "liquidity",
          "type": "uint256"
        }
      ],
      "name": "LiquidityAdded",
      "type": "event"
    },
    {
      "anonymous": false,
      "inputs": [
        {
          "indexed": true,
          "internalType": "address",
          "name": "provider",
          "type": "address"
        },
        {
          "indexed": false,
          "internalType": "uint256",
          "name": "amountA",
          "type": "uint256"
        },
        {
          "indexed": false,
          "internalType": "uint256",
          "name": "amountB",
          "type": "uint256"
        },
        {
          "indexed": false,
          "internalType": "uint256",
          "name": "liquidity",
          "type": "uint256"
        }
      ],
      "name": "LiquidityRemoved",
      "type": "event"
    },
    {
      "anonymous": false,
      "inputs": [
        {
          "indexed": true,
          "internalType": "address",
          "name": "swapper",
          "type": "address"
        },
        {
          "indexed": false,
          "internalType": "uint256",
          "name": "amountIn",
          "type": "uint256"
        },
        {
          "indexed": false,
          "internalType": "uint256",
          "name": "amountOut",
          "type": "uint256"
        }
      ],
      "name": "Swapped",
      "type": "event"
    },
    {
      "anonymous": false,
      "inputs": [
        {
          "indexed": true,
          "internalType": "address",
          "name": "from",
          "type": "address"
        },
        {
          "indexed": true,
          "internalType": "address",
          "name": "to",
          "type": "address"
        },
        {
          "indexed": false,
          "internalType": "uint256",
          "name": "value",
          "type": "uint256"
        }
      ],
      "name": "Transfer",
      "type": "event"
    },
    {
      "inputs": [
        {
          "internalType": "address",
          "name": "owner",
          "type": "address"
        },
        {
          "internalType": "address",
          "name": "spender",
          "type": "address"
        }
      ],
      "name": "allowance",
      "outputs": [
        {
          "internalType": "uint256",
          "name": "",
          "type": "uint256"
        }
      ],
      "stateMutability": "view",
      "type": "function"
    },
    {
      "inputs": [
        {
          "internalType": "address",
          "name": "spender",
          "type": "address"
        },
        {
          "internalType": "uint256",
          "name": "amount",
          "type": "uint256"
        }
      ],
      "name": "approve",
      "outputs": [
        {
          "internalType": "bool",
          "name": "",
          "type": "bool"
        }
      ],
      "stateMutability": "nonpayable",
      "type": "function"
    },
    {
      "inputs": [
        {
          "internalType": "address",
          "name": "account",
          "type": "address"
        }
      ],
      "name": "balanceOf",
      "outputs": [
        {
          "internalType": "uint256",
          "name": "",
          "type": "uint256"
        }
      ],
      "stateMutability": "view",
      "type": "function"
    },
    {
      "inputs": [],
      "name": "decimals",
      "outputs": [
        {
          "internalType": "uint8",
          "name": "",
          "type": "uint8"
        }
      ],
      "stateMutability": "view",
      "type": "function"
    },
    {
      "inputs": [
        {
          "internalType": "address",
          "name": "spender",
          "type": "address"
        },
        {
          "internalType": "uint256",
          "name": "subtractedValue",
          "type": "uint256"
        }
      ],
      "name": "decreaseAllowance",
      "outputs": [
        {
          "internalType": "bool",
          "name": "",
          "type": "bool"
        }
      ],
      "stateMutability": "nonpayable",
      "type": "function"
    },
    {
      "inputs": [
        {
          "internalType": "address",
          "name": "spender",
          "type": "address"
        },
        {
          "internalType": "uint256",
          "name": "addedValue",
          "type": "uint256"
        }
      ],
      "name": "increaseAllowance",
      "outputs": [
        {
          "internalType": "bool",
          "name": "",
          "type": "bool"
        }
      ],
      "stateMutability": "nonpayable",
      "type": "function"
    },
    {
      "inputs": [],
      "name": "name",
      "outputs": [
        {
          "internalType": "string",
          "name": "",
          "type": "string"
        }
      ],
      "stateMutability": "view",
      "type": "function"
    },
    {
      "inputs": [],
      "name": "symbol",
      "outputs": [
        {
          "internalType": "string",
          "name": "",
          "type": "string"
        }
      ],
      "stateMutability": "view",
      "type": "function"
    },
    {
      "inputs": [],
      "name": "tokenA",
      "outputs": [
        {
          "internalType": "contract IERC20Upgradeable",
          "name": "",
          "type": "address"
        }
      ],
      "stateMutability": "view",
      "type": "function"
    },
    {
      "inputs": [],
      "name": "tokenB",
      "outputs": [
        {
          "internalType": "contract IERC20Upgradeable",
          "name": "",
          "type": "address"
        }
      ],
      "stateMutability": "view",
      "type": "function"
    },
    {
      "inputs": [],
      "name": "totalSupply",
      "outputs": [
        {
          "internalType": "uint256",
          "name": "",
          "type": "uint256"
        }
      ],
      "stateMutability": "view",
      "type": "function"
    },
    {
      "inputs": [
        {
          "internalType": "address",
          "name": "to",
          "type": "address"
        },
        {
          "internalType": "uint256",
          "name": "amount",
          "type": "uint256"
        }
      ],
      "name": "transfer",
      "outputs": [
        {
          "internalType": "bool",
          "name": "",
          "type": "bool"
        }
      ],
      "stateMutability": "nonpayable",
      "type": "function"
    },
    {
      "inputs": [
        {
          "internalType": "address",
          "name": "from",
          "type": "address"
        },
        {
          "internalType": "address",
          "name": "to",
          "type": "address"
        },
        {
          "internalType": "uint256",
          "name": "amount",
          "type": "uint256"
        }
      ],
      "name": "transferFrom",
      "outputs": [
        {
          "internalType": "bool",
          "name": "",
          "type": "bool"
        }
      ],
      "stateMutability": "nonpayable",
      "type": "function"
    },
    {
      "inputs": [
        {
          "internalType": "address",
          "name": "_tokenA",
          "type": "address"
        },
        {
          "internalType": "address",
          "name": "_tokenB",
          "type": "address"
        }
      ],
      "name": "initialize",
      "outputs": [],
      "stateMutability": "nonpayable",
      "type": "function"
    },
    {
      "inputs": [
        {
          "internalType": "uint256",
          "name": "amountA",
          "type": "uint256"
        },
        {
          "internalType": "uint256",
          "name": "amountB",
          "type": "uint256"
        }
      ],
      "name": "addLiquidity",
      "outputs": [],
      "stateMutability": "nonpayable",
      "type": "function"
    },
    {
      "inputs": [
        {
          "internalType": "uint256",
          "name": "liquidityAmount",
          "type": "uint256"
        }
      ],
      "name": "removeLiquidity",
      "outputs": [],
      "stateMutability": "nonpayable",
      "type": "function"
    },
    {
      "inputs": [
        {
          "internalType": "uint256",
          "name": "amountIn",
          "type": "uint256"
        },
        {
          "internalType": "bool",
          "name": "isTokenAtoB",
          "type": "bool"
        }
      ],
      "name": "swap",
      "outputs": [],
      "stateMutability": "nonpayable",
      "type": "function"
    },
    {
      "inputs": [
        {
          "internalType": "uint256",
          "name": "amountIn",
          "type": "uint256"
        },
        {
          "internalType": "uint256",
          "name": "reserveIn",
          "type": "uint256"
        },
        {
          "internalType": "uint256",
          "name": "reserveOut",
          "type": "uint256"
        }
      ],
      "name": "getAmountOut",
      "outputs": [
        {
          "internalType": "uint256",
          "name": "",
          "type": "uint256"
        }
      ],
      "stateMutability": "pure",
      "type": "function"
    }
  ],
  "bytecode": "0x608060405234801561001057600080fd5b50611ac0806100206000396000f3fe608060405234801561001057600080fd5b50600436106101165760003560e01c8063485cc955116100a25780639c8f9f23116100715780639c8f9f231461024d5780639cd441da14610260578063a457c2d714610273578063a9059cbb14610286578063dd62ed3e1461029957600080fd5b8063485cc955146101f65780635f64b55b1461020957806370a082311461021c57806395d89b411461024557600080fd5b806318160ddd116100e957806318160ddd146101a457806323b872dd146101ac5780632aea6605146101bf578063313ce567146101d457806339509351146101e357600080fd5b8063054d50d41461011b57806306fdde0314610141578063095ea7b3146101565780630fc63d1014610179575b600080fd5b61012e61012936600461165b565b6102ac565b6040519081526020015b60405180910390f35b6101496102d4565b6040516101389190611687565b6101696101643660046116f1565b610366565b6040519015158152602001610138565b60975461018c906001600160a01b031681565b6040516001600160a01b039091168152602001610138565b60355461012e565b6101696101ba36600461171b565b610380565b6101d26101cd366004611765565b6103a4565b005b60405160128152602001610138565b6101696101f13660046116f1565b6107af565b6101d2610204366004611795565b6107d1565b60985461018c906001600160a01b031681565b61012e61022a3660046117c8565b6001600160a01b031660009081526033602052604090205490565b61014961095f565b6101d261025b3660046117ea565b61096e565b6101d261026e366004611803565b610c43565b6101696102813660046116f1565b610f40565b6101696102943660046116f1565b610fbb565b61012e6102a7366004611795565b610fc9565b60006102b8848461183b565b6102c2838661184e565b6102cc9190611865565b949350505050565b6060603680546102e390611887565b80601f016020809104026020016040519081016040528092919081815260200182805461030f90611887565b801561035c5780601f106103315761010080835404028352916020019161035c565b820191906000526020600020905b81548152906001019060200180831161033f57829003601f168201915b5050505050905090565b600033610374818585610ff4565b60019150505b92915050565b60003361038e858285611118565b610399858585611192565b506001949350505050565b6103ac61133d565b600082116103f85760405162461bcd60e51b8152602060048201526014602482015273125b9d985b1a59081a5b9c1d5d08185b5bdd5b9d60621b60448201526064015b60405180910390fd5b600081156105d3576097546040516370a0823160e01b81523060048201526104df9185916001600160a01b03909116906370a0823190602401602060405180830381865afa15801561044e573d6000803e3d6000fd5b505050506040513d601f19601f8201168201806040525081019061047291906118c1565b6098546040516370a0823160e01b81523060048201526001600160a01b03909116906370a08231906024015b602060405180830381865afa1580156104bb573d6000803e3d6000fd5b505050506040513d601f19601f8201168201806040525081019061012991906118c1565b6097546040516323b872dd60e01b81529192506001600160a01b0316906323b872dd90610514903390309088906004016118da565b6020604051808303816000875af1158015610533573d6000803e3d6000fd5b505050506040513d601f19601f8201168201806040525081019061055791906118fe565b5060985460405163a9059cbb60e01b8152336004820152602481018390526001600160a01b039091169063a9059cbb906044016020604051808303816000875af11580156105a9573d6000803e3d6000fd5b505050506040513d601f19601f820116820180604052508101906105cd91906118fe565b50610765565b6098546040516370a0823160e01b81523060048201526106759185916001600160a01b03909116906370a0823190602401602060405180830381865afa158015610621573d6000803e3d6000fd5b505050506040513d601f19601f8201168201806040525081019061064591906118c1565b6097546040516370a0823160e01b81523060048201526001600160a01b03909116906370a082319060240161049e565b6098546040516323b872dd60e01b81529192506001600160a01b0316906323b872dd906106aa903390309088906004016118da565b6020604051808303816000875af11580156106c9573d6000803e3d6000fd5b505050506040513d601f19601f820116820180604052508101906106ed91906118fe565b5060975460405163a9059cbb60e01b8152336004820152602481018390526001600160a01b039091169063a9059cbb906044016020604051808303816000875af115801561073f573d6000803e3d6000fd5b505050506040513d601f19601f8201168201806040525081019061076391906118fe565b505b604080518481526020810183905233917f3a9a9f34f5831e9c8ecb66ab3aa308b2ff31eaca434615f6c9cadc656a9af71c910160405180910390a2506107ab6001606555565b5050565b6000336103748185856107c28383610fc9565b6107cc919061183b565b610ff4565b600054610100900460ff16158080156107f15750600054600160ff909116105b8061080b5750303b15801561080b575060005460ff166001145b61086e5760405162461bcd60e51b815260206004820152602e60248201527f496e697469616c697a61626c653a20636f6e747261637420697320616c72656160448201526d191e481a5b9a5d1a585b1a5e995960921b60648201526084016103ef565b6000805460ff191660011790558015610891576000805461ff0019166101001790555b6108dc6040518060400160405280600e81526020016d2634b8bab4b234ba3caa37b5b2b760911b8152506040518060400160405280600381526020016213141560ea1b81525061139d565b6108e46113ce565b609780546001600160a01b038086166001600160a01b0319928316179092556098805492851692909116919091179055801561095a576000805461ff0019169055604051600181527f7f26b83ff96e1f2b6a682f133852f6798a09c465da95921460cefb38474024989060200160405180910390a15b505050565b6060603780546102e390611887565b61097661133d565b6000811180156109955750336000908152603360205260409020548111155b6109e15760405162461bcd60e51b815260206004820152601860248201527f496e76616c6964206c697175696469747920616d6f756e74000000000000000060448201526064016103ef565b60006109ec60355490565b6097546040516370a0823160e01b815230600482015284916001600160a01b0316906370a0823190602401602060405180830381865afa158015610a34573d6000803e3d6000fd5b505050506040513d601f19601f82011682018060405250810190610a5891906118c1565b610a62919061184e565b610a6c9190611865565b90506000610a7960355490565b6098546040516370a0823160e01b815230600482015285916001600160a01b0316906370a0823190602401602060405180830381865afa158015610ac1573d6000803e3d6000fd5b505050506040513d601f19601f82011682018060405250810190610ae591906118c1565b610aef919061184e565b610af99190611865565b9050610b0533846113ff565b60975460405163a9059cbb60e01b8152336004820152602481018490526001600160a01b039091169063a9059cbb906044016020604051808303816000875af1158015610b56573d6000803e3d6000fd5b505050506040513d601f19601f82011682018060405250810190610b7a91906118fe565b5060985460405163a9059cbb60e01b8152336004820152602481018390526001600160a01b039091169063a9059cbb906044016020604051808303816000875af1158015610bcc573d6000803e3d6000fd5b505050506040513d601f19601f82011682018060405250810190610bf091906118fe565b50604080518381526020810183905290810184905233907f1dc8bb69df2b8e91fbdcbfcf93d951b3f0000f085a95fe3f7946d6161439245d9060600160405180910390a25050610c406001606555565b50565b610c4b61133d565b600082118015610c5b5750600081115b610c995760405162461bcd60e51b815260206004820152600f60248201526e496e76616c696420616d6f756e747360881b60448201526064016103ef565b6097546040516370a0823160e01b81523060048201526000916001600160a01b0316906370a0823190602401602060405180830381865afa158015610ce2573d6000803e3d6000fd5b505050506040513d601f19601f82011682018060405250810190610d0691906118c1565b6098546040516370a0823160e01b81523060048201529192506000916001600160a01b03909116906370a0823190602401602060405180830381865afa158015610d54573d6000803e3d6000fd5b505050506040513d601f19601f82011682018060405250810190610d7891906118c1565b6097546040516323b872dd60e01b81529192506001600160a01b0316906323b872dd90610dad903390309089906004016118da565b6020604051808303816000875af1158015610dcc573d6000803e3d6000fd5b505050506040513d601f19601f82011682018060405250810190610df091906118fe565b506098546040516323b872dd60e01b81526001600160a01b03909116906323b872dd90610e25903390309088906004016118da565b6020604051808303816000875af1158015610e44573d6000803e3d6000fd5b505050506040513d601f19601f82011682018060405250810190610e6891906118fe565b506000610e7460355490565b600003610e8c57610e85848661183b565b9050610ee6565b60008386610e9960355490565b610ea3919061184e565b610ead9190611865565b905060008386610ebc60355490565b610ec6919061184e565b610ed09190611865565b9050808210610edf5780610ee1565b815b925050505b610ef03382611533565b604080518681526020810186905290810182905233907f64b83944e79c3ce8d4c297411de637c3e102d064677aac0c163976ebdcd6f50e9060600160405180910390a25050506107ab6001606555565b60003381610f4e8286610fc9565b905083811015610fae5760405162461bcd60e51b815260206004820152602560248201527f45524332303a2064656372656173656420616c6c6f77616e63652062656c6f77604482015264207a65726f60d81b60648201526084016103ef565b6103998286868403610ff4565b600033610374818585611192565b6001600160a01b03918216600090815260346020908152604080832093909416825291909152205490565b6001600160a01b0383166110565760405162461bcd60e51b8152602060048201526024808201527f45524332303a20617070726f76652066726f6d20746865207a65726f206164646044820152637265737360e01b60648201526084016103ef565b6001600160a01b0382166110b75760405162461bcd60e51b815260206004820152602260248201527f45524332303a20617070726f766520746f20746865207a65726f206164647265604482015261737360f01b60648201526084016103ef565b6001600160a01b0383811660008181526034602090815260408083209487168084529482529182902085905590518481527f8c5be1e5ebec7d5bd14f71427d1e84f3dd0314c0f7b2291e5b200ac8c7c3b925910160405180910390a3505050565b60006111248484610fc9565b9050600019811461118c578181101561117f5760405162461bcd60e51b815260206004820152601d60248201527f45524332303a20696e73756666696369656e7420616c6c6f77616e636500000060448201526064016103ef565b61118c8484848403610ff4565b50505050565b6001600160a01b0383166111f65760405162461bcd60e51b815260206004820152602560248201527f45524332303a207472616e736665722066726f6d20746865207a65726f206164604482015264647265737360d81b60648201526084016103ef565b6001600160a01b0382166112585760405162461bcd60e51b815260206004820152602360248201527f45524332303a207472616e7366657220746f20746865207a65726f206164647260448201526265737360e81b60648201526084016103ef565b6001600160a01b038316600090815260336020526040902054818110156112d05760405162461bcd60e51b815260206004820152602660248201527f45524332303a207472616e7366657220616d6f756e7420657863656564732062604482015265616c616e636560d01b60648201526084016103ef565b6001600160a01b0380851660008181526033602052604080822086860390559286168082529083902080548601905591517fddf252ad1be2c89b69c2b068fc378daa952ba7f163c4a11628f55a4df523b3ef906113309086815260200190565b60405180910390a361118c565b60026065540361138f5760405162461bcd60e51b815260206004820152601f60248201527f5265656e7472616e637947756172643a207265656e7472616e742063616c6c0060448201526064016103ef565b6002606555565b6001606555565b600054610100900460ff166113c45760405162461bcd60e51b81526004016103ef9061191b565b6107ab82826115f4565b600054610100900460ff166113f55760405162461bcd60e51b81526004016103ef9061191b565b6113fd611634565b565b6001600160a01b03821661145f5760405162461bcd60e51b815260206004820152602160248201527f45524332303a206275726e2066726f6d20746865207a65726f206164647265736044820152607360f81b60648201526084016103ef565b6001600160a01b038216600090815260336020526040902054818110156114d35760405162461bcd60e51b815260206004820152602260248201527f45524332303a206275726e20616d6f756e7420657863656564732062616c616e604482015261636560f01b60648201526084016103ef565b6001600160a01b03831660008181526033602090815260408083208686039055603580548790039055518581529192917fddf252ad1be2c89b69c2b068fc378daa952ba7f163c4a11628f55a4df523b3ef910160405180910390a3505050565b6001600160a01b0382166115895760405162461bcd60e51b815260206004820152601f60248201527f45524332303a206d696e7420746f20746865207a65726f20616464726573730060448201526064016103ef565b806035600082825461159b919061183b565b90915550506001600160a01b0382166000818152603360209081526040808320805486019055518481527fddf252ad1be2c89b69c2b068fc378daa952ba7f163c4a11628f55a4df523b3ef910160405180910390a35050565b600054610100900460ff1661161b5760405162461bcd60e51b81526004016103ef9061191b565b603661162783826119ca565b50603761095a82826119ca565b600054610100900460ff166113965760405162461bcd60e51b81526004016103ef9061191b565b60008060006060848603121561167057600080fd5b505081359360208301359350604090920135919050565b600060208083528351808285015260005b818110156116b457858101830151858201604001528201611698565b506000604082860101526040601f19601f8301168501019250505092915050565b80356001600160a01b03811681146116ec57600080fd5b919050565b6000806040838503121561170457600080fd5b61170d836116d5565b946020939093013593505050565b60008060006060848603121561173057600080fd5b611739846116d5565b9250611747602085016116d5565b9150604084013590509250925092565b8015158114610c4057600080fd5b6000806040838503121561177857600080fd5b82359150602083013561178a81611757565b809150509250929050565b600080604083850312156117a857600080fd5b6117b1836116d5565b91506117bf602084016116d5565b90509250929050565b6000602082840312156117da57600080fd5b6117e3826116d5565b9392505050565b6000602082840312156117fc57600080fd5b5035919050565b6000806040838503121561181657600080fd5b50508035926020909101359150565b634e487b7160e01b600052601160045260246000fd5b8082018082111561037a5761037a611825565b808202811582820484141761037a5761037a611825565b60008261188257634e487b7160e01b600052601260045260246000fd5b500490565b600181811c9082168061189b57607f821691505b6020821081036118bb57634e487b7160e01b600052602260045260246000fd5b50919050565b6000602082840312156118d357600080fd5b5051919050565b6001600160a01b039384168152919092166020820152604081019190915260600190565b60006020828403121561191057600080fd5b81516117e381611757565b6020808252602b908201527f496e697469616c697a61626c653a20636f6e7472616374206973206e6f74206960408201526a6e697469616c697a696e6760a81b606082015260800190565b634e487b7160e01b600052604160045260246000fd5b601f82111561095a57600081815260208120601f850160051c810160208610156119a35750805b601f850160051c820191505b818110156119c2578281556001016119af565b505050505050565b815167ffffffffffffffff8111156119e4576119e4611966565b6119f8816119f28454611887565b8461197c565b602080601f831160018114611a2d5760008415611a155750858301515b600019600386901b1c1916600185901b1785556119c2565b600085815260208120601f198616915b82811015611a5c57888601518255948401946001909101908401611a3d565b5085821015611a7a5787850151600019600388901b60f8161c191681555b5050505050600190811b0190555056fea2646970667358221220d951a9f9d04280ba13e3184fe3301460d2b5a012d52c7c76616fd4ec945c46e964736f6c63430008110033",
  "immutableReferences": {},
  "source": "// SPDX-License-Identifier: MIT\r\npragma solidity ^0.8.17;\r\n\r\nimport \"@openzeppelin/contracts-upgradeable/token/ERC20/ERC20Upgradeable.sol\";\r\nimport \"@openzeppelin/contracts-upgradeable/token/ERC20/IERC20Upgradeable.sol\";\r\nimport \"@openzeppelin/contracts-upgradeable/security/ReentrancyGuardUpgradeable.sol\";\r\n\r\ncontract LiquidityPool is ERC20Upgradeable, ReentrancyGuardUpgradeable {\r\n    IERC20Upgradeable public tokenA;\r\n    IERC20Upgradeable public tokenB;\r\n\r\n    event LiquidityAdded(\r\n        address indexed provider,\r\n        uint256 amountA,\r\n        uint256 amountB,\r\n        uint256 liquidity\r\n    );\r\n    event LiquidityRemoved(\r\n        address indexed provider,\r\n        uint256 amountA,\r\n        uint256 amountB,\r\n        uint256 liquidity\r\n    );\r\n    event Swapped(address indexed swapper, uint256 amountIn, uint256 amountOut);\r\n\r\n    function initialize(address _tokenA, address _tokenB) public initializer {\r\n        __ERC20_init(\"LiquidityToken\", \"LPT\");\r\n        __ReentrancyGuard_init();\r\n        tokenA = IERC20Upgradeable(_tokenA);\r\n        tokenB = IERC20Upgradeable(_tokenB);\r\n    }\r\n\r\n    function addLiquidity(\r\n        uint256 amountA,\r\n        uint256 amountB\r\n    ) external nonReentrant {\r\n        require(amountA > 0 && amountB > 0, \"Invalid amounts\");\r\n\r\n        uint256 _totalA = tokenA.balanceOf(address(this));\r\n        uint256 _totalB = tokenB.balanceOf(address(this));\r\n\r\n        tokenA.transferFrom(msg.sender, address(this), amountA);\r\n        tokenB.transferFrom(msg.sender, address(this), amountB);\r\n\r\n        uint256 liquidityMinted;\r\n        if (totalSupply() == 0) {\r\n            liquidityMinted = amountA + amountB;\r\n        } else {\r\n            uint256 liquidityA = (totalSupply() * amountA) / _totalA;\r\n            uint256 liquidityB = (totalSupply() * amountB) / _totalB;\r\n            liquidityMinted = liquidityA < liquidityB ? liquidityA : liquidityB;\r\n        }\r\n\r\n        _mint(msg.sender, liquidityMinted); // Mint LP tokens to the liquidity provider\r\n        emit LiquidityAdded(msg.sender, amountA, amountB, liquidityMinted);\r\n    }\r\n\r\n    function removeLiquidity(uint256 liquidityAmount) external nonReentrant {\r\n        require(\r\n            liquidityAmount > 0 && balanceOf(msg.sender) >= liquidityAmount,\r\n            \"Invalid liquidity amount\"\r\n        );\r\n\r\n        uint256 amountA = (tokenA.balanceOf(address(this)) * liquidityAmount) /\r\n            totalSupply();\r\n        uint256 amountB = (tokenB.balanceOf(address(this)) * liquidityAmount) /\r\n            totalSupply();\r\n\r\n        _burn(msg.sender, liquidityAmount); // Burn LP tokens from the liquidity provider\r\n        tokenA.transfer(msg.sender, amountA);\r\n        tokenB.transfer(msg.sender, amountB);\r\n\r\n        emit LiquidityRemoved(msg.sender, amountA, amountB, liquidityAmount);\r\n    }\r\n\r\n    function swap(uint256 amountIn, bool isTokenAtoB) external nonReentrant {\r\n        require(amountIn > 0, \"Invalid input amount\");\r\n\r\n        uint256 amountOut;\r\n        if (isTokenAtoB) {\r\n            amountOut = getAmountOut(\r\n                amountIn,\r\n                tokenA.balanceOf(address(this)),\r\n                tokenB.balanceOf(address(this))\r\n            );\r\n            tokenA.transferFrom(msg.sender, address(this), amountIn);\r\n            tokenB.transfer(msg.sender, amountOut);\r\n        } else {\r\n            amountOut = getAmountOut(\r\n                amountIn,\r\n                tokenB.balanceOf(address(this)),\r\n                tokenA.balanceOf(address(this))\r\n            );\r\n            tokenB.transferFrom(msg.sender, address(this), amountIn);\r\n            tokenA.transfer(msg.sender, amountOut);\r\n        }\r\n\r\n        emit Swapped(msg.sender, amountIn, amountOut);\r\n    }\r\n\r\n    function getAmountOut(\r\n        uint256 amountIn,\r\n        uint256 reserveIn,\r\n        uint256 reserveOut\r\n    ) public pure returns (uint256) {\r\n        return (amountIn * reserveOut) / (reserveIn + amountIn);\r\n    }\r\n}\r\n",
  "sourcePath": "D:\\DevTools\\flkm-project\\contracts\\DAOSupport\\LiquidityPool.sol",
  "compiler": {
    "name": "solc",
    "version": "0.8.17+commit.8df45f5f.Emscripten.clang"
  },
  "schemaVersion": "3.4.16",
  "updatedAt": "2023-10-22T01:35:14.092Z",
  "devdoc": {
    "kind": "dev",
    "methods": {
      "allowance(address,address)": {
        "details": "See {IERC20-allowance}."
      },
      "approve(address,uint256)": {
        "details": "See {IERC20-approve}. NOTE: If `amount` is the maximum `uint256`, the allowance is not updated on `transferFrom`. This is semantically equivalent to an infinite approval. Requirements: - `spender` cannot be the zero address."
      },
      "balanceOf(address)": {
        "details": "See {IERC20-balanceOf}."
      },
      "decimals()": {
        "details": "Returns the number of decimals used to get its user representation. For example, if `decimals` equals `2`, a balance of `505` tokens should be displayed to a user as `5.05` (`505 / 10 ** 2`). Tokens usually opt for a value of 18, imitating the relationship between Ether and Wei. This is the default value returned by this function, unless it's overridden. NOTE: This information is only used for _display_ purposes: it in no way affects any of the arithmetic of the contract, including {IERC20-balanceOf} and {IERC20-transfer}."
      },
      "decreaseAllowance(address,uint256)": {
        "details": "Atomically decreases the allowance granted to `spender` by the caller. This is an alternative to {approve} that can be used as a mitigation for problems described in {IERC20-approve}. Emits an {Approval} event indicating the updated allowance. Requirements: - `spender` cannot be the zero address. - `spender` must have allowance for the caller of at least `subtractedValue`."
      },
      "increaseAllowance(address,uint256)": {
        "details": "Atomically increases the allowance granted to `spender` by the caller. This is an alternative to {approve} that can be used as a mitigation for problems described in {IERC20-approve}. Emits an {Approval} event indicating the updated allowance. Requirements: - `spender` cannot be the zero address."
      },
      "name()": {
        "details": "Returns the name of the token."
      },
      "symbol()": {
        "details": "Returns the symbol of the token, usually a shorter version of the name."
      },
      "totalSupply()": {
        "details": "See {IERC20-totalSupply}."
      },
      "transfer(address,uint256)": {
        "details": "See {IERC20-transfer}. Requirements: - `to` cannot be the zero address. - the caller must have a balance of at least `amount`."
      },
      "transferFrom(address,address,uint256)": {
        "details": "See {IERC20-transferFrom}. Emits an {Approval} event indicating the updated allowance. This is not required by the EIP. See the note at the beginning of {ERC20}. NOTE: Does not update the allowance if the current allowance is the maximum `uint256`. Requirements: - `from` and `to` cannot be the zero address. - `from` must have a balance of at least `amount`. - the caller must have allowance for ``from``'s tokens of at least `amount`."
      }
    },
    "version": 1
  },
  "userdoc": {
    "kind": "user",
    "methods": {},
    "version": 1
  }
}