{
  "contractName": "ReputationNFT",
  "abi": [
    {
      "anonymous": false,
      "inputs": [
        {
          "indexed": true,
          "internalType": "address",
          "name": "owner",
          "type": "address"
        },
        {
          "indexed": true,
          "internalType": "address",
          "name": "approved",
          "type": "address"
        },
        {
          "indexed": true,
          "internalType": "uint256",
          "name": "tokenId",
          "type": "uint256"
        }
      ],
      "name": "Approval",
      "type": "event"
    },
    {
      "anonymous": false,
      "inputs": [
        {
          "indexed": true,
          "internalType": "address",
          "name": "owner",
          "type": "address"
        },
        {
          "indexed": true,
          "internalType": "address",
          "name": "operator",
          "type": "address"
        },
        {
          "indexed": false,
          "internalType": "bool",
          "name": "approved",
          "type": "bool"
        }
      ],
      "name": "ApprovalForAll",
      "type": "event"
    },
    {
      "anonymous": false,
      "inputs": [
        {
          "indexed": false,
          "internalType": "uint8",
          "name": "version",
          "type": "uint8"
        }
      ],
      "name": "Initialized",
      "type": "event"
    },
    {
      "anonymous": false,
      "inputs": [
        {
          "indexed": true,
          "internalType": "bytes32",
          "name": "role",
          "type": "bytes32"
        },
        {
          "indexed": true,
          "internalType": "bytes32",
          "name": "previousAdminRole",
          "type": "bytes32"
        },
        {
          "indexed": true,
          "internalType": "bytes32",
          "name": "newAdminRole",
          "type": "bytes32"
        }
      ],
      "name": "RoleAdminChanged",
      "type": "event"
    },
    {
      "anonymous": false,
      "inputs": [
        {
          "indexed": true,
          "internalType": "bytes32",
          "name": "role",
          "type": "bytes32"
        },
        {
          "indexed": true,
          "internalType": "address",
          "name": "account",
          "type": "address"
        },
        {
          "indexed": true,
          "internalType": "address",
          "name": "sender",
          "type": "address"
        }
      ],
      "name": "RoleGranted",
      "type": "event"
    },
    {
      "anonymous": false,
      "inputs": [
        {
          "indexed": true,
          "internalType": "bytes32",
          "name": "role",
          "type": "bytes32"
        },
        {
          "indexed": true,
          "internalType": "address",
          "name": "account",
          "type": "address"
        },
        {
          "indexed": true,
          "internalType": "address",
          "name": "sender",
          "type": "address"
        }
      ],
      "name": "RoleRevoked",
      "type": "event"
    },
    {
      "anonymous": false,
      "inputs": [
        {
          "indexed": true,
          "internalType": "address",
          "name": "from",
          "type": "address"
        },
        {
          "indexed": true,
          "internalType": "address",
          "name": "to",
          "type": "address"
        },
        {
          "indexed": true,
          "internalType": "uint256",
          "name": "tokenId",
          "type": "uint256"
        }
      ],
      "name": "Transfer",
      "type": "event"
    },
    {
      "inputs": [],
      "name": "ADMIN_ROLE",
      "outputs": [
        {
          "internalType": "bytes32",
          "name": "",
          "type": "bytes32"
        }
      ],
      "stateMutability": "view",
      "type": "function",
      "constant": true
    },
    {
      "inputs": [],
      "name": "DEFAULT_ADMIN_ROLE",
      "outputs": [
        {
          "internalType": "bytes32",
          "name": "",
          "type": "bytes32"
        }
      ],
      "stateMutability": "view",
      "type": "function",
      "constant": true
    },
    {
      "inputs": [
        {
          "internalType": "address",
          "name": "to",
          "type": "address"
        },
        {
          "internalType": "uint256",
          "name": "tokenId",
          "type": "uint256"
        }
      ],
      "name": "approve",
      "outputs": [],
      "stateMutability": "nonpayable",
      "type": "function"
    },
    {
      "inputs": [
        {
          "internalType": "address",
          "name": "owner",
          "type": "address"
        }
      ],
      "name": "balanceOf",
      "outputs": [
        {
          "internalType": "uint256",
          "name": "",
          "type": "uint256"
        }
      ],
      "stateMutability": "view",
      "type": "function",
      "constant": true
    },
    {
      "inputs": [
        {
          "internalType": "uint256",
          "name": "tokenId",
          "type": "uint256"
        }
      ],
      "name": "getApproved",
      "outputs": [
        {
          "internalType": "address",
          "name": "",
          "type": "address"
        }
      ],
      "stateMutability": "view",
      "type": "function",
      "constant": true
    },
    {
      "inputs": [
        {
          "internalType": "bytes32",
          "name": "role",
          "type": "bytes32"
        }
      ],
      "name": "getRoleAdmin",
      "outputs": [
        {
          "internalType": "bytes32",
          "name": "",
          "type": "bytes32"
        }
      ],
      "stateMutability": "view",
      "type": "function",
      "constant": true
    },
    {
      "inputs": [
        {
          "internalType": "bytes32",
          "name": "role",
          "type": "bytes32"
        },
        {
          "internalType": "address",
          "name": "account",
          "type": "address"
        }
      ],
      "name": "grantRole",
      "outputs": [],
      "stateMutability": "nonpayable",
      "type": "function"
    },
    {
      "inputs": [
        {
          "internalType": "bytes32",
          "name": "role",
          "type": "bytes32"
        },
        {
          "internalType": "address",
          "name": "account",
          "type": "address"
        }
      ],
      "name": "hasRole",
      "outputs": [
        {
          "internalType": "bool",
          "name": "",
          "type": "bool"
        }
      ],
      "stateMutability": "view",
      "type": "function",
      "constant": true
    },
    {
      "inputs": [
        {
          "internalType": "address",
          "name": "owner",
          "type": "address"
        },
        {
          "internalType": "address",
          "name": "operator",
          "type": "address"
        }
      ],
      "name": "isApprovedForAll",
      "outputs": [
        {
          "internalType": "bool",
          "name": "",
          "type": "bool"
        }
      ],
      "stateMutability": "view",
      "type": "function",
      "constant": true
    },
    {
      "inputs": [],
      "name": "marketplaceContract",
      "outputs": [
        {
          "internalType": "contract CowlMarketplaceBase",
          "name": "",
          "type": "address"
        }
      ],
      "stateMutability": "view",
      "type": "function",
      "constant": true
    },
    {
      "inputs": [],
      "name": "name",
      "outputs": [
        {
          "internalType": "string",
          "name": "",
          "type": "string"
        }
      ],
      "stateMutability": "view",
      "type": "function",
      "constant": true
    },
    {
      "inputs": [
        {
          "internalType": "uint256",
          "name": "tokenId",
          "type": "uint256"
        }
      ],
      "name": "ownerOf",
      "outputs": [
        {
          "internalType": "address",
          "name": "",
          "type": "address"
        }
      ],
      "stateMutability": "view",
      "type": "function",
      "constant": true
    },
    {
      "inputs": [
        {
          "internalType": "bytes32",
          "name": "role",
          "type": "bytes32"
        },
        {
          "internalType": "address",
          "name": "account",
          "type": "address"
        }
      ],
      "name": "renounceRole",
      "outputs": [],
      "stateMutability": "nonpayable",
      "type": "function"
    },
    {
      "inputs": [
        {
          "internalType": "bytes32",
          "name": "role",
          "type": "bytes32"
        },
        {
          "internalType": "address",
          "name": "account",
          "type": "address"
        }
      ],
      "name": "revokeRole",
      "outputs": [],
      "stateMutability": "nonpayable",
      "type": "function"
    },
    {
      "inputs": [
        {
          "internalType": "address",
          "name": "from",
          "type": "address"
        },
        {
          "internalType": "address",
          "name": "to",
          "type": "address"
        },
        {
          "internalType": "uint256",
          "name": "tokenId",
          "type": "uint256"
        }
      ],
      "name": "safeTransferFrom",
      "outputs": [],
      "stateMutability": "nonpayable",
      "type": "function"
    },
    {
      "inputs": [
        {
          "internalType": "address",
          "name": "from",
          "type": "address"
        },
        {
          "internalType": "address",
          "name": "to",
          "type": "address"
        },
        {
          "internalType": "uint256",
          "name": "tokenId",
          "type": "uint256"
        },
        {
          "internalType": "bytes",
          "name": "data",
          "type": "bytes"
        }
      ],
      "name": "safeTransferFrom",
      "outputs": [],
      "stateMutability": "nonpayable",
      "type": "function"
    },
    {
      "inputs": [
        {
          "internalType": "address",
          "name": "operator",
          "type": "address"
        },
        {
          "internalType": "bool",
          "name": "approved",
          "type": "bool"
        }
      ],
      "name": "setApprovalForAll",
      "outputs": [],
      "stateMutability": "nonpayable",
      "type": "function"
    },
    {
      "inputs": [],
      "name": "symbol",
      "outputs": [
        {
          "internalType": "string",
          "name": "",
          "type": "string"
        }
      ],
      "stateMutability": "view",
      "type": "function",
      "constant": true
    },
    {
      "inputs": [
        {
          "internalType": "uint256",
          "name": "tokenId",
          "type": "uint256"
        }
      ],
      "name": "tokenURI",
      "outputs": [
        {
          "internalType": "string",
          "name": "",
          "type": "string"
        }
      ],
      "stateMutability": "view",
      "type": "function",
      "constant": true
    },
    {
      "inputs": [
        {
          "internalType": "address",
          "name": "from",
          "type": "address"
        },
        {
          "internalType": "address",
          "name": "to",
          "type": "address"
        },
        {
          "internalType": "uint256",
          "name": "tokenId",
          "type": "uint256"
        }
      ],
      "name": "transferFrom",
      "outputs": [],
      "stateMutability": "nonpayable",
      "type": "function"
    },
    {
      "inputs": [
        {
          "internalType": "address payable",
          "name": "_marketplaceContractAddress",
          "type": "address"
        }
      ],
      "name": "initialize",
      "outputs": [],
      "stateMutability": "nonpayable",
      "type": "function"
    },
    {
      "inputs": [
        {
          "internalType": "bytes4",
          "name": "interfaceId",
          "type": "bytes4"
        }
      ],
      "name": "supportsInterface",
      "outputs": [
        {
          "internalType": "bool",
          "name": "",
          "type": "bool"
        }
      ],
      "stateMutability": "view",
      "type": "function",
      "constant": true
    },
    {
      "inputs": [
        {
          "internalType": "address",
          "name": "user",
          "type": "address"
        }
      ],
      "name": "mintNFT",
      "outputs": [],
      "stateMutability": "nonpayable",
      "type": "function"
    }
  ],
  "bytecode": "0x608060405234801561001057600080fd5b50611dd8806100206000396000f3fe608060405234801561001057600080fd5b506004361061014d5760003560e01c806370a08231116100c3578063b88d4fde1161007c578063b88d4fde146102e2578063c4d66de8146102f5578063c87b56dd14610308578063d1bb5cf11461031b578063d547741f1461032e578063e985e9c51461034157600080fd5b806370a082311461027257806375b238fc1461028557806391d14854146102ac57806395d89b41146102bf578063a217fddf146102c7578063a22cb465146102cf57600080fd5b8063248a9ca311610115578063248a9ca3146101e25780632f2ff15d1461021357806336568abe1461022657806342842e0e1461023957806354ba0f271461024c5780636352211e1461025f57600080fd5b806301ffc9a71461015257806306fdde031461017a578063081812fc1461018f578063095ea7b3146101ba57806323b872dd146101cf575b600080fd5b6101656101603660046116ca565b61037d565b60405190151581526020015b60405180910390f35b61018261038e565b6040516101719190611737565b6101a261019d36600461174a565b610420565b6040516001600160a01b039091168152602001610171565b6101cd6101c8366004611778565b610447565b005b6101cd6101dd3660046117a4565b610561565b6102056101f036600461174a565b60009081526097602052604090206001015490565b604051908152602001610171565b6101cd6102213660046117e5565b610592565b6101cd6102343660046117e5565b6105b7565b6101cd6102473660046117a4565b610635565b6101cd61025a366004611815565b610650565b6101a261026d36600461174a565b6106a2565b610205610280366004611815565b610702565b6102057fa49807205ce4d355092ef5a8a18f56e8913cf4a201fbe287825b095693c2177581565b6101656102ba3660046117e5565b610788565b6101826107b3565b610205600081565b6101cd6102dd366004611832565b6107c2565b6101cd6102f036600461187b565b6107cd565b6101cd610303366004611815565b610805565b61018261031636600461174a565b6109a7565b60c9546101a2906001600160a01b031681565b6101cd61033c3660046117e5565b610a1b565b61016561034f36600461195b565b6001600160a01b039182166000908152606a6020908152604080832093909416825291909152205460ff1690565b600061038882610a40565b92915050565b60606065805461039d90611989565b80601f01602080910402602001604051908101604052809291908181526020018280546103c990611989565b80156104165780601f106103eb57610100808354040283529160200191610416565b820191906000526020600020905b8154815290600101906020018083116103f957829003601f168201915b5050505050905090565b600061042b82610a65565b506000908152606960205260409020546001600160a01b031690565b6000610452826106a2565b9050806001600160a01b0316836001600160a01b0316036104c45760405162461bcd60e51b815260206004820152602160248201527f4552433732313a20617070726f76616c20746f2063757272656e74206f776e656044820152603960f91b60648201526084015b60405180910390fd5b336001600160a01b03821614806104e057506104e0813361034f565b6105525760405162461bcd60e51b815260206004820152603d60248201527f4552433732313a20617070726f76652063616c6c6572206973206e6f7420746f60448201527f6b656e206f776e6572206f7220617070726f76656420666f7220616c6c00000060648201526084016104bb565b61055c8383610ac7565b505050565b61056b3382610b35565b6105875760405162461bcd60e51b81526004016104bb906119c3565b61055c838383610bb4565b6000828152609760205260409020600101546105ad81610d18565b61055c8383610d22565b6001600160a01b03811633146106275760405162461bcd60e51b815260206004820152602f60248201527f416363657373436f6e74726f6c3a2063616e206f6e6c792072656e6f756e636560448201526e103937b632b9903337b91039b2b63360891b60648201526084016104bb565b6106318282610da8565b5050565b61055c838383604051806020016040528060008152506107cd565b7fa49807205ce4d355092ef5a8a18f56e8913cf4a201fbe287825b095693c2177561067a81610d18565b600061068583610e0f565b905061055c8382600581111561069d5761069d611a10565b610e7e565b6000818152606760205260408120546001600160a01b0316806103885760405162461bcd60e51b8152602060048201526018602482015277115490cdcc8c4e881a5b9d985b1a59081d1bdad95b88125160421b60448201526064016104bb565b60006001600160a01b03821661076c5760405162461bcd60e51b815260206004820152602960248201527f4552433732313a2061646472657373207a65726f206973206e6f7420612076616044820152683634b21037bbb732b960b91b60648201526084016104bb565b506001600160a01b031660009081526068602052604090205490565b60009182526097602090815260408084206001600160a01b0393909316845291905290205460ff1690565b60606066805461039d90611989565b610631338383610e98565b6107d73383610b35565b6107f35760405162461bcd60e51b81526004016104bb906119c3565b6107ff84848484610f66565b50505050565b600054610100900460ff16158080156108255750600054600160ff909116105b8061083f5750303b15801561083f575060005460ff166001145b6108a25760405162461bcd60e51b815260206004820152602e60248201527f496e697469616c697a61626c653a20636f6e747261637420697320616c72656160448201526d191e481a5b9a5d1a585b1a5e995960921b60648201526084016104bb565b6000805460ff1916600117905580156108c5576000805461ff0019166101001790555b6109116040518060400160405280600d81526020016c14995c1d5d185d1a5bdb939195609a1b81525060405180604001604052806005815260200164148b53919560da1b815250610f99565b610919610fca565b6109437fa49807205ce4d355092ef5a8a18f56e8913cf4a201fbe287825b095693c2177533610d22565b60c980546001600160a01b0319166001600160a01b0384161790558015610631576000805461ff0019169055604051600181527f7f26b83ff96e1f2b6a682f133852f6798a09c465da95921460cefb38474024989060200160405180910390a15050565b60606109b282610a65565b60006109c960408051602081019091526000815290565b905060008151116109e95760405180602001604052806000815250610a14565b806109f384610ff3565b604051602001610a04929190611a26565b6040516020818303038152906040525b9392505050565b600082815260976020526040902060010154610a3681610d18565b61055c8383610da8565b60006001600160e01b03198216637965db0b60e01b1480610388575061038882611086565b6000818152606760205260409020546001600160a01b0316610ac45760405162461bcd60e51b8152602060048201526018602482015277115490cdcc8c4e881a5b9d985b1a59081d1bdad95b88125160421b60448201526064016104bb565b50565b600081815260696020526040902080546001600160a01b0319166001600160a01b0384169081179091558190610afc826106a2565b6001600160a01b03167f8c5be1e5ebec7d5bd14f71427d1e84f3dd0314c0f7b2291e5b200ac8c7c3b92560405160405180910390a45050565b600080610b41836106a2565b9050806001600160a01b0316846001600160a01b03161480610b8857506001600160a01b038082166000908152606a602090815260408083209388168352929052205460ff165b80610bac5750836001600160a01b0316610ba184610420565b6001600160a01b0316145b949350505050565b826001600160a01b0316610bc7826106a2565b6001600160a01b031614610bed5760405162461bcd60e51b81526004016104bb90611a55565b6001600160a01b038216610c4f5760405162461bcd60e51b8152602060048201526024808201527f4552433732313a207472616e7366657220746f20746865207a65726f206164646044820152637265737360e01b60648201526084016104bb565b826001600160a01b0316610c62826106a2565b6001600160a01b031614610c885760405162461bcd60e51b81526004016104bb90611a55565b600081815260696020908152604080832080546001600160a01b03199081169091556001600160a01b0387811680865260688552838620805460001901905590871680865283862080546001019055868652606790945282852080549092168417909155905184937fddf252ad1be2c89b69c2b068fc378daa952ba7f163c4a11628f55a4df523b3ef91a4505050565b610ac481336110d6565b610d2c8282610788565b6106315760008281526097602090815260408083206001600160a01b03851684529091529020805460ff19166001179055610d643390565b6001600160a01b0316816001600160a01b0316837f2f8788117e7eff1d82e926ec794901d17c78024a50270940304540a733656f0d60405160405180910390a45050565b610db28282610788565b156106315760008281526097602090815260408083206001600160a01b0385168085529252808320805460ff1916905551339285917ff6391f5c32d9c69d2a47ea670b442974b53935d1edc7fd64eb21e047a839171b9190a45050565b60c95460405163e503bb0560e01b81526001600160a01b038381166004830152600092169063e503bb0590602401602060405180830381865afa158015610e5a573d6000803e3d6000fd5b505050506040513d601f19601f820116820180604052508101906103889190611a9a565b61063182826040518060200160405280600081525061112f565b816001600160a01b0316836001600160a01b031603610ef95760405162461bcd60e51b815260206004820152601960248201527f4552433732313a20617070726f766520746f2063616c6c65720000000000000060448201526064016104bb565b6001600160a01b038381166000818152606a6020908152604080832094871680845294825291829020805460ff191686151590811790915591519182527f17307eab39ab6107e8899845ad3d59bd9653f200f220920489ca2b5937696c31910160405180910390a3505050565b610f71848484610bb4565b610f7d84848484611162565b6107ff5760405162461bcd60e51b81526004016104bb90611abb565b600054610100900460ff16610fc05760405162461bcd60e51b81526004016104bb90611b0d565b6106318282611263565b600054610100900460ff16610ff15760405162461bcd60e51b81526004016104bb90611b0d565b565b60606000611000836112a3565b600101905060008167ffffffffffffffff81111561102057611020611865565b6040519080825280601f01601f19166020018201604052801561104a576020820181803683370190505b5090508181016020015b600019016f181899199a1a9b1b9c1cb0b131b232b360811b600a86061a8153600a850494508461105457509392505050565b60006001600160e01b031982166380ac58cd60e01b14806110b757506001600160e01b03198216635b5e139f60e01b145b8061038857506301ffc9a760e01b6001600160e01b0319831614610388565b6110e08282610788565b610631576110ed8161137b565b6110f883602061138d565b604051602001611109929190611b58565b60408051601f198184030181529082905262461bcd60e51b82526104bb91600401611737565b6111398383611529565b6111466000848484611162565b61055c5760405162461bcd60e51b81526004016104bb90611abb565b60006001600160a01b0384163b1561125857604051630a85bd0160e11b81526001600160a01b0385169063150b7a02906111a6903390899088908890600401611bcd565b6020604051808303816000875af19250505080156111e1575060408051601f3d908101601f191682019092526111de91810190611c0a565b60015b61123e573d80801561120f576040519150601f19603f3d011682016040523d82523d6000602084013e611214565b606091505b5080516000036112365760405162461bcd60e51b81526004016104bb90611abb565b805181602001fd5b6001600160e01b031916630a85bd0160e11b149050610bac565b506001949350505050565b600054610100900460ff1661128a5760405162461bcd60e51b81526004016104bb90611b0d565b60656112968382611c75565b50606661055c8282611c75565b60008072184f03e93ff9f4daa797ed6e38ed64bf6a1f0160401b83106112e25772184f03e93ff9f4daa797ed6e38ed64bf6a1f0160401b830492506040015b6d04ee2d6d415b85acef8100000000831061130e576d04ee2d6d415b85acef8100000000830492506020015b662386f26fc10000831061132c57662386f26fc10000830492506010015b6305f5e1008310611344576305f5e100830492506008015b612710831061135857612710830492506004015b6064831061136a576064830492506002015b600a83106103885760010192915050565b60606103886001600160a01b03831660145b6060600061139c836002611d4b565b6113a7906002611d62565b67ffffffffffffffff8111156113bf576113bf611865565b6040519080825280601f01601f1916602001820160405280156113e9576020820181803683370190505b509050600360fc1b8160008151811061140457611404611d75565b60200101906001600160f81b031916908160001a905350600f60fb1b8160018151811061143357611433611d75565b60200101906001600160f81b031916908160001a9053506000611457846002611d4b565b611462906001611d62565b90505b60018111156114da576f181899199a1a9b1b9c1cb0b131b232b360811b85600f166010811061149657611496611d75565b1a60f81b8282815181106114ac576114ac611d75565b60200101906001600160f81b031916908160001a90535060049490941c936114d381611d8b565b9050611465565b508315610a145760405162461bcd60e51b815260206004820181905260248201527f537472696e67733a20686578206c656e67746820696e73756666696369656e7460448201526064016104bb565b6001600160a01b03821661157f5760405162461bcd60e51b815260206004820181905260248201527f4552433732313a206d696e7420746f20746865207a65726f206164647265737360448201526064016104bb565b6000818152606760205260409020546001600160a01b0316156115e45760405162461bcd60e51b815260206004820152601c60248201527f4552433732313a20746f6b656e20616c7265616479206d696e7465640000000060448201526064016104bb565b6000818152606760205260409020546001600160a01b0316156116495760405162461bcd60e51b815260206004820152601c60248201527f4552433732313a20746f6b656e20616c7265616479206d696e7465640000000060448201526064016104bb565b6001600160a01b038216600081815260686020908152604080832080546001019055848352606790915280822080546001600160a01b0319168417905551839291907fddf252ad1be2c89b69c2b068fc378daa952ba7f163c4a11628f55a4df523b3ef908290a45050565b6001600160e01b031981168114610ac457600080fd5b6000602082840312156116dc57600080fd5b8135610a14816116b4565b60005b838110156117025781810151838201526020016116ea565b50506000910152565b600081518084526117238160208601602086016116e7565b601f01601f19169290920160200192915050565b602081526000610a14602083018461170b565b60006020828403121561175c57600080fd5b5035919050565b6001600160a01b0381168114610ac457600080fd5b6000806040838503121561178b57600080fd5b823561179681611763565b946020939093013593505050565b6000806000606084860312156117b957600080fd5b83356117c481611763565b925060208401356117d481611763565b929592945050506040919091013590565b600080604083850312156117f857600080fd5b82359150602083013561180a81611763565b809150509250929050565b60006020828403121561182757600080fd5b8135610a1481611763565b6000806040838503121561184557600080fd5b823561185081611763565b91506020830135801515811461180a57600080fd5b634e487b7160e01b600052604160045260246000fd5b6000806000806080858703121561189157600080fd5b843561189c81611763565b935060208501356118ac81611763565b925060408501359150606085013567ffffffffffffffff808211156118d057600080fd5b818701915087601f8301126118e457600080fd5b8135818111156118f6576118f6611865565b604051601f8201601f19908116603f0116810190838211818310171561191e5761191e611865565b816040528281528a602084870101111561193757600080fd5b82602086016020830137600060208483010152809550505050505092959194509250565b6000806040838503121561196e57600080fd5b823561197981611763565b9150602083013561180a81611763565b600181811c9082168061199d57607f821691505b6020821081036119bd57634e487b7160e01b600052602260045260246000fd5b50919050565b6020808252602d908201527f4552433732313a2063616c6c6572206973206e6f7420746f6b656e206f776e6560408201526c1c881bdc88185c1c1c9bdd9959609a1b606082015260800190565b634e487b7160e01b600052602160045260246000fd5b60008351611a388184602088016116e7565b835190830190611a4c8183602088016116e7565b01949350505050565b60208082526025908201527f4552433732313a207472616e736665722066726f6d20696e636f72726563742060408201526437bbb732b960d91b606082015260800190565b600060208284031215611aac57600080fd5b815160068110610a1457600080fd5b60208082526032908201527f4552433732313a207472616e7366657220746f206e6f6e20455243373231526560408201527131b2b4bb32b91034b6b83632b6b2b73a32b960711b606082015260800190565b6020808252602b908201527f496e697469616c697a61626c653a20636f6e7472616374206973206e6f74206960408201526a6e697469616c697a696e6760a81b606082015260800190565b7f416363657373436f6e74726f6c3a206163636f756e7420000000000000000000815260008351611b908160178501602088016116e7565b7001034b99036b4b9b9b4b733903937b6329607d1b6017918401918201528351611bc18160288401602088016116e7565b01602801949350505050565b6001600160a01b0385811682528416602082015260408101839052608060608201819052600090611c009083018461170b565b9695505050505050565b600060208284031215611c1c57600080fd5b8151610a14816116b4565b601f82111561055c57600081815260208120601f850160051c81016020861015611c4e5750805b601f850160051c820191505b81811015611c6d57828155600101611c5a565b505050505050565b815167ffffffffffffffff811115611c8f57611c8f611865565b611ca381611c9d8454611989565b84611c27565b602080601f831160018114611cd85760008415611cc05750858301515b600019600386901b1c1916600185901b178555611c6d565b600085815260208120601f198616915b82811015611d0757888601518255948401946001909101908401611ce8565b5085821015611d255787850151600019600388901b60f8161c191681555b5050505050600190811b01905550565b634e487b7160e01b600052601160045260246000fd5b808202811582820484141761038857610388611d35565b8082018082111561038857610388611d35565b634e487b7160e01b600052603260045260246000fd5b600081611d9a57611d9a611d35565b50600019019056fea26469706673582212208b2f8a7fdfe700700798e2c1f84a563ab94f4d1632e4b8c50df956d2bd51cab964736f6c63430008110033",
  "immutableReferences": {},
  "source": "// SPDX-License-Identifier: MIT\r\npragma solidity ^0.8.17;\r\n\r\nimport \"@openzeppelin/contracts-upgradeable/token/ERC721/ERC721Upgradeable.sol\";\r\nimport \"@openzeppelin/contracts-upgradeable/access/AccessControlUpgradeable.sol\";\r\nimport \"./CowlMarketplaceBase.sol\";\r\n\r\ncontract ReputationNFT is ERC721Upgradeable, AccessControlUpgradeable {\r\n    CowlMarketplaceBase public marketplaceContract; // Reference to the FederatedMarketplace\r\n\r\n    bytes32 public constant ADMIN_ROLE = keccak256(\"ADMIN_ROLE\");\r\n\r\n    function initialize(\r\n        address payable _marketplaceContractAddress\r\n    ) public initializer {\r\n        __ERC721_init(\"ReputationNFT\", \"R-NFT\");\r\n        __AccessControl_init();\r\n\r\n        _grantRole(ADMIN_ROLE, msg.sender);\r\n\r\n        marketplaceContract = CowlMarketplaceBase(_marketplaceContractAddress);\r\n    }\r\n\r\n    function supportsInterface(\r\n        bytes4 interfaceId\r\n    )\r\n        public\r\n        view\r\n        override(ERC721Upgradeable, AccessControlUpgradeable)\r\n        returns (bool)\r\n    {\r\n        return super.supportsInterface(interfaceId);\r\n    }\r\n\r\n    // Function to check the user's reputation level in the FederatedMarketplace\r\n    function getUserReputationLevel(\r\n        address user\r\n    ) internal view returns (CowlMarketplaceBase.ReputationLevel) {\r\n        return marketplaceContract.userReputation(user);\r\n    }\r\n\r\n    // Function to mint an NFT based on a user's reputation level\r\n    function mintNFT(address user) external onlyRole(ADMIN_ROLE) {\r\n        // Check the user's reputation level\r\n        CowlMarketplaceBase.ReputationLevel level = getUserReputationLevel(\r\n            user\r\n        );\r\n\r\n        // Mint an NFT based on the user's reputation level\r\n        _safeMint(user, uint256(level));\r\n    }\r\n}\r\n",
  "sourcePath": "D:\\DevTools\\flkm-project\\contracts\\Core\\ReputationNFT.sol",
  "compiler": {
    "name": "solc",
    "version": "0.8.17+commit.8df45f5f.Emscripten.clang"
  },
  "schemaVersion": "3.4.16",
  "updatedAt": "2023-10-27T02:44:16.952Z",
  "networkType": "ethereum",
  "devdoc": {
    "kind": "dev",
    "methods": {
      "approve(address,uint256)": {
        "details": "See {IERC721-approve}."
      },
      "balanceOf(address)": {
        "details": "See {IERC721-balanceOf}."
      },
      "getApproved(uint256)": {
        "details": "See {IERC721-getApproved}."
      },
      "getRoleAdmin(bytes32)": {
        "details": "Returns the admin role that controls `role`. See {grantRole} and {revokeRole}. To change a role's admin, use {_setRoleAdmin}."
      },
      "grantRole(bytes32,address)": {
        "details": "Grants `role` to `account`. If `account` had not been already granted `role`, emits a {RoleGranted} event. Requirements: - the caller must have ``role``'s admin role. May emit a {RoleGranted} event."
      },
      "hasRole(bytes32,address)": {
        "details": "Returns `true` if `account` has been granted `role`."
      },
      "isApprovedForAll(address,address)": {
        "details": "See {IERC721-isApprovedForAll}."
      },
      "name()": {
        "details": "See {IERC721Metadata-name}."
      },
      "ownerOf(uint256)": {
        "details": "See {IERC721-ownerOf}."
      },
      "renounceRole(bytes32,address)": {
        "details": "Revokes `role` from the calling account. Roles are often managed via {grantRole} and {revokeRole}: this function's purpose is to provide a mechanism for accounts to lose their privileges if they are compromised (such as when a trusted device is misplaced). If the calling account had been revoked `role`, emits a {RoleRevoked} event. Requirements: - the caller must be `account`. May emit a {RoleRevoked} event."
      },
      "revokeRole(bytes32,address)": {
        "details": "Revokes `role` from `account`. If `account` had been granted `role`, emits a {RoleRevoked} event. Requirements: - the caller must have ``role``'s admin role. May emit a {RoleRevoked} event."
      },
      "safeTransferFrom(address,address,uint256)": {
        "details": "See {IERC721-safeTransferFrom}."
      },
      "safeTransferFrom(address,address,uint256,bytes)": {
        "details": "See {IERC721-safeTransferFrom}."
      },
      "setApprovalForAll(address,bool)": {
        "details": "See {IERC721-setApprovalForAll}."
      },
      "symbol()": {
        "details": "See {IERC721Metadata-symbol}."
      },
      "tokenURI(uint256)": {
        "details": "See {IERC721Metadata-tokenURI}."
      },
      "transferFrom(address,address,uint256)": {
        "details": "See {IERC721-transferFrom}."
      }
    },
    "version": 1
  },
  "userdoc": {
    "kind": "user",
    "methods": {},
    "version": 1
  }
}