{
  "contractName": "ReputationNFT",
  "abi": [
    {
      "anonymous": false,
      "inputs": [
        {
          "indexed": true,
          "internalType": "address",
          "name": "owner",
          "type": "address"
        },
        {
          "indexed": true,
          "internalType": "address",
          "name": "approved",
          "type": "address"
        },
        {
          "indexed": true,
          "internalType": "uint256",
          "name": "tokenId",
          "type": "uint256"
        }
      ],
      "name": "Approval",
      "type": "event"
    },
    {
      "anonymous": false,
      "inputs": [
        {
          "indexed": true,
          "internalType": "address",
          "name": "owner",
          "type": "address"
        },
        {
          "indexed": true,
          "internalType": "address",
          "name": "operator",
          "type": "address"
        },
        {
          "indexed": false,
          "internalType": "bool",
          "name": "approved",
          "type": "bool"
        }
      ],
      "name": "ApprovalForAll",
      "type": "event"
    },
    {
      "anonymous": false,
      "inputs": [
        {
          "indexed": false,
          "internalType": "uint8",
          "name": "version",
          "type": "uint8"
        }
      ],
      "name": "Initialized",
      "type": "event"
    },
    {
      "anonymous": false,
      "inputs": [
        {
          "indexed": true,
          "internalType": "bytes32",
          "name": "role",
          "type": "bytes32"
        },
        {
          "indexed": true,
          "internalType": "bytes32",
          "name": "previousAdminRole",
          "type": "bytes32"
        },
        {
          "indexed": true,
          "internalType": "bytes32",
          "name": "newAdminRole",
          "type": "bytes32"
        }
      ],
      "name": "RoleAdminChanged",
      "type": "event"
    },
    {
      "anonymous": false,
      "inputs": [
        {
          "indexed": true,
          "internalType": "bytes32",
          "name": "role",
          "type": "bytes32"
        },
        {
          "indexed": true,
          "internalType": "address",
          "name": "account",
          "type": "address"
        },
        {
          "indexed": true,
          "internalType": "address",
          "name": "sender",
          "type": "address"
        }
      ],
      "name": "RoleGranted",
      "type": "event"
    },
    {
      "anonymous": false,
      "inputs": [
        {
          "indexed": true,
          "internalType": "bytes32",
          "name": "role",
          "type": "bytes32"
        },
        {
          "indexed": true,
          "internalType": "address",
          "name": "account",
          "type": "address"
        },
        {
          "indexed": true,
          "internalType": "address",
          "name": "sender",
          "type": "address"
        }
      ],
      "name": "RoleRevoked",
      "type": "event"
    },
    {
      "anonymous": false,
      "inputs": [
        {
          "indexed": true,
          "internalType": "address",
          "name": "from",
          "type": "address"
        },
        {
          "indexed": true,
          "internalType": "address",
          "name": "to",
          "type": "address"
        },
        {
          "indexed": true,
          "internalType": "uint256",
          "name": "tokenId",
          "type": "uint256"
        }
      ],
      "name": "Transfer",
      "type": "event"
    },
    {
      "inputs": [],
      "name": "ADMIN_ROLE",
      "outputs": [
        {
          "internalType": "bytes32",
          "name": "",
          "type": "bytes32"
        }
      ],
      "stateMutability": "view",
      "type": "function",
      "constant": true
    },
    {
      "inputs": [],
      "name": "DEFAULT_ADMIN_ROLE",
      "outputs": [
        {
          "internalType": "bytes32",
          "name": "",
          "type": "bytes32"
        }
      ],
      "stateMutability": "view",
      "type": "function",
      "constant": true
    },
    {
      "inputs": [
        {
          "internalType": "address",
          "name": "to",
          "type": "address"
        },
        {
          "internalType": "uint256",
          "name": "tokenId",
          "type": "uint256"
        }
      ],
      "name": "approve",
      "outputs": [],
      "stateMutability": "nonpayable",
      "type": "function"
    },
    {
      "inputs": [
        {
          "internalType": "address",
          "name": "owner",
          "type": "address"
        }
      ],
      "name": "balanceOf",
      "outputs": [
        {
          "internalType": "uint256",
          "name": "",
          "type": "uint256"
        }
      ],
      "stateMutability": "view",
      "type": "function",
      "constant": true
    },
    {
      "inputs": [
        {
          "internalType": "uint256",
          "name": "tokenId",
          "type": "uint256"
        }
      ],
      "name": "getApproved",
      "outputs": [
        {
          "internalType": "address",
          "name": "",
          "type": "address"
        }
      ],
      "stateMutability": "view",
      "type": "function",
      "constant": true
    },
    {
      "inputs": [
        {
          "internalType": "bytes32",
          "name": "role",
          "type": "bytes32"
        }
      ],
      "name": "getRoleAdmin",
      "outputs": [
        {
          "internalType": "bytes32",
          "name": "",
          "type": "bytes32"
        }
      ],
      "stateMutability": "view",
      "type": "function",
      "constant": true
    },
    {
      "inputs": [
        {
          "internalType": "bytes32",
          "name": "role",
          "type": "bytes32"
        },
        {
          "internalType": "address",
          "name": "account",
          "type": "address"
        }
      ],
      "name": "grantRole",
      "outputs": [],
      "stateMutability": "nonpayable",
      "type": "function"
    },
    {
      "inputs": [
        {
          "internalType": "bytes32",
          "name": "role",
          "type": "bytes32"
        },
        {
          "internalType": "address",
          "name": "account",
          "type": "address"
        }
      ],
      "name": "hasRole",
      "outputs": [
        {
          "internalType": "bool",
          "name": "",
          "type": "bool"
        }
      ],
      "stateMutability": "view",
      "type": "function",
      "constant": true
    },
    {
      "inputs": [
        {
          "internalType": "address",
          "name": "owner",
          "type": "address"
        },
        {
          "internalType": "address",
          "name": "operator",
          "type": "address"
        }
      ],
      "name": "isApprovedForAll",
      "outputs": [
        {
          "internalType": "bool",
          "name": "",
          "type": "bool"
        }
      ],
      "stateMutability": "view",
      "type": "function",
      "constant": true
    },
    {
      "inputs": [],
      "name": "marketplaceContract",
      "outputs": [
        {
          "internalType": "contract CowlMarketplaceBase",
          "name": "",
          "type": "address"
        }
      ],
      "stateMutability": "view",
      "type": "function",
      "constant": true
    },
    {
      "inputs": [],
      "name": "name",
      "outputs": [
        {
          "internalType": "string",
          "name": "",
          "type": "string"
        }
      ],
      "stateMutability": "view",
      "type": "function",
      "constant": true
    },
    {
      "inputs": [
        {
          "internalType": "uint256",
          "name": "tokenId",
          "type": "uint256"
        }
      ],
      "name": "ownerOf",
      "outputs": [
        {
          "internalType": "address",
          "name": "",
          "type": "address"
        }
      ],
      "stateMutability": "view",
      "type": "function",
      "constant": true
    },
    {
      "inputs": [
        {
          "internalType": "bytes32",
          "name": "role",
          "type": "bytes32"
        },
        {
          "internalType": "address",
          "name": "account",
          "type": "address"
        }
      ],
      "name": "renounceRole",
      "outputs": [],
      "stateMutability": "nonpayable",
      "type": "function"
    },
    {
      "inputs": [
        {
          "internalType": "bytes32",
          "name": "role",
          "type": "bytes32"
        },
        {
          "internalType": "address",
          "name": "account",
          "type": "address"
        }
      ],
      "name": "revokeRole",
      "outputs": [],
      "stateMutability": "nonpayable",
      "type": "function"
    },
    {
      "inputs": [
        {
          "internalType": "address",
          "name": "from",
          "type": "address"
        },
        {
          "internalType": "address",
          "name": "to",
          "type": "address"
        },
        {
          "internalType": "uint256",
          "name": "tokenId",
          "type": "uint256"
        }
      ],
      "name": "safeTransferFrom",
      "outputs": [],
      "stateMutability": "nonpayable",
      "type": "function"
    },
    {
      "inputs": [
        {
          "internalType": "address",
          "name": "from",
          "type": "address"
        },
        {
          "internalType": "address",
          "name": "to",
          "type": "address"
        },
        {
          "internalType": "uint256",
          "name": "tokenId",
          "type": "uint256"
        },
        {
          "internalType": "bytes",
          "name": "data",
          "type": "bytes"
        }
      ],
      "name": "safeTransferFrom",
      "outputs": [],
      "stateMutability": "nonpayable",
      "type": "function"
    },
    {
      "inputs": [
        {
          "internalType": "address",
          "name": "operator",
          "type": "address"
        },
        {
          "internalType": "bool",
          "name": "approved",
          "type": "bool"
        }
      ],
      "name": "setApprovalForAll",
      "outputs": [],
      "stateMutability": "nonpayable",
      "type": "function"
    },
    {
      "inputs": [],
      "name": "symbol",
      "outputs": [
        {
          "internalType": "string",
          "name": "",
          "type": "string"
        }
      ],
      "stateMutability": "view",
      "type": "function",
      "constant": true
    },
    {
      "inputs": [
        {
          "internalType": "uint256",
          "name": "tokenId",
          "type": "uint256"
        }
      ],
      "name": "tokenURI",
      "outputs": [
        {
          "internalType": "string",
          "name": "",
          "type": "string"
        }
      ],
      "stateMutability": "view",
      "type": "function",
      "constant": true
    },
    {
      "inputs": [
        {
          "internalType": "address",
          "name": "from",
          "type": "address"
        },
        {
          "internalType": "address",
          "name": "to",
          "type": "address"
        },
        {
          "internalType": "uint256",
          "name": "tokenId",
          "type": "uint256"
        }
      ],
      "name": "transferFrom",
      "outputs": [],
      "stateMutability": "nonpayable",
      "type": "function"
    },
    {
      "inputs": [
        {
          "internalType": "address payable",
          "name": "_marketplaceContractAddress",
          "type": "address"
        }
      ],
      "name": "initialize",
      "outputs": [],
      "stateMutability": "nonpayable",
      "type": "function"
    },
    {
      "inputs": [
        {
          "internalType": "bytes4",
          "name": "interfaceId",
          "type": "bytes4"
        }
      ],
      "name": "supportsInterface",
      "outputs": [
        {
          "internalType": "bool",
          "name": "",
          "type": "bool"
        }
      ],
      "stateMutability": "view",
      "type": "function",
      "constant": true
    },
    {
      "inputs": [
        {
          "internalType": "address",
          "name": "user",
          "type": "address"
        }
      ],
      "name": "showUserReputationLevel",
      "outputs": [
        {
          "internalType": "enum CowlMarketplaceBase.ReputationLevel",
          "name": "",
          "type": "uint8"
        }
      ],
      "stateMutability": "view",
      "type": "function",
      "constant": true
    },
    {
      "inputs": [
        {
          "internalType": "address",
          "name": "user",
          "type": "address"
        }
      ],
      "name": "mintNFT",
      "outputs": [],
      "stateMutability": "nonpayable",
      "type": "function"
    }
  ],
  "bytecode": "0x608060405234801561001057600080fd5b50611e36806100206000396000f3fe608060405234801561001057600080fd5b50600436106101585760003560e01c806370a08231116100c3578063b88d4fde1161007c578063b88d4fde1461030d578063c4d66de814610320578063c87b56dd14610333578063d1bb5cf114610346578063d547741f14610359578063e985e9c51461036c57600080fd5b806370a082311461029d57806375b238fc146102b057806391d14854146102d757806395d89b41146102ea578063a217fddf146102f2578063a22cb465146102fa57600080fd5b80632f2ff15d116101155780632f2ff15d1461021e57806336568abe1461023157806342842e0e1461024457806354ba0f27146102575780636352211e1461026a5780636c03de6e1461027d57600080fd5b806301ffc9a71461015d57806306fdde0314610185578063081812fc1461019a578063095ea7b3146101c557806323b872dd146101da578063248a9ca3146101ed575b600080fd5b61017061016b366004611700565b6103a8565b60405190151581526020015b60405180910390f35b61018d6103b9565b60405161017c919061176d565b6101ad6101a8366004611780565b61044b565b6040516001600160a01b03909116815260200161017c565b6101d86101d33660046117ae565b610472565b005b6101d86101e83660046117da565b61058c565b6102106101fb366004611780565b60009081526097602052604090206001015490565b60405190815260200161017c565b6101d861022c36600461181b565b6105bd565b6101d861023f36600461181b565b6105e2565b6101d86102523660046117da565b610660565b6101d861026536600461184b565b61067b565b6101ad610278366004611780565b6106cd565b61029061028b36600461184b565b61072d565b60405161017c919061187e565b6102106102ab36600461184b565b610738565b6102107fa49807205ce4d355092ef5a8a18f56e8913cf4a201fbe287825b095693c2177581565b6101706102e536600461181b565b6107be565b61018d6107e9565b610210600081565b6101d86103083660046118a6565b6107f8565b6101d861031b3660046118ef565b610803565b6101d861032e36600461184b565b61083b565b61018d610341366004611780565b6109dd565b60c9546101ad906001600160a01b031681565b6101d861036736600461181b565b610a51565b61017061037a3660046119cf565b6001600160a01b039182166000908152606a6020908152604080832093909416825291909152205460ff1690565b60006103b382610a76565b92915050565b6060606580546103c8906119fd565b80601f01602080910402602001604051908101604052809291908181526020018280546103f4906119fd565b80156104415780601f1061041657610100808354040283529160200191610441565b820191906000526020600020905b81548152906001019060200180831161042457829003601f168201915b5050505050905090565b600061045682610a9b565b506000908152606960205260409020546001600160a01b031690565b600061047d826106cd565b9050806001600160a01b0316836001600160a01b0316036104ef5760405162461bcd60e51b815260206004820152602160248201527f4552433732313a20617070726f76616c20746f2063757272656e74206f776e656044820152603960f91b60648201526084015b60405180910390fd5b336001600160a01b038216148061050b575061050b813361037a565b61057d5760405162461bcd60e51b815260206004820152603d60248201527f4552433732313a20617070726f76652063616c6c6572206973206e6f7420746f60448201527f6b656e206f776e6572206f7220617070726f76656420666f7220616c6c00000060648201526084016104e6565b6105878383610afd565b505050565b6105963382610b6b565b6105b25760405162461bcd60e51b81526004016104e690611a37565b610587838383610bea565b6000828152609760205260409020600101546105d881610d4e565b6105878383610d58565b6001600160a01b03811633146106525760405162461bcd60e51b815260206004820152602f60248201527f416363657373436f6e74726f6c3a2063616e206f6e6c792072656e6f756e636560448201526e103937b632b9903337b91039b2b63360891b60648201526084016104e6565b61065c8282610dde565b5050565b61058783838360405180602001604052806000815250610803565b7fa49807205ce4d355092ef5a8a18f56e8913cf4a201fbe287825b095693c217756106a581610d4e565b60006106b083610e45565b9050610587838260058111156106c8576106c8611868565b610eb4565b6000818152606760205260408120546001600160a01b0316806103b35760405162461bcd60e51b8152602060048201526018602482015277115490cdcc8c4e881a5b9d985b1a59081d1bdad95b88125160421b60448201526064016104e6565b60006103b382610e45565b60006001600160a01b0382166107a25760405162461bcd60e51b815260206004820152602960248201527f4552433732313a2061646472657373207a65726f206973206e6f7420612076616044820152683634b21037bbb732b960b91b60648201526084016104e6565b506001600160a01b031660009081526068602052604090205490565b60009182526097602090815260408084206001600160a01b0393909316845291905290205460ff1690565b6060606680546103c8906119fd565b61065c338383610ece565b61080d3383610b6b565b6108295760405162461bcd60e51b81526004016104e690611a37565b61083584848484610f9c565b50505050565b600054610100900460ff161580801561085b5750600054600160ff909116105b806108755750303b158015610875575060005460ff166001145b6108d85760405162461bcd60e51b815260206004820152602e60248201527f496e697469616c697a61626c653a20636f6e747261637420697320616c72656160448201526d191e481a5b9a5d1a585b1a5e995960921b60648201526084016104e6565b6000805460ff1916600117905580156108fb576000805461ff0019166101001790555b6109476040518060400160405280600d81526020016c14995c1d5d185d1a5bdb939195609a1b81525060405180604001604052806005815260200164148b53919560da1b815250610fcf565b61094f611000565b6109797fa49807205ce4d355092ef5a8a18f56e8913cf4a201fbe287825b095693c2177533610d58565b60c980546001600160a01b0319166001600160a01b038416179055801561065c576000805461ff0019169055604051600181527f7f26b83ff96e1f2b6a682f133852f6798a09c465da95921460cefb38474024989060200160405180910390a15050565b60606109e882610a9b565b60006109ff60408051602081019091526000815290565b90506000815111610a1f5760405180602001604052806000815250610a4a565b80610a2984611029565b604051602001610a3a929190611a84565b6040516020818303038152906040525b9392505050565b600082815260976020526040902060010154610a6c81610d4e565b6105878383610dde565b60006001600160e01b03198216637965db0b60e01b14806103b357506103b3826110bc565b6000818152606760205260409020546001600160a01b0316610afa5760405162461bcd60e51b8152602060048201526018602482015277115490cdcc8c4e881a5b9d985b1a59081d1bdad95b88125160421b60448201526064016104e6565b50565b600081815260696020526040902080546001600160a01b0319166001600160a01b0384169081179091558190610b32826106cd565b6001600160a01b03167f8c5be1e5ebec7d5bd14f71427d1e84f3dd0314c0f7b2291e5b200ac8c7c3b92560405160405180910390a45050565b600080610b77836106cd565b9050806001600160a01b0316846001600160a01b03161480610bbe57506001600160a01b038082166000908152606a602090815260408083209388168352929052205460ff165b80610be25750836001600160a01b0316610bd78461044b565b6001600160a01b0316145b949350505050565b826001600160a01b0316610bfd826106cd565b6001600160a01b031614610c235760405162461bcd60e51b81526004016104e690611ab3565b6001600160a01b038216610c855760405162461bcd60e51b8152602060048201526024808201527f4552433732313a207472616e7366657220746f20746865207a65726f206164646044820152637265737360e01b60648201526084016104e6565b826001600160a01b0316610c98826106cd565b6001600160a01b031614610cbe5760405162461bcd60e51b81526004016104e690611ab3565b600081815260696020908152604080832080546001600160a01b03199081169091556001600160a01b0387811680865260688552838620805460001901905590871680865283862080546001019055868652606790945282852080549092168417909155905184937fddf252ad1be2c89b69c2b068fc378daa952ba7f163c4a11628f55a4df523b3ef91a4505050565b610afa813361110c565b610d6282826107be565b61065c5760008281526097602090815260408083206001600160a01b03851684529091529020805460ff19166001179055610d9a3390565b6001600160a01b0316816001600160a01b0316837f2f8788117e7eff1d82e926ec794901d17c78024a50270940304540a733656f0d60405160405180910390a45050565b610de882826107be565b1561065c5760008281526097602090815260408083206001600160a01b0385168085529252808320805460ff1916905551339285917ff6391f5c32d9c69d2a47ea670b442974b53935d1edc7fd64eb21e047a839171b9190a45050565b60c95460405163e503bb0560e01b81526001600160a01b038381166004830152600092169063e503bb0590602401602060405180830381865afa158015610e90573d6000803e3d6000fd5b505050506040513d601f19601f820116820180604052508101906103b39190611af8565b61065c828260405180602001604052806000815250611165565b816001600160a01b0316836001600160a01b031603610f2f5760405162461bcd60e51b815260206004820152601960248201527f4552433732313a20617070726f766520746f2063616c6c65720000000000000060448201526064016104e6565b6001600160a01b038381166000818152606a6020908152604080832094871680845294825291829020805460ff191686151590811790915591519182527f17307eab39ab6107e8899845ad3d59bd9653f200f220920489ca2b5937696c31910160405180910390a3505050565b610fa7848484610bea565b610fb384848484611198565b6108355760405162461bcd60e51b81526004016104e690611b19565b600054610100900460ff16610ff65760405162461bcd60e51b81526004016104e690611b6b565b61065c8282611299565b600054610100900460ff166110275760405162461bcd60e51b81526004016104e690611b6b565b565b60606000611036836112d9565b600101905060008167ffffffffffffffff811115611056576110566118d9565b6040519080825280601f01601f191660200182016040528015611080576020820181803683370190505b5090508181016020015b600019016f181899199a1a9b1b9c1cb0b131b232b360811b600a86061a8153600a850494508461108a57509392505050565b60006001600160e01b031982166380ac58cd60e01b14806110ed57506001600160e01b03198216635b5e139f60e01b145b806103b357506301ffc9a760e01b6001600160e01b03198316146103b3565b61111682826107be565b61065c57611123816113b1565b61112e8360206113c3565b60405160200161113f929190611bb6565b60408051601f198184030181529082905262461bcd60e51b82526104e69160040161176d565b61116f838361155f565b61117c6000848484611198565b6105875760405162461bcd60e51b81526004016104e690611b19565b60006001600160a01b0384163b1561128e57604051630a85bd0160e11b81526001600160a01b0385169063150b7a02906111dc903390899088908890600401611c2b565b6020604051808303816000875af1925050508015611217575060408051601f3d908101601f1916820190925261121491810190611c68565b60015b611274573d808015611245576040519150601f19603f3d011682016040523d82523d6000602084013e61124a565b606091505b50805160000361126c5760405162461bcd60e51b81526004016104e690611b19565b805181602001fd5b6001600160e01b031916630a85bd0160e11b149050610be2565b506001949350505050565b600054610100900460ff166112c05760405162461bcd60e51b81526004016104e690611b6b565b60656112cc8382611cd3565b5060666105878282611cd3565b60008072184f03e93ff9f4daa797ed6e38ed64bf6a1f0160401b83106113185772184f03e93ff9f4daa797ed6e38ed64bf6a1f0160401b830492506040015b6d04ee2d6d415b85acef81000000008310611344576d04ee2d6d415b85acef8100000000830492506020015b662386f26fc10000831061136257662386f26fc10000830492506010015b6305f5e100831061137a576305f5e100830492506008015b612710831061138e57612710830492506004015b606483106113a0576064830492506002015b600a83106103b35760010192915050565b60606103b36001600160a01b03831660145b606060006113d2836002611da9565b6113dd906002611dc0565b67ffffffffffffffff8111156113f5576113f56118d9565b6040519080825280601f01601f19166020018201604052801561141f576020820181803683370190505b509050600360fc1b8160008151811061143a5761143a611dd3565b60200101906001600160f81b031916908160001a905350600f60fb1b8160018151811061146957611469611dd3565b60200101906001600160f81b031916908160001a905350600061148d846002611da9565b611498906001611dc0565b90505b6001811115611510576f181899199a1a9b1b9c1cb0b131b232b360811b85600f16601081106114cc576114cc611dd3565b1a60f81b8282815181106114e2576114e2611dd3565b60200101906001600160f81b031916908160001a90535060049490941c9361150981611de9565b905061149b565b508315610a4a5760405162461bcd60e51b815260206004820181905260248201527f537472696e67733a20686578206c656e67746820696e73756666696369656e7460448201526064016104e6565b6001600160a01b0382166115b55760405162461bcd60e51b815260206004820181905260248201527f4552433732313a206d696e7420746f20746865207a65726f206164647265737360448201526064016104e6565b6000818152606760205260409020546001600160a01b03161561161a5760405162461bcd60e51b815260206004820152601c60248201527f4552433732313a20746f6b656e20616c7265616479206d696e7465640000000060448201526064016104e6565b6000818152606760205260409020546001600160a01b03161561167f5760405162461bcd60e51b815260206004820152601c60248201527f4552433732313a20746f6b656e20616c7265616479206d696e7465640000000060448201526064016104e6565b6001600160a01b038216600081815260686020908152604080832080546001019055848352606790915280822080546001600160a01b0319168417905551839291907fddf252ad1be2c89b69c2b068fc378daa952ba7f163c4a11628f55a4df523b3ef908290a45050565b6001600160e01b031981168114610afa57600080fd5b60006020828403121561171257600080fd5b8135610a4a816116ea565b60005b83811015611738578181015183820152602001611720565b50506000910152565b6000815180845261175981602086016020860161171d565b601f01601f19169290920160200192915050565b602081526000610a4a6020830184611741565b60006020828403121561179257600080fd5b5035919050565b6001600160a01b0381168114610afa57600080fd5b600080604083850312156117c157600080fd5b82356117cc81611799565b946020939093013593505050565b6000806000606084860312156117ef57600080fd5b83356117fa81611799565b9250602084013561180a81611799565b929592945050506040919091013590565b6000806040838503121561182e57600080fd5b82359150602083013561184081611799565b809150509250929050565b60006020828403121561185d57600080fd5b8135610a4a81611799565b634e487b7160e01b600052602160045260246000fd5b60208101600683106118a057634e487b7160e01b600052602160045260246000fd5b91905290565b600080604083850312156118b957600080fd5b82356118c481611799565b91506020830135801515811461184057600080fd5b634e487b7160e01b600052604160045260246000fd5b6000806000806080858703121561190557600080fd5b843561191081611799565b9350602085013561192081611799565b925060408501359150606085013567ffffffffffffffff8082111561194457600080fd5b818701915087601f83011261195857600080fd5b81358181111561196a5761196a6118d9565b604051601f8201601f19908116603f01168101908382118183101715611992576119926118d9565b816040528281528a60208487010111156119ab57600080fd5b82602086016020830137600060208483010152809550505050505092959194509250565b600080604083850312156119e257600080fd5b82356119ed81611799565b9150602083013561184081611799565b600181811c90821680611a1157607f821691505b602082108103611a3157634e487b7160e01b600052602260045260246000fd5b50919050565b6020808252602d908201527f4552433732313a2063616c6c6572206973206e6f7420746f6b656e206f776e6560408201526c1c881bdc88185c1c1c9bdd9959609a1b606082015260800190565b60008351611a9681846020880161171d565b835190830190611aaa81836020880161171d565b01949350505050565b60208082526025908201527f4552433732313a207472616e736665722066726f6d20696e636f72726563742060408201526437bbb732b960d91b606082015260800190565b600060208284031215611b0a57600080fd5b815160068110610a4a57600080fd5b60208082526032908201527f4552433732313a207472616e7366657220746f206e6f6e20455243373231526560408201527131b2b4bb32b91034b6b83632b6b2b73a32b960711b606082015260800190565b6020808252602b908201527f496e697469616c697a61626c653a20636f6e7472616374206973206e6f74206960408201526a6e697469616c697a696e6760a81b606082015260800190565b7f416363657373436f6e74726f6c3a206163636f756e7420000000000000000000815260008351611bee81601785016020880161171d565b7001034b99036b4b9b9b4b733903937b6329607d1b6017918401918201528351611c1f81602884016020880161171d565b01602801949350505050565b6001600160a01b0385811682528416602082015260408101839052608060608201819052600090611c5e90830184611741565b9695505050505050565b600060208284031215611c7a57600080fd5b8151610a4a816116ea565b601f82111561058757600081815260208120601f850160051c81016020861015611cac5750805b601f850160051c820191505b81811015611ccb57828155600101611cb8565b505050505050565b815167ffffffffffffffff811115611ced57611ced6118d9565b611d0181611cfb84546119fd565b84611c85565b602080601f831160018114611d365760008415611d1e5750858301515b600019600386901b1c1916600185901b178555611ccb565b600085815260208120601f198616915b82811015611d6557888601518255948401946001909101908401611d46565b5085821015611d835787850151600019600388901b60f8161c191681555b5050505050600190811b01905550565b634e487b7160e01b600052601160045260246000fd5b80820281158282048414176103b3576103b3611d93565b808201808211156103b3576103b3611d93565b634e487b7160e01b600052603260045260246000fd5b600081611df857611df8611d93565b50600019019056fea2646970667358221220a28cf1fee256d3121d14db0343d20848826a362c933ea996fd75ef747726863d64736f6c63430008110033",
  "immutableReferences": {},
  "source": "// SPDX-License-Identifier: MIT\r\npragma solidity ^0.8.17;\r\n\r\nimport \"@openzeppelin/contracts-upgradeable/token/ERC721/ERC721Upgradeable.sol\";\r\nimport \"@openzeppelin/contracts-upgradeable/access/AccessControlUpgradeable.sol\";\r\nimport \"./CowlMarketplaceBase.sol\";\r\n\r\ncontract ReputationNFT is ERC721Upgradeable, AccessControlUpgradeable {\r\n    CowlMarketplaceBase public marketplaceContract; // Reference to the FederatedMarketplace\r\n\r\n    bytes32 public constant ADMIN_ROLE = keccak256(\"ADMIN_ROLE\");\r\n\r\n    function initialize(\r\n        address payable _marketplaceContractAddress\r\n    ) public initializer {\r\n        __ERC721_init(\"ReputationNFT\", \"R-NFT\");\r\n        __AccessControl_init();\r\n\r\n        _grantRole(ADMIN_ROLE, msg.sender);\r\n\r\n        marketplaceContract = CowlMarketplaceBase(_marketplaceContractAddress);\r\n    }\r\n\r\n    function supportsInterface(\r\n        bytes4 interfaceId\r\n    )\r\n        public\r\n        view\r\n        override(ERC721Upgradeable, AccessControlUpgradeable)\r\n        returns (bool)\r\n    {\r\n        return super.supportsInterface(interfaceId);\r\n    }\r\n\r\n    // Function to check the user's reputation level in the FederatedMarketplace\r\n    function getUserReputationLevel(\r\n        address user\r\n    ) internal view returns (CowlMarketplaceBase.ReputationLevel) {\r\n        return marketplaceContract.userReputation(user);\r\n    }\r\n\r\n    function showUserReputationLevel(\r\n        address user\r\n    ) external view returns (CowlMarketplaceBase.ReputationLevel) {\r\n        return getUserReputationLevel(user);\r\n    }\r\n\r\n    // Function to mint an NFT based on a user's reputation level\r\n    function mintNFT(address user) external onlyRole(ADMIN_ROLE) {\r\n        // Check the user's reputation level\r\n        CowlMarketplaceBase.ReputationLevel level = getUserReputationLevel(\r\n            user\r\n        );\r\n\r\n        // Mint an NFT based on the user's reputation level\r\n        _safeMint(user, uint256(level));\r\n    }\r\n}\r\n",
  "sourcePath": "D:\\DevTools\\flkm-project\\contracts\\Core\\ReputationNFT.sol",
  "compiler": {
    "name": "solc",
    "version": "0.8.17+commit.8df45f5f.Emscripten.clang"
  },
  "schemaVersion": "3.4.16",
  "updatedAt": "2023-10-28T01:20:33.838Z",
  "networkType": "ethereum",
  "devdoc": {
    "kind": "dev",
    "methods": {
      "approve(address,uint256)": {
        "details": "See {IERC721-approve}."
      },
      "balanceOf(address)": {
        "details": "See {IERC721-balanceOf}."
      },
      "getApproved(uint256)": {
        "details": "See {IERC721-getApproved}."
      },
      "getRoleAdmin(bytes32)": {
        "details": "Returns the admin role that controls `role`. See {grantRole} and {revokeRole}. To change a role's admin, use {_setRoleAdmin}."
      },
      "grantRole(bytes32,address)": {
        "details": "Grants `role` to `account`. If `account` had not been already granted `role`, emits a {RoleGranted} event. Requirements: - the caller must have ``role``'s admin role. May emit a {RoleGranted} event."
      },
      "hasRole(bytes32,address)": {
        "details": "Returns `true` if `account` has been granted `role`."
      },
      "isApprovedForAll(address,address)": {
        "details": "See {IERC721-isApprovedForAll}."
      },
      "name()": {
        "details": "See {IERC721Metadata-name}."
      },
      "ownerOf(uint256)": {
        "details": "See {IERC721-ownerOf}."
      },
      "renounceRole(bytes32,address)": {
        "details": "Revokes `role` from the calling account. Roles are often managed via {grantRole} and {revokeRole}: this function's purpose is to provide a mechanism for accounts to lose their privileges if they are compromised (such as when a trusted device is misplaced). If the calling account had been revoked `role`, emits a {RoleRevoked} event. Requirements: - the caller must be `account`. May emit a {RoleRevoked} event."
      },
      "revokeRole(bytes32,address)": {
        "details": "Revokes `role` from `account`. If `account` had been granted `role`, emits a {RoleRevoked} event. Requirements: - the caller must have ``role``'s admin role. May emit a {RoleRevoked} event."
      },
      "safeTransferFrom(address,address,uint256)": {
        "details": "See {IERC721-safeTransferFrom}."
      },
      "safeTransferFrom(address,address,uint256,bytes)": {
        "details": "See {IERC721-safeTransferFrom}."
      },
      "setApprovalForAll(address,bool)": {
        "details": "See {IERC721-setApprovalForAll}."
      },
      "symbol()": {
        "details": "See {IERC721Metadata-symbol}."
      },
      "tokenURI(uint256)": {
        "details": "See {IERC721Metadata-tokenURI}."
      },
      "transferFrom(address,address,uint256)": {
        "details": "See {IERC721-transferFrom}."
      }
    },
    "version": 1
  },
  "userdoc": {
    "kind": "user",
    "methods": {},
    "version": 1
  }
}