{
  "contractName": "RewardDistribution",
  "abi": [
    {
      "anonymous": false,
      "inputs": [
        {
          "indexed": false,
          "internalType": "uint8",
          "name": "version",
          "type": "uint8"
        }
      ],
      "name": "Initialized",
      "type": "event"
    },
    {
      "anonymous": false,
      "inputs": [
        {
          "indexed": true,
          "internalType": "bytes32",
          "name": "role",
          "type": "bytes32"
        },
        {
          "indexed": true,
          "internalType": "bytes32",
          "name": "previousAdminRole",
          "type": "bytes32"
        },
        {
          "indexed": true,
          "internalType": "bytes32",
          "name": "newAdminRole",
          "type": "bytes32"
        }
      ],
      "name": "RoleAdminChanged",
      "type": "event"
    },
    {
      "anonymous": false,
      "inputs": [
        {
          "indexed": true,
          "internalType": "bytes32",
          "name": "role",
          "type": "bytes32"
        },
        {
          "indexed": true,
          "internalType": "address",
          "name": "account",
          "type": "address"
        },
        {
          "indexed": true,
          "internalType": "address",
          "name": "sender",
          "type": "address"
        }
      ],
      "name": "RoleGranted",
      "type": "event"
    },
    {
      "anonymous": false,
      "inputs": [
        {
          "indexed": true,
          "internalType": "bytes32",
          "name": "role",
          "type": "bytes32"
        },
        {
          "indexed": true,
          "internalType": "address",
          "name": "account",
          "type": "address"
        },
        {
          "indexed": true,
          "internalType": "address",
          "name": "sender",
          "type": "address"
        }
      ],
      "name": "RoleRevoked",
      "type": "event"
    },
    {
      "inputs": [],
      "name": "DEFAULT_ADMIN_ROLE",
      "outputs": [
        {
          "internalType": "bytes32",
          "name": "",
          "type": "bytes32"
        }
      ],
      "stateMutability": "view",
      "type": "function"
    },
    {
      "inputs": [],
      "name": "OWNER_ROLE",
      "outputs": [
        {
          "internalType": "bytes32",
          "name": "",
          "type": "bytes32"
        }
      ],
      "stateMutability": "view",
      "type": "function"
    },
    {
      "inputs": [
        {
          "internalType": "bytes32",
          "name": "role",
          "type": "bytes32"
        }
      ],
      "name": "getRoleAdmin",
      "outputs": [
        {
          "internalType": "bytes32",
          "name": "",
          "type": "bytes32"
        }
      ],
      "stateMutability": "view",
      "type": "function"
    },
    {
      "inputs": [
        {
          "internalType": "bytes32",
          "name": "role",
          "type": "bytes32"
        },
        {
          "internalType": "address",
          "name": "account",
          "type": "address"
        }
      ],
      "name": "grantRole",
      "outputs": [],
      "stateMutability": "nonpayable",
      "type": "function"
    },
    {
      "inputs": [
        {
          "internalType": "bytes32",
          "name": "role",
          "type": "bytes32"
        },
        {
          "internalType": "address",
          "name": "account",
          "type": "address"
        }
      ],
      "name": "hasRole",
      "outputs": [
        {
          "internalType": "bool",
          "name": "",
          "type": "bool"
        }
      ],
      "stateMutability": "view",
      "type": "function"
    },
    {
      "inputs": [
        {
          "internalType": "bytes32",
          "name": "role",
          "type": "bytes32"
        },
        {
          "internalType": "address",
          "name": "account",
          "type": "address"
        }
      ],
      "name": "renounceRole",
      "outputs": [],
      "stateMutability": "nonpayable",
      "type": "function"
    },
    {
      "inputs": [
        {
          "internalType": "bytes32",
          "name": "role",
          "type": "bytes32"
        },
        {
          "internalType": "address",
          "name": "account",
          "type": "address"
        }
      ],
      "name": "revokeRole",
      "outputs": [],
      "stateMutability": "nonpayable",
      "type": "function"
    },
    {
      "inputs": [],
      "name": "rewardToken",
      "outputs": [
        {
          "internalType": "contract IERC20Upgradeable",
          "name": "",
          "type": "address"
        }
      ],
      "stateMutability": "view",
      "type": "function"
    },
    {
      "inputs": [
        {
          "internalType": "bytes4",
          "name": "interfaceId",
          "type": "bytes4"
        }
      ],
      "name": "supportsInterface",
      "outputs": [
        {
          "internalType": "bool",
          "name": "",
          "type": "bool"
        }
      ],
      "stateMutability": "view",
      "type": "function"
    },
    {
      "inputs": [
        {
          "internalType": "contract IERC20Upgradeable",
          "name": "_rewardToken",
          "type": "address"
        },
        {
          "internalType": "address",
          "name": "initialOwner",
          "type": "address"
        }
      ],
      "name": "initialize",
      "outputs": [],
      "stateMutability": "nonpayable",
      "type": "function"
    },
    {
      "inputs": [
        {
          "internalType": "address[]",
          "name": "recipients",
          "type": "address[]"
        },
        {
          "internalType": "uint256[]",
          "name": "amounts",
          "type": "uint256[]"
        }
      ],
      "name": "distributeRewards",
      "outputs": [],
      "stateMutability": "nonpayable",
      "type": "function"
    }
  ],
  "bytecode": "0x608060405234801561001057600080fd5b50610d04806100206000396000f3fe608060405234801561001057600080fd5b50600436106100a95760003560e01c8063485cc95511610071578063485cc9551461014257806391d1485414610155578063a217fddf14610168578063d547741f14610170578063e58378bb14610183578063f7c618c11461019857600080fd5b806301ffc9a7146100ae578063143ba4f3146100d6578063248a9ca3146100eb5780632f2ff15d1461011c57806336568abe1461012f575b600080fd5b6100c16100bc3660046108ec565b6101c3565b60405190151581526020015b60405180910390f35b6100e96100e4366004610a01565b6101fa565b005b61010e6100f9366004610ac3565b60009081526065602052604090206001015490565b6040519081526020016100cd565b6100e961012a366004610adc565b61034c565b6100e961013d366004610adc565b610376565b6100e9610150366004610b0c565b6103f4565b6100c1610163366004610adc565b610549565b61010e600081565b6100e961017e366004610adc565b610574565b61010e600080516020610caf83398151915281565b6097546101ab906001600160a01b031681565b6040516001600160a01b0390911681526020016100cd565b60006001600160e01b03198216637965db0b60e01b14806101f457506301ffc9a760e01b6001600160e01b03198316145b92915050565b600080516020610caf83398151915261021281610599565b81518351146102685760405162461bcd60e51b815260206004820152601a60248201527f4172726179206c656e6774687320646f206e6f74206d6174636800000000000060448201526064015b60405180910390fd5b60005b83518110156103465760975484516001600160a01b039091169063a9059cbb9086908490811061029d5761029d610b3a565b60200260200101518584815181106102b7576102b7610b3a565b60200260200101516040518363ffffffff1660e01b81526004016102f09291906001600160a01b03929092168252602082015260400190565b6020604051808303816000875af115801561030f573d6000803e3d6000fd5b505050506040513d601f19601f820116820180604052508101906103339190610b50565b508061033e81610b88565b91505061026b565b50505050565b60008281526065602052604090206001015461036781610599565b61037183836105a6565b505050565b6001600160a01b03811633146103e65760405162461bcd60e51b815260206004820152602f60248201527f416363657373436f6e74726f6c3a2063616e206f6e6c792072656e6f756e636560448201526e103937b632b9903337b91039b2b63360891b606482015260840161025f565b6103f0828261062c565b5050565b600054610100900460ff16158080156104145750600054600160ff909116105b8061042e5750303b15801561042e575060005460ff166001145b6104915760405162461bcd60e51b815260206004820152602e60248201527f496e697469616c697a61626c653a20636f6e747261637420697320616c72656160448201526d191e481a5b9a5d1a585b1a5e995960921b606482015260840161025f565b6000805460ff1916600117905580156104b4576000805461ff0019166101001790555b609780546001600160a01b0319166001600160a01b0385161790556104e7600080516020610caf833981519152836105a6565b6104ff600080516020610caf83398151915280610693565b8015610371576000805461ff0019169055604051600181527f7f26b83ff96e1f2b6a682f133852f6798a09c465da95921460cefb38474024989060200160405180910390a1505050565b60009182526065602090815260408084206001600160a01b0393909316845291905290205460ff1690565b60008281526065602052604090206001015461058f81610599565b610371838361062c565b6105a381336106de565b50565b6105b08282610549565b6103f05760008281526065602090815260408083206001600160a01b03851684529091529020805460ff191660011790556105e83390565b6001600160a01b0316816001600160a01b0316837f2f8788117e7eff1d82e926ec794901d17c78024a50270940304540a733656f0d60405160405180910390a45050565b6106368282610549565b156103f05760008281526065602090815260408083206001600160a01b0385168085529252808320805460ff1916905551339285917ff6391f5c32d9c69d2a47ea670b442974b53935d1edc7fd64eb21e047a839171b9190a45050565b600082815260656020526040808220600101805490849055905190918391839186917fbd79b86ffe0ab8e8776151514217cd7cacd52c909f66475c3af44e129f0b00ff9190a4505050565b6106e88282610549565b6103f0576106f581610737565b610700836020610749565b604051602001610711929190610bc5565b60408051601f198184030181529082905262461bcd60e51b825261025f91600401610c3a565b60606101f46001600160a01b03831660145b60606000610758836002610c6d565b610763906002610c84565b67ffffffffffffffff81111561077b5761077b610916565b6040519080825280601f01601f1916602001820160405280156107a5576020820181803683370190505b509050600360fc1b816000815181106107c0576107c0610b3a565b60200101906001600160f81b031916908160001a905350600f60fb1b816001815181106107ef576107ef610b3a565b60200101906001600160f81b031916908160001a9053506000610813846002610c6d565b61081e906001610c84565b90505b6001811115610896576f181899199a1a9b1b9c1cb0b131b232b360811b85600f166010811061085257610852610b3a565b1a60f81b82828151811061086857610868610b3a565b60200101906001600160f81b031916908160001a90535060049490941c9361088f81610c97565b9050610821565b5083156108e55760405162461bcd60e51b815260206004820181905260248201527f537472696e67733a20686578206c656e67746820696e73756666696369656e74604482015260640161025f565b9392505050565b6000602082840312156108fe57600080fd5b81356001600160e01b0319811681146108e557600080fd5b634e487b7160e01b600052604160045260246000fd5b604051601f8201601f1916810167ffffffffffffffff8111828210171561095557610955610916565b604052919050565b600067ffffffffffffffff82111561097757610977610916565b5060051b60200190565b6001600160a01b03811681146105a357600080fd5b600082601f8301126109a757600080fd5b813560206109bc6109b78361095d565b61092c565b82815260059290921b840181019181810190868411156109db57600080fd5b8286015b848110156109f657803583529183019183016109df565b509695505050505050565b60008060408385031215610a1457600080fd5b823567ffffffffffffffff80821115610a2c57600080fd5b818501915085601f830112610a4057600080fd5b81356020610a506109b78361095d565b82815260059290921b84018101918181019089841115610a6f57600080fd5b948201945b83861015610a96578535610a8781610981565b82529482019490820190610a74565b96505086013592505080821115610aac57600080fd5b50610ab985828601610996565b9150509250929050565b600060208284031215610ad557600080fd5b5035919050565b60008060408385031215610aef57600080fd5b823591506020830135610b0181610981565b809150509250929050565b60008060408385031215610b1f57600080fd5b8235610b2a81610981565b91506020830135610b0181610981565b634e487b7160e01b600052603260045260246000fd5b600060208284031215610b6257600080fd5b815180151581146108e557600080fd5b634e487b7160e01b600052601160045260246000fd5b600060018201610b9a57610b9a610b72565b5060010190565b60005b83811015610bbc578181015183820152602001610ba4565b50506000910152565b7f416363657373436f6e74726f6c3a206163636f756e7420000000000000000000815260008351610bfd816017850160208801610ba1565b7001034b99036b4b9b9b4b733903937b6329607d1b6017918401918201528351610c2e816028840160208801610ba1565b01602801949350505050565b6020815260008251806020840152610c59816040850160208701610ba1565b601f01601f19169190910160400192915050565b80820281158282048414176101f4576101f4610b72565b808201808211156101f4576101f4610b72565b600081610ca657610ca6610b72565b50600019019056feb19546dff01e856fb3f010c267a7b1c60363cf8a4664e21cc89c26224620214ea26469706673582212202f8eef8f157fc0dc812e5a4de63c750ab4325b0f6cd82e82a6f49853c6af40b764736f6c63430008110033",
  "immutableReferences": {},
  "source": "// SPDX-License-Identifier: MIT\r\npragma solidity ^0.8.17;\r\n\r\nimport \"@openzeppelin/contracts-upgradeable/token/ERC20/IERC20Upgradeable.sol\";\r\nimport \"@openzeppelin/contracts-upgradeable/access/AccessControlUpgradeable.sol\";\r\nimport \"@openzeppelin/contracts-upgradeable/proxy/utils/Initializable.sol\";\r\n\r\ncontract RewardDistribution is Initializable, AccessControlUpgradeable {\r\n    IERC20Upgradeable public rewardToken;\r\n    bytes32 public constant OWNER_ROLE = keccak256(\"OWNER_ROLE\");\r\n\r\n    function initialize(\r\n        IERC20Upgradeable _rewardToken,\r\n        address initialOwner\r\n    ) public initializer {\r\n        rewardToken = _rewardToken;\r\n\r\n        _grantRole(OWNER_ROLE, initialOwner);\r\n        _setRoleAdmin(OWNER_ROLE, OWNER_ROLE);\r\n    }\r\n\r\n    function distributeRewards(\r\n        address[] memory recipients,\r\n        uint256[] memory amounts\r\n    ) external onlyRole(OWNER_ROLE) {\r\n        require(\r\n            recipients.length == amounts.length,\r\n            \"Array lengths do not match\"\r\n        );\r\n\r\n        for (uint256 i = 0; i < recipients.length; i++) {\r\n            rewardToken.transfer(recipients[i], amounts[i]);\r\n        }\r\n    }\r\n}\r\n",
  "sourcePath": "D:\\DevTools\\flkm-project\\contracts\\DAOSupport\\RewardDistribution.sol",
  "compiler": {
    "name": "solc",
    "version": "0.8.17+commit.8df45f5f.Emscripten.clang"
  },
  "schemaVersion": "3.4.16",
  "updatedAt": "2023-10-27T02:44:10.614Z",
  "devdoc": {
    "kind": "dev",
    "methods": {
      "getRoleAdmin(bytes32)": {
        "details": "Returns the admin role that controls `role`. See {grantRole} and {revokeRole}. To change a role's admin, use {_setRoleAdmin}."
      },
      "grantRole(bytes32,address)": {
        "details": "Grants `role` to `account`. If `account` had not been already granted `role`, emits a {RoleGranted} event. Requirements: - the caller must have ``role``'s admin role. May emit a {RoleGranted} event."
      },
      "hasRole(bytes32,address)": {
        "details": "Returns `true` if `account` has been granted `role`."
      },
      "renounceRole(bytes32,address)": {
        "details": "Revokes `role` from the calling account. Roles are often managed via {grantRole} and {revokeRole}: this function's purpose is to provide a mechanism for accounts to lose their privileges if they are compromised (such as when a trusted device is misplaced). If the calling account had been revoked `role`, emits a {RoleRevoked} event. Requirements: - the caller must be `account`. May emit a {RoleRevoked} event."
      },
      "revokeRole(bytes32,address)": {
        "details": "Revokes `role` from `account`. If `account` had been granted `role`, emits a {RoleRevoked} event. Requirements: - the caller must have ``role``'s admin role. May emit a {RoleRevoked} event."
      },
      "supportsInterface(bytes4)": {
        "details": "See {IERC165-supportsInterface}."
      }
    },
    "version": 1
  },
  "userdoc": {
    "kind": "user",
    "methods": {},
    "version": 1
  }
}