{
  "contractName": "Vesting",
  "abi": [
    {
      "anonymous": false,
      "inputs": [
        {
          "indexed": false,
          "internalType": "uint8",
          "name": "version",
          "type": "uint8"
        }
      ],
      "name": "Initialized",
      "type": "event"
    },
    {
      "anonymous": false,
      "inputs": [
        {
          "indexed": true,
          "internalType": "bytes32",
          "name": "role",
          "type": "bytes32"
        },
        {
          "indexed": true,
          "internalType": "bytes32",
          "name": "previousAdminRole",
          "type": "bytes32"
        },
        {
          "indexed": true,
          "internalType": "bytes32",
          "name": "newAdminRole",
          "type": "bytes32"
        }
      ],
      "name": "RoleAdminChanged",
      "type": "event"
    },
    {
      "anonymous": false,
      "inputs": [
        {
          "indexed": true,
          "internalType": "bytes32",
          "name": "role",
          "type": "bytes32"
        },
        {
          "indexed": true,
          "internalType": "address",
          "name": "account",
          "type": "address"
        },
        {
          "indexed": true,
          "internalType": "address",
          "name": "sender",
          "type": "address"
        }
      ],
      "name": "RoleGranted",
      "type": "event"
    },
    {
      "anonymous": false,
      "inputs": [
        {
          "indexed": true,
          "internalType": "bytes32",
          "name": "role",
          "type": "bytes32"
        },
        {
          "indexed": true,
          "internalType": "address",
          "name": "account",
          "type": "address"
        },
        {
          "indexed": true,
          "internalType": "address",
          "name": "sender",
          "type": "address"
        }
      ],
      "name": "RoleRevoked",
      "type": "event"
    },
    {
      "inputs": [],
      "name": "DEFAULT_ADMIN_ROLE",
      "outputs": [
        {
          "internalType": "bytes32",
          "name": "",
          "type": "bytes32"
        }
      ],
      "stateMutability": "view",
      "type": "function"
    },
    {
      "inputs": [],
      "name": "OWNER_ROLE",
      "outputs": [
        {
          "internalType": "bytes32",
          "name": "",
          "type": "bytes32"
        }
      ],
      "stateMutability": "view",
      "type": "function"
    },
    {
      "inputs": [
        {
          "internalType": "address",
          "name": "",
          "type": "address"
        }
      ],
      "name": "claimedAmount",
      "outputs": [
        {
          "internalType": "uint256",
          "name": "",
          "type": "uint256"
        }
      ],
      "stateMutability": "view",
      "type": "function"
    },
    {
      "inputs": [
        {
          "internalType": "bytes32",
          "name": "role",
          "type": "bytes32"
        }
      ],
      "name": "getRoleAdmin",
      "outputs": [
        {
          "internalType": "bytes32",
          "name": "",
          "type": "bytes32"
        }
      ],
      "stateMutability": "view",
      "type": "function"
    },
    {
      "inputs": [
        {
          "internalType": "bytes32",
          "name": "role",
          "type": "bytes32"
        },
        {
          "internalType": "address",
          "name": "account",
          "type": "address"
        }
      ],
      "name": "grantRole",
      "outputs": [],
      "stateMutability": "nonpayable",
      "type": "function"
    },
    {
      "inputs": [
        {
          "internalType": "bytes32",
          "name": "role",
          "type": "bytes32"
        },
        {
          "internalType": "address",
          "name": "account",
          "type": "address"
        }
      ],
      "name": "hasRole",
      "outputs": [
        {
          "internalType": "bool",
          "name": "",
          "type": "bool"
        }
      ],
      "stateMutability": "view",
      "type": "function"
    },
    {
      "inputs": [
        {
          "internalType": "bytes32",
          "name": "role",
          "type": "bytes32"
        },
        {
          "internalType": "address",
          "name": "account",
          "type": "address"
        }
      ],
      "name": "renounceRole",
      "outputs": [],
      "stateMutability": "nonpayable",
      "type": "function"
    },
    {
      "inputs": [
        {
          "internalType": "bytes32",
          "name": "role",
          "type": "bytes32"
        },
        {
          "internalType": "address",
          "name": "account",
          "type": "address"
        }
      ],
      "name": "revokeRole",
      "outputs": [],
      "stateMutability": "nonpayable",
      "type": "function"
    },
    {
      "inputs": [
        {
          "internalType": "bytes4",
          "name": "interfaceId",
          "type": "bytes4"
        }
      ],
      "name": "supportsInterface",
      "outputs": [
        {
          "internalType": "bool",
          "name": "",
          "type": "bool"
        }
      ],
      "stateMutability": "view",
      "type": "function"
    },
    {
      "inputs": [],
      "name": "token",
      "outputs": [
        {
          "internalType": "contract IERC20Upgradeable",
          "name": "",
          "type": "address"
        }
      ],
      "stateMutability": "view",
      "type": "function"
    },
    {
      "inputs": [
        {
          "internalType": "address",
          "name": "",
          "type": "address"
        }
      ],
      "name": "vestedAmount",
      "outputs": [
        {
          "internalType": "uint256",
          "name": "",
          "type": "uint256"
        }
      ],
      "stateMutability": "view",
      "type": "function"
    },
    {
      "inputs": [],
      "name": "vestingDuration",
      "outputs": [
        {
          "internalType": "uint256",
          "name": "",
          "type": "uint256"
        }
      ],
      "stateMutability": "view",
      "type": "function"
    },
    {
      "inputs": [
        {
          "internalType": "contract IERC20Upgradeable",
          "name": "_token",
          "type": "address"
        },
        {
          "internalType": "uint256",
          "name": "_vestingDuration",
          "type": "uint256"
        },
        {
          "internalType": "address",
          "name": "initialOwner",
          "type": "address"
        }
      ],
      "name": "initialize",
      "outputs": [],
      "stateMutability": "nonpayable",
      "type": "function"
    },
    {
      "inputs": [
        {
          "internalType": "address",
          "name": "beneficiary",
          "type": "address"
        },
        {
          "internalType": "uint256",
          "name": "amount",
          "type": "uint256"
        }
      ],
      "name": "addVesting",
      "outputs": [],
      "stateMutability": "nonpayable",
      "type": "function"
    },
    {
      "inputs": [],
      "name": "claim",
      "outputs": [],
      "stateMutability": "nonpayable",
      "type": "function"
    }
  ],
  "bytecode": "0x608060405234801561001057600080fd5b50610d04806100206000396000f3fe608060405234801561001057600080fd5b50600436106100f55760003560e01c80634e71d92d11610097578063c350a1b511610066578063c350a1b5146101fa578063d547741f1461020d578063e58378bb14610220578063fc0c546a1461023557600080fd5b80634e71d92d146101c457806391d14854146101cc57806395fcb00d146101df578063a217fddf146101f257600080fd5b8063248a9ca3116100d3578063248a9ca3146101595780632f2ff15d1461017c57806336568abe14610191578063384711cc146101a457600080fd5b806301ffc9a7146100fa57806304e86903146101225780631514617e14610150575b600080fd5b61010d610108366004610a17565b610260565b60405190151581526020015b60405180910390f35b610142610130366004610a56565b60996020526000908152604090205481565b604051908152602001610119565b610142609a5481565b610142610167366004610a73565b60009081526065602052604090206001015490565b61018f61018a366004610a8c565b610297565b005b61018f61019f366004610a8c565b6102c1565b6101426101b2366004610a56565b60986020526000908152604090205481565b61018f610344565b61010d6101da366004610a8c565b6104a4565b61018f6101ed366004610abc565b6104cf565b610142600081565b61018f610208366004610ae8565b61052b565b61018f61021b366004610a8c565b610687565b610142600080516020610caf83398151915281565b609754610248906001600160a01b031681565b6040516001600160a01b039091168152602001610119565b60006001600160e01b03198216637965db0b60e01b148061029157506301ffc9a760e01b6001600160e01b03198316145b92915050565b6000828152606560205260409020600101546102b2816106ac565b6102bc83836106b9565b505050565b6001600160a01b03811633146103365760405162461bcd60e51b815260206004820152602f60248201527f416363657373436f6e74726f6c3a2063616e206f6e6c792072656e6f756e636560448201526e103937b632b9903337b91039b2b63360891b60648201526084015b60405180910390fd5b610340828261073f565b5050565b609a544210156103965760405162461bcd60e51b815260206004820152601a60248201527f56657374696e6720706572696f64206973206e6f74206f766572000000000000604482015260640161032d565b3360009081526099602090815260408083205460989092528220546103ba916107a6565b9050600081116103ff5760405162461bcd60e51b815260206004820152601060248201526f4e6f7468696e6720746f20636c61696d60801b604482015260640161032d565b3360009081526099602052604090205461041990826107b9565b336000818152609960205260409081902092909255609754915163a9059cbb60e01b81526004810191909152602481018390526001600160a01b039091169063a9059cbb906044016020604051808303816000875af1158015610480573d6000803e3d6000fd5b505050506040513d601f19601f820116820180604052508101906103409190610b2a565b60009182526065602090815260408084206001600160a01b0393909316845291905290205460ff1690565b600080516020610caf8339815191526104e7816106ac565b6001600160a01b03831660009081526098602052604090205461050a90836107b9565b6001600160a01b039093166000908152609860205260409020929092555050565b600054610100900460ff161580801561054b5750600054600160ff909116105b806105655750303b158015610565575060005460ff166001145b6105c85760405162461bcd60e51b815260206004820152602e60248201527f496e697469616c697a61626c653a20636f6e747261637420697320616c72656160448201526d191e481a5b9a5d1a585b1a5e995960921b606482015260840161032d565b6000805460ff1916600117905580156105eb576000805461ff0019166101001790555b609780546001600160a01b0319166001600160a01b038616179055609a839055610623600080516020610caf833981519152836106b9565b61063b600080516020610caf833981519152806107c5565b8015610681576000805461ff0019169055604051600181527f7f26b83ff96e1f2b6a682f133852f6798a09c465da95921460cefb38474024989060200160405180910390a15b50505050565b6000828152606560205260409020600101546106a2816106ac565b6102bc838361073f565b6106b68133610810565b50565b6106c382826104a4565b6103405760008281526065602090815260408083206001600160a01b03851684529091529020805460ff191660011790556106fb3390565b6001600160a01b0316816001600160a01b0316837f2f8788117e7eff1d82e926ec794901d17c78024a50270940304540a733656f0d60405160405180910390a45050565b61074982826104a4565b156103405760008281526065602090815260408083206001600160a01b0385168085529252808320805460ff1916905551339285917ff6391f5c32d9c69d2a47ea670b442974b53935d1edc7fd64eb21e047a839171b9190a45050565b60006107b28284610b62565b9392505050565b60006107b28284610b75565b600082815260656020526040808220600101805490849055905190918391839186917fbd79b86ffe0ab8e8776151514217cd7cacd52c909f66475c3af44e129f0b00ff9190a4505050565b61081a82826104a4565b6103405761082781610869565b61083283602061087b565b604051602001610843929190610bac565b60408051601f198184030181529082905262461bcd60e51b825261032d91600401610c21565b60606102916001600160a01b03831660145b6060600061088a836002610c54565b610895906002610b75565b67ffffffffffffffff8111156108ad576108ad610c6b565b6040519080825280601f01601f1916602001820160405280156108d7576020820181803683370190505b509050600360fc1b816000815181106108f2576108f2610c81565b60200101906001600160f81b031916908160001a905350600f60fb1b8160018151811061092157610921610c81565b60200101906001600160f81b031916908160001a9053506000610945846002610c54565b610950906001610b75565b90505b60018111156109c8576f181899199a1a9b1b9c1cb0b131b232b360811b85600f166010811061098457610984610c81565b1a60f81b82828151811061099a5761099a610c81565b60200101906001600160f81b031916908160001a90535060049490941c936109c181610c97565b9050610953565b5083156107b25760405162461bcd60e51b815260206004820181905260248201527f537472696e67733a20686578206c656e67746820696e73756666696369656e74604482015260640161032d565b600060208284031215610a2957600080fd5b81356001600160e01b0319811681146107b257600080fd5b6001600160a01b03811681146106b657600080fd5b600060208284031215610a6857600080fd5b81356107b281610a41565b600060208284031215610a8557600080fd5b5035919050565b60008060408385031215610a9f57600080fd5b823591506020830135610ab181610a41565b809150509250929050565b60008060408385031215610acf57600080fd5b8235610ada81610a41565b946020939093013593505050565b600080600060608486031215610afd57600080fd5b8335610b0881610a41565b9250602084013591506040840135610b1f81610a41565b809150509250925092565b600060208284031215610b3c57600080fd5b815180151581146107b257600080fd5b634e487b7160e01b600052601160045260246000fd5b8181038181111561029157610291610b4c565b8082018082111561029157610291610b4c565b60005b83811015610ba3578181015183820152602001610b8b565b50506000910152565b7f416363657373436f6e74726f6c3a206163636f756e7420000000000000000000815260008351610be4816017850160208801610b88565b7001034b99036b4b9b9b4b733903937b6329607d1b6017918401918201528351610c15816028840160208801610b88565b01602801949350505050565b6020815260008251806020840152610c40816040850160208701610b88565b601f01601f19169190910160400192915050565b808202811582820484141761029157610291610b4c565b634e487b7160e01b600052604160045260246000fd5b634e487b7160e01b600052603260045260246000fd5b600081610ca657610ca6610b4c565b50600019019056feb19546dff01e856fb3f010c267a7b1c60363cf8a4664e21cc89c26224620214ea2646970667358221220453e14da91dfd52c65e704248008f1eba4448963bdb5bd0d2acdb9545ff3edcd64736f6c63430008110033",
  "immutableReferences": {},
  "source": "// SPDX-License-Identifier: MIT\r\npragma solidity ^0.8.17;\r\n\r\nimport \"@openzeppelin/contracts-upgradeable/token/ERC20/IERC20Upgradeable.sol\";\r\nimport \"@openzeppelin/contracts-upgradeable/utils/math/SafeMathUpgradeable.sol\";\r\nimport \"@openzeppelin/contracts-upgradeable/access/AccessControlUpgradeable.sol\";\r\n\r\ncontract Vesting is Initializable, AccessControlUpgradeable {\r\n    using SafeMathUpgradeable for uint256;\r\n\r\n    IERC20Upgradeable public token;\r\n    mapping(address => uint256) public vestedAmount;\r\n    mapping(address => uint256) public claimedAmount;\r\n    uint256 public vestingDuration;\r\n    bytes32 public constant OWNER_ROLE = keccak256(\"OWNER_ROLE\");\r\n\r\n    function initialize(\r\n        IERC20Upgradeable _token,\r\n        uint256 _vestingDuration,\r\n        address initialOwner\r\n    ) public initializer {\r\n        token = _token;\r\n        vestingDuration = _vestingDuration;\r\n\r\n        _grantRole(OWNER_ROLE, initialOwner);\r\n        _setRoleAdmin(OWNER_ROLE, OWNER_ROLE);\r\n    }\r\n\r\n    function addVesting(\r\n        address beneficiary,\r\n        uint256 amount\r\n    ) external onlyRole(OWNER_ROLE) {\r\n        vestedAmount[beneficiary] = vestedAmount[beneficiary].add(amount);\r\n    }\r\n\r\n    function claim() external {\r\n        require(\r\n            block.timestamp >= vestingDuration,\r\n            \"Vesting period is not over\"\r\n        );\r\n        uint256 pending = vestedAmount[msg.sender].sub(\r\n            claimedAmount[msg.sender]\r\n        );\r\n        require(pending > 0, \"Nothing to claim\");\r\n\r\n        claimedAmount[msg.sender] = claimedAmount[msg.sender].add(pending);\r\n        token.transfer(msg.sender, pending);\r\n    }\r\n}\r\n",
  "sourcePath": "D:\\DevTools\\flkm-project\\contracts\\DAOSupport\\Vesting.sol",
  "compiler": {
    "name": "solc",
    "version": "0.8.17+commit.8df45f5f.Emscripten.clang"
  },
  "schemaVersion": "3.4.16",
  "updatedAt": "2023-10-27T02:44:10.618Z",
  "devdoc": {
    "kind": "dev",
    "methods": {
      "getRoleAdmin(bytes32)": {
        "details": "Returns the admin role that controls `role`. See {grantRole} and {revokeRole}. To change a role's admin, use {_setRoleAdmin}."
      },
      "grantRole(bytes32,address)": {
        "details": "Grants `role` to `account`. If `account` had not been already granted `role`, emits a {RoleGranted} event. Requirements: - the caller must have ``role``'s admin role. May emit a {RoleGranted} event."
      },
      "hasRole(bytes32,address)": {
        "details": "Returns `true` if `account` has been granted `role`."
      },
      "renounceRole(bytes32,address)": {
        "details": "Revokes `role` from the calling account. Roles are often managed via {grantRole} and {revokeRole}: this function's purpose is to provide a mechanism for accounts to lose their privileges if they are compromised (such as when a trusted device is misplaced). If the calling account had been revoked `role`, emits a {RoleRevoked} event. Requirements: - the caller must be `account`. May emit a {RoleRevoked} event."
      },
      "revokeRole(bytes32,address)": {
        "details": "Revokes `role` from `account`. If `account` had been granted `role`, emits a {RoleRevoked} event. Requirements: - the caller must have ``role``'s admin role. May emit a {RoleRevoked} event."
      },
      "supportsInterface(bytes4)": {
        "details": "See {IERC165-supportsInterface}."
      }
    },
    "version": 1
  },
  "userdoc": {
    "kind": "user",
    "methods": {},
    "version": 1
  }
}