{
  "contractName": "WaningLightBase",
  "abi": [
    {
      "anonymous": false,
      "inputs": [
        {
          "indexed": true,
          "internalType": "address",
          "name": "owner",
          "type": "address"
        },
        {
          "indexed": true,
          "internalType": "address",
          "name": "approved",
          "type": "address"
        },
        {
          "indexed": true,
          "internalType": "uint256",
          "name": "tokenId",
          "type": "uint256"
        }
      ],
      "name": "Approval",
      "type": "event"
    },
    {
      "anonymous": false,
      "inputs": [
        {
          "indexed": true,
          "internalType": "address",
          "name": "owner",
          "type": "address"
        },
        {
          "indexed": true,
          "internalType": "address",
          "name": "operator",
          "type": "address"
        },
        {
          "indexed": false,
          "internalType": "bool",
          "name": "approved",
          "type": "bool"
        }
      ],
      "name": "ApprovalForAll",
      "type": "event"
    },
    {
      "anonymous": false,
      "inputs": [
        {
          "indexed": false,
          "internalType": "uint256",
          "name": "_fromTokenId",
          "type": "uint256"
        },
        {
          "indexed": false,
          "internalType": "uint256",
          "name": "_toTokenId",
          "type": "uint256"
        }
      ],
      "name": "BatchMetadataUpdate",
      "type": "event"
    },
    {
      "anonymous": false,
      "inputs": [
        {
          "indexed": false,
          "internalType": "uint8",
          "name": "version",
          "type": "uint8"
        }
      ],
      "name": "Initialized",
      "type": "event"
    },
    {
      "anonymous": false,
      "inputs": [
        {
          "indexed": false,
          "internalType": "uint256",
          "name": "tokenId",
          "type": "uint256"
        },
        {
          "indexed": false,
          "internalType": "string",
          "name": "newURI",
          "type": "string"
        }
      ],
      "name": "MetadataChanged",
      "type": "event"
    },
    {
      "anonymous": false,
      "inputs": [
        {
          "indexed": false,
          "internalType": "uint256",
          "name": "_tokenId",
          "type": "uint256"
        }
      ],
      "name": "MetadataUpdate",
      "type": "event"
    },
    {
      "anonymous": false,
      "inputs": [
        {
          "indexed": true,
          "internalType": "bytes32",
          "name": "role",
          "type": "bytes32"
        },
        {
          "indexed": true,
          "internalType": "bytes32",
          "name": "previousAdminRole",
          "type": "bytes32"
        },
        {
          "indexed": true,
          "internalType": "bytes32",
          "name": "newAdminRole",
          "type": "bytes32"
        }
      ],
      "name": "RoleAdminChanged",
      "type": "event"
    },
    {
      "anonymous": false,
      "inputs": [
        {
          "indexed": true,
          "internalType": "bytes32",
          "name": "role",
          "type": "bytes32"
        },
        {
          "indexed": true,
          "internalType": "address",
          "name": "account",
          "type": "address"
        },
        {
          "indexed": true,
          "internalType": "address",
          "name": "sender",
          "type": "address"
        }
      ],
      "name": "RoleGranted",
      "type": "event"
    },
    {
      "anonymous": false,
      "inputs": [
        {
          "indexed": true,
          "internalType": "bytes32",
          "name": "role",
          "type": "bytes32"
        },
        {
          "indexed": true,
          "internalType": "address",
          "name": "account",
          "type": "address"
        },
        {
          "indexed": true,
          "internalType": "address",
          "name": "sender",
          "type": "address"
        }
      ],
      "name": "RoleRevoked",
      "type": "event"
    },
    {
      "anonymous": false,
      "inputs": [
        {
          "indexed": true,
          "internalType": "address",
          "name": "from",
          "type": "address"
        },
        {
          "indexed": true,
          "internalType": "address",
          "name": "to",
          "type": "address"
        },
        {
          "indexed": true,
          "internalType": "uint256",
          "name": "tokenId",
          "type": "uint256"
        }
      ],
      "name": "Transfer",
      "type": "event"
    },
    {
      "inputs": [],
      "name": "ADMIN_ROLE",
      "outputs": [
        {
          "internalType": "bytes32",
          "name": "",
          "type": "bytes32"
        }
      ],
      "stateMutability": "view",
      "type": "function",
      "constant": true
    },
    {
      "inputs": [],
      "name": "DEFAULT_ADMIN_ROLE",
      "outputs": [
        {
          "internalType": "bytes32",
          "name": "",
          "type": "bytes32"
        }
      ],
      "stateMutability": "view",
      "type": "function",
      "constant": true
    },
    {
      "inputs": [],
      "name": "MINTER_ROLE",
      "outputs": [
        {
          "internalType": "bytes32",
          "name": "",
          "type": "bytes32"
        }
      ],
      "stateMutability": "view",
      "type": "function",
      "constant": true
    },
    {
      "inputs": [
        {
          "internalType": "address",
          "name": "to",
          "type": "address"
        },
        {
          "internalType": "uint256",
          "name": "tokenId",
          "type": "uint256"
        }
      ],
      "name": "approve",
      "outputs": [],
      "stateMutability": "nonpayable",
      "type": "function"
    },
    {
      "inputs": [
        {
          "internalType": "address",
          "name": "owner",
          "type": "address"
        }
      ],
      "name": "balanceOf",
      "outputs": [
        {
          "internalType": "uint256",
          "name": "",
          "type": "uint256"
        }
      ],
      "stateMutability": "view",
      "type": "function",
      "constant": true
    },
    {
      "inputs": [
        {
          "internalType": "address",
          "name": "",
          "type": "address"
        }
      ],
      "name": "contributions",
      "outputs": [
        {
          "internalType": "string",
          "name": "",
          "type": "string"
        }
      ],
      "stateMutability": "view",
      "type": "function",
      "constant": true
    },
    {
      "inputs": [
        {
          "internalType": "uint256",
          "name": "tokenId",
          "type": "uint256"
        }
      ],
      "name": "getApproved",
      "outputs": [
        {
          "internalType": "address",
          "name": "",
          "type": "address"
        }
      ],
      "stateMutability": "view",
      "type": "function",
      "constant": true
    },
    {
      "inputs": [
        {
          "internalType": "bytes32",
          "name": "role",
          "type": "bytes32"
        }
      ],
      "name": "getRoleAdmin",
      "outputs": [
        {
          "internalType": "bytes32",
          "name": "",
          "type": "bytes32"
        }
      ],
      "stateMutability": "view",
      "type": "function",
      "constant": true
    },
    {
      "inputs": [
        {
          "internalType": "bytes32",
          "name": "role",
          "type": "bytes32"
        },
        {
          "internalType": "address",
          "name": "account",
          "type": "address"
        }
      ],
      "name": "grantRole",
      "outputs": [],
      "stateMutability": "nonpayable",
      "type": "function"
    },
    {
      "inputs": [
        {
          "internalType": "bytes32",
          "name": "role",
          "type": "bytes32"
        },
        {
          "internalType": "address",
          "name": "account",
          "type": "address"
        }
      ],
      "name": "hasRole",
      "outputs": [
        {
          "internalType": "bool",
          "name": "",
          "type": "bool"
        }
      ],
      "stateMutability": "view",
      "type": "function",
      "constant": true
    },
    {
      "inputs": [
        {
          "internalType": "address",
          "name": "owner",
          "type": "address"
        },
        {
          "internalType": "address",
          "name": "operator",
          "type": "address"
        }
      ],
      "name": "isApprovedForAll",
      "outputs": [
        {
          "internalType": "bool",
          "name": "",
          "type": "bool"
        }
      ],
      "stateMutability": "view",
      "type": "function",
      "constant": true
    },
    {
      "inputs": [],
      "name": "name",
      "outputs": [
        {
          "internalType": "string",
          "name": "",
          "type": "string"
        }
      ],
      "stateMutability": "view",
      "type": "function",
      "constant": true
    },
    {
      "inputs": [
        {
          "internalType": "uint256",
          "name": "tokenId",
          "type": "uint256"
        }
      ],
      "name": "ownerOf",
      "outputs": [
        {
          "internalType": "address",
          "name": "",
          "type": "address"
        }
      ],
      "stateMutability": "view",
      "type": "function",
      "constant": true
    },
    {
      "inputs": [
        {
          "internalType": "bytes32",
          "name": "role",
          "type": "bytes32"
        },
        {
          "internalType": "address",
          "name": "account",
          "type": "address"
        }
      ],
      "name": "renounceRole",
      "outputs": [],
      "stateMutability": "nonpayable",
      "type": "function"
    },
    {
      "inputs": [
        {
          "internalType": "bytes32",
          "name": "role",
          "type": "bytes32"
        },
        {
          "internalType": "address",
          "name": "account",
          "type": "address"
        }
      ],
      "name": "revokeRole",
      "outputs": [],
      "stateMutability": "nonpayable",
      "type": "function"
    },
    {
      "inputs": [
        {
          "internalType": "address",
          "name": "",
          "type": "address"
        }
      ],
      "name": "roles",
      "outputs": [
        {
          "internalType": "string",
          "name": "",
          "type": "string"
        }
      ],
      "stateMutability": "view",
      "type": "function",
      "constant": true
    },
    {
      "inputs": [
        {
          "internalType": "address",
          "name": "from",
          "type": "address"
        },
        {
          "internalType": "address",
          "name": "to",
          "type": "address"
        },
        {
          "internalType": "uint256",
          "name": "tokenId",
          "type": "uint256"
        }
      ],
      "name": "safeTransferFrom",
      "outputs": [],
      "stateMutability": "nonpayable",
      "type": "function"
    },
    {
      "inputs": [
        {
          "internalType": "address",
          "name": "from",
          "type": "address"
        },
        {
          "internalType": "address",
          "name": "to",
          "type": "address"
        },
        {
          "internalType": "uint256",
          "name": "tokenId",
          "type": "uint256"
        },
        {
          "internalType": "bytes",
          "name": "data",
          "type": "bytes"
        }
      ],
      "name": "safeTransferFrom",
      "outputs": [],
      "stateMutability": "nonpayable",
      "type": "function"
    },
    {
      "inputs": [
        {
          "internalType": "address",
          "name": "operator",
          "type": "address"
        },
        {
          "internalType": "bool",
          "name": "approved",
          "type": "bool"
        }
      ],
      "name": "setApprovalForAll",
      "outputs": [],
      "stateMutability": "nonpayable",
      "type": "function"
    },
    {
      "inputs": [],
      "name": "symbol",
      "outputs": [
        {
          "internalType": "string",
          "name": "",
          "type": "string"
        }
      ],
      "stateMutability": "view",
      "type": "function",
      "constant": true
    },
    {
      "inputs": [
        {
          "internalType": "address",
          "name": "from",
          "type": "address"
        },
        {
          "internalType": "address",
          "name": "to",
          "type": "address"
        },
        {
          "internalType": "uint256",
          "name": "tokenId",
          "type": "uint256"
        }
      ],
      "name": "transferFrom",
      "outputs": [],
      "stateMutability": "nonpayable",
      "type": "function"
    },
    {
      "inputs": [],
      "name": "initialize",
      "outputs": [],
      "stateMutability": "nonpayable",
      "type": "function"
    },
    {
      "inputs": [
        {
          "internalType": "address",
          "name": "to",
          "type": "address"
        }
      ],
      "name": "mint",
      "outputs": [],
      "stateMutability": "nonpayable",
      "type": "function"
    },
    {
      "inputs": [
        {
          "internalType": "uint256",
          "name": "tokenId",
          "type": "uint256"
        }
      ],
      "name": "burn",
      "outputs": [],
      "stateMutability": "nonpayable",
      "type": "function"
    },
    {
      "inputs": [
        {
          "internalType": "address",
          "name": "to",
          "type": "address"
        },
        {
          "internalType": "string",
          "name": "_tokenURI",
          "type": "string"
        }
      ],
      "name": "mintWithTokenURI",
      "outputs": [],
      "stateMutability": "nonpayable",
      "type": "function"
    },
    {
      "inputs": [
        {
          "internalType": "address",
          "name": "member",
          "type": "address"
        },
        {
          "internalType": "string",
          "name": "role",
          "type": "string"
        }
      ],
      "name": "setRole",
      "outputs": [],
      "stateMutability": "nonpayable",
      "type": "function"
    },
    {
      "inputs": [
        {
          "internalType": "address",
          "name": "member",
          "type": "address"
        },
        {
          "internalType": "string",
          "name": "contribution",
          "type": "string"
        }
      ],
      "name": "setContribution",
      "outputs": [],
      "stateMutability": "nonpayable",
      "type": "function"
    },
    {
      "inputs": [
        {
          "internalType": "bytes4",
          "name": "interfaceId",
          "type": "bytes4"
        }
      ],
      "name": "supportsInterface",
      "outputs": [
        {
          "internalType": "bool",
          "name": "",
          "type": "bool"
        }
      ],
      "stateMutability": "view",
      "type": "function",
      "constant": true
    },
    {
      "inputs": [
        {
          "internalType": "string",
          "name": "baseURI_",
          "type": "string"
        }
      ],
      "name": "setBaseURI",
      "outputs": [],
      "stateMutability": "nonpayable",
      "type": "function"
    },
    {
      "inputs": [],
      "name": "getBaseURI",
      "outputs": [
        {
          "internalType": "string",
          "name": "",
          "type": "string"
        }
      ],
      "stateMutability": "view",
      "type": "function",
      "constant": true
    },
    {
      "inputs": [
        {
          "internalType": "uint256",
          "name": "tokenId",
          "type": "uint256"
        }
      ],
      "name": "tokenURI",
      "outputs": [
        {
          "internalType": "string",
          "name": "",
          "type": "string"
        }
      ],
      "stateMutability": "view",
      "type": "function",
      "constant": true
    },
    {
      "inputs": [
        {
          "internalType": "uint256",
          "name": "tokenId",
          "type": "uint256"
        },
        {
          "internalType": "string",
          "name": "uri",
          "type": "string"
        }
      ],
      "name": "setTokenURI",
      "outputs": [],
      "stateMutability": "nonpayable",
      "type": "function"
    }
  ],
  "bytecode": "0x608060405234801561001057600080fd5b5061253b806100206000396000f3fe608060405234801561001057600080fd5b50600436106101f05760003560e01c80636a6278421161010f578063a217fddf116100a2578063d539139311610071578063d53913931461042e578063d547741f14610443578063e985e9c514610456578063f832309b1461049257600080fd5b8063a217fddf146103ed578063a22cb465146103f5578063b88d4fde14610408578063c87b56dd1461041b57600080fd5b80638129fc1c116100de5780638129fc1c146103b757806391d14854146103bf57806395d89b41146103d257806399374642146103da57600080fd5b80636a6278421461037457806370a0823114610387578063714c53981461039a57806375b238fc146103a257600080fd5b80632f2ff15d1161018757806342e94c901161015657806342e94c901461032857806345c177821461033b57806355f804b31461034e5780636352211e1461036157600080fd5b80632f2ff15d146102dc57806336568abe146102ef57806342842e0e1461030257806342966c681461031557600080fd5b80630a3653a7116101c35780630a3653a714610272578063162094c41461028557806323b872dd14610298578063248a9ca3146102ab57600080fd5b806301ffc9a7146101f557806306fdde031461021d578063081812fc14610232578063095ea7b31461025d575b600080fd5b610208610203366004611d0d565b6104a5565b60405190151581526020015b60405180910390f35b6102256104b6565b6040516102149190611d7a565b610245610240366004611d8d565b610548565b6040516001600160a01b039091168152602001610214565b61027061026b366004611dc2565b61056f565b005b610270610280366004611e98565b610689565b610270610293366004611ee6565b6106c9565b6102706102a6366004611f17565b610762565b6102ce6102b9366004611d8d565b600090815260c9602052604090206001015490565b604051908152602001610214565b6102706102ea366004611f53565b610793565b6102706102fd366004611f53565b6107b8565b610270610310366004611f17565b610836565b610270610323366004611d8d565b610851565b610225610336366004611f7f565b610872565b610270610349366004611e98565b61090c565b61027061035c366004611f9a565b610991565b61024561036f366004611d8d565b6109b5565b610270610382366004611f7f565b610a15565b6102ce610395366004611f7f565b610a52565b610225610ad8565b6102ce6000805160206124e683398151915281565b610270610ae7565b6102086103cd366004611f53565b610c6f565b610225610c9a565b6102256103e8366004611f7f565b610ca9565b6102ce600081565b610270610403366004611fcf565b610cc2565b61027061041636600461200b565b610ccd565b610225610429366004611d8d565b610cff565b6102ce6000805160206124c683398151915281565b610270610451366004611f53565b610e8d565b610208610464366004612087565b6001600160a01b039182166000908152606a6020908152604080832093909416825291909152205460ff1690565b6102706104a0366004611e98565b610eb2565b60006104b082610eec565b92915050565b6060606580546104c5906120b1565b80601f01602080910402602001604051908101604052809291908181526020018280546104f1906120b1565b801561053e5780601f106105135761010080835404028352916020019161053e565b820191906000526020600020905b81548152906001019060200180831161052157829003601f168201915b5050505050905090565b600061055382610f11565b506000908152606960205260409020546001600160a01b031690565b600061057a826109b5565b9050806001600160a01b0316836001600160a01b0316036105ec5760405162461bcd60e51b815260206004820152602160248201527f4552433732313a20617070726f76616c20746f2063757272656e74206f776e656044820152603960f91b60648201526084015b60405180910390fd5b336001600160a01b038216148061060857506106088133610464565b61067a5760405162461bcd60e51b815260206004820152603d60248201527f4552433732313a20617070726f76652063616c6c6572206973206e6f7420746f60448201527f6b656e206f776e6572206f7220617070726f76656420666f7220616c6c00000060648201526084016105e3565b6106848383610f61565b505050565b6000805160206124e68339815191526106a181610fcf565b6001600160a01b038316600090815260fd602052604090206106c38382612139565b50505050565b6000805160206124e68339815191526106e181610fcf565b6106ea83610fd9565b61074a5760405162461bcd60e51b815260206004820152602b60248201527f4d657461646174614c6f6769633a2055524920736574206f66206e6f6e65786960448201526a39ba32b73a103a37b5b2b760a91b60648201526084016105e3565b600083815260fe602052604090206106c38382612139565b61076c3382610ff6565b6107885760405162461bcd60e51b81526004016105e3906121f9565b610684838383611074565b600082815260c960205260409020600101546107ae81610fcf565b61068483836111d8565b6001600160a01b03811633146108285760405162461bcd60e51b815260206004820152602f60248201527f416363657373436f6e74726f6c3a2063616e206f6e6c792072656e6f756e636560448201526e103937b632b9903337b91039b2b63360891b60648201526084016105e3565b610832828261125e565b5050565b61068483838360405180602001604052806000815250610ccd565b6000805160206124e683398151915261086981610fcf565b610832826112c5565b60fd602052600090815260409020805461088b906120b1565b80601f01602080910402602001604051908101604052809291908181526020018280546108b7906120b1565b80156109045780601f106108d957610100808354040283529160200191610904565b820191906000526020600020905b8154815290600101906020018083116108e757829003601f168201915b505050505081565b6000805160206124c683398151915261092481610fcf565b6109308360fb54611305565b61093c60fb548361131f565b60fb805490600061094c8361225c565b91905055507f2822080855c1a796047f86db6703ee05ff65e9ab90092ca4114af8f017f2047e60fb5483604051610984929190612275565b60405180910390a1505050565b6000805160206124e68339815191526109a981610fcf565b60ff6106848382612139565b6000818152606760205260408120546001600160a01b0316806104b05760405162461bcd60e51b8152602060048201526018602482015277115490cdcc8c4e881a5b9d985b1a59081d1bdad95b88125160421b60448201526064016105e3565b6000805160206124c6833981519152610a2d81610fcf565b610a398260fb54611305565b60fb8054906000610a498361225c565b91905055505050565b60006001600160a01b038216610abc5760405162461bcd60e51b815260206004820152602960248201527f4552433732313a2061646472657373207a65726f206973206e6f7420612076616044820152683634b21037bbb732b960b91b60648201526084016105e3565b506001600160a01b031660009081526068602052604090205490565b6060610ae26113db565b905090565b600054610100900460ff1615808015610b075750600054600160ff909116105b80610b215750303b158015610b21575060005460ff166001145b610b845760405162461bcd60e51b815260206004820152602e60248201527f496e697469616c697a61626c653a20636f6e747261637420697320616c72656160448201526d191e481a5b9a5d1a585b1a5e995960921b60648201526084016105e3565b6000805460ff191660011790558015610ba7576000805461ff0019166101001790555b610bee6040518060400160405280600b81526020016a15d85b9a5b99d31a59da1d60aa1b8152506040518060400160405280600281526020016115d360f21b8152506113ea565b610bf661141b565b610c0e6000805160206124e6833981519152336111d8565b610c266000805160206124c6833981519152336111d8565b8015610c6c576000805461ff0019169055604051600181527f7f26b83ff96e1f2b6a682f133852f6798a09c465da95921460cefb38474024989060200160405180910390a15b50565b600091825260c9602090815260408084206001600160a01b0393909316845291905290205460ff1690565b6060606680546104c5906120b1565b60fc602052600090815260409020805461088b906120b1565b610832338383611444565b610cd73383610ff6565b610cf35760405162461bcd60e51b81526004016105e3906121f9565b6106c384848484611512565b6060610d0a82610fd9565b610d6d5760405162461bcd60e51b815260206004820152602e60248201527f4d657461646174614c6f6769633a2055524920717565727920666f72206e6f6e60448201526d32bc34b9ba32b73a103a37b5b2b760911b60648201526084016105e3565b600082815260fe602052604081208054610d86906120b1565b80601f0160208091040260200160405190810160405280929190818152602001828054610db2906120b1565b8015610dff5780601f10610dd457610100808354040283529160200191610dff565b820191906000526020600020905b815481529060010190602001808311610de257829003601f168201915b505050505090506000610e106113db565b825190915015610e54576000815111610e295781610e4c565b8082604051602001610e3c92919061228e565b6040516020818303038152906040525b949350505050565b6000815111610e725760405180602001604052806000815250610e4c565b80610e7c85611545565b604051602001610e3c92919061228e565b600082815260c96020526040902060010154610ea881610fcf565b610684838361125e565b6000805160206124e6833981519152610eca81610fcf565b6001600160a01b038316600090815260fc602052604090206106c38382612139565b60006001600160e01b03198216637965db0b60e01b14806104b057506104b0826115d8565b610f1a81610fd9565b610c6c5760405162461bcd60e51b8152602060048201526018602482015277115490cdcc8c4e881a5b9d985b1a59081d1bdad95b88125160421b60448201526064016105e3565b600081815260696020526040902080546001600160a01b0319166001600160a01b0384169081179091558190610f96826109b5565b6001600160a01b03167f8c5be1e5ebec7d5bd14f71427d1e84f3dd0314c0f7b2291e5b200ac8c7c3b92560405160405180910390a45050565b610c6c81336115fd565b6000908152606760205260409020546001600160a01b0316151590565b600080611002836109b5565b9050806001600160a01b0316846001600160a01b0316148061104957506001600160a01b038082166000908152606a602090815260408083209388168352929052205460ff165b80610e4c5750836001600160a01b031661106284610548565b6001600160a01b031614949350505050565b826001600160a01b0316611087826109b5565b6001600160a01b0316146110ad5760405162461bcd60e51b81526004016105e3906122bd565b6001600160a01b03821661110f5760405162461bcd60e51b8152602060048201526024808201527f4552433732313a207472616e7366657220746f20746865207a65726f206164646044820152637265737360e01b60648201526084016105e3565b826001600160a01b0316611122826109b5565b6001600160a01b0316146111485760405162461bcd60e51b81526004016105e3906122bd565b600081815260696020908152604080832080546001600160a01b03199081169091556001600160a01b0387811680865260688552838620805460001901905590871680865283862080546001019055868652606790945282852080549092168417909155905184937fddf252ad1be2c89b69c2b068fc378daa952ba7f163c4a11628f55a4df523b3ef91a4505050565b6111e28282610c6f565b61083257600082815260c9602090815260408083206001600160a01b03851684529091529020805460ff1916600117905561121a3390565b6001600160a01b0316816001600160a01b0316837f2f8788117e7eff1d82e926ec794901d17c78024a50270940304540a733656f0d60405160405180910390a45050565b6112688282610c6f565b1561083257600082815260c9602090815260408083206001600160a01b0385168085529252808320805460ff1916905551339285917ff6391f5c32d9c69d2a47ea670b442974b53935d1edc7fd64eb21e047a839171b9190a45050565b6112ce81611656565b600081815260976020526040902080546112e7906120b1565b159050610c6c576000818152609760205260408120610c6c91611ca9565b6108328282604051806020016040528060008152506116eb565b61132882610fd9565b61138b5760405162461bcd60e51b815260206004820152602e60248201527f45524337323155524953746f726167653a2055524920736574206f66206e6f6e60448201526d32bc34b9ba32b73a103a37b5b2b760911b60648201526084016105e3565b60008281526097602052604090206113a38282612139565b506040518281527ff8e1a15aba9398e019f0b49df1a4fde98ee17ae345cb5f6b5e2c27f5033e8ce79060200160405180910390a15050565b606060ff80546104c5906120b1565b600054610100900460ff166114115760405162461bcd60e51b81526004016105e390612302565b610832828261171e565b600054610100900460ff166114425760405162461bcd60e51b81526004016105e390612302565b565b816001600160a01b0316836001600160a01b0316036114a55760405162461bcd60e51b815260206004820152601960248201527f4552433732313a20617070726f766520746f2063616c6c65720000000000000060448201526064016105e3565b6001600160a01b038381166000818152606a6020908152604080832094871680845294825291829020805460ff191686151590811790915591519182527f17307eab39ab6107e8899845ad3d59bd9653f200f220920489ca2b5937696c31910160405180910390a3505050565b61151d848484611074565b6115298484848461175e565b6106c35760405162461bcd60e51b81526004016105e39061234d565b606060006115528361185f565b600101905060008167ffffffffffffffff81111561157257611572611dec565b6040519080825280601f01601f19166020018201604052801561159c576020820181803683370190505b5090508181016020015b600019016f181899199a1a9b1b9c1cb0b131b232b360811b600a86061a8153600a85049450846115a657509392505050565b60006001600160e01b03198216632483248360e11b14806104b057506104b082611937565b6116078282610c6f565b6108325761161481611987565b61161f836020611999565b60405160200161163092919061239f565b60408051601f198184030181529082905262461bcd60e51b82526105e391600401611d7a565b6000611661826109b5565b905061166c826109b5565b600083815260696020908152604080832080546001600160a01b03199081169091556001600160a01b0385168085526068845282852080546000190190558785526067909352818420805490911690555192935084927fddf252ad1be2c89b69c2b068fc378daa952ba7f163c4a11628f55a4df523b3ef908390a45050565b6116f58383611b3c565b611702600084848461175e565b6106845760405162461bcd60e51b81526004016105e39061234d565b600054610100900460ff166117455760405162461bcd60e51b81526004016105e390612302565b60656117518382612139565b5060666106848282612139565b60006001600160a01b0384163b1561185457604051630a85bd0160e11b81526001600160a01b0385169063150b7a02906117a2903390899088908890600401612414565b6020604051808303816000875af19250505080156117dd575060408051601f3d908101601f191682019092526117da91810190612451565b60015b61183a573d80801561180b576040519150601f19603f3d011682016040523d82523d6000602084013e611810565b606091505b5080516000036118325760405162461bcd60e51b81526004016105e39061234d565b805181602001fd5b6001600160e01b031916630a85bd0160e11b149050610e4c565b506001949350505050565b60008072184f03e93ff9f4daa797ed6e38ed64bf6a1f0160401b831061189e5772184f03e93ff9f4daa797ed6e38ed64bf6a1f0160401b830492506040015b6d04ee2d6d415b85acef810000000083106118ca576d04ee2d6d415b85acef8100000000830492506020015b662386f26fc1000083106118e857662386f26fc10000830492506010015b6305f5e1008310611900576305f5e100830492506008015b612710831061191457612710830492506004015b60648310611926576064830492506002015b600a83106104b05760010192915050565b60006001600160e01b031982166380ac58cd60e01b148061196857506001600160e01b03198216635b5e139f60e01b145b806104b057506301ffc9a760e01b6001600160e01b03198316146104b0565b60606104b06001600160a01b03831660145b606060006119a883600261246e565b6119b3906002612485565b67ffffffffffffffff8111156119cb576119cb611dec565b6040519080825280601f01601f1916602001820160405280156119f5576020820181803683370190505b509050600360fc1b81600081518110611a1057611a10612498565b60200101906001600160f81b031916908160001a905350600f60fb1b81600181518110611a3f57611a3f612498565b60200101906001600160f81b031916908160001a9053506000611a6384600261246e565b611a6e906001612485565b90505b6001811115611ae6576f181899199a1a9b1b9c1cb0b131b232b360811b85600f1660108110611aa257611aa2612498565b1a60f81b828281518110611ab857611ab8612498565b60200101906001600160f81b031916908160001a90535060049490941c93611adf816124ae565b9050611a71565b508315611b355760405162461bcd60e51b815260206004820181905260248201527f537472696e67733a20686578206c656e67746820696e73756666696369656e7460448201526064016105e3565b9392505050565b6001600160a01b038216611b925760405162461bcd60e51b815260206004820181905260248201527f4552433732313a206d696e7420746f20746865207a65726f206164647265737360448201526064016105e3565b611b9b81610fd9565b15611be85760405162461bcd60e51b815260206004820152601c60248201527f4552433732313a20746f6b656e20616c7265616479206d696e7465640000000060448201526064016105e3565b611bf181610fd9565b15611c3e5760405162461bcd60e51b815260206004820152601c60248201527f4552433732313a20746f6b656e20616c7265616479206d696e7465640000000060448201526064016105e3565b6001600160a01b038216600081815260686020908152604080832080546001019055848352606790915280822080546001600160a01b0319168417905551839291907fddf252ad1be2c89b69c2b068fc378daa952ba7f163c4a11628f55a4df523b3ef908290a45050565b508054611cb5906120b1565b6000825580601f10611cc5575050565b601f016020900490600052602060002090810190610c6c91905b80821115611cf35760008155600101611cdf565b5090565b6001600160e01b031981168114610c6c57600080fd5b600060208284031215611d1f57600080fd5b8135611b3581611cf7565b60005b83811015611d45578181015183820152602001611d2d565b50506000910152565b60008151808452611d66816020860160208601611d2a565b601f01601f19169290920160200192915050565b602081526000611b356020830184611d4e565b600060208284031215611d9f57600080fd5b5035919050565b80356001600160a01b0381168114611dbd57600080fd5b919050565b60008060408385031215611dd557600080fd5b611dde83611da6565b946020939093013593505050565b634e487b7160e01b600052604160045260246000fd5b600067ffffffffffffffff80841115611e1d57611e1d611dec565b604051601f8501601f19908116603f01168101908282118183101715611e4557611e45611dec565b81604052809350858152868686011115611e5e57600080fd5b858560208301376000602087830101525050509392505050565b600082601f830112611e8957600080fd5b611b3583833560208501611e02565b60008060408385031215611eab57600080fd5b611eb483611da6565b9150602083013567ffffffffffffffff811115611ed057600080fd5b611edc85828601611e78565b9150509250929050565b60008060408385031215611ef957600080fd5b82359150602083013567ffffffffffffffff811115611ed057600080fd5b600080600060608486031215611f2c57600080fd5b611f3584611da6565b9250611f4360208501611da6565b9150604084013590509250925092565b60008060408385031215611f6657600080fd5b82359150611f7660208401611da6565b90509250929050565b600060208284031215611f9157600080fd5b611b3582611da6565b600060208284031215611fac57600080fd5b813567ffffffffffffffff811115611fc357600080fd5b610e4c84828501611e78565b60008060408385031215611fe257600080fd5b611feb83611da6565b91506020830135801515811461200057600080fd5b809150509250929050565b6000806000806080858703121561202157600080fd5b61202a85611da6565b935061203860208601611da6565b925060408501359150606085013567ffffffffffffffff81111561205b57600080fd5b8501601f8101871361206c57600080fd5b61207b87823560208401611e02565b91505092959194509250565b6000806040838503121561209a57600080fd5b6120a383611da6565b9150611f7660208401611da6565b600181811c908216806120c557607f821691505b6020821081036120e557634e487b7160e01b600052602260045260246000fd5b50919050565b601f82111561068457600081815260208120601f850160051c810160208610156121125750805b601f850160051c820191505b818110156121315782815560010161211e565b505050505050565b815167ffffffffffffffff81111561215357612153611dec565b6121678161216184546120b1565b846120eb565b602080601f83116001811461219c57600084156121845750858301515b600019600386901b1c1916600185901b178555612131565b600085815260208120601f198616915b828110156121cb578886015182559484019460019091019084016121ac565b50858210156121e95787850151600019600388901b60f8161c191681555b5050505050600190811b01905550565b6020808252602d908201527f4552433732313a2063616c6c6572206973206e6f7420746f6b656e206f776e6560408201526c1c881bdc88185c1c1c9bdd9959609a1b606082015260800190565b634e487b7160e01b600052601160045260246000fd5b60006001820161226e5761226e612246565b5060010190565b828152604060208201526000610e4c6040830184611d4e565b600083516122a0818460208801611d2a565b8351908301906122b4818360208801611d2a565b01949350505050565b60208082526025908201527f4552433732313a207472616e736665722066726f6d20696e636f72726563742060408201526437bbb732b960d91b606082015260800190565b6020808252602b908201527f496e697469616c697a61626c653a20636f6e7472616374206973206e6f74206960408201526a6e697469616c697a696e6760a81b606082015260800190565b60208082526032908201527f4552433732313a207472616e7366657220746f206e6f6e20455243373231526560408201527131b2b4bb32b91034b6b83632b6b2b73a32b960711b606082015260800190565b7f416363657373436f6e74726f6c3a206163636f756e74200000000000000000008152600083516123d7816017850160208801611d2a565b7001034b99036b4b9b9b4b733903937b6329607d1b6017918401918201528351612408816028840160208801611d2a565b01602801949350505050565b6001600160a01b038581168252841660208201526040810183905260806060820181905260009061244790830184611d4e565b9695505050505050565b60006020828403121561246357600080fd5b8151611b3581611cf7565b80820281158282048414176104b0576104b0612246565b808201808211156104b0576104b0612246565b634e487b7160e01b600052603260045260246000fd5b6000816124bd576124bd612246565b50600019019056fe9f2df0fed2c77648de5860a4cc508cd0818c85b8b8a1ab4ceeef8d981c8956a6a49807205ce4d355092ef5a8a18f56e8913cf4a201fbe287825b095693c21775a2646970667358221220ef307957952026b1ed142e8ae09ea76190bbcec636a34a9f37b98655140249a664736f6c63430008110033",
  "immutableReferences": {},
  "source": "// SPDX-License-Identifier: MIT\r\npragma solidity ^0.8.17;\r\n\r\nimport \"@openzeppelin/contracts-upgradeable/proxy/utils/Initializable.sol\";\r\nimport \"@openzeppelin/contracts-upgradeable/token/ERC721/extensions/ERC721URIStorageUpgradeable.sol\";\r\nimport \"@openzeppelin/contracts-upgradeable/access/AccessControlUpgradeable.sol\";\r\nimport \"@openzeppelin/contracts/utils/Strings.sol\";\r\n\r\ncontract WaningLightBase is\r\n    Initializable,\r\n    ERC721URIStorageUpgradeable,\r\n    AccessControlUpgradeable\r\n{\r\n    using Strings for uint256;\r\n    uint256 private _tokenIdCounter;\r\n\r\n    // Define roles\r\n    bytes32 public constant ADMIN_ROLE = keccak256(\"ADMIN_ROLE\");\r\n    bytes32 public constant MINTER_ROLE = keccak256(\"MINTER_ROLE\");\r\n\r\n    // Event for metadata change\r\n    event MetadataChanged(uint256 tokenId, string newURI);\r\n\r\n    // Mapping for roles and contributions\r\n    mapping(address => string) public roles;\r\n    mapping(address => string) public contributions;\r\n    mapping(uint256 => string) private _tokenURIs;\r\n    string private _baseURIExtended;\r\n\r\n    function initialize() public initializer {\r\n        __ERC721_init(\"WaningLight\", \"WL\");\r\n        __AccessControl_init();\r\n\r\n        _grantRole(ADMIN_ROLE, msg.sender);\r\n        _grantRole(MINTER_ROLE, msg.sender);\r\n    }\r\n\r\n    // Only members with minter role can mint\r\n    function mint(address to) external onlyRole(MINTER_ROLE) {\r\n        _safeMint(to, _tokenIdCounter);\r\n        _tokenIdCounter++;\r\n    }\r\n\r\n    function burn(uint256 tokenId) external onlyRole(ADMIN_ROLE) {\r\n        _burn(tokenId);\r\n    }\r\n\r\n    function mintWithTokenURI(\r\n        address to,\r\n        string memory _tokenURI\r\n    ) external onlyRole(MINTER_ROLE) {\r\n        _safeMint(to, _tokenIdCounter);\r\n        _setTokenURI(_tokenIdCounter, _tokenURI);\r\n        _tokenIdCounter++;\r\n\r\n        emit MetadataChanged(_tokenIdCounter, _tokenURI);\r\n    }\r\n\r\n    function setRole(\r\n        address member,\r\n        string memory role\r\n    ) external onlyRole(ADMIN_ROLE) {\r\n        roles[member] = role;\r\n    }\r\n\r\n    function setContribution(\r\n        address member,\r\n        string memory contribution\r\n    ) external onlyRole(ADMIN_ROLE) {\r\n        contributions[member] = contribution;\r\n    }\r\n\r\n    function supportsInterface(\r\n        bytes4 interfaceId\r\n    )\r\n        public\r\n        view\r\n        override(ERC721URIStorageUpgradeable, AccessControlUpgradeable)\r\n        returns (bool)\r\n    {\r\n        return super.supportsInterface(interfaceId);\r\n    }\r\n\r\n    function _baseURI() internal view override returns (string memory) {\r\n        return _baseURIExtended;\r\n    }\r\n\r\n    function setBaseURI(string memory baseURI_) external onlyRole(ADMIN_ROLE) {\r\n        _baseURIExtended = baseURI_;\r\n    }\r\n\r\n    function getBaseURI() external view returns (string memory) {\r\n        return _baseURI();\r\n    }\r\n\r\n    function tokenURI(\r\n        uint256 tokenId\r\n    ) public view override returns (string memory) {\r\n        require(\r\n            _exists(tokenId),\r\n            \"MetadataLogic: URI query for nonexistent token\"\r\n        );\r\n\r\n        string memory uri = _tokenURIs[tokenId];\r\n        string memory base = _baseURI();\r\n\r\n        if (bytes(uri).length > 0) {\r\n            return\r\n                bytes(base).length > 0\r\n                    ? string(abi.encodePacked(base, uri))\r\n                    : uri;\r\n        }\r\n        return\r\n            bytes(base).length > 0\r\n                ? string(abi.encodePacked(base, tokenId.toString()))\r\n                : \"\";\r\n    }\r\n\r\n    function setTokenURI(\r\n        uint256 tokenId,\r\n        string memory uri\r\n    ) external onlyRole(ADMIN_ROLE) {\r\n        require(\r\n            _exists(tokenId),\r\n            \"MetadataLogic: URI set of nonexistent token\"\r\n        );\r\n        _tokenURIs[tokenId] = uri;\r\n    }\r\n\r\n    // use in Remix but not in Truffle?\r\n\r\n    // function _exists(uint256 tokenId) external view returns (bool) {\r\n    //     return _ownerOf(tokenId) != address(0);\r\n    // }\r\n}\r\n",
  "sourcePath": "D:\\DevTools\\flkm-project\\contracts\\DAOCore\\WaningLightBase.sol",
  "compiler": {
    "name": "solc",
    "version": "0.8.17+commit.8df45f5f.Emscripten.clang"
  },
  "schemaVersion": "3.4.16",
  "updatedAt": "2023-10-30T01:13:24.170Z",
  "networkType": "ethereum",
  "devdoc": {
    "kind": "dev",
    "methods": {
      "approve(address,uint256)": {
        "details": "See {IERC721-approve}."
      },
      "balanceOf(address)": {
        "details": "See {IERC721-balanceOf}."
      },
      "getApproved(uint256)": {
        "details": "See {IERC721-getApproved}."
      },
      "getRoleAdmin(bytes32)": {
        "details": "Returns the admin role that controls `role`. See {grantRole} and {revokeRole}. To change a role's admin, use {_setRoleAdmin}."
      },
      "grantRole(bytes32,address)": {
        "details": "Grants `role` to `account`. If `account` had not been already granted `role`, emits a {RoleGranted} event. Requirements: - the caller must have ``role``'s admin role. May emit a {RoleGranted} event."
      },
      "hasRole(bytes32,address)": {
        "details": "Returns `true` if `account` has been granted `role`."
      },
      "isApprovedForAll(address,address)": {
        "details": "See {IERC721-isApprovedForAll}."
      },
      "name()": {
        "details": "See {IERC721Metadata-name}."
      },
      "ownerOf(uint256)": {
        "details": "See {IERC721-ownerOf}."
      },
      "renounceRole(bytes32,address)": {
        "details": "Revokes `role` from the calling account. Roles are often managed via {grantRole} and {revokeRole}: this function's purpose is to provide a mechanism for accounts to lose their privileges if they are compromised (such as when a trusted device is misplaced). If the calling account had been revoked `role`, emits a {RoleRevoked} event. Requirements: - the caller must be `account`. May emit a {RoleRevoked} event."
      },
      "revokeRole(bytes32,address)": {
        "details": "Revokes `role` from `account`. If `account` had been granted `role`, emits a {RoleRevoked} event. Requirements: - the caller must have ``role``'s admin role. May emit a {RoleRevoked} event."
      },
      "safeTransferFrom(address,address,uint256)": {
        "details": "See {IERC721-safeTransferFrom}."
      },
      "safeTransferFrom(address,address,uint256,bytes)": {
        "details": "See {IERC721-safeTransferFrom}."
      },
      "setApprovalForAll(address,bool)": {
        "details": "See {IERC721-setApprovalForAll}."
      },
      "symbol()": {
        "details": "See {IERC721Metadata-symbol}."
      },
      "tokenURI(uint256)": {
        "details": "See {IERC721Metadata-tokenURI}."
      },
      "transferFrom(address,address,uint256)": {
        "details": "See {IERC721-transferFrom}."
      }
    },
    "version": 1
  },
  "userdoc": {
    "kind": "user",
    "methods": {},
    "version": 1
  }
}