{
  "contractName": "WaningLightMinting",
  "abi": [
    {
      "anonymous": false,
      "inputs": [
        {
          "indexed": true,
          "internalType": "address",
          "name": "owner",
          "type": "address"
        },
        {
          "indexed": true,
          "internalType": "address",
          "name": "approved",
          "type": "address"
        },
        {
          "indexed": true,
          "internalType": "uint256",
          "name": "tokenId",
          "type": "uint256"
        }
      ],
      "name": "Approval",
      "type": "event"
    },
    {
      "anonymous": false,
      "inputs": [
        {
          "indexed": true,
          "internalType": "address",
          "name": "owner",
          "type": "address"
        },
        {
          "indexed": true,
          "internalType": "address",
          "name": "operator",
          "type": "address"
        },
        {
          "indexed": false,
          "internalType": "bool",
          "name": "approved",
          "type": "bool"
        }
      ],
      "name": "ApprovalForAll",
      "type": "event"
    },
    {
      "anonymous": false,
      "inputs": [
        {
          "indexed": false,
          "internalType": "uint8",
          "name": "version",
          "type": "uint8"
        }
      ],
      "name": "Initialized",
      "type": "event"
    },
    {
      "anonymous": false,
      "inputs": [
        {
          "indexed": true,
          "internalType": "address",
          "name": "minter",
          "type": "address"
        },
        {
          "indexed": true,
          "internalType": "uint256",
          "name": "tokenId",
          "type": "uint256"
        },
        {
          "indexed": false,
          "internalType": "uint256",
          "name": "timestamp",
          "type": "uint256"
        }
      ],
      "name": "Minted",
      "type": "event"
    },
    {
      "anonymous": false,
      "inputs": [
        {
          "indexed": false,
          "internalType": "address",
          "name": "account",
          "type": "address"
        }
      ],
      "name": "Paused",
      "type": "event"
    },
    {
      "anonymous": false,
      "inputs": [
        {
          "indexed": true,
          "internalType": "bytes32",
          "name": "role",
          "type": "bytes32"
        },
        {
          "indexed": true,
          "internalType": "bytes32",
          "name": "previousAdminRole",
          "type": "bytes32"
        },
        {
          "indexed": true,
          "internalType": "bytes32",
          "name": "newAdminRole",
          "type": "bytes32"
        }
      ],
      "name": "RoleAdminChanged",
      "type": "event"
    },
    {
      "anonymous": false,
      "inputs": [
        {
          "indexed": true,
          "internalType": "bytes32",
          "name": "role",
          "type": "bytes32"
        },
        {
          "indexed": true,
          "internalType": "address",
          "name": "account",
          "type": "address"
        },
        {
          "indexed": true,
          "internalType": "address",
          "name": "sender",
          "type": "address"
        }
      ],
      "name": "RoleGranted",
      "type": "event"
    },
    {
      "anonymous": false,
      "inputs": [
        {
          "indexed": true,
          "internalType": "bytes32",
          "name": "role",
          "type": "bytes32"
        },
        {
          "indexed": true,
          "internalType": "address",
          "name": "account",
          "type": "address"
        },
        {
          "indexed": true,
          "internalType": "address",
          "name": "sender",
          "type": "address"
        }
      ],
      "name": "RoleRevoked",
      "type": "event"
    },
    {
      "anonymous": false,
      "inputs": [
        {
          "indexed": true,
          "internalType": "address",
          "name": "from",
          "type": "address"
        },
        {
          "indexed": true,
          "internalType": "address",
          "name": "to",
          "type": "address"
        },
        {
          "indexed": true,
          "internalType": "uint256",
          "name": "tokenId",
          "type": "uint256"
        }
      ],
      "name": "Transfer",
      "type": "event"
    },
    {
      "anonymous": false,
      "inputs": [
        {
          "indexed": false,
          "internalType": "address",
          "name": "account",
          "type": "address"
        }
      ],
      "name": "Unpaused",
      "type": "event"
    },
    {
      "inputs": [],
      "name": "ADMIN_ROLE",
      "outputs": [
        {
          "internalType": "bytes32",
          "name": "",
          "type": "bytes32"
        }
      ],
      "stateMutability": "view",
      "type": "function",
      "constant": true
    },
    {
      "inputs": [],
      "name": "DEFAULT_ADMIN_ROLE",
      "outputs": [
        {
          "internalType": "bytes32",
          "name": "",
          "type": "bytes32"
        }
      ],
      "stateMutability": "view",
      "type": "function",
      "constant": true
    },
    {
      "inputs": [],
      "name": "MINTER_ROLE",
      "outputs": [
        {
          "internalType": "bytes32",
          "name": "",
          "type": "bytes32"
        }
      ],
      "stateMutability": "view",
      "type": "function",
      "constant": true
    },
    {
      "inputs": [
        {
          "internalType": "address",
          "name": "to",
          "type": "address"
        },
        {
          "internalType": "uint256",
          "name": "tokenId",
          "type": "uint256"
        }
      ],
      "name": "approve",
      "outputs": [],
      "stateMutability": "nonpayable",
      "type": "function"
    },
    {
      "inputs": [
        {
          "internalType": "address",
          "name": "owner",
          "type": "address"
        }
      ],
      "name": "balanceOf",
      "outputs": [
        {
          "internalType": "uint256",
          "name": "",
          "type": "uint256"
        }
      ],
      "stateMutability": "view",
      "type": "function",
      "constant": true
    },
    {
      "inputs": [
        {
          "internalType": "uint256",
          "name": "tokenId",
          "type": "uint256"
        }
      ],
      "name": "getApproved",
      "outputs": [
        {
          "internalType": "address",
          "name": "",
          "type": "address"
        }
      ],
      "stateMutability": "view",
      "type": "function",
      "constant": true
    },
    {
      "inputs": [
        {
          "internalType": "bytes32",
          "name": "role",
          "type": "bytes32"
        }
      ],
      "name": "getRoleAdmin",
      "outputs": [
        {
          "internalType": "bytes32",
          "name": "",
          "type": "bytes32"
        }
      ],
      "stateMutability": "view",
      "type": "function",
      "constant": true
    },
    {
      "inputs": [
        {
          "internalType": "bytes32",
          "name": "role",
          "type": "bytes32"
        },
        {
          "internalType": "address",
          "name": "account",
          "type": "address"
        }
      ],
      "name": "grantRole",
      "outputs": [],
      "stateMutability": "nonpayable",
      "type": "function"
    },
    {
      "inputs": [
        {
          "internalType": "bytes32",
          "name": "role",
          "type": "bytes32"
        },
        {
          "internalType": "address",
          "name": "account",
          "type": "address"
        }
      ],
      "name": "hasRole",
      "outputs": [
        {
          "internalType": "bool",
          "name": "",
          "type": "bool"
        }
      ],
      "stateMutability": "view",
      "type": "function",
      "constant": true
    },
    {
      "inputs": [
        {
          "internalType": "address",
          "name": "owner",
          "type": "address"
        },
        {
          "internalType": "address",
          "name": "operator",
          "type": "address"
        }
      ],
      "name": "isApprovedForAll",
      "outputs": [
        {
          "internalType": "bool",
          "name": "",
          "type": "bool"
        }
      ],
      "stateMutability": "view",
      "type": "function",
      "constant": true
    },
    {
      "inputs": [],
      "name": "maxSupply",
      "outputs": [
        {
          "internalType": "uint256",
          "name": "",
          "type": "uint256"
        }
      ],
      "stateMutability": "view",
      "type": "function",
      "constant": true
    },
    {
      "inputs": [],
      "name": "mintPrice",
      "outputs": [
        {
          "internalType": "uint256",
          "name": "",
          "type": "uint256"
        }
      ],
      "stateMutability": "view",
      "type": "function",
      "constant": true
    },
    {
      "inputs": [],
      "name": "mintedSupply",
      "outputs": [
        {
          "internalType": "uint256",
          "name": "",
          "type": "uint256"
        }
      ],
      "stateMutability": "view",
      "type": "function",
      "constant": true
    },
    {
      "inputs": [],
      "name": "name",
      "outputs": [
        {
          "internalType": "string",
          "name": "",
          "type": "string"
        }
      ],
      "stateMutability": "view",
      "type": "function",
      "constant": true
    },
    {
      "inputs": [
        {
          "internalType": "uint256",
          "name": "tokenId",
          "type": "uint256"
        }
      ],
      "name": "ownerOf",
      "outputs": [
        {
          "internalType": "address",
          "name": "",
          "type": "address"
        }
      ],
      "stateMutability": "view",
      "type": "function",
      "constant": true
    },
    {
      "inputs": [],
      "name": "paused",
      "outputs": [
        {
          "internalType": "bool",
          "name": "",
          "type": "bool"
        }
      ],
      "stateMutability": "view",
      "type": "function",
      "constant": true
    },
    {
      "inputs": [
        {
          "internalType": "bytes32",
          "name": "role",
          "type": "bytes32"
        },
        {
          "internalType": "address",
          "name": "account",
          "type": "address"
        }
      ],
      "name": "renounceRole",
      "outputs": [],
      "stateMutability": "nonpayable",
      "type": "function"
    },
    {
      "inputs": [
        {
          "internalType": "bytes32",
          "name": "role",
          "type": "bytes32"
        },
        {
          "internalType": "address",
          "name": "account",
          "type": "address"
        }
      ],
      "name": "revokeRole",
      "outputs": [],
      "stateMutability": "nonpayable",
      "type": "function"
    },
    {
      "inputs": [
        {
          "internalType": "address",
          "name": "from",
          "type": "address"
        },
        {
          "internalType": "address",
          "name": "to",
          "type": "address"
        },
        {
          "internalType": "uint256",
          "name": "tokenId",
          "type": "uint256"
        }
      ],
      "name": "safeTransferFrom",
      "outputs": [],
      "stateMutability": "nonpayable",
      "type": "function"
    },
    {
      "inputs": [
        {
          "internalType": "address",
          "name": "from",
          "type": "address"
        },
        {
          "internalType": "address",
          "name": "to",
          "type": "address"
        },
        {
          "internalType": "uint256",
          "name": "tokenId",
          "type": "uint256"
        },
        {
          "internalType": "bytes",
          "name": "data",
          "type": "bytes"
        }
      ],
      "name": "safeTransferFrom",
      "outputs": [],
      "stateMutability": "nonpayable",
      "type": "function"
    },
    {
      "inputs": [
        {
          "internalType": "address",
          "name": "operator",
          "type": "address"
        },
        {
          "internalType": "bool",
          "name": "approved",
          "type": "bool"
        }
      ],
      "name": "setApprovalForAll",
      "outputs": [],
      "stateMutability": "nonpayable",
      "type": "function"
    },
    {
      "inputs": [],
      "name": "symbol",
      "outputs": [
        {
          "internalType": "string",
          "name": "",
          "type": "string"
        }
      ],
      "stateMutability": "view",
      "type": "function",
      "constant": true
    },
    {
      "inputs": [
        {
          "internalType": "uint256",
          "name": "index",
          "type": "uint256"
        }
      ],
      "name": "tokenByIndex",
      "outputs": [
        {
          "internalType": "uint256",
          "name": "",
          "type": "uint256"
        }
      ],
      "stateMutability": "view",
      "type": "function",
      "constant": true
    },
    {
      "inputs": [
        {
          "internalType": "address",
          "name": "owner",
          "type": "address"
        },
        {
          "internalType": "uint256",
          "name": "index",
          "type": "uint256"
        }
      ],
      "name": "tokenOfOwnerByIndex",
      "outputs": [
        {
          "internalType": "uint256",
          "name": "",
          "type": "uint256"
        }
      ],
      "stateMutability": "view",
      "type": "function",
      "constant": true
    },
    {
      "inputs": [
        {
          "internalType": "uint256",
          "name": "tokenId",
          "type": "uint256"
        }
      ],
      "name": "tokenURI",
      "outputs": [
        {
          "internalType": "string",
          "name": "",
          "type": "string"
        }
      ],
      "stateMutability": "view",
      "type": "function",
      "constant": true
    },
    {
      "inputs": [],
      "name": "totalSupply",
      "outputs": [
        {
          "internalType": "uint256",
          "name": "",
          "type": "uint256"
        }
      ],
      "stateMutability": "view",
      "type": "function",
      "constant": true
    },
    {
      "inputs": [
        {
          "internalType": "address",
          "name": "from",
          "type": "address"
        },
        {
          "internalType": "address",
          "name": "to",
          "type": "address"
        },
        {
          "internalType": "uint256",
          "name": "tokenId",
          "type": "uint256"
        }
      ],
      "name": "transferFrom",
      "outputs": [],
      "stateMutability": "nonpayable",
      "type": "function"
    },
    {
      "inputs": [],
      "name": "waningLightBase",
      "outputs": [
        {
          "internalType": "contract WaningLightBase",
          "name": "",
          "type": "address"
        }
      ],
      "stateMutability": "view",
      "type": "function",
      "constant": true
    },
    {
      "inputs": [],
      "name": "waningLightMetadata",
      "outputs": [
        {
          "internalType": "contract WaningLightMetadata",
          "name": "",
          "type": "address"
        }
      ],
      "stateMutability": "view",
      "type": "function",
      "constant": true
    },
    {
      "inputs": [
        {
          "internalType": "address",
          "name": "waningLightBaseAddress",
          "type": "address"
        },
        {
          "internalType": "address",
          "name": "waningLightMetadataAddress",
          "type": "address"
        },
        {
          "internalType": "uint256",
          "name": "_maxSupply",
          "type": "uint256"
        },
        {
          "internalType": "uint256",
          "name": "_mintPrice",
          "type": "uint256"
        }
      ],
      "name": "initialize",
      "outputs": [],
      "stateMutability": "nonpayable",
      "type": "function"
    },
    {
      "inputs": [
        {
          "internalType": "address",
          "name": "to",
          "type": "address"
        }
      ],
      "name": "mintNFT",
      "outputs": [],
      "stateMutability": "payable",
      "type": "function",
      "payable": true
    },
    {
      "inputs": [
        {
          "internalType": "uint256",
          "name": "newMintPrice",
          "type": "uint256"
        }
      ],
      "name": "setMintPrice",
      "outputs": [],
      "stateMutability": "nonpayable",
      "type": "function"
    },
    {
      "inputs": [],
      "name": "pauseSale",
      "outputs": [],
      "stateMutability": "nonpayable",
      "type": "function"
    },
    {
      "inputs": [],
      "name": "unpauseSale",
      "outputs": [],
      "stateMutability": "nonpayable",
      "type": "function"
    },
    {
      "inputs": [
        {
          "internalType": "bytes4",
          "name": "interfaceId",
          "type": "bytes4"
        }
      ],
      "name": "supportsInterface",
      "outputs": [
        {
          "internalType": "bool",
          "name": "",
          "type": "bool"
        }
      ],
      "stateMutability": "view",
      "type": "function",
      "constant": true
    }
  ],
  "bytecode": "0x608060405234801561001057600080fd5b50612747806100206000396000f3fe6080604052600436106102045760003560e01c80636817c76c11610118578063bb33d729116100a0578063d547741f1161006f578063d547741f146105ce578063d5abeb01146105ee578063e985e9c514610605578063eb990c591461064e578063f4a0a5281461066e57600080fd5b8063bb33d7291461054e578063c1bd8cf914610563578063c87b56dd1461057a578063d53913931461059a57600080fd5b806395d89b41116100e757806395d89b41146104c35780639d018070146104d8578063a217fddf146104f9578063a22cb4651461050e578063b88d4fde1461052e57600080fd5b80636817c76c1461044a57806370a082311461046157806375b238fc1461048157806391d14854146104a357600080fd5b80632f2ff15d1161019b5780634f6ccce71161016a5780634f6ccce7146103ca57806354ba0f27146103ea57806355367ba9146103fd5780635c975abb146104125780636352211e1461042a57600080fd5b80632f2ff15d1461034a5780632f745c591461036a57806336568abe1461038a57806342842e0e146103aa57600080fd5b8063095ea7b3116101d7578063095ea7b3146102b957806318160ddd146102db57806323b872dd146102fa578063248a9ca31461031a57600080fd5b806301ffc9a71461020957806306fdde031461023e578063079ef0cf14610260578063081812fc14610299575b600080fd5b34801561021557600080fd5b506102296102243660046120a4565b61068e565b60405190151581526020015b60405180910390f35b34801561024a57600080fd5b5061025361069f565b6040516102359190612111565b34801561026c57600080fd5b5061012d54610281906001600160a01b031681565b6040516001600160a01b039091168152602001610235565b3480156102a557600080fd5b506102816102b4366004612124565b610731565b3480156102c557600080fd5b506102d96102d4366004612159565b610758565b005b3480156102e757600080fd5b506099545b604051908152602001610235565b34801561030657600080fd5b506102d9610315366004612183565b610872565b34801561032657600080fd5b506102ec610335366004612124565b600090815260c9602052604090206001015490565b34801561035657600080fd5b506102d96103653660046121bf565b6108a3565b34801561037657600080fd5b506102ec610385366004612159565b6108c8565b34801561039657600080fd5b506102d96103a53660046121bf565b61095e565b3480156103b657600080fd5b506102d96103c5366004612183565b6109dc565b3480156103d657600080fd5b506102ec6103e5366004612124565b6109f7565b6102d96103f83660046121eb565b610a8a565b34801561040957600080fd5b506102d9610c34565b34801561041e57600080fd5b5060fb5460ff16610229565b34801561043657600080fd5b50610281610445366004612124565b610c57565b34801561045657600080fd5b506102ec6101305481565b34801561046d57600080fd5b506102ec61047c3660046121eb565b610cb7565b34801561048d57600080fd5b506102ec6000805160206126f283398151915281565b3480156104af57600080fd5b506102296104be3660046121bf565b610d3d565b3480156104cf57600080fd5b50610253610d68565b3480156104e457600080fd5b5061012e54610281906001600160a01b031681565b34801561050557600080fd5b506102ec600081565b34801561051a57600080fd5b506102d9610529366004612206565b610d77565b34801561053a57600080fd5b506102d96105493660046122b1565b610d82565b34801561055a57600080fd5b506102d9610db4565b34801561056f57600080fd5b506102ec6101315481565b34801561058657600080fd5b50610253610595366004612124565b610dd4565b3480156105a657600080fd5b506102ec7f9f2df0fed2c77648de5860a4cc508cd0818c85b8b8a1ab4ceeef8d981c8956a681565b3480156105da57600080fd5b506102d96105e93660046121bf565b610e3b565b3480156105fa57600080fd5b506102ec61012f5481565b34801561061157600080fd5b5061022961062036600461235c565b6001600160a01b039182166000908152606a6020908152604080832093909416825291909152205460ff1690565b34801561065a57600080fd5b506102d9610669366004612386565b610e60565b34801561067a57600080fd5b506102d9610689366004612124565b611003565b600061069982611022565b92915050565b6060606580546106ae906123c8565b80601f01602080910402602001604051908101604052809291908181526020018280546106da906123c8565b80156107275780601f106106fc57610100808354040283529160200191610727565b820191906000526020600020905b81548152906001019060200180831161070a57829003601f168201915b5050505050905090565b600061073c82611047565b506000908152606960205260409020546001600160a01b031690565b600061076382610c57565b9050806001600160a01b0316836001600160a01b0316036107d55760405162461bcd60e51b815260206004820152602160248201527f4552433732313a20617070726f76616c20746f2063757272656e74206f776e656044820152603960f91b60648201526084015b60405180910390fd5b336001600160a01b03821614806107f157506107f18133610620565b6108635760405162461bcd60e51b815260206004820152603d60248201527f4552433732313a20617070726f76652063616c6c6572206973206e6f7420746f60448201527f6b656e206f776e6572206f7220617070726f76656420666f7220616c6c00000060648201526084016107cc565b61086d83836110a6565b505050565b61087c3382611114565b6108985760405162461bcd60e51b81526004016107cc90612402565b61086d838383611193565b600082815260c960205260409020600101546108be81611304565b61086d838361130e565b60006108d383610cb7565b82106109355760405162461bcd60e51b815260206004820152602b60248201527f455243373231456e756d657261626c653a206f776e657220696e646578206f7560448201526a74206f6620626f756e647360a81b60648201526084016107cc565b506001600160a01b03919091166000908152609760209081526040808320938352929052205490565b6001600160a01b03811633146109ce5760405162461bcd60e51b815260206004820152602f60248201527f416363657373436f6e74726f6c3a2063616e206f6e6c792072656e6f756e636560448201526e103937b632b9903337b91039b2b63360891b60648201526084016107cc565b6109d88282611394565b5050565b61086d83838360405180602001604052806000815250610d82565b6000610a0260995490565b8210610a655760405162461bcd60e51b815260206004820152602c60248201527f455243373231456e756d657261626c653a20676c6f62616c20696e646578206f60448201526b7574206f6620626f756e647360a01b60648201526084016107cc565b60998281548110610a7857610a7861244f565b90600052602060002001549050919050565b61012f546101315410610ad85760405162461bcd60e51b815260206004820152601660248201527513585e1a5b5d5b481cdd5c1c1b1e481c995858da195960521b60448201526064016107cc565b7f9f2df0fed2c77648de5860a4cc508cd0818c85b8b8a1ab4ceeef8d981c8956a6610b0281611304565b61013054341015610b555760405162461bcd60e51b815260206004820152601760248201527f496e73756666696369656e742045746865722073656e7400000000000000000060448201526064016107cc565b6000610131546001610b67919061247b565b9050610b7383826113fb565b610131819055604051428152819033907f25b428dfde728ccfaddad7e29e4ac23c24ed7fd1a6e3e3f91894a9a073f5dfff9060200160405180910390a361013054341115610bff5760006101305434610bcc919061248e565b604051909150339082156108fc029083906000818181858888f19350505050158015610bfc573d6000803e3d6000fd5b50505b61013054604051309180156108fc02916000818181858888f19350505050158015610c2e573d6000803e3d6000fd5b50505050565b6000805160206126f2833981519152610c4c81611304565b610c54611415565b50565b6000818152606760205260408120546001600160a01b0316806106995760405162461bcd60e51b8152602060048201526018602482015277115490cdcc8c4e881a5b9d985b1a59081d1bdad95b88125160421b60448201526064016107cc565b60006001600160a01b038216610d215760405162461bcd60e51b815260206004820152602960248201527f4552433732313a2061646472657373207a65726f206973206e6f7420612076616044820152683634b21037bbb732b960b91b60648201526084016107cc565b506001600160a01b031660009081526068602052604090205490565b600091825260c9602090815260408084206001600160a01b0393909316845291905290205460ff1690565b6060606680546106ae906123c8565b6109d833838361146f565b610d8c3383611114565b610da85760405162461bcd60e51b81526004016107cc90612402565b610c2e8484848461153d565b6000805160206126f2833981519152610dcc81611304565b610c54611570565b6060610ddf82611047565b6000610de96115a9565b90506000815111610e095760405180602001604052806000815250610e34565b80610e1384611621565b604051602001610e249291906124a1565b6040516020818303038152906040525b9392505050565b600082815260c96020526040902060010154610e5681611304565b61086d8383611394565b600054610100900460ff1615808015610e805750600054600160ff909116105b80610e9a5750303b158015610e9a575060005460ff166001145b610efd5760405162461bcd60e51b815260206004820152602e60248201527f496e697469616c697a61626c653a20636f6e747261637420697320616c72656160448201526d191e481a5b9a5d1a585b1a5e995960921b60648201526084016107cc565b6000805460ff191660011790558015610f20576000805461ff0019166101001790555b610f286116b4565b610f306116b4565b610f486000805160206126f28339815191523361130e565b610f727f9f2df0fed2c77648de5860a4cc508cd0818c85b8b8a1ab4ceeef8d981c8956a63361130e565b61012d80546001600160a01b038088166001600160a01b03199283161790925561012e80549287169290911691909117905561012f8390556101308290556000610131558015610ffc576000805461ff0019169055604051600181527f7f26b83ff96e1f2b6a682f133852f6798a09c465da95921460cefb38474024989060200160405180910390a15b5050505050565b6000805160206126f283398151915261101b81611304565b5061013055565b60006001600160e01b03198216637965db0b60e01b1480610699575061069982611721565b6000818152606760205260409020546001600160a01b0316610c545760405162461bcd60e51b8152602060048201526018602482015277115490cdcc8c4e881a5b9d985b1a59081d1bdad95b88125160421b60448201526064016107cc565b600081815260696020526040902080546001600160a01b0319166001600160a01b03841690811790915581906110db82610c57565b6001600160a01b03167f8c5be1e5ebec7d5bd14f71427d1e84f3dd0314c0f7b2291e5b200ac8c7c3b92560405160405180910390a45050565b60008061112083610c57565b9050806001600160a01b0316846001600160a01b0316148061116757506001600160a01b038082166000908152606a602090815260408083209388168352929052205460ff165b8061118b5750836001600160a01b031661118084610731565b6001600160a01b0316145b949350505050565b826001600160a01b03166111a682610c57565b6001600160a01b0316146111cc5760405162461bcd60e51b81526004016107cc906124d0565b6001600160a01b03821661122e5760405162461bcd60e51b8152602060048201526024808201527f4552433732313a207472616e7366657220746f20746865207a65726f206164646044820152637265737360e01b60648201526084016107cc565b61123b8383836001611746565b826001600160a01b031661124e82610c57565b6001600160a01b0316146112745760405162461bcd60e51b81526004016107cc906124d0565b600081815260696020908152604080832080546001600160a01b03199081169091556001600160a01b0387811680865260688552838620805460001901905590871680865283862080546001019055868652606790945282852080549092168417909155905184937fddf252ad1be2c89b69c2b068fc378daa952ba7f163c4a11628f55a4df523b3ef91a4505050565b610c548133611873565b6113188282610d3d565b6109d857600082815260c9602090815260408083206001600160a01b03851684529091529020805460ff191660011790556113503390565b6001600160a01b0316816001600160a01b0316837f2f8788117e7eff1d82e926ec794901d17c78024a50270940304540a733656f0d60405160405180910390a45050565b61139e8282610d3d565b156109d857600082815260c9602090815260408083206001600160a01b0385168085529252808320805460ff1916905551339285917ff6391f5c32d9c69d2a47ea670b442974b53935d1edc7fd64eb21e047a839171b9190a45050565b6109d88282604051806020016040528060008152506118cc565b61141d6118ff565b60fb805460ff191660011790557f62e78cea01bee320cd4e420270b5ea74000d11b0c9f74754ebdbfc544b05a2586114523390565b6040516001600160a01b03909116815260200160405180910390a1565b816001600160a01b0316836001600160a01b0316036114d05760405162461bcd60e51b815260206004820152601960248201527f4552433732313a20617070726f766520746f2063616c6c65720000000000000060448201526064016107cc565b6001600160a01b038381166000818152606a6020908152604080832094871680845294825291829020805460ff191686151590811790915591519182527f17307eab39ab6107e8899845ad3d59bd9653f200f220920489ca2b5937696c31910160405180910390a3505050565b611548848484611193565b61155484848484611945565b610c2e5760405162461bcd60e51b81526004016107cc90612515565b611578611a46565b60fb805460ff191690557f5db9ee0a495bf2e6ff9c91a7834c1ba4fdd244a5e8aa4e537bd38aeae4b073aa33611452565b61012d5460408051630e298a7360e31b815290516060926001600160a01b03169163714c53989160048083019260009291908290030181865afa1580156115f4573d6000803e3d6000fd5b505050506040513d6000823e601f3d908101601f1916820160405261161c9190810190612567565b905090565b6060600061162e83611a8f565b600101905060008167ffffffffffffffff81111561164e5761164e612242565b6040519080825280601f01601f191660200182016040528015611678576020820181803683370190505b5090508181016020015b600019016f181899199a1a9b1b9c1cb0b131b232b360811b600a86061a8153600a850494508461168257509392505050565b600054610100900460ff1661171f5760405162461bcd60e51b815260206004820152602b60248201527f496e697469616c697a61626c653a20636f6e7472616374206973206e6f74206960448201526a6e697469616c697a696e6760a81b60648201526084016107cc565b565b60006001600160e01b0319821663780e9d6360e01b1480610699575061069982611b67565b60018111156117b55760405162461bcd60e51b815260206004820152603560248201527f455243373231456e756d657261626c653a20636f6e7365637574697665207472604482015274185b9cd9995c9cc81b9bdd081cdd5c1c1bdc9d1959605a1b60648201526084016107cc565b816001600160a01b0385166118115761180c81609980546000838152609a60205260408120829055600182018355919091527f72a152ddfb8e864297c917af52ea6c1c68aead0fee1a62673fcc7e0c94979d000155565b611834565b836001600160a01b0316856001600160a01b031614611834576118348582611bb7565b6001600160a01b0384166118505761184b81611c54565b610ffc565b846001600160a01b0316846001600160a01b031614610ffc57610ffc8482611d03565b61187d8282610d3d565b6109d85761188a81611d47565b611895836020611d59565b6040516020016118a69291906125de565b60408051601f198184030181529082905262461bcd60e51b82526107cc91600401612111565b6118d68383611ef5565b6118e36000848484611945565b61086d5760405162461bcd60e51b81526004016107cc90612515565b60fb5460ff161561171f5760405162461bcd60e51b815260206004820152601060248201526f14185d5cd8589b194e881c185d5cd95960821b60448201526064016107cc565b60006001600160a01b0384163b15611a3b57604051630a85bd0160e11b81526001600160a01b0385169063150b7a0290611989903390899088908890600401612653565b6020604051808303816000875af19250505080156119c4575060408051601f3d908101601f191682019092526119c191810190612690565b60015b611a21573d8080156119f2576040519150601f19603f3d011682016040523d82523d6000602084013e6119f7565b606091505b508051600003611a195760405162461bcd60e51b81526004016107cc90612515565b805181602001fd5b6001600160e01b031916630a85bd0160e11b14905061118b565b506001949350505050565b60fb5460ff1661171f5760405162461bcd60e51b815260206004820152601460248201527314185d5cd8589b194e881b9bdd081c185d5cd95960621b60448201526064016107cc565b60008072184f03e93ff9f4daa797ed6e38ed64bf6a1f0160401b8310611ace5772184f03e93ff9f4daa797ed6e38ed64bf6a1f0160401b830492506040015b6d04ee2d6d415b85acef81000000008310611afa576d04ee2d6d415b85acef8100000000830492506020015b662386f26fc100008310611b1857662386f26fc10000830492506010015b6305f5e1008310611b30576305f5e100830492506008015b6127108310611b4457612710830492506004015b60648310611b56576064830492506002015b600a83106106995760010192915050565b60006001600160e01b031982166380ac58cd60e01b1480611b9857506001600160e01b03198216635b5e139f60e01b145b8061069957506301ffc9a760e01b6001600160e01b0319831614610699565b60006001611bc484610cb7565b611bce919061248e565b600083815260986020526040902054909150808214611c21576001600160a01b03841660009081526097602090815260408083208584528252808320548484528184208190558352609890915290208190555b5060009182526098602090815260408084208490556001600160a01b039094168352609781528383209183525290812055565b609954600090611c669060019061248e565b6000838152609a602052604081205460998054939450909284908110611c8e57611c8e61244f565b906000526020600020015490508060998381548110611caf57611caf61244f565b6000918252602080832090910192909255828152609a90915260408082208490558582528120556099805480611ce757611ce76126ad565b6001900381819060005260206000200160009055905550505050565b6000611d0e83610cb7565b6001600160a01b039093166000908152609760209081526040808320868452825280832085905593825260989052919091209190915550565b60606106996001600160a01b03831660145b60606000611d688360026126c3565b611d7390600261247b565b67ffffffffffffffff811115611d8b57611d8b612242565b6040519080825280601f01601f191660200182016040528015611db5576020820181803683370190505b509050600360fc1b81600081518110611dd057611dd061244f565b60200101906001600160f81b031916908160001a905350600f60fb1b81600181518110611dff57611dff61244f565b60200101906001600160f81b031916908160001a9053506000611e238460026126c3565b611e2e90600161247b565b90505b6001811115611ea6576f181899199a1a9b1b9c1cb0b131b232b360811b85600f1660108110611e6257611e6261244f565b1a60f81b828281518110611e7857611e7861244f565b60200101906001600160f81b031916908160001a90535060049490941c93611e9f816126da565b9050611e31565b508315610e345760405162461bcd60e51b815260206004820181905260248201527f537472696e67733a20686578206c656e67746820696e73756666696369656e7460448201526064016107cc565b6001600160a01b038216611f4b5760405162461bcd60e51b815260206004820181905260248201527f4552433732313a206d696e7420746f20746865207a65726f206164647265737360448201526064016107cc565b6000818152606760205260409020546001600160a01b031615611fb05760405162461bcd60e51b815260206004820152601c60248201527f4552433732313a20746f6b656e20616c7265616479206d696e7465640000000060448201526064016107cc565b611fbe600083836001611746565b6000818152606760205260409020546001600160a01b0316156120235760405162461bcd60e51b815260206004820152601c60248201527f4552433732313a20746f6b656e20616c7265616479206d696e7465640000000060448201526064016107cc565b6001600160a01b038216600081815260686020908152604080832080546001019055848352606790915280822080546001600160a01b0319168417905551839291907fddf252ad1be2c89b69c2b068fc378daa952ba7f163c4a11628f55a4df523b3ef908290a45050565b6001600160e01b031981168114610c5457600080fd5b6000602082840312156120b657600080fd5b8135610e348161208e565b60005b838110156120dc5781810151838201526020016120c4565b50506000910152565b600081518084526120fd8160208601602086016120c1565b601f01601f19169290920160200192915050565b602081526000610e3460208301846120e5565b60006020828403121561213657600080fd5b5035919050565b80356001600160a01b038116811461215457600080fd5b919050565b6000806040838503121561216c57600080fd5b6121758361213d565b946020939093013593505050565b60008060006060848603121561219857600080fd5b6121a18461213d565b92506121af6020850161213d565b9150604084013590509250925092565b600080604083850312156121d257600080fd5b823591506121e26020840161213d565b90509250929050565b6000602082840312156121fd57600080fd5b610e348261213d565b6000806040838503121561221957600080fd5b6122228361213d565b91506020830135801515811461223757600080fd5b809150509250929050565b634e487b7160e01b600052604160045260246000fd5b604051601f8201601f1916810167ffffffffffffffff8111828210171561228157612281612242565b604052919050565b600067ffffffffffffffff8211156122a3576122a3612242565b50601f01601f191660200190565b600080600080608085870312156122c757600080fd5b6122d08561213d565b93506122de6020860161213d565b925060408501359150606085013567ffffffffffffffff81111561230157600080fd5b8501601f8101871361231257600080fd5b803561232561232082612289565b612258565b81815288602083850101111561233a57600080fd5b8160208401602083013760006020838301015280935050505092959194509250565b6000806040838503121561236f57600080fd5b6123788361213d565b91506121e26020840161213d565b6000806000806080858703121561239c57600080fd5b6123a58561213d565b93506123b36020860161213d565b93969395505050506040820135916060013590565b600181811c908216806123dc57607f821691505b6020821081036123fc57634e487b7160e01b600052602260045260246000fd5b50919050565b6020808252602d908201527f4552433732313a2063616c6c6572206973206e6f7420746f6b656e206f776e6560408201526c1c881bdc88185c1c1c9bdd9959609a1b606082015260800190565b634e487b7160e01b600052603260045260246000fd5b634e487b7160e01b600052601160045260246000fd5b8082018082111561069957610699612465565b8181038181111561069957610699612465565b600083516124b38184602088016120c1565b8351908301906124c78183602088016120c1565b01949350505050565b60208082526025908201527f4552433732313a207472616e736665722066726f6d20696e636f72726563742060408201526437bbb732b960d91b606082015260800190565b60208082526032908201527f4552433732313a207472616e7366657220746f206e6f6e20455243373231526560408201527131b2b4bb32b91034b6b83632b6b2b73a32b960711b606082015260800190565b60006020828403121561257957600080fd5b815167ffffffffffffffff81111561259057600080fd5b8201601f810184136125a157600080fd5b80516125af61232082612289565b8181528560208385010111156125c457600080fd5b6125d58260208301602086016120c1565b95945050505050565b7f416363657373436f6e74726f6c3a206163636f756e74200000000000000000008152600083516126168160178501602088016120c1565b7001034b99036b4b9b9b4b733903937b6329607d1b60179184019182015283516126478160288401602088016120c1565b01602801949350505050565b6001600160a01b0385811682528416602082015260408101839052608060608201819052600090612686908301846120e5565b9695505050505050565b6000602082840312156126a257600080fd5b8151610e348161208e565b634e487b7160e01b600052603160045260246000fd5b808202811582820484141761069957610699612465565b6000816126e9576126e9612465565b50600019019056fea49807205ce4d355092ef5a8a18f56e8913cf4a201fbe287825b095693c21775a2646970667358221220c1fb37f60d005cdc32069ec688ff23a20b8e8aa3fabd8425333311be5a782bb564736f6c63430008110033",
  "immutableReferences": {},
  "source": "// SPDX-License-Identifier: MIT\r\npragma solidity ^0.8.17;\r\n\r\nimport \"@openzeppelin/contracts-upgradeable/proxy/utils/Initializable.sol\";\r\nimport \"@openzeppelin/contracts-upgradeable/token/ERC721/extensions/ERC721EnumerableUpgradeable.sol\";\r\nimport \"@openzeppelin/contracts-upgradeable/access/AccessControlUpgradeable.sol\";\r\nimport \"@openzeppelin/contracts-upgradeable/security/PausableUpgradeable.sol\";\r\n\r\nimport \"../DAOCore/WaningLightBase.sol\";\r\nimport \"./WaningLightMetadata.sol\";\r\n\r\ncontract WaningLightMinting is\r\n    Initializable,\r\n    ERC721EnumerableUpgradeable,\r\n    AccessControlUpgradeable,\r\n    PausableUpgradeable\r\n{\r\n    using Strings for uint256;\r\n\r\n    bytes32 public constant ADMIN_ROLE = keccak256(\"ADMIN_ROLE\");\r\n    bytes32 public constant MINTER_ROLE = keccak256(\"MINTER_ROLE\");\r\n\r\n    WaningLightBase public waningLightBase;\r\n    WaningLightMetadata public waningLightMetadata;\r\n\r\n    uint256 public maxSupply;\r\n    uint256 public mintPrice;\r\n    uint256 public mintedSupply;\r\n\r\n    event Minted(\r\n        address indexed minter,\r\n        uint256 indexed tokenId,\r\n        uint256 timestamp\r\n    );\r\n\r\n    function initialize(\r\n        address waningLightBaseAddress,\r\n        address waningLightMetadataAddress,\r\n        uint256 _maxSupply,\r\n        uint256 _mintPrice\r\n    ) external initializer {\r\n        __ERC721Enumerable_init();\r\n        __AccessControl_init();\r\n\r\n        _grantRole(ADMIN_ROLE, msg.sender);\r\n        _grantRole(MINTER_ROLE, msg.sender);\r\n\r\n        waningLightBase = WaningLightBase(waningLightBaseAddress);\r\n        waningLightMetadata = WaningLightMetadata(waningLightMetadataAddress);\r\n\r\n        maxSupply = _maxSupply;\r\n        mintPrice = _mintPrice;\r\n        mintedSupply = 0;\r\n    }\r\n\r\n    modifier saleIsOpen() {\r\n        require(mintedSupply < maxSupply, \"Maximum supply reached\");\r\n        _;\r\n    }\r\n\r\n    function mintNFT(\r\n        address to\r\n    ) external payable saleIsOpen onlyRole(MINTER_ROLE) {\r\n        require(msg.value >= mintPrice, \"Insufficient Ether sent\");\r\n\r\n        uint256 tokenId = mintedSupply + 1;\r\n        _safeMint(to, tokenId);\r\n\r\n        mintedSupply = tokenId;\r\n        emit Minted(msg.sender, tokenId, block.timestamp);\r\n\r\n        if (msg.value > mintPrice) {\r\n            uint256 change = msg.value - mintPrice;\r\n            payable(msg.sender).transfer(change);\r\n        }\r\n\r\n        // Transfer the mint price to a specific address (e.g., treasury or owner)\r\n        payable(address(this)).transfer(mintPrice);\r\n    }\r\n\r\n    function setMintPrice(uint256 newMintPrice) external onlyRole(ADMIN_ROLE) {\r\n        mintPrice = newMintPrice;\r\n    }\r\n\r\n    function pauseSale() external onlyRole(ADMIN_ROLE) {\r\n        _pause();\r\n    }\r\n\r\n    function unpauseSale() external onlyRole(ADMIN_ROLE) {\r\n        _unpause();\r\n    }\r\n\r\n    function _baseURI() internal view override returns (string memory) {\r\n        return waningLightBase.getBaseURI();\r\n    }\r\n\r\n    function supportsInterface(\r\n        bytes4 interfaceId\r\n    )\r\n        public\r\n        view\r\n        virtual\r\n        override(ERC721EnumerableUpgradeable, AccessControlUpgradeable)\r\n        returns (bool)\r\n    {\r\n        return super.supportsInterface(interfaceId);\r\n    }\r\n}\r\n",
  "sourcePath": "D:\\DevTools\\flkm-project\\contracts\\DAOSupport\\WaningLightMinting.sol",
  "compiler": {
    "name": "solc",
    "version": "0.8.17+commit.8df45f5f.Emscripten.clang"
  },
  "schemaVersion": "3.4.16",
  "updatedAt": "2023-10-27T02:44:18.673Z",
  "networkType": "ethereum",
  "devdoc": {
    "kind": "dev",
    "methods": {
      "approve(address,uint256)": {
        "details": "See {IERC721-approve}."
      },
      "balanceOf(address)": {
        "details": "See {IERC721-balanceOf}."
      },
      "getApproved(uint256)": {
        "details": "See {IERC721-getApproved}."
      },
      "getRoleAdmin(bytes32)": {
        "details": "Returns the admin role that controls `role`. See {grantRole} and {revokeRole}. To change a role's admin, use {_setRoleAdmin}."
      },
      "grantRole(bytes32,address)": {
        "details": "Grants `role` to `account`. If `account` had not been already granted `role`, emits a {RoleGranted} event. Requirements: - the caller must have ``role``'s admin role. May emit a {RoleGranted} event."
      },
      "hasRole(bytes32,address)": {
        "details": "Returns `true` if `account` has been granted `role`."
      },
      "isApprovedForAll(address,address)": {
        "details": "See {IERC721-isApprovedForAll}."
      },
      "name()": {
        "details": "See {IERC721Metadata-name}."
      },
      "ownerOf(uint256)": {
        "details": "See {IERC721-ownerOf}."
      },
      "paused()": {
        "details": "Returns true if the contract is paused, and false otherwise."
      },
      "renounceRole(bytes32,address)": {
        "details": "Revokes `role` from the calling account. Roles are often managed via {grantRole} and {revokeRole}: this function's purpose is to provide a mechanism for accounts to lose their privileges if they are compromised (such as when a trusted device is misplaced). If the calling account had been revoked `role`, emits a {RoleRevoked} event. Requirements: - the caller must be `account`. May emit a {RoleRevoked} event."
      },
      "revokeRole(bytes32,address)": {
        "details": "Revokes `role` from `account`. If `account` had been granted `role`, emits a {RoleRevoked} event. Requirements: - the caller must have ``role``'s admin role. May emit a {RoleRevoked} event."
      },
      "safeTransferFrom(address,address,uint256)": {
        "details": "See {IERC721-safeTransferFrom}."
      },
      "safeTransferFrom(address,address,uint256,bytes)": {
        "details": "See {IERC721-safeTransferFrom}."
      },
      "setApprovalForAll(address,bool)": {
        "details": "See {IERC721-setApprovalForAll}."
      },
      "symbol()": {
        "details": "See {IERC721Metadata-symbol}."
      },
      "tokenByIndex(uint256)": {
        "details": "See {IERC721Enumerable-tokenByIndex}."
      },
      "tokenOfOwnerByIndex(address,uint256)": {
        "details": "See {IERC721Enumerable-tokenOfOwnerByIndex}."
      },
      "tokenURI(uint256)": {
        "details": "See {IERC721Metadata-tokenURI}."
      },
      "totalSupply()": {
        "details": "See {IERC721Enumerable-totalSupply}."
      },
      "transferFrom(address,address,uint256)": {
        "details": "See {IERC721-transferFrom}."
      }
    },
    "version": 1
  },
  "userdoc": {
    "kind": "user",
    "methods": {},
    "version": 1
  }
}