{
  "contractName": "WaningLightMetadata",
  "abi": [
    {
      "anonymous": false,
      "inputs": [
        {
          "indexed": true,
          "internalType": "address",
          "name": "owner",
          "type": "address"
        },
        {
          "indexed": true,
          "internalType": "address",
          "name": "approved",
          "type": "address"
        },
        {
          "indexed": true,
          "internalType": "uint256",
          "name": "tokenId",
          "type": "uint256"
        }
      ],
      "name": "Approval",
      "type": "event"
    },
    {
      "anonymous": false,
      "inputs": [
        {
          "indexed": true,
          "internalType": "address",
          "name": "owner",
          "type": "address"
        },
        {
          "indexed": true,
          "internalType": "address",
          "name": "operator",
          "type": "address"
        },
        {
          "indexed": false,
          "internalType": "bool",
          "name": "approved",
          "type": "bool"
        }
      ],
      "name": "ApprovalForAll",
      "type": "event"
    },
    {
      "anonymous": false,
      "inputs": [
        {
          "indexed": false,
          "internalType": "uint8",
          "name": "version",
          "type": "uint8"
        }
      ],
      "name": "Initialized",
      "type": "event"
    },
    {
      "anonymous": false,
      "inputs": [
        {
          "indexed": true,
          "internalType": "bytes32",
          "name": "role",
          "type": "bytes32"
        },
        {
          "indexed": true,
          "internalType": "bytes32",
          "name": "previousAdminRole",
          "type": "bytes32"
        },
        {
          "indexed": true,
          "internalType": "bytes32",
          "name": "newAdminRole",
          "type": "bytes32"
        }
      ],
      "name": "RoleAdminChanged",
      "type": "event"
    },
    {
      "anonymous": false,
      "inputs": [
        {
          "indexed": true,
          "internalType": "bytes32",
          "name": "role",
          "type": "bytes32"
        },
        {
          "indexed": true,
          "internalType": "address",
          "name": "account",
          "type": "address"
        },
        {
          "indexed": true,
          "internalType": "address",
          "name": "sender",
          "type": "address"
        }
      ],
      "name": "RoleGranted",
      "type": "event"
    },
    {
      "anonymous": false,
      "inputs": [
        {
          "indexed": true,
          "internalType": "bytes32",
          "name": "role",
          "type": "bytes32"
        },
        {
          "indexed": true,
          "internalType": "address",
          "name": "account",
          "type": "address"
        },
        {
          "indexed": true,
          "internalType": "address",
          "name": "sender",
          "type": "address"
        }
      ],
      "name": "RoleRevoked",
      "type": "event"
    },
    {
      "anonymous": false,
      "inputs": [
        {
          "indexed": true,
          "internalType": "address",
          "name": "from",
          "type": "address"
        },
        {
          "indexed": true,
          "internalType": "address",
          "name": "to",
          "type": "address"
        },
        {
          "indexed": true,
          "internalType": "uint256",
          "name": "tokenId",
          "type": "uint256"
        }
      ],
      "name": "Transfer",
      "type": "event"
    },
    {
      "inputs": [],
      "name": "ADMIN_ROLE",
      "outputs": [
        {
          "internalType": "bytes32",
          "name": "",
          "type": "bytes32"
        }
      ],
      "stateMutability": "view",
      "type": "function",
      "constant": true
    },
    {
      "inputs": [],
      "name": "DEFAULT_ADMIN_ROLE",
      "outputs": [
        {
          "internalType": "bytes32",
          "name": "",
          "type": "bytes32"
        }
      ],
      "stateMutability": "view",
      "type": "function",
      "constant": true
    },
    {
      "inputs": [
        {
          "internalType": "address",
          "name": "to",
          "type": "address"
        },
        {
          "internalType": "uint256",
          "name": "tokenId",
          "type": "uint256"
        }
      ],
      "name": "approve",
      "outputs": [],
      "stateMutability": "nonpayable",
      "type": "function"
    },
    {
      "inputs": [
        {
          "internalType": "address",
          "name": "owner",
          "type": "address"
        }
      ],
      "name": "balanceOf",
      "outputs": [
        {
          "internalType": "uint256",
          "name": "",
          "type": "uint256"
        }
      ],
      "stateMutability": "view",
      "type": "function",
      "constant": true
    },
    {
      "inputs": [
        {
          "internalType": "uint256",
          "name": "tokenId",
          "type": "uint256"
        }
      ],
      "name": "getApproved",
      "outputs": [
        {
          "internalType": "address",
          "name": "",
          "type": "address"
        }
      ],
      "stateMutability": "view",
      "type": "function",
      "constant": true
    },
    {
      "inputs": [
        {
          "internalType": "bytes32",
          "name": "role",
          "type": "bytes32"
        }
      ],
      "name": "getRoleAdmin",
      "outputs": [
        {
          "internalType": "bytes32",
          "name": "",
          "type": "bytes32"
        }
      ],
      "stateMutability": "view",
      "type": "function",
      "constant": true
    },
    {
      "inputs": [
        {
          "internalType": "bytes32",
          "name": "role",
          "type": "bytes32"
        },
        {
          "internalType": "address",
          "name": "account",
          "type": "address"
        }
      ],
      "name": "grantRole",
      "outputs": [],
      "stateMutability": "nonpayable",
      "type": "function"
    },
    {
      "inputs": [
        {
          "internalType": "bytes32",
          "name": "role",
          "type": "bytes32"
        },
        {
          "internalType": "address",
          "name": "account",
          "type": "address"
        }
      ],
      "name": "hasRole",
      "outputs": [
        {
          "internalType": "bool",
          "name": "",
          "type": "bool"
        }
      ],
      "stateMutability": "view",
      "type": "function",
      "constant": true
    },
    {
      "inputs": [
        {
          "internalType": "address",
          "name": "owner",
          "type": "address"
        },
        {
          "internalType": "address",
          "name": "operator",
          "type": "address"
        }
      ],
      "name": "isApprovedForAll",
      "outputs": [
        {
          "internalType": "bool",
          "name": "",
          "type": "bool"
        }
      ],
      "stateMutability": "view",
      "type": "function",
      "constant": true
    },
    {
      "inputs": [],
      "name": "name",
      "outputs": [
        {
          "internalType": "string",
          "name": "",
          "type": "string"
        }
      ],
      "stateMutability": "view",
      "type": "function",
      "constant": true
    },
    {
      "inputs": [
        {
          "internalType": "uint256",
          "name": "tokenId",
          "type": "uint256"
        }
      ],
      "name": "ownerOf",
      "outputs": [
        {
          "internalType": "address",
          "name": "",
          "type": "address"
        }
      ],
      "stateMutability": "view",
      "type": "function",
      "constant": true
    },
    {
      "inputs": [
        {
          "internalType": "bytes32",
          "name": "role",
          "type": "bytes32"
        },
        {
          "internalType": "address",
          "name": "account",
          "type": "address"
        }
      ],
      "name": "renounceRole",
      "outputs": [],
      "stateMutability": "nonpayable",
      "type": "function"
    },
    {
      "inputs": [
        {
          "internalType": "bytes32",
          "name": "role",
          "type": "bytes32"
        },
        {
          "internalType": "address",
          "name": "account",
          "type": "address"
        }
      ],
      "name": "revokeRole",
      "outputs": [],
      "stateMutability": "nonpayable",
      "type": "function"
    },
    {
      "inputs": [
        {
          "internalType": "address",
          "name": "from",
          "type": "address"
        },
        {
          "internalType": "address",
          "name": "to",
          "type": "address"
        },
        {
          "internalType": "uint256",
          "name": "tokenId",
          "type": "uint256"
        }
      ],
      "name": "safeTransferFrom",
      "outputs": [],
      "stateMutability": "nonpayable",
      "type": "function"
    },
    {
      "inputs": [
        {
          "internalType": "address",
          "name": "from",
          "type": "address"
        },
        {
          "internalType": "address",
          "name": "to",
          "type": "address"
        },
        {
          "internalType": "uint256",
          "name": "tokenId",
          "type": "uint256"
        },
        {
          "internalType": "bytes",
          "name": "data",
          "type": "bytes"
        }
      ],
      "name": "safeTransferFrom",
      "outputs": [],
      "stateMutability": "nonpayable",
      "type": "function"
    },
    {
      "inputs": [
        {
          "internalType": "address",
          "name": "operator",
          "type": "address"
        },
        {
          "internalType": "bool",
          "name": "approved",
          "type": "bool"
        }
      ],
      "name": "setApprovalForAll",
      "outputs": [],
      "stateMutability": "nonpayable",
      "type": "function"
    },
    {
      "inputs": [],
      "name": "symbol",
      "outputs": [
        {
          "internalType": "string",
          "name": "",
          "type": "string"
        }
      ],
      "stateMutability": "view",
      "type": "function",
      "constant": true
    },
    {
      "inputs": [
        {
          "internalType": "uint256",
          "name": "index",
          "type": "uint256"
        }
      ],
      "name": "tokenByIndex",
      "outputs": [
        {
          "internalType": "uint256",
          "name": "",
          "type": "uint256"
        }
      ],
      "stateMutability": "view",
      "type": "function",
      "constant": true
    },
    {
      "inputs": [
        {
          "internalType": "address",
          "name": "owner",
          "type": "address"
        },
        {
          "internalType": "uint256",
          "name": "index",
          "type": "uint256"
        }
      ],
      "name": "tokenOfOwnerByIndex",
      "outputs": [
        {
          "internalType": "uint256",
          "name": "",
          "type": "uint256"
        }
      ],
      "stateMutability": "view",
      "type": "function",
      "constant": true
    },
    {
      "inputs": [
        {
          "internalType": "uint256",
          "name": "tokenId",
          "type": "uint256"
        }
      ],
      "name": "tokenURI",
      "outputs": [
        {
          "internalType": "string",
          "name": "",
          "type": "string"
        }
      ],
      "stateMutability": "view",
      "type": "function",
      "constant": true
    },
    {
      "inputs": [],
      "name": "totalSupply",
      "outputs": [
        {
          "internalType": "uint256",
          "name": "",
          "type": "uint256"
        }
      ],
      "stateMutability": "view",
      "type": "function",
      "constant": true
    },
    {
      "inputs": [
        {
          "internalType": "address",
          "name": "from",
          "type": "address"
        },
        {
          "internalType": "address",
          "name": "to",
          "type": "address"
        },
        {
          "internalType": "uint256",
          "name": "tokenId",
          "type": "uint256"
        }
      ],
      "name": "transferFrom",
      "outputs": [],
      "stateMutability": "nonpayable",
      "type": "function"
    },
    {
      "inputs": [],
      "name": "waningLightBase",
      "outputs": [
        {
          "internalType": "contract WaningLightBase",
          "name": "",
          "type": "address"
        }
      ],
      "stateMutability": "view",
      "type": "function",
      "constant": true
    },
    {
      "inputs": [
        {
          "internalType": "address",
          "name": "waningLightBaseAddress",
          "type": "address"
        }
      ],
      "name": "initialize",
      "outputs": [],
      "stateMutability": "nonpayable",
      "type": "function"
    },
    {
      "inputs": [
        {
          "internalType": "uint256",
          "name": "tokenId",
          "type": "uint256"
        },
        {
          "internalType": "string",
          "name": "details",
          "type": "string"
        }
      ],
      "name": "setTokenDetails",
      "outputs": [],
      "stateMutability": "nonpayable",
      "type": "function"
    },
    {
      "inputs": [
        {
          "internalType": "uint256",
          "name": "tokenId",
          "type": "uint256"
        }
      ],
      "name": "tokenDetails",
      "outputs": [
        {
          "internalType": "string",
          "name": "",
          "type": "string"
        }
      ],
      "stateMutability": "view",
      "type": "function",
      "constant": true
    },
    {
      "inputs": [
        {
          "internalType": "bytes4",
          "name": "interfaceId",
          "type": "bytes4"
        }
      ],
      "name": "supportsInterface",
      "outputs": [
        {
          "internalType": "bool",
          "name": "",
          "type": "bool"
        }
      ],
      "stateMutability": "view",
      "type": "function",
      "constant": true
    }
  ],
  "bytecode": "0x608060405234801561001057600080fd5b50612162806100206000396000f3fe608060405234801561001057600080fd5b50600436106101a95760003560e01c80636352211e116100f9578063b88d4fde11610097578063d547741f11610071578063d547741f146103a1578063e985e9c5146103b4578063fc314e31146103f0578063fd38e5cc1461040357600080fd5b8063b88d4fde14610368578063c4d66de81461037b578063c87b56dd1461038e57600080fd5b806391d14854116100d357806391d148541461033257806395d89b4114610345578063a217fddf1461034d578063a22cb4651461035557600080fd5b80636352211e146102e557806370a08231146102f857806375b238fc1461030b57600080fd5b806323b872dd116101665780632f745c59116101405780632f745c591461029957806336568abe146102ac57806342842e0e146102bf5780634f6ccce7146102d257600080fd5b806323b872dd14610250578063248a9ca3146102635780632f2ff15d1461028657600080fd5b806301ffc9a7146101ae57806306fdde03146101d6578063079ef0cf146101eb578063081812fc14610216578063095ea7b31461022957806318160ddd1461023e575b600080fd5b6101c16101bc366004611a1f565b610416565b60405190151581526020015b60405180910390f35b6101de610427565b6040516101cd9190611a8c565b60fb546101fe906001600160a01b031681565b6040516001600160a01b0390911681526020016101cd565b6101fe610224366004611a9f565b6104b9565b61023c610237366004611acd565b6104e0565b005b6099545b6040519081526020016101cd565b61023c61025e366004611af9565b6105fa565b610242610271366004611a9f565b600090815260c9602052604090206001015490565b61023c610294366004611b3a565b61062b565b6102426102a7366004611acd565b610650565b61023c6102ba366004611b3a565b6106e6565b61023c6102cd366004611af9565b610764565b6102426102e0366004611a9f565b61077f565b6101fe6102f3366004611a9f565b610812565b610242610306366004611b6a565b610872565b6102427fa49807205ce4d355092ef5a8a18f56e8913cf4a201fbe287825b095693c2177581565b6101c1610340366004611b3a565b6108f8565b6101de610923565b610242600081565b61023c610363366004611b87565b610932565b61023c610376366004611c46565b61093d565b61023c610389366004611b6a565b610975565b6101de61039c366004611a9f565b610ad3565b61023c6103af366004611b3a565b610b47565b6101c16103c2366004611cc6565b6001600160a01b039182166000908152606a6020908152604080832093909416825291909152205460ff1690565b6101de6103fe366004611a9f565b610b6c565b61023c610411366004611cf4565b610c0e565b600061042182610d13565b92915050565b60606065805461043690611d4f565b80601f016020809104026020016040519081016040528092919081815260200182805461046290611d4f565b80156104af5780601f10610484576101008083540402835291602001916104af565b820191906000526020600020905b81548152906001019060200180831161049257829003601f168201915b5050505050905090565b60006104c482610d38565b506000908152606960205260409020546001600160a01b031690565b60006104eb82610812565b9050806001600160a01b0316836001600160a01b03160361055d5760405162461bcd60e51b815260206004820152602160248201527f4552433732313a20617070726f76616c20746f2063757272656e74206f776e656044820152603960f91b60648201526084015b60405180910390fd5b336001600160a01b0382161480610579575061057981336103c2565b6105eb5760405162461bcd60e51b815260206004820152603d60248201527f4552433732313a20617070726f76652063616c6c6572206973206e6f7420746f60448201527f6b656e206f776e6572206f7220617070726f76656420666f7220616c6c0000006064820152608401610554565b6105f58383610d9a565b505050565b6106043382610e08565b6106205760405162461bcd60e51b815260040161055490611d89565b6105f5838383610e87565b600082815260c9602052604090206001015461064681610ff8565b6105f58383611002565b600061065b83610872565b82106106bd5760405162461bcd60e51b815260206004820152602b60248201527f455243373231456e756d657261626c653a206f776e657220696e646578206f7560448201526a74206f6620626f756e647360a81b6064820152608401610554565b506001600160a01b03919091166000908152609760209081526040808320938352929052205490565b6001600160a01b03811633146107565760405162461bcd60e51b815260206004820152602f60248201527f416363657373436f6e74726f6c3a2063616e206f6e6c792072656e6f756e636560448201526e103937b632b9903337b91039b2b63360891b6064820152608401610554565b6107608282611088565b5050565b6105f58383836040518060200160405280600081525061093d565b600061078a60995490565b82106107ed5760405162461bcd60e51b815260206004820152602c60248201527f455243373231456e756d657261626c653a20676c6f62616c20696e646578206f60448201526b7574206f6620626f756e647360a01b6064820152608401610554565b6099828154811061080057610800611dd6565b90600052602060002001549050919050565b6000818152606760205260408120546001600160a01b0316806104215760405162461bcd60e51b8152602060048201526018602482015277115490cdcc8c4e881a5b9d985b1a59081d1bdad95b88125160421b6044820152606401610554565b60006001600160a01b0382166108dc5760405162461bcd60e51b815260206004820152602960248201527f4552433732313a2061646472657373207a65726f206973206e6f7420612076616044820152683634b21037bbb732b960b91b6064820152608401610554565b506001600160a01b031660009081526068602052604090205490565b600091825260c9602090815260408084206001600160a01b0393909316845291905290205460ff1690565b60606066805461043690611d4f565b6107603383836110ef565b6109473383610e08565b6109635760405162461bcd60e51b815260040161055490611d89565b61096f848484846111bd565b50505050565b600054610100900460ff16158080156109955750600054600160ff909116105b806109af5750303b1580156109af575060005460ff166001145b610a125760405162461bcd60e51b815260206004820152602e60248201527f496e697469616c697a61626c653a20636f6e747261637420697320616c72656160448201526d191e481a5b9a5d1a585b1a5e995960921b6064820152608401610554565b6000805460ff191660011790558015610a35576000805461ff0019166101001790555b610a3d6111f0565b610a456111f0565b610a6f7fa49807205ce4d355092ef5a8a18f56e8913cf4a201fbe287825b095693c2177533611002565b60fb80546001600160a01b0319166001600160a01b0384161790558015610760576000805461ff0019169055604051600181527f7f26b83ff96e1f2b6a682f133852f6798a09c465da95921460cefb38474024989060200160405180910390a15050565b6060610ade82610d38565b6000610af560408051602081019091526000815290565b90506000815111610b155760405180602001604052806000815250610b40565b80610b1f8461125d565b604051602001610b30929190611dec565b6040516020818303038152906040525b9392505050565b600082815260c96020526040902060010154610b6281610ff8565b6105f58383611088565b600081815260fc60205260409020805460609190610b8990611d4f565b80601f0160208091040260200160405190810160405280929190818152602001828054610bb590611d4f565b8015610c025780601f10610bd757610100808354040283529160200191610c02565b820191906000526020600020905b815481529060010190602001808311610be557829003601f168201915b50505050509050919050565b7fa49807205ce4d355092ef5a8a18f56e8913cf4a201fbe287825b095693c21775610c3881610ff8565b60fb546040516331a9108f60e11b81526004810185905230916001600160a01b031690636352211e90602401602060405180830381865afa158015610c81573d6000803e3d6000fd5b505050506040513d601f19601f82011682018060405250810190610ca59190611e1b565b6001600160a01b031614610cfb5760405162461bcd60e51b815260206004820181905260248201527f546f6b656e206e6f74206f776e6564206279207468697320636f6e74726163746044820152606401610554565b600083815260fc6020526040902061096f8382611e86565b60006001600160e01b03198216637965db0b60e01b14806104215750610421826112f0565b6000818152606760205260409020546001600160a01b0316610d975760405162461bcd60e51b8152602060048201526018602482015277115490cdcc8c4e881a5b9d985b1a59081d1bdad95b88125160421b6044820152606401610554565b50565b600081815260696020526040902080546001600160a01b0319166001600160a01b0384169081179091558190610dcf82610812565b6001600160a01b03167f8c5be1e5ebec7d5bd14f71427d1e84f3dd0314c0f7b2291e5b200ac8c7c3b92560405160405180910390a45050565b600080610e1483610812565b9050806001600160a01b0316846001600160a01b03161480610e5b57506001600160a01b038082166000908152606a602090815260408083209388168352929052205460ff165b80610e7f5750836001600160a01b0316610e74846104b9565b6001600160a01b0316145b949350505050565b826001600160a01b0316610e9a82610812565b6001600160a01b031614610ec05760405162461bcd60e51b815260040161055490611f46565b6001600160a01b038216610f225760405162461bcd60e51b8152602060048201526024808201527f4552433732313a207472616e7366657220746f20746865207a65726f206164646044820152637265737360e01b6064820152608401610554565b610f2f8383836001611315565b826001600160a01b0316610f4282610812565b6001600160a01b031614610f685760405162461bcd60e51b815260040161055490611f46565b600081815260696020908152604080832080546001600160a01b03199081169091556001600160a01b0387811680865260688552838620805460001901905590871680865283862080546001019055868652606790945282852080549092168417909155905184937fddf252ad1be2c89b69c2b068fc378daa952ba7f163c4a11628f55a4df523b3ef91a4505050565b610d978133611449565b61100c82826108f8565b61076057600082815260c9602090815260408083206001600160a01b03851684529091529020805460ff191660011790556110443390565b6001600160a01b0316816001600160a01b0316837f2f8788117e7eff1d82e926ec794901d17c78024a50270940304540a733656f0d60405160405180910390a45050565b61109282826108f8565b1561076057600082815260c9602090815260408083206001600160a01b0385168085529252808320805460ff1916905551339285917ff6391f5c32d9c69d2a47ea670b442974b53935d1edc7fd64eb21e047a839171b9190a45050565b816001600160a01b0316836001600160a01b0316036111505760405162461bcd60e51b815260206004820152601960248201527f4552433732313a20617070726f766520746f2063616c6c6572000000000000006044820152606401610554565b6001600160a01b038381166000818152606a6020908152604080832094871680845294825291829020805460ff191686151590811790915591519182527f17307eab39ab6107e8899845ad3d59bd9653f200f220920489ca2b5937696c31910160405180910390a3505050565b6111c8848484610e87565b6111d4848484846114a2565b61096f5760405162461bcd60e51b815260040161055490611f8b565b600054610100900460ff1661125b5760405162461bcd60e51b815260206004820152602b60248201527f496e697469616c697a61626c653a20636f6e7472616374206973206e6f74206960448201526a6e697469616c697a696e6760a81b6064820152608401610554565b565b6060600061126a836115a3565b600101905060008167ffffffffffffffff81111561128a5761128a611bba565b6040519080825280601f01601f1916602001820160405280156112b4576020820181803683370190505b5090508181016020015b600019016f181899199a1a9b1b9c1cb0b131b232b360811b600a86061a8153600a85049450846112be57509392505050565b60006001600160e01b0319821663780e9d6360e01b148061042157506104218261167b565b60018111156113845760405162461bcd60e51b815260206004820152603560248201527f455243373231456e756d657261626c653a20636f6e7365637574697665207472604482015274185b9cd9995c9cc81b9bdd081cdd5c1c1bdc9d1959605a1b6064820152608401610554565b816001600160a01b0385166113e0576113db81609980546000838152609a60205260408120829055600182018355919091527f72a152ddfb8e864297c917af52ea6c1c68aead0fee1a62673fcc7e0c94979d000155565b611403565b836001600160a01b0316856001600160a01b0316146114035761140385826116cb565b6001600160a01b03841661141f5761141a81611768565b611442565b846001600160a01b0316846001600160a01b031614611442576114428482611817565b5050505050565b61145382826108f8565b610760576114608161185b565b61146b83602061186d565b60405160200161147c929190611fdd565b60408051601f198184030181529082905262461bcd60e51b825261055491600401611a8c565b60006001600160a01b0384163b1561159857604051630a85bd0160e11b81526001600160a01b0385169063150b7a02906114e6903390899088908890600401612052565b6020604051808303816000875af1925050508015611521575060408051601f3d908101601f1916820190925261151e9181019061208f565b60015b61157e573d80801561154f576040519150601f19603f3d011682016040523d82523d6000602084013e611554565b606091505b5080516000036115765760405162461bcd60e51b815260040161055490611f8b565b805181602001fd5b6001600160e01b031916630a85bd0160e11b149050610e7f565b506001949350505050565b60008072184f03e93ff9f4daa797ed6e38ed64bf6a1f0160401b83106115e25772184f03e93ff9f4daa797ed6e38ed64bf6a1f0160401b830492506040015b6d04ee2d6d415b85acef8100000000831061160e576d04ee2d6d415b85acef8100000000830492506020015b662386f26fc10000831061162c57662386f26fc10000830492506010015b6305f5e1008310611644576305f5e100830492506008015b612710831061165857612710830492506004015b6064831061166a576064830492506002015b600a83106104215760010192915050565b60006001600160e01b031982166380ac58cd60e01b14806116ac57506001600160e01b03198216635b5e139f60e01b145b8061042157506301ffc9a760e01b6001600160e01b0319831614610421565b600060016116d884610872565b6116e291906120c2565b600083815260986020526040902054909150808214611735576001600160a01b03841660009081526097602090815260408083208584528252808320548484528184208190558352609890915290208190555b5060009182526098602090815260408084208490556001600160a01b039094168352609781528383209183525290812055565b60995460009061177a906001906120c2565b6000838152609a6020526040812054609980549394509092849081106117a2576117a2611dd6565b9060005260206000200154905080609983815481106117c3576117c3611dd6565b6000918252602080832090910192909255828152609a909152604080822084905585825281205560998054806117fb576117fb6120d5565b6001900381819060005260206000200160009055905550505050565b600061182283610872565b6001600160a01b039093166000908152609760209081526040808320868452825280832085905593825260989052919091209190915550565b60606104216001600160a01b03831660145b6060600061187c8360026120eb565b611887906002612102565b67ffffffffffffffff81111561189f5761189f611bba565b6040519080825280601f01601f1916602001820160405280156118c9576020820181803683370190505b509050600360fc1b816000815181106118e4576118e4611dd6565b60200101906001600160f81b031916908160001a905350600f60fb1b8160018151811061191357611913611dd6565b60200101906001600160f81b031916908160001a90535060006119378460026120eb565b611942906001612102565b90505b60018111156119ba576f181899199a1a9b1b9c1cb0b131b232b360811b85600f166010811061197657611976611dd6565b1a60f81b82828151811061198c5761198c611dd6565b60200101906001600160f81b031916908160001a90535060049490941c936119b381612115565b9050611945565b508315610b405760405162461bcd60e51b815260206004820181905260248201527f537472696e67733a20686578206c656e67746820696e73756666696369656e746044820152606401610554565b6001600160e01b031981168114610d9757600080fd5b600060208284031215611a3157600080fd5b8135610b4081611a09565b60005b83811015611a57578181015183820152602001611a3f565b50506000910152565b60008151808452611a78816020860160208601611a3c565b601f01601f19169290920160200192915050565b602081526000610b406020830184611a60565b600060208284031215611ab157600080fd5b5035919050565b6001600160a01b0381168114610d9757600080fd5b60008060408385031215611ae057600080fd5b8235611aeb81611ab8565b946020939093013593505050565b600080600060608486031215611b0e57600080fd5b8335611b1981611ab8565b92506020840135611b2981611ab8565b929592945050506040919091013590565b60008060408385031215611b4d57600080fd5b823591506020830135611b5f81611ab8565b809150509250929050565b600060208284031215611b7c57600080fd5b8135610b4081611ab8565b60008060408385031215611b9a57600080fd5b8235611ba581611ab8565b915060208301358015158114611b5f57600080fd5b634e487b7160e01b600052604160045260246000fd5b600067ffffffffffffffff80841115611beb57611beb611bba565b604051601f8501601f19908116603f01168101908282118183101715611c1357611c13611bba565b81604052809350858152868686011115611c2c57600080fd5b858560208301376000602087830101525050509392505050565b60008060008060808587031215611c5c57600080fd5b8435611c6781611ab8565b93506020850135611c7781611ab8565b925060408501359150606085013567ffffffffffffffff811115611c9a57600080fd5b8501601f81018713611cab57600080fd5b611cba87823560208401611bd0565b91505092959194509250565b60008060408385031215611cd957600080fd5b8235611ce481611ab8565b91506020830135611b5f81611ab8565b60008060408385031215611d0757600080fd5b82359150602083013567ffffffffffffffff811115611d2557600080fd5b8301601f81018513611d3657600080fd5b611d4585823560208401611bd0565b9150509250929050565b600181811c90821680611d6357607f821691505b602082108103611d8357634e487b7160e01b600052602260045260246000fd5b50919050565b6020808252602d908201527f4552433732313a2063616c6c6572206973206e6f7420746f6b656e206f776e6560408201526c1c881bdc88185c1c1c9bdd9959609a1b606082015260800190565b634e487b7160e01b600052603260045260246000fd5b60008351611dfe818460208801611a3c565b835190830190611e12818360208801611a3c565b01949350505050565b600060208284031215611e2d57600080fd5b8151610b4081611ab8565b601f8211156105f557600081815260208120601f850160051c81016020861015611e5f5750805b601f850160051c820191505b81811015611e7e57828155600101611e6b565b505050505050565b815167ffffffffffffffff811115611ea057611ea0611bba565b611eb481611eae8454611d4f565b84611e38565b602080601f831160018114611ee95760008415611ed15750858301515b600019600386901b1c1916600185901b178555611e7e565b600085815260208120601f198616915b82811015611f1857888601518255948401946001909101908401611ef9565b5085821015611f365787850151600019600388901b60f8161c191681555b5050505050600190811b01905550565b60208082526025908201527f4552433732313a207472616e736665722066726f6d20696e636f72726563742060408201526437bbb732b960d91b606082015260800190565b60208082526032908201527f4552433732313a207472616e7366657220746f206e6f6e20455243373231526560408201527131b2b4bb32b91034b6b83632b6b2b73a32b960711b606082015260800190565b7f416363657373436f6e74726f6c3a206163636f756e7420000000000000000000815260008351612015816017850160208801611a3c565b7001034b99036b4b9b9b4b733903937b6329607d1b6017918401918201528351612046816028840160208801611a3c565b01602801949350505050565b6001600160a01b038581168252841660208201526040810183905260806060820181905260009061208590830184611a60565b9695505050505050565b6000602082840312156120a157600080fd5b8151610b4081611a09565b634e487b7160e01b600052601160045260246000fd5b81810381811115610421576104216120ac565b634e487b7160e01b600052603160045260246000fd5b8082028115828204841417610421576104216120ac565b80820180821115610421576104216120ac565b600081612124576121246120ac565b50600019019056fea2646970667358221220124958e651b9b99195a373947bc83e32bb64be0970c7e1dec0c688a84fcf58fb64736f6c63430008110033",
  "immutableReferences": {},
  "source": "// SPDX-License-Identifier: MIT\r\npragma solidity ^0.8.7;\r\n\r\nimport \"@openzeppelin/contracts-upgradeable/token/ERC721/extensions/ERC721EnumerableUpgradeable.sol\";\r\nimport \"@openzeppelin/contracts-upgradeable/access/AccessControlUpgradeable.sol\";\r\nimport \"../DAOCore/WaningLightBase.sol\";\r\n\r\ncontract WaningLightMetadata is\r\n    ERC721EnumerableUpgradeable,\r\n    AccessControlUpgradeable\r\n{\r\n    using Strings for uint256;\r\n\r\n    bytes32 public constant ADMIN_ROLE = keccak256(\"ADMIN_ROLE\");\r\n\r\n    WaningLightBase public waningLightBase;\r\n    mapping(uint256 => string) private _tokenDetails;\r\n\r\n    function initialize(address waningLightBaseAddress) external initializer {\r\n        __ERC721Enumerable_init();\r\n        __AccessControl_init();\r\n\r\n        _grantRole(ADMIN_ROLE, msg.sender);\r\n\r\n        waningLightBase = WaningLightBase(waningLightBaseAddress);\r\n    }\r\n\r\n    function setTokenDetails(\r\n        uint256 tokenId,\r\n        string memory details\r\n    ) external onlyRole(ADMIN_ROLE) {\r\n        require(\r\n            waningLightBase.ownerOf(tokenId) == address(this),\r\n            \"Token not owned by this contract\"\r\n        );\r\n        _tokenDetails[tokenId] = details;\r\n    }\r\n\r\n    function tokenDetails(\r\n        uint256 tokenId\r\n    ) external view returns (string memory) {\r\n        return _tokenDetails[tokenId];\r\n    }\r\n\r\n    function supportsInterface(\r\n        bytes4 interfaceId\r\n    )\r\n        public\r\n        view\r\n        virtual\r\n        override(ERC721EnumerableUpgradeable, AccessControlUpgradeable)\r\n        returns (bool)\r\n    {\r\n        return super.supportsInterface(interfaceId);\r\n    }\r\n}\r\n",
  "sourcePath": "D:\\DevTools\\flkm-project\\contracts\\DAOSupport\\WaningLightMetadata.sol",
  "compiler": {
    "name": "solc",
    "version": "0.8.17+commit.8df45f5f.Emscripten.clang"
  },
  "schemaVersion": "3.4.16",
  "updatedAt": "2023-10-22T01:35:22.841Z",
  "networkType": "ethereum",
  "devdoc": {
    "kind": "dev",
    "methods": {
      "approve(address,uint256)": {
        "details": "See {IERC721-approve}."
      },
      "balanceOf(address)": {
        "details": "See {IERC721-balanceOf}."
      },
      "getApproved(uint256)": {
        "details": "See {IERC721-getApproved}."
      },
      "getRoleAdmin(bytes32)": {
        "details": "Returns the admin role that controls `role`. See {grantRole} and {revokeRole}. To change a role's admin, use {_setRoleAdmin}."
      },
      "grantRole(bytes32,address)": {
        "details": "Grants `role` to `account`. If `account` had not been already granted `role`, emits a {RoleGranted} event. Requirements: - the caller must have ``role``'s admin role. May emit a {RoleGranted} event."
      },
      "hasRole(bytes32,address)": {
        "details": "Returns `true` if `account` has been granted `role`."
      },
      "isApprovedForAll(address,address)": {
        "details": "See {IERC721-isApprovedForAll}."
      },
      "name()": {
        "details": "See {IERC721Metadata-name}."
      },
      "ownerOf(uint256)": {
        "details": "See {IERC721-ownerOf}."
      },
      "renounceRole(bytes32,address)": {
        "details": "Revokes `role` from the calling account. Roles are often managed via {grantRole} and {revokeRole}: this function's purpose is to provide a mechanism for accounts to lose their privileges if they are compromised (such as when a trusted device is misplaced). If the calling account had been revoked `role`, emits a {RoleRevoked} event. Requirements: - the caller must be `account`. May emit a {RoleRevoked} event."
      },
      "revokeRole(bytes32,address)": {
        "details": "Revokes `role` from `account`. If `account` had been granted `role`, emits a {RoleRevoked} event. Requirements: - the caller must have ``role``'s admin role. May emit a {RoleRevoked} event."
      },
      "safeTransferFrom(address,address,uint256)": {
        "details": "See {IERC721-safeTransferFrom}."
      },
      "safeTransferFrom(address,address,uint256,bytes)": {
        "details": "See {IERC721-safeTransferFrom}."
      },
      "setApprovalForAll(address,bool)": {
        "details": "See {IERC721-setApprovalForAll}."
      },
      "symbol()": {
        "details": "See {IERC721Metadata-symbol}."
      },
      "tokenByIndex(uint256)": {
        "details": "See {IERC721Enumerable-tokenByIndex}."
      },
      "tokenOfOwnerByIndex(address,uint256)": {
        "details": "See {IERC721Enumerable-tokenOfOwnerByIndex}."
      },
      "tokenURI(uint256)": {
        "details": "See {IERC721Metadata-tokenURI}."
      },
      "totalSupply()": {
        "details": "See {IERC721Enumerable-totalSupply}."
      },
      "transferFrom(address,address,uint256)": {
        "details": "See {IERC721-transferFrom}."
      }
    },
    "version": 1
  },
  "userdoc": {
    "kind": "user",
    "methods": {},
    "version": 1
  }
}